{"abi":[{"inputs":[{"internalType":"string","name":"_trustName","type":"string"},{"internalType":"address[]","name":"_users","type":"address[]"}],"name":"createTrustContract","outputs":[],"stateMutability":"nonpayable","type":"function"},{"inputs":[{"internalType":"uint256","name":"","type":"uint256"}],"name":"deployedContracts","outputs":[{"internalType":"contract EstatePlanning","name":"","type":"address"}],"stateMutability":"view","type":"function"},{"inputs":[],"name":"getAdmin","outputs":[{"internalType":"address","name":"","type":"address"}],"stateMutability":"view","type":"function"},{"inputs":[],"name":"getDeployedTrustContract","outputs":[{"internalType":"contract EstatePlanning[]","name":"","type":"address[]"}],"stateMutability":"view","type":"function"},{"inputs":[{"internalType":"address[]","name":"_users","type":"address[]"}],"name":"setAuthenticatedUsers","outputs":[],"stateMutability":"nonpayable","type":"function"}],"devdoc":{"kind":"dev","methods":{},"version":1},"evm":{"assembly":"    /* \"EstatePlanning.sol\":57:931  contract EstatePlanningFactory {... */\n  mstore(0x40, 0x80)\n  callvalue\n  dup1\n  iszero\n  tag_1\n  jumpi\n  0x00\n  dup1\n  revert\ntag_1:\n  pop\n  dataSize(sub_0)\n  dup1\n  dataOffset(sub_0)\n  0x00\n  codecopy\n  0x00\n  return\nstop\n\nsub_0: assembly {\n        /* \"EstatePlanning.sol\":57:931  contract EstatePlanningFactory {... */\n      mstore(0x40, 0x80)\n      callvalue\n      dup1\n      iszero\n      tag_1\n      jumpi\n      0x00\n      dup1\n      revert\n    tag_1:\n      pop\n      jumpi(tag_2, lt(calldatasize, 0x04))\n      shr(0xe0, calldataload(0x00))\n      dup1\n      0x15ce3647\n      eq\n      tag_3\n      jumpi\n      dup1\n      0x3d91fc62\n      eq\n      tag_4\n      jumpi\n      dup1\n      0x6e9960c3\n      eq\n      tag_5\n      jumpi\n      dup1\n      0x7d1a9435\n      eq\n      tag_6\n      jumpi\n      dup1\n      0x9ad1ee10\n      eq\n      tag_7\n      jumpi\n    tag_2:\n      0x00\n      dup1\n      revert\n        /* \"EstatePlanning.sol\":200:524  function createTrustContract(... */\n    tag_3:\n      tag_8\n      0x04\n      dup1\n      calldatasize\n      sub\n      dup2\n      add\n      swap1\n      tag_9\n      swap2\n      swap1\n      tag_10\n      jump\t// in\n    tag_9:\n      tag_11\n      jump\t// in\n    tag_8:\n      stop\n        /* \"EstatePlanning.sol\":797:929  function setAuthenticatedUsers(address[] memory _users) public {... */\n    tag_4:\n      tag_12\n      0x04\n      dup1\n      calldatasize\n      sub\n      dup2\n      add\n      swap1\n      tag_13\n      swap2\n      swap1\n      tag_14\n      jump\t// in\n    tag_13:\n      tag_15\n      jump\t// in\n    tag_12:\n      stop\n        /* \"EstatePlanning.sol\":712:791  function getAdmin() public view returns (address) {... */\n    tag_5:\n      tag_16\n      tag_17\n      jump\t// in\n    tag_16:\n      mload(0x40)\n      tag_18\n      swap2\n      swap1\n      tag_19\n      jump\t// in\n    tag_18:\n      mload(0x40)\n      dup1\n      swap2\n      sub\n      swap1\n      return\n        /* \"EstatePlanning.sol\":530:669  function getDeployedTrustContract()... */\n    tag_6:\n      tag_20\n      tag_21\n      jump\t// in\n    tag_20:\n      mload(0x40)\n      tag_22\n      swap2\n      swap1\n      tag_23\n      jump\t// in\n    tag_22:\n      mload(0x40)\n      dup1\n      swap2\n      sub\n      swap1\n      return\n        /* \"EstatePlanning.sol\":131:172  EstatePlanning[] public deployedContracts */\n    tag_7:\n      tag_24\n      0x04\n      dup1\n      calldatasize\n      sub\n      dup2\n      add\n      swap1\n      tag_25\n      swap2\n      swap1\n      tag_26\n      jump\t// in\n    tag_25:\n      tag_27\n      jump\t// in\n    tag_24:\n      mload(0x40)\n      tag_28\n      swap2\n      swap1\n      tag_29\n      jump\t// in\n    tag_28:\n      mload(0x40)\n      dup1\n      swap2\n      sub\n      swap1\n      return\n        /* \"EstatePlanning.sol\":200:524  function createTrustContract(... */\n    tag_11:\n        /* \"EstatePlanning.sol\":319:345  EstatePlanning newContract */\n      0x00\n        /* \"EstatePlanning.sol\":380:390  _trustName */\n      dup3\n        /* \"EstatePlanning.sol\":404:414  msg.sender */\n      caller\n        /* \"EstatePlanning.sol\":428:434  _users */\n      dup4\n        /* \"EstatePlanning.sol\":348:444  new EstatePlanning(... */\n      mload(0x40)\n      tag_31\n      swap1\n      tag_32\n      jump\t// in\n    tag_31:\n      tag_33\n      swap4\n      swap3\n      swap2\n      swap1\n      tag_34\n      jump\t// in\n    tag_33:\n      mload(0x40)\n      dup1\n      swap2\n      sub\n      swap1\n      0x00\n      create\n      dup1\n      iszero\n      dup1\n      iszero\n      tag_35\n      jumpi\n      returndatasize\n      0x00\n      dup1\n      returndatacopy\n      revert(0x00, returndatasize)\n    tag_35:\n      pop\n        /* \"EstatePlanning.sol\":319:444  EstatePlanning newContract = new EstatePlanning(... */\n      swap1\n      pop\n        /* \"EstatePlanning.sol\":462:472  msg.sender */\n      caller\n        /* \"EstatePlanning.sol\":454:459  admin */\n      0x00\n      dup1\n        /* \"EstatePlanning.sol\":454:472  admin = msg.sender */\n      0x0100\n      exp\n      dup2\n      sload\n      dup2\n      0xffffffffffffffffffffffffffffffffffffffff\n      mul\n      not\n      and\n      swap1\n      dup4\n      0xffffffffffffffffffffffffffffffffffffffff\n      and\n      mul\n      or\n      swap1\n      sstore\n      pop\n        /* \"EstatePlanning.sol\":482:499  deployedContracts */\n      0x01\n        /* \"EstatePlanning.sol\":505:516  newContract */\n      dup2\n        /* \"EstatePlanning.sol\":482:517  deployedContracts.push(newContract) */\n      swap1\n      dup1\n      0x01\n      dup2\n      sload\n      add\n      dup1\n      dup3\n      sstore\n      dup1\n      swap2\n      pop\n      pop\n      0x01\n      swap1\n      sub\n      swap1\n      0x00\n      mstore\n      keccak256(0x00, 0x20)\n      add\n      0x00\n      swap1\n      swap2\n      swap1\n      swap2\n      swap1\n      swap2\n      0x0100\n      exp\n      dup2\n      sload\n      dup2\n      0xffffffffffffffffffffffffffffffffffffffff\n      mul\n      not\n      and\n      swap1\n      dup4\n      0xffffffffffffffffffffffffffffffffffffffff\n      and\n      mul\n      or\n      swap1\n      sstore\n      pop\n        /* \"EstatePlanning.sol\":309:524  {... */\n      pop\n        /* \"EstatePlanning.sol\":200:524  function createTrustContract(... */\n      pop\n      pop\n      jump\t// out\n        /* \"EstatePlanning.sol\":797:929  function setAuthenticatedUsers(address[] memory _users) public {... */\n    tag_15:\n        /* \"EstatePlanning.sol\":887:897  msg.sender */\n      caller\n        /* \"EstatePlanning.sol\":878:897  admin == msg.sender */\n      0xffffffffffffffffffffffffffffffffffffffff\n      and\n        /* \"EstatePlanning.sol\":878:883  admin */\n      0x00\n      dup1\n      sload\n      swap1\n      0x0100\n      exp\n      swap1\n      div\n      0xffffffffffffffffffffffffffffffffffffffff\n      and\n        /* \"EstatePlanning.sol\":878:897  admin == msg.sender */\n      0xffffffffffffffffffffffffffffffffffffffff\n      and\n      eq\n        /* \"EstatePlanning.sol\":870:898  require(admin == msg.sender) */\n      tag_38\n      jumpi\n      0x00\n      dup1\n      revert\n    tag_38:\n        /* \"EstatePlanning.sol\":916:922  _users */\n      dup1\n        /* \"EstatePlanning.sol\":908:913  users */\n      0x02\n        /* \"EstatePlanning.sol\":908:922  users = _users */\n      swap1\n      dup1\n      mload\n      swap1\n      0x20\n      add\n      swap1\n      tag_39\n      swap3\n      swap2\n      swap1\n      tag_40\n      jump\t// in\n    tag_39:\n      pop\n        /* \"EstatePlanning.sol\":797:929  function setAuthenticatedUsers(address[] memory _users) public {... */\n      pop\n      jump\t// out\n        /* \"EstatePlanning.sol\":712:791  function getAdmin() public view returns (address) {... */\n    tag_17:\n        /* \"EstatePlanning.sol\":753:760  address */\n      0x00\n        /* \"EstatePlanning.sol\":779:784  admin */\n      dup1\n      0x00\n      swap1\n      sload\n      swap1\n      0x0100\n      exp\n      swap1\n      div\n      0xffffffffffffffffffffffffffffffffffffffff\n      and\n        /* \"EstatePlanning.sol\":772:784  return admin */\n      swap1\n      pop\n        /* \"EstatePlanning.sol\":712:791  function getAdmin() public view returns (address) {... */\n      swap1\n      jump\t// out\n        /* \"EstatePlanning.sol\":530:669  function getDeployedTrustContract()... */\n    tag_21:\n        /* \"EstatePlanning.sol\":599:622  EstatePlanning[] memory */\n      0x60\n        /* \"EstatePlanning.sol\":645:662  deployedContracts */\n      0x01\n        /* \"EstatePlanning.sol\":638:662  return deployedContracts */\n      dup1\n      sload\n      dup1\n      0x20\n      mul\n      0x20\n      add\n      mload(0x40)\n      swap1\n      dup2\n      add\n      0x40\n      mstore\n      dup1\n      swap3\n      swap2\n      swap1\n      dup2\n      dup2\n      mstore\n      0x20\n      add\n      dup3\n      dup1\n      sload\n      dup1\n      iszero\n      tag_43\n      jumpi\n      0x20\n      mul\n      dup3\n      add\n      swap2\n      swap1\n      0x00\n      mstore\n      keccak256(0x00, 0x20)\n      swap1\n    tag_44:\n      dup2\n      0x00\n      swap1\n      sload\n      swap1\n      0x0100\n      exp\n      swap1\n      div\n      0xffffffffffffffffffffffffffffffffffffffff\n      and\n      0xffffffffffffffffffffffffffffffffffffffff\n      and\n      dup2\n      mstore\n      0x20\n      add\n      swap1\n      0x01\n      add\n      swap1\n      dup1\n      dup4\n      gt\n      tag_44\n      jumpi\n    tag_43:\n      pop\n      pop\n      pop\n      pop\n      pop\n      swap1\n      pop\n        /* \"EstatePlanning.sol\":530:669  function getDeployedTrustContract()... */\n      swap1\n      jump\t// out\n        /* \"EstatePlanning.sol\":131:172  EstatePlanning[] public deployedContracts */\n    tag_27:\n      0x01\n      dup2\n      dup2\n      sload\n      dup2\n      lt\n      tag_45\n      jumpi\n      0x00\n      dup1\n      revert\n    tag_45:\n      swap1\n      0x00\n      mstore\n      keccak256(0x00, 0x20)\n      add\n      0x00\n      swap2\n      pop\n      sload\n      swap1\n      0x0100\n      exp\n      swap1\n      div\n      0xffffffffffffffffffffffffffffffffffffffff\n      and\n      dup2\n      jump\t// out\n    tag_32:\n      dataSize(sub_0)\n      dup1\n      dataOffset(sub_0)\n      dup4\n      codecopy\n      add\n      swap1\n      jump\t// out\n    tag_40:\n      dup3\n      dup1\n      sload\n      dup3\n      dup3\n      sstore\n      swap1\n      0x00\n      mstore\n      keccak256(0x00, 0x20)\n      swap1\n      dup2\n      add\n      swap3\n      dup3\n      iszero\n      tag_47\n      jumpi\n      swap2\n      0x20\n      mul\n      dup3\n      add\n    tag_48:\n      dup3\n      dup2\n      gt\n      iszero\n      tag_49\n      jumpi\n      dup3\n      mload\n      dup3\n      exp(0x0100, 0x00)\n      dup2\n      sload\n      dup2\n      0xffffffffffffffffffffffffffffffffffffffff\n      mul\n      not\n      and\n      swap1\n      dup4\n      0xffffffffffffffffffffffffffffffffffffffff\n      and\n      mul\n      or\n      swap1\n      sstore\n      pop\n      swap2\n      0x20\n      add\n      swap2\n      swap1\n      0x01\n      add\n      swap1\n      jump(tag_48)\n    tag_49:\n    tag_47:\n      pop\n      swap1\n      pop\n      tag_50\n      swap2\n      swap1\n      tag_51\n      jump\t// in\n    tag_50:\n      pop\n      swap1\n      jump\t// out\n    tag_51:\n    tag_52:\n      dup1\n      dup3\n      gt\n      iszero\n      tag_53\n      jumpi\n      0x00\n      dup2\n      0x00\n      swap1\n      sstore\n      pop\n      0x01\n      add\n      jump(tag_52)\n    tag_53:\n      pop\n      swap1\n      jump\t// out\n        /* \"#utility.yul\":7:82   */\n    tag_54:\n        /* \"#utility.yul\":40:46   */\n      0x00\n        /* \"#utility.yul\":73:75   */\n      0x40\n        /* \"#utility.yul\":67:76   */\n      mload\n        /* \"#utility.yul\":57:76   */\n      swap1\n      pop\n        /* \"#utility.yul\":7:82   */\n      swap1\n      jump\t// out\n        /* \"#utility.yul\":88:205   */\n    tag_55:\n        /* \"#utility.yul\":197:198   */\n      0x00\n        /* \"#utility.yul\":194:195   */\n      dup1\n        /* \"#utility.yul\":187:199   */\n      revert\n        /* \"#utility.yul\":211:328   */\n    tag_56:\n        /* \"#utility.yul\":320:321   */\n      0x00\n        /* \"#utility.yul\":317:318   */\n      dup1\n        /* \"#utility.yul\":310:322   */\n      revert\n        /* \"#utility.yul\":334:451   */\n    tag_57:\n        /* \"#utility.yul\":443:444   */\n      0x00\n        /* \"#utility.yul\":440:441   */\n      dup1\n        /* \"#utility.yul\":433:445   */\n      revert\n        /* \"#utility.yul\":457:574   */\n    tag_58:\n        /* \"#utility.yul\":566:567   */\n      0x00\n        /* \"#utility.yul\":563:564   */\n      dup1\n        /* \"#utility.yul\":556:568   */\n      revert\n        /* \"#utility.yul\":580:682   */\n    tag_59:\n        /* \"#utility.yul\":621:627   */\n      0x00\n        /* \"#utility.yul\":672:674   */\n      0x1f\n        /* \"#utility.yul\":668:675   */\n      not\n        /* \"#utility.yul\":663:665   */\n      0x1f\n        /* \"#utility.yul\":656:661   */\n      dup4\n        /* \"#utility.yul\":652:666   */\n      add\n        /* \"#utility.yul\":648:676   */\n      and\n        /* \"#utility.yul\":638:676   */\n      swap1\n      pop\n        /* \"#utility.yul\":580:682   */\n      swap2\n      swap1\n      pop\n      jump\t// out\n        /* \"#utility.yul\":688:868   */\n    tag_60:\n        /* \"#utility.yul\":736:813   */\n      0x4e487b7100000000000000000000000000000000000000000000000000000000\n        /* \"#utility.yul\":733:734   */\n      0x00\n        /* \"#utility.yul\":726:814   */\n      mstore\n        /* \"#utility.yul\":833:837   */\n      0x41\n        /* \"#utility.yul\":830:831   */\n      0x04\n        /* \"#utility.yul\":823:838   */\n      mstore\n        /* \"#utility.yul\":857:861   */\n      0x24\n        /* \"#utility.yul\":854:855   */\n      0x00\n        /* \"#utility.yul\":847:862   */\n      revert\n        /* \"#utility.yul\":874:1155   */\n    tag_61:\n        /* \"#utility.yul\":957:984   */\n      tag_110\n        /* \"#utility.yul\":979:983   */\n      dup3\n        /* \"#utility.yul\":957:984   */\n      tag_59\n      jump\t// in\n    tag_110:\n        /* \"#utility.yul\":949:955   */\n      dup2\n        /* \"#utility.yul\":945:985   */\n      add\n        /* \"#utility.yul\":1087:1093   */\n      dup2\n        /* \"#utility.yul\":1075:1085   */\n      dup2\n        /* \"#utility.yul\":1072:1094   */\n      lt\n        /* \"#utility.yul\":1051:1069   */\n      0xffffffffffffffff\n        /* \"#utility.yul\":1039:1049   */\n      dup3\n        /* \"#utility.yul\":1036:1070   */\n      gt\n        /* \"#utility.yul\":1033:1095   */\n      or\n        /* \"#utility.yul\":1030:1118   */\n      iszero\n      tag_111\n      jumpi\n        /* \"#utility.yul\":1098:1116   */\n      tag_112\n      tag_60\n      jump\t// in\n    tag_112:\n        /* \"#utility.yul\":1030:1118   */\n    tag_111:\n        /* \"#utility.yul\":1138:1148   */\n      dup1\n        /* \"#utility.yul\":1134:1136   */\n      0x40\n        /* \"#utility.yul\":1127:1149   */\n      mstore\n        /* \"#utility.yul\":917:1155   */\n      pop\n        /* \"#utility.yul\":874:1155   */\n      pop\n      pop\n      jump\t// out\n        /* \"#utility.yul\":1161:1290   */\n    tag_62:\n        /* \"#utility.yul\":1195:1201   */\n      0x00\n        /* \"#utility.yul\":1222:1242   */\n      tag_114\n      tag_54\n      jump\t// in\n    tag_114:\n        /* \"#utility.yul\":1212:1242   */\n      swap1\n      pop\n        /* \"#utility.yul\":1251:1284   */\n      tag_115\n        /* \"#utility.yul\":1279:1283   */\n      dup3\n        /* \"#utility.yul\":1271:1277   */\n      dup3\n        /* \"#utility.yul\":1251:1284   */\n      tag_61\n      jump\t// in\n    tag_115:\n        /* \"#utility.yul\":1161:1290   */\n      swap2\n      swap1\n      pop\n      jump\t// out\n        /* \"#utility.yul\":1296:1604   */\n    tag_63:\n        /* \"#utility.yul\":1358:1362   */\n      0x00\n        /* \"#utility.yul\":1448:1466   */\n      0xffffffffffffffff\n        /* \"#utility.yul\":1440:1446   */\n      dup3\n        /* \"#utility.yul\":1437:1467   */\n      gt\n        /* \"#utility.yul\":1434:1490   */\n      iszero\n      tag_117\n      jumpi\n        /* \"#utility.yul\":1470:1488   */\n      tag_118\n      tag_60\n      jump\t// in\n    tag_118:\n        /* \"#utility.yul\":1434:1490   */\n    tag_117:\n        /* \"#utility.yul\":1508:1537   */\n      tag_119\n        /* \"#utility.yul\":1530:1536   */\n      dup3\n        /* \"#utility.yul\":1508:1537   */\n      tag_59\n      jump\t// in\n    tag_119:\n        /* \"#utility.yul\":1500:1537   */\n      swap1\n      pop\n        /* \"#utility.yul\":1592:1596   */\n      0x20\n        /* \"#utility.yul\":1586:1590   */\n      dup2\n        /* \"#utility.yul\":1582:1597   */\n      add\n        /* \"#utility.yul\":1574:1597   */\n      swap1\n      pop\n        /* \"#utility.yul\":1296:1604   */\n      swap2\n      swap1\n      pop\n      jump\t// out\n        /* \"#utility.yul\":1610:1756   */\n    tag_64:\n        /* \"#utility.yul\":1707:1713   */\n      dup3\n        /* \"#utility.yul\":1702:1705   */\n      dup2\n        /* \"#utility.yul\":1697:1700   */\n      dup4\n        /* \"#utility.yul\":1684:1714   */\n      calldatacopy\n        /* \"#utility.yul\":1748:1749   */\n      0x00\n        /* \"#utility.yul\":1739:1745   */\n      dup4\n        /* \"#utility.yul\":1734:1737   */\n      dup4\n        /* \"#utility.yul\":1730:1746   */\n      add\n        /* \"#utility.yul\":1723:1750   */\n      mstore\n        /* \"#utility.yul\":1610:1756   */\n      pop\n      pop\n      pop\n      jump\t// out\n        /* \"#utility.yul\":1762:2187   */\n    tag_65:\n        /* \"#utility.yul\":1840:1845   */\n      0x00\n        /* \"#utility.yul\":1865:1931   */\n      tag_122\n        /* \"#utility.yul\":1881:1930   */\n      tag_123\n        /* \"#utility.yul\":1923:1929   */\n      dup5\n        /* \"#utility.yul\":1881:1930   */\n      tag_63\n      jump\t// in\n    tag_123:\n        /* \"#utility.yul\":1865:1931   */\n      tag_62\n      jump\t// in\n    tag_122:\n        /* \"#utility.yul\":1856:1931   */\n      swap1\n      pop\n        /* \"#utility.yul\":1954:1960   */\n      dup3\n        /* \"#utility.yul\":1947:1952   */\n      dup2\n        /* \"#utility.yul\":1940:1961   */\n      mstore\n        /* \"#utility.yul\":1992:1996   */\n      0x20\n        /* \"#utility.yul\":1985:1990   */\n      dup2\n        /* \"#utility.yul\":1981:1997   */\n      add\n        /* \"#utility.yul\":2030:2033   */\n      dup5\n        /* \"#utility.yul\":2021:2027   */\n      dup5\n        /* \"#utility.yul\":2016:2019   */\n      dup5\n        /* \"#utility.yul\":2012:2028   */\n      add\n        /* \"#utility.yul\":2009:2034   */\n      gt\n        /* \"#utility.yul\":2006:2118   */\n      iszero\n      tag_124\n      jumpi\n        /* \"#utility.yul\":2037:2116   */\n      tag_125\n      tag_58\n      jump\t// in\n    tag_125:\n        /* \"#utility.yul\":2006:2118   */\n    tag_124:\n        /* \"#utility.yul\":2127:2181   */\n      tag_126\n        /* \"#utility.yul\":2174:2180   */\n      dup5\n        /* \"#utility.yul\":2169:2172   */\n      dup3\n        /* \"#utility.yul\":2164:2167   */\n      dup6\n        /* \"#utility.yul\":2127:2181   */\n      tag_64\n      jump\t// in\n    tag_126:\n        /* \"#utility.yul\":1846:2187   */\n      pop\n        /* \"#utility.yul\":1762:2187   */\n      swap4\n      swap3\n      pop\n      pop\n      pop\n      jump\t// out\n        /* \"#utility.yul\":2207:2547   */\n    tag_66:\n        /* \"#utility.yul\":2263:2268   */\n      0x00\n        /* \"#utility.yul\":2312:2315   */\n      dup3\n        /* \"#utility.yul\":2305:2309   */\n      0x1f\n        /* \"#utility.yul\":2297:2303   */\n      dup4\n        /* \"#utility.yul\":2293:2310   */\n      add\n        /* \"#utility.yul\":2289:2316   */\n      slt\n        /* \"#utility.yul\":2279:2401   */\n      tag_128\n      jumpi\n        /* \"#utility.yul\":2320:2399   */\n      tag_129\n      tag_57\n      jump\t// in\n    tag_129:\n        /* \"#utility.yul\":2279:2401   */\n    tag_128:\n        /* \"#utility.yul\":2437:2443   */\n      dup2\n        /* \"#utility.yul\":2424:2444   */\n      calldataload\n        /* \"#utility.yul\":2462:2541   */\n      tag_130\n        /* \"#utility.yul\":2537:2540   */\n      dup5\n        /* \"#utility.yul\":2529:2535   */\n      dup3\n        /* \"#utility.yul\":2522:2526   */\n      0x20\n        /* \"#utility.yul\":2514:2520   */\n      dup7\n        /* \"#utility.yul\":2510:2527   */\n      add\n        /* \"#utility.yul\":2462:2541   */\n      tag_65\n      jump\t// in\n    tag_130:\n        /* \"#utility.yul\":2453:2541   */\n      swap2\n      pop\n        /* \"#utility.yul\":2269:2547   */\n      pop\n        /* \"#utility.yul\":2207:2547   */\n      swap3\n      swap2\n      pop\n      pop\n      jump\t// out\n        /* \"#utility.yul\":2553:2864   */\n    tag_67:\n        /* \"#utility.yul\":2630:2634   */\n      0x00\n        /* \"#utility.yul\":2720:2738   */\n      0xffffffffffffffff\n        /* \"#utility.yul\":2712:2718   */\n      dup3\n        /* \"#utility.yul\":2709:2739   */\n      gt\n        /* \"#utility.yul\":2706:2762   */\n      iszero\n      tag_132\n      jumpi\n        /* \"#utility.yul\":2742:2760   */\n      tag_133\n      tag_60\n      jump\t// in\n    tag_133:\n        /* \"#utility.yul\":2706:2762   */\n    tag_132:\n        /* \"#utility.yul\":2792:2796   */\n      0x20\n        /* \"#utility.yul\":2784:2790   */\n      dup3\n        /* \"#utility.yul\":2780:2797   */\n      mul\n        /* \"#utility.yul\":2772:2797   */\n      swap1\n      pop\n        /* \"#utility.yul\":2852:2856   */\n      0x20\n        /* \"#utility.yul\":2846:2850   */\n      dup2\n        /* \"#utility.yul\":2842:2857   */\n      add\n        /* \"#utility.yul\":2834:2857   */\n      swap1\n      pop\n        /* \"#utility.yul\":2553:2864   */\n      swap2\n      swap1\n      pop\n      jump\t// out\n        /* \"#utility.yul\":2870:2987   */\n    tag_68:\n        /* \"#utility.yul\":2979:2980   */\n      0x00\n        /* \"#utility.yul\":2976:2977   */\n      dup1\n        /* \"#utility.yul\":2969:2981   */\n      revert\n        /* \"#utility.yul\":2993:3119   */\n    tag_69:\n        /* \"#utility.yul\":3030:3037   */\n      0x00\n        /* \"#utility.yul\":3070:3112   */\n      0xffffffffffffffffffffffffffffffffffffffff\n        /* \"#utility.yul\":3063:3068   */\n      dup3\n        /* \"#utility.yul\":3059:3113   */\n      and\n        /* \"#utility.yul\":3048:3113   */\n      swap1\n      pop\n        /* \"#utility.yul\":2993:3119   */\n      swap2\n      swap1\n      pop\n      jump\t// out\n        /* \"#utility.yul\":3125:3221   */\n    tag_70:\n        /* \"#utility.yul\":3162:3169   */\n      0x00\n        /* \"#utility.yul\":3191:3215   */\n      tag_137\n        /* \"#utility.yul\":3209:3214   */\n      dup3\n        /* \"#utility.yul\":3191:3215   */\n      tag_69\n      jump\t// in\n    tag_137:\n        /* \"#utility.yul\":3180:3215   */\n      swap1\n      pop\n        /* \"#utility.yul\":3125:3221   */\n      swap2\n      swap1\n      pop\n      jump\t// out\n        /* \"#utility.yul\":3227:3349   */\n    tag_71:\n        /* \"#utility.yul\":3300:3324   */\n      tag_139\n        /* \"#utility.yul\":3318:3323   */\n      dup2\n        /* \"#utility.yul\":3300:3324   */\n      tag_70\n      jump\t// in\n    tag_139:\n        /* \"#utility.yul\":3293:3298   */\n      dup2\n        /* \"#utility.yul\":3290:3325   */\n      eq\n        /* \"#utility.yul\":3280:3343   */\n      tag_140\n      jumpi\n        /* \"#utility.yul\":3339:3340   */\n      0x00\n        /* \"#utility.yul\":3336:3337   */\n      dup1\n        /* \"#utility.yul\":3329:3341   */\n      revert\n        /* \"#utility.yul\":3280:3343   */\n    tag_140:\n        /* \"#utility.yul\":3227:3349   */\n      pop\n      jump\t// out\n        /* \"#utility.yul\":3355:3494   */\n    tag_72:\n        /* \"#utility.yul\":3401:3406   */\n      0x00\n        /* \"#utility.yul\":3439:3445   */\n      dup2\n        /* \"#utility.yul\":3426:3446   */\n      calldataload\n        /* \"#utility.yul\":3417:3446   */\n      swap1\n      pop\n        /* \"#utility.yul\":3455:3488   */\n      tag_142\n        /* \"#utility.yul\":3482:3487   */\n      dup2\n        /* \"#utility.yul\":3455:3488   */\n      tag_71\n      jump\t// in\n    tag_142:\n        /* \"#utility.yul\":3355:3494   */\n      swap3\n      swap2\n      pop\n      pop\n      jump\t// out\n        /* \"#utility.yul\":3517:4227   */\n    tag_73:\n        /* \"#utility.yul\":3613:3618   */\n      0x00\n        /* \"#utility.yul\":3638:3719   */\n      tag_144\n        /* \"#utility.yul\":3654:3718   */\n      tag_145\n        /* \"#utility.yul\":3711:3717   */\n      dup5\n        /* \"#utility.yul\":3654:3718   */\n      tag_67\n      jump\t// in\n    tag_145:\n        /* \"#utility.yul\":3638:3719   */\n      tag_62\n      jump\t// in\n    tag_144:\n        /* \"#utility.yul\":3629:3719   */\n      swap1\n      pop\n        /* \"#utility.yul\":3739:3744   */\n      dup1\n        /* \"#utility.yul\":3768:3774   */\n      dup4\n        /* \"#utility.yul\":3761:3766   */\n      dup3\n        /* \"#utility.yul\":3754:3775   */\n      mstore\n        /* \"#utility.yul\":3802:3806   */\n      0x20\n        /* \"#utility.yul\":3795:3800   */\n      dup3\n        /* \"#utility.yul\":3791:3807   */\n      add\n        /* \"#utility.yul\":3784:3807   */\n      swap1\n      pop\n        /* \"#utility.yul\":3855:3859   */\n      0x20\n        /* \"#utility.yul\":3847:3853   */\n      dup5\n        /* \"#utility.yul\":3843:3860   */\n      mul\n        /* \"#utility.yul\":3835:3841   */\n      dup4\n        /* \"#utility.yul\":3831:3861   */\n      add\n        /* \"#utility.yul\":3884:3887   */\n      dup6\n        /* \"#utility.yul\":3876:3882   */\n      dup2\n        /* \"#utility.yul\":3873:3888   */\n      gt\n        /* \"#utility.yul\":3870:3992   */\n      iszero\n      tag_146\n      jumpi\n        /* \"#utility.yul\":3903:3982   */\n      tag_147\n      tag_68\n      jump\t// in\n    tag_147:\n        /* \"#utility.yul\":3870:3992   */\n    tag_146:\n        /* \"#utility.yul\":4018:4024   */\n      dup4\n        /* \"#utility.yul\":4001:4221   */\n    tag_148:\n        /* \"#utility.yul\":4035:4041   */\n      dup2\n        /* \"#utility.yul\":4030:4033   */\n      dup2\n        /* \"#utility.yul\":4027:4042   */\n      lt\n        /* \"#utility.yul\":4001:4221   */\n      iszero\n      tag_150\n      jumpi\n        /* \"#utility.yul\":4110:4113   */\n      dup1\n        /* \"#utility.yul\":4139:4176   */\n      tag_151\n        /* \"#utility.yul\":4172:4175   */\n      dup9\n        /* \"#utility.yul\":4160:4170   */\n      dup3\n        /* \"#utility.yul\":4139:4176   */\n      tag_72\n      jump\t// in\n    tag_151:\n        /* \"#utility.yul\":4134:4137   */\n      dup5\n        /* \"#utility.yul\":4127:4177   */\n      mstore\n        /* \"#utility.yul\":4206:4210   */\n      0x20\n        /* \"#utility.yul\":4201:4204   */\n      dup5\n        /* \"#utility.yul\":4197:4211   */\n      add\n        /* \"#utility.yul\":4190:4211   */\n      swap4\n      pop\n        /* \"#utility.yul\":4077:4221   */\n      pop\n        /* \"#utility.yul\":4061:4065   */\n      0x20\n        /* \"#utility.yul\":4056:4059   */\n      dup2\n        /* \"#utility.yul\":4052:4066   */\n      add\n        /* \"#utility.yul\":4045:4066   */\n      swap1\n      pop\n        /* \"#utility.yul\":4001:4221   */\n      jump(tag_148)\n    tag_150:\n        /* \"#utility.yul\":4005:4026   */\n      pop\n        /* \"#utility.yul\":3619:4227   */\n      pop\n      pop\n        /* \"#utility.yul\":3517:4227   */\n      swap4\n      swap3\n      pop\n      pop\n      pop\n      jump\t// out\n        /* \"#utility.yul\":4250:4620   */\n    tag_74:\n        /* \"#utility.yul\":4321:4326   */\n      0x00\n        /* \"#utility.yul\":4370:4373   */\n      dup3\n        /* \"#utility.yul\":4363:4367   */\n      0x1f\n        /* \"#utility.yul\":4355:4361   */\n      dup4\n        /* \"#utility.yul\":4351:4368   */\n      add\n        /* \"#utility.yul\":4347:4374   */\n      slt\n        /* \"#utility.yul\":4337:4459   */\n      tag_153\n      jumpi\n        /* \"#utility.yul\":4378:4457   */\n      tag_154\n      tag_57\n      jump\t// in\n    tag_154:\n        /* \"#utility.yul\":4337:4459   */\n    tag_153:\n        /* \"#utility.yul\":4495:4501   */\n      dup2\n        /* \"#utility.yul\":4482:4502   */\n      calldataload\n        /* \"#utility.yul\":4520:4614   */\n      tag_155\n        /* \"#utility.yul\":4610:4613   */\n      dup5\n        /* \"#utility.yul\":4602:4608   */\n      dup3\n        /* \"#utility.yul\":4595:4599   */\n      0x20\n        /* \"#utility.yul\":4587:4593   */\n      dup7\n        /* \"#utility.yul\":4583:4600   */\n      add\n        /* \"#utility.yul\":4520:4614   */\n      tag_73\n      jump\t// in\n    tag_155:\n        /* \"#utility.yul\":4511:4614   */\n      swap2\n      pop\n        /* \"#utility.yul\":4327:4620   */\n      pop\n        /* \"#utility.yul\":4250:4620   */\n      swap3\n      swap2\n      pop\n      pop\n      jump\t// out\n        /* \"#utility.yul\":4626:5490   */\n    tag_10:\n        /* \"#utility.yul\":4729:4735   */\n      0x00\n        /* \"#utility.yul\":4737:4743   */\n      dup1\n        /* \"#utility.yul\":4786:4788   */\n      0x40\n        /* \"#utility.yul\":4774:4783   */\n      dup4\n        /* \"#utility.yul\":4765:4772   */\n      dup6\n        /* \"#utility.yul\":4761:4784   */\n      sub\n        /* \"#utility.yul\":4757:4789   */\n      slt\n        /* \"#utility.yul\":4754:4873   */\n      iszero\n      tag_157\n      jumpi\n        /* \"#utility.yul\":4792:4871   */\n      tag_158\n      tag_55\n      jump\t// in\n    tag_158:\n        /* \"#utility.yul\":4754:4873   */\n    tag_157:\n        /* \"#utility.yul\":4940:4941   */\n      0x00\n        /* \"#utility.yul\":4929:4938   */\n      dup4\n        /* \"#utility.yul\":4925:4942   */\n      add\n        /* \"#utility.yul\":4912:4943   */\n      calldataload\n        /* \"#utility.yul\":4970:4988   */\n      0xffffffffffffffff\n        /* \"#utility.yul\":4962:4968   */\n      dup2\n        /* \"#utility.yul\":4959:4989   */\n      gt\n        /* \"#utility.yul\":4956:5073   */\n      iszero\n      tag_159\n      jumpi\n        /* \"#utility.yul\":4992:5071   */\n      tag_160\n      tag_56\n      jump\t// in\n    tag_160:\n        /* \"#utility.yul\":4956:5073   */\n    tag_159:\n        /* \"#utility.yul\":5097:5160   */\n      tag_161\n        /* \"#utility.yul\":5152:5159   */\n      dup6\n        /* \"#utility.yul\":5143:5149   */\n      dup3\n        /* \"#utility.yul\":5132:5141   */\n      dup7\n        /* \"#utility.yul\":5128:5150   */\n      add\n        /* \"#utility.yul\":5097:5160   */\n      tag_66\n      jump\t// in\n    tag_161:\n        /* \"#utility.yul\":5087:5160   */\n      swap3\n      pop\n        /* \"#utility.yul\":4883:5170   */\n      pop\n        /* \"#utility.yul\":5237:5239   */\n      0x20\n        /* \"#utility.yul\":5226:5235   */\n      dup4\n        /* \"#utility.yul\":5222:5240   */\n      add\n        /* \"#utility.yul\":5209:5241   */\n      calldataload\n        /* \"#utility.yul\":5268:5286   */\n      0xffffffffffffffff\n        /* \"#utility.yul\":5260:5266   */\n      dup2\n        /* \"#utility.yul\":5257:5287   */\n      gt\n        /* \"#utility.yul\":5254:5371   */\n      iszero\n      tag_162\n      jumpi\n        /* \"#utility.yul\":5290:5369   */\n      tag_163\n      tag_56\n      jump\t// in\n    tag_163:\n        /* \"#utility.yul\":5254:5371   */\n    tag_162:\n        /* \"#utility.yul\":5395:5473   */\n      tag_164\n        /* \"#utility.yul\":5465:5472   */\n      dup6\n        /* \"#utility.yul\":5456:5462   */\n      dup3\n        /* \"#utility.yul\":5445:5454   */\n      dup7\n        /* \"#utility.yul\":5441:5463   */\n      add\n        /* \"#utility.yul\":5395:5473   */\n      tag_74\n      jump\t// in\n    tag_164:\n        /* \"#utility.yul\":5385:5473   */\n      swap2\n      pop\n        /* \"#utility.yul\":5180:5483   */\n      pop\n        /* \"#utility.yul\":4626:5490   */\n      swap3\n      pop\n      swap3\n      swap1\n      pop\n      jump\t// out\n        /* \"#utility.yul\":5496:6035   */\n    tag_14:\n        /* \"#utility.yul\":5580:5586   */\n      0x00\n        /* \"#utility.yul\":5629:5631   */\n      0x20\n        /* \"#utility.yul\":5617:5626   */\n      dup3\n        /* \"#utility.yul\":5608:5615   */\n      dup5\n        /* \"#utility.yul\":5604:5627   */\n      sub\n        /* \"#utility.yul\":5600:5632   */\n      slt\n        /* \"#utility.yul\":5597:5716   */\n      iszero\n      tag_166\n      jumpi\n        /* \"#utility.yul\":5635:5714   */\n      tag_167\n      tag_55\n      jump\t// in\n    tag_167:\n        /* \"#utility.yul\":5597:5716   */\n    tag_166:\n        /* \"#utility.yul\":5783:5784   */\n      0x00\n        /* \"#utility.yul\":5772:5781   */\n      dup3\n        /* \"#utility.yul\":5768:5785   */\n      add\n        /* \"#utility.yul\":5755:5786   */\n      calldataload\n        /* \"#utility.yul\":5813:5831   */\n      0xffffffffffffffff\n        /* \"#utility.yul\":5805:5811   */\n      dup2\n        /* \"#utility.yul\":5802:5832   */\n      gt\n        /* \"#utility.yul\":5799:5916   */\n      iszero\n      tag_168\n      jumpi\n        /* \"#utility.yul\":5835:5914   */\n      tag_169\n      tag_56\n      jump\t// in\n    tag_169:\n        /* \"#utility.yul\":5799:5916   */\n    tag_168:\n        /* \"#utility.yul\":5940:6018   */\n      tag_170\n        /* \"#utility.yul\":6010:6017   */\n      dup5\n        /* \"#utility.yul\":6001:6007   */\n      dup3\n        /* \"#utility.yul\":5990:5999   */\n      dup6\n        /* \"#utility.yul\":5986:6008   */\n      add\n        /* \"#utility.yul\":5940:6018   */\n      tag_74\n      jump\t// in\n    tag_170:\n        /* \"#utility.yul\":5930:6018   */\n      swap2\n      pop\n        /* \"#utility.yul\":5726:6028   */\n      pop\n        /* \"#utility.yul\":5496:6035   */\n      swap3\n      swap2\n      pop\n      pop\n      jump\t// out\n        /* \"#utility.yul\":6041:6159   */\n    tag_75:\n        /* \"#utility.yul\":6128:6152   */\n      tag_172\n        /* \"#utility.yul\":6146:6151   */\n      dup2\n        /* \"#utility.yul\":6128:6152   */\n      tag_70\n      jump\t// in\n    tag_172:\n        /* \"#utility.yul\":6123:6126   */\n      dup3\n        /* \"#utility.yul\":6116:6153   */\n      mstore\n        /* \"#utility.yul\":6041:6159   */\n      pop\n      pop\n      jump\t// out\n        /* \"#utility.yul\":6165:6387   */\n    tag_19:\n        /* \"#utility.yul\":6258:6262   */\n      0x00\n        /* \"#utility.yul\":6296:6298   */\n      0x20\n        /* \"#utility.yul\":6285:6294   */\n      dup3\n        /* \"#utility.yul\":6281:6299   */\n      add\n        /* \"#utility.yul\":6273:6299   */\n      swap1\n      pop\n        /* \"#utility.yul\":6309:6380   */\n      tag_174\n        /* \"#utility.yul\":6377:6378   */\n      0x00\n        /* \"#utility.yul\":6366:6375   */\n      dup4\n        /* \"#utility.yul\":6362:6379   */\n      add\n        /* \"#utility.yul\":6353:6359   */\n      dup5\n        /* \"#utility.yul\":6309:6380   */\n      tag_75\n      jump\t// in\n    tag_174:\n        /* \"#utility.yul\":6165:6387   */\n      swap3\n      swap2\n      pop\n      pop\n      jump\t// out\n        /* \"#utility.yul\":6393:6529   */\n    tag_76:\n        /* \"#utility.yul\":6482:6488   */\n      0x00\n        /* \"#utility.yul\":6516:6521   */\n      dup2\n        /* \"#utility.yul\":6510:6522   */\n      mload\n        /* \"#utility.yul\":6500:6522   */\n      swap1\n      pop\n        /* \"#utility.yul\":6393:6529   */\n      swap2\n      swap1\n      pop\n      jump\t// out\n        /* \"#utility.yul\":6535:6719   */\n    tag_77:\n        /* \"#utility.yul\":6634:6645   */\n      0x00\n        /* \"#utility.yul\":6668:6674   */\n      dup3\n        /* \"#utility.yul\":6663:6666   */\n      dup3\n        /* \"#utility.yul\":6656:6675   */\n      mstore\n        /* \"#utility.yul\":6708:6712   */\n      0x20\n        /* \"#utility.yul\":6703:6706   */\n      dup3\n        /* \"#utility.yul\":6699:6713   */\n      add\n        /* \"#utility.yul\":6684:6713   */\n      swap1\n      pop\n        /* \"#utility.yul\":6535:6719   */\n      swap3\n      swap2\n      pop\n      pop\n      jump\t// out\n        /* \"#utility.yul\":6725:6879   */\n    tag_78:\n        /* \"#utility.yul\":6814:6818   */\n      0x00\n        /* \"#utility.yul\":6837:6840   */\n      dup2\n        /* \"#utility.yul\":6829:6840   */\n      swap1\n      pop\n        /* \"#utility.yul\":6867:6871   */\n      0x20\n        /* \"#utility.yul\":6862:6865   */\n      dup3\n        /* \"#utility.yul\":6858:6872   */\n      add\n        /* \"#utility.yul\":6850:6872   */\n      swap1\n      pop\n        /* \"#utility.yul\":6725:6879   */\n      swap2\n      swap1\n      pop\n      jump\t// out\n        /* \"#utility.yul\":6885:6945   */\n    tag_79:\n        /* \"#utility.yul\":6913:6916   */\n      0x00\n        /* \"#utility.yul\":6934:6939   */\n      dup2\n        /* \"#utility.yul\":6927:6939   */\n      swap1\n      pop\n        /* \"#utility.yul\":6885:6945   */\n      swap2\n      swap1\n      pop\n      jump\t// out\n        /* \"#utility.yul\":6951:7093   */\n    tag_80:\n        /* \"#utility.yul\":7001:7010   */\n      0x00\n        /* \"#utility.yul\":7034:7087   */\n      tag_180\n        /* \"#utility.yul\":7052:7086   */\n      tag_181\n        /* \"#utility.yul\":7061:7085   */\n      tag_182\n        /* \"#utility.yul\":7079:7084   */\n      dup5\n        /* \"#utility.yul\":7061:7085   */\n      tag_69\n      jump\t// in\n    tag_182:\n        /* \"#utility.yul\":7052:7086   */\n      tag_79\n      jump\t// in\n    tag_181:\n        /* \"#utility.yul\":7034:7087   */\n      tag_69\n      jump\t// in\n    tag_180:\n        /* \"#utility.yul\":7021:7087   */\n      swap1\n      pop\n        /* \"#utility.yul\":6951:7093   */\n      swap2\n      swap1\n      pop\n      jump\t// out\n        /* \"#utility.yul\":7099:7225   */\n    tag_81:\n        /* \"#utility.yul\":7149:7158   */\n      0x00\n        /* \"#utility.yul\":7182:7219   */\n      tag_184\n        /* \"#utility.yul\":7213:7218   */\n      dup3\n        /* \"#utility.yul\":7182:7219   */\n      tag_80\n      jump\t// in\n    tag_184:\n        /* \"#utility.yul\":7169:7219   */\n      swap1\n      pop\n        /* \"#utility.yul\":7099:7225   */\n      swap2\n      swap1\n      pop\n      jump\t// out\n        /* \"#utility.yul\":7231:7379   */\n    tag_82:\n        /* \"#utility.yul\":7303:7312   */\n      0x00\n        /* \"#utility.yul\":7336:7373   */\n      tag_186\n        /* \"#utility.yul\":7367:7372   */\n      dup3\n        /* \"#utility.yul\":7336:7373   */\n      tag_81\n      jump\t// in\n    tag_186:\n        /* \"#utility.yul\":7323:7373   */\n      swap1\n      pop\n        /* \"#utility.yul\":7231:7379   */\n      swap2\n      swap1\n      pop\n      jump\t// out\n        /* \"#utility.yul\":7385:7550   */\n    tag_83:\n        /* \"#utility.yul\":7484:7543   */\n      tag_188\n        /* \"#utility.yul\":7537:7542   */\n      dup2\n        /* \"#utility.yul\":7484:7543   */\n      tag_82\n      jump\t// in\n    tag_188:\n        /* \"#utility.yul\":7479:7482   */\n      dup3\n        /* \"#utility.yul\":7472:7544   */\n      mstore\n        /* \"#utility.yul\":7385:7550   */\n      pop\n      pop\n      jump\t// out\n        /* \"#utility.yul\":7556:7779   */\n    tag_84:\n        /* \"#utility.yul\":7647:7657   */\n      0x00\n        /* \"#utility.yul\":7668:7736   */\n      tag_190\n        /* \"#utility.yul\":7732:7735   */\n      dup4\n        /* \"#utility.yul\":7724:7730   */\n      dup4\n        /* \"#utility.yul\":7668:7736   */\n      tag_83\n      jump\t// in\n    tag_190:\n        /* \"#utility.yul\":7768:7772   */\n      0x20\n        /* \"#utility.yul\":7763:7766   */\n      dup4\n        /* \"#utility.yul\":7759:7773   */\n      add\n        /* \"#utility.yul\":7745:7773   */\n      swap1\n      pop\n        /* \"#utility.yul\":7556:7779   */\n      swap3\n      swap2\n      pop\n      pop\n      jump\t// out\n        /* \"#utility.yul\":7785:7920   */\n    tag_85:\n        /* \"#utility.yul\":7877:7881   */\n      0x00\n        /* \"#utility.yul\":7909:7913   */\n      0x20\n        /* \"#utility.yul\":7904:7907   */\n      dup3\n        /* \"#utility.yul\":7900:7914   */\n      add\n        /* \"#utility.yul\":7892:7914   */\n      swap1\n      pop\n        /* \"#utility.yul\":7785:7920   */\n      swap2\n      swap1\n      pop\n      jump\t// out\n        /* \"#utility.yul\":7972:8814   */\n    tag_86:\n        /* \"#utility.yul\":8113:8116   */\n      0x00\n        /* \"#utility.yul\":8142:8218   */\n      tag_193\n        /* \"#utility.yul\":8212:8217   */\n      dup3\n        /* \"#utility.yul\":8142:8218   */\n      tag_76\n      jump\t// in\n    tag_193:\n        /* \"#utility.yul\":8234:8320   */\n      tag_194\n        /* \"#utility.yul\":8313:8319   */\n      dup2\n        /* \"#utility.yul\":8308:8311   */\n      dup6\n        /* \"#utility.yul\":8234:8320   */\n      tag_77\n      jump\t// in\n    tag_194:\n        /* \"#utility.yul\":8227:8320   */\n      swap4\n      pop\n        /* \"#utility.yul\":8344:8422   */\n      tag_195\n        /* \"#utility.yul\":8416:8421   */\n      dup4\n        /* \"#utility.yul\":8344:8422   */\n      tag_78\n      jump\t// in\n    tag_195:\n        /* \"#utility.yul\":8445:8452   */\n      dup1\n        /* \"#utility.yul\":8476:8477   */\n      0x00\n        /* \"#utility.yul\":8461:8789   */\n    tag_196:\n        /* \"#utility.yul\":8486:8492   */\n      dup4\n        /* \"#utility.yul\":8483:8484   */\n      dup2\n        /* \"#utility.yul\":8480:8493   */\n      lt\n        /* \"#utility.yul\":8461:8789   */\n      iszero\n      tag_198\n      jumpi\n        /* \"#utility.yul\":8562:8568   */\n      dup2\n        /* \"#utility.yul\":8556:8569   */\n      mload\n        /* \"#utility.yul\":8589:8674   */\n      tag_199\n        /* \"#utility.yul\":8670:8673   */\n      dup9\n        /* \"#utility.yul\":8655:8668   */\n      dup3\n        /* \"#utility.yul\":8589:8674   */\n      tag_84\n      jump\t// in\n    tag_199:\n        /* \"#utility.yul\":8582:8674   */\n      swap8\n      pop\n        /* \"#utility.yul\":8697:8779   */\n      tag_200\n        /* \"#utility.yul\":8772:8778   */\n      dup4\n        /* \"#utility.yul\":8697:8779   */\n      tag_85\n      jump\t// in\n    tag_200:\n        /* \"#utility.yul\":8687:8779   */\n      swap3\n      pop\n        /* \"#utility.yul\":8521:8789   */\n      pop\n        /* \"#utility.yul\":8508:8509   */\n      0x01\n        /* \"#utility.yul\":8505:8506   */\n      dup2\n        /* \"#utility.yul\":8501:8510   */\n      add\n        /* \"#utility.yul\":8496:8510   */\n      swap1\n      pop\n        /* \"#utility.yul\":8461:8789   */\n      jump(tag_196)\n    tag_198:\n        /* \"#utility.yul\":8465:8479   */\n      pop\n        /* \"#utility.yul\":8805:8808   */\n      dup6\n        /* \"#utility.yul\":8798:8808   */\n      swap4\n      pop\n        /* \"#utility.yul\":8118:8814   */\n      pop\n      pop\n      pop\n        /* \"#utility.yul\":7972:8814   */\n      swap3\n      swap2\n      pop\n      pop\n      jump\t// out\n        /* \"#utility.yul\":8820:9237   */\n    tag_23:\n        /* \"#utility.yul\":8985:8989   */\n      0x00\n        /* \"#utility.yul\":9023:9025   */\n      0x20\n        /* \"#utility.yul\":9012:9021   */\n      dup3\n        /* \"#utility.yul\":9008:9026   */\n      add\n        /* \"#utility.yul\":9000:9026   */\n      swap1\n      pop\n        /* \"#utility.yul\":9072:9081   */\n      dup2\n        /* \"#utility.yul\":9066:9070   */\n      dup2\n        /* \"#utility.yul\":9062:9082   */\n      sub\n        /* \"#utility.yul\":9058:9059   */\n      0x00\n        /* \"#utility.yul\":9047:9056   */\n      dup4\n        /* \"#utility.yul\":9043:9060   */\n      add\n        /* \"#utility.yul\":9036:9083   */\n      mstore\n        /* \"#utility.yul\":9100:9230   */\n      tag_202\n        /* \"#utility.yul\":9225:9229   */\n      dup2\n        /* \"#utility.yul\":9216:9222   */\n      dup5\n        /* \"#utility.yul\":9100:9230   */\n      tag_86\n      jump\t// in\n    tag_202:\n        /* \"#utility.yul\":9092:9230   */\n      swap1\n      pop\n        /* \"#utility.yul\":8820:9237   */\n      swap3\n      swap2\n      pop\n      pop\n      jump\t// out\n        /* \"#utility.yul\":9243:9320   */\n    tag_87:\n        /* \"#utility.yul\":9280:9287   */\n      0x00\n        /* \"#utility.yul\":9309:9314   */\n      dup2\n        /* \"#utility.yul\":9298:9314   */\n      swap1\n      pop\n        /* \"#utility.yul\":9243:9320   */\n      swap2\n      swap1\n      pop\n      jump\t// out\n        /* \"#utility.yul\":9326:9448   */\n    tag_88:\n        /* \"#utility.yul\":9399:9423   */\n      tag_205\n        /* \"#utility.yul\":9417:9422   */\n      dup2\n        /* \"#utility.yul\":9399:9423   */\n      tag_87\n      jump\t// in\n    tag_205:\n        /* \"#utility.yul\":9392:9397   */\n      dup2\n        /* \"#utility.yul\":9389:9424   */\n      eq\n        /* \"#utility.yul\":9379:9442   */\n      tag_206\n      jumpi\n        /* \"#utility.yul\":9438:9439   */\n      0x00\n        /* \"#utility.yul\":9435:9436   */\n      dup1\n        /* \"#utility.yul\":9428:9440   */\n      revert\n        /* \"#utility.yul\":9379:9442   */\n    tag_206:\n        /* \"#utility.yul\":9326:9448   */\n      pop\n      jump\t// out\n        /* \"#utility.yul\":9454:9593   */\n    tag_89:\n        /* \"#utility.yul\":9500:9505   */\n      0x00\n        /* \"#utility.yul\":9538:9544   */\n      dup2\n        /* \"#utility.yul\":9525:9545   */\n      calldataload\n        /* \"#utility.yul\":9516:9545   */\n      swap1\n      pop\n        /* \"#utility.yul\":9554:9587   */\n      tag_208\n        /* \"#utility.yul\":9581:9586   */\n      dup2\n        /* \"#utility.yul\":9554:9587   */\n      tag_88\n      jump\t// in\n    tag_208:\n        /* \"#utility.yul\":9454:9593   */\n      swap3\n      swap2\n      pop\n      pop\n      jump\t// out\n        /* \"#utility.yul\":9599:9928   */\n    tag_26:\n        /* \"#utility.yul\":9658:9664   */\n      0x00\n        /* \"#utility.yul\":9707:9709   */\n      0x20\n        /* \"#utility.yul\":9695:9704   */\n      dup3\n        /* \"#utility.yul\":9686:9693   */\n      dup5\n        /* \"#utility.yul\":9682:9705   */\n      sub\n        /* \"#utility.yul\":9678:9710   */\n      slt\n        /* \"#utility.yul\":9675:9794   */\n      iszero\n      tag_210\n      jumpi\n        /* \"#utility.yul\":9713:9792   */\n      tag_211\n      tag_55\n      jump\t// in\n    tag_211:\n        /* \"#utility.yul\":9675:9794   */\n    tag_210:\n        /* \"#utility.yul\":9833:9834   */\n      0x00\n        /* \"#utility.yul\":9858:9911   */\n      tag_212\n        /* \"#utility.yul\":9903:9910   */\n      dup5\n        /* \"#utility.yul\":9894:9900   */\n      dup3\n        /* \"#utility.yul\":9883:9892   */\n      dup6\n        /* \"#utility.yul\":9879:9901   */\n      add\n        /* \"#utility.yul\":9858:9911   */\n      tag_89\n      jump\t// in\n    tag_212:\n        /* \"#utility.yul\":9848:9911   */\n      swap2\n      pop\n        /* \"#utility.yul\":9804:9921   */\n      pop\n        /* \"#utility.yul\":9599:9928   */\n      swap3\n      swap2\n      pop\n      pop\n      jump\t// out\n        /* \"#utility.yul\":9934:10109   */\n    tag_90:\n        /* \"#utility.yul\":10043:10102   */\n      tag_214\n        /* \"#utility.yul\":10096:10101   */\n      dup2\n        /* \"#utility.yul\":10043:10102   */\n      tag_82\n      jump\t// in\n    tag_214:\n        /* \"#utility.yul\":10038:10041   */\n      dup3\n        /* \"#utility.yul\":10031:10103   */\n      mstore\n        /* \"#utility.yul\":9934:10109   */\n      pop\n      pop\n      jump\t// out\n        /* \"#utility.yul\":10115:10381   */\n    tag_29:\n        /* \"#utility.yul\":10230:10234   */\n      0x00\n        /* \"#utility.yul\":10268:10270   */\n      0x20\n        /* \"#utility.yul\":10257:10266   */\n      dup3\n        /* \"#utility.yul\":10253:10271   */\n      add\n        /* \"#utility.yul\":10245:10271   */\n      swap1\n      pop\n        /* \"#utility.yul\":10281:10374   */\n      tag_216\n        /* \"#utility.yul\":10371:10372   */\n      0x00\n        /* \"#utility.yul\":10360:10369   */\n      dup4\n        /* \"#utility.yul\":10356:10373   */\n      add\n        /* \"#utility.yul\":10347:10353   */\n      dup5\n        /* \"#utility.yul\":10281:10374   */\n      tag_90\n      jump\t// in\n    tag_216:\n        /* \"#utility.yul\":10115:10381   */\n      swap3\n      swap2\n      pop\n      pop\n      jump\t// out\n        /* \"#utility.yul\":10387:10486   */\n    tag_91:\n        /* \"#utility.yul\":10439:10445   */\n      0x00\n        /* \"#utility.yul\":10473:10478   */\n      dup2\n        /* \"#utility.yul\":10467:10479   */\n      mload\n        /* \"#utility.yul\":10457:10479   */\n      swap1\n      pop\n        /* \"#utility.yul\":10387:10486   */\n      swap2\n      swap1\n      pop\n      jump\t// out\n        /* \"#utility.yul\":10492:10661   */\n    tag_92:\n        /* \"#utility.yul\":10576:10587   */\n      0x00\n        /* \"#utility.yul\":10610:10616   */\n      dup3\n        /* \"#utility.yul\":10605:10608   */\n      dup3\n        /* \"#utility.yul\":10598:10617   */\n      mstore\n        /* \"#utility.yul\":10650:10654   */\n      0x20\n        /* \"#utility.yul\":10645:10648   */\n      dup3\n        /* \"#utility.yul\":10641:10655   */\n      add\n        /* \"#utility.yul\":10626:10655   */\n      swap1\n      pop\n        /* \"#utility.yul\":10492:10661   */\n      swap3\n      swap2\n      pop\n      pop\n      jump\t// out\n        /* \"#utility.yul\":10667:10913   */\n    tag_93:\n        /* \"#utility.yul\":10748:10749   */\n      0x00\n        /* \"#utility.yul\":10758:10871   */\n    tag_220:\n        /* \"#utility.yul\":10772:10778   */\n      dup4\n        /* \"#utility.yul\":10769:10770   */\n      dup2\n        /* \"#utility.yul\":10766:10779   */\n      lt\n        /* \"#utility.yul\":10758:10871   */\n      iszero\n      tag_222\n      jumpi\n        /* \"#utility.yul\":10857:10858   */\n      dup1\n        /* \"#utility.yul\":10852:10855   */\n      dup3\n        /* \"#utility.yul\":10848:10859   */\n      add\n        /* \"#utility.yul\":10842:10860   */\n      mload\n        /* \"#utility.yul\":10838:10839   */\n      dup2\n        /* \"#utility.yul\":10833:10836   */\n      dup5\n        /* \"#utility.yul\":10829:10840   */\n      add\n        /* \"#utility.yul\":10822:10861   */\n      mstore\n        /* \"#utility.yul\":10794:10796   */\n      0x20\n        /* \"#utility.yul\":10791:10792   */\n      dup2\n        /* \"#utility.yul\":10787:10797   */\n      add\n        /* \"#utility.yul\":10782:10797   */\n      swap1\n      pop\n        /* \"#utility.yul\":10758:10871   */\n      jump(tag_220)\n    tag_222:\n        /* \"#utility.yul\":10905:10906   */\n      0x00\n        /* \"#utility.yul\":10896:10902   */\n      dup5\n        /* \"#utility.yul\":10891:10894   */\n      dup5\n        /* \"#utility.yul\":10887:10903   */\n      add\n        /* \"#utility.yul\":10880:10907   */\n      mstore\n        /* \"#utility.yul\":10729:10913   */\n      pop\n        /* \"#utility.yul\":10667:10913   */\n      pop\n      pop\n      pop\n      jump\t// out\n        /* \"#utility.yul\":10919:11296   */\n    tag_94:\n        /* \"#utility.yul\":11007:11010   */\n      0x00\n        /* \"#utility.yul\":11035:11074   */\n      tag_224\n        /* \"#utility.yul\":11068:11073   */\n      dup3\n        /* \"#utility.yul\":11035:11074   */\n      tag_91\n      jump\t// in\n    tag_224:\n        /* \"#utility.yul\":11090:11161   */\n      tag_225\n        /* \"#utility.yul\":11154:11160   */\n      dup2\n        /* \"#utility.yul\":11149:11152   */\n      dup6\n        /* \"#utility.yul\":11090:11161   */\n      tag_92\n      jump\t// in\n    tag_225:\n        /* \"#utility.yul\":11083:11161   */\n      swap4\n      pop\n        /* \"#utility.yul\":11170:11235   */\n      tag_226\n        /* \"#utility.yul\":11228:11234   */\n      dup2\n        /* \"#utility.yul\":11223:11226   */\n      dup6\n        /* \"#utility.yul\":11216:11220   */\n      0x20\n        /* \"#utility.yul\":11209:11214   */\n      dup7\n        /* \"#utility.yul\":11205:11221   */\n      add\n        /* \"#utility.yul\":11170:11235   */\n      tag_93\n      jump\t// in\n    tag_226:\n        /* \"#utility.yul\":11260:11289   */\n      tag_227\n        /* \"#utility.yul\":11282:11288   */\n      dup2\n        /* \"#utility.yul\":11260:11289   */\n      tag_59\n      jump\t// in\n    tag_227:\n        /* \"#utility.yul\":11255:11258   */\n      dup5\n        /* \"#utility.yul\":11251:11290   */\n      add\n        /* \"#utility.yul\":11244:11290   */\n      swap2\n      pop\n        /* \"#utility.yul\":11011:11296   */\n      pop\n        /* \"#utility.yul\":10919:11296   */\n      swap3\n      swap2\n      pop\n      pop\n      jump\t// out\n        /* \"#utility.yul\":11302:11416   */\n    tag_95:\n        /* \"#utility.yul\":11369:11375   */\n      0x00\n        /* \"#utility.yul\":11403:11408   */\n      dup2\n        /* \"#utility.yul\":11397:11409   */\n      mload\n        /* \"#utility.yul\":11387:11409   */\n      swap1\n      pop\n        /* \"#utility.yul\":11302:11416   */\n      swap2\n      swap1\n      pop\n      jump\t// out\n        /* \"#utility.yul\":11422:11554   */\n    tag_96:\n        /* \"#utility.yul\":11489:11493   */\n      0x00\n        /* \"#utility.yul\":11512:11515   */\n      dup2\n        /* \"#utility.yul\":11504:11515   */\n      swap1\n      pop\n        /* \"#utility.yul\":11542:11546   */\n      0x20\n        /* \"#utility.yul\":11537:11540   */\n      dup3\n        /* \"#utility.yul\":11533:11547   */\n      add\n        /* \"#utility.yul\":11525:11547   */\n      swap1\n      pop\n        /* \"#utility.yul\":11422:11554   */\n      swap2\n      swap1\n      pop\n      jump\t// out\n        /* \"#utility.yul\":11560:11668   */\n    tag_97:\n        /* \"#utility.yul\":11637:11661   */\n      tag_231\n        /* \"#utility.yul\":11655:11660   */\n      dup2\n        /* \"#utility.yul\":11637:11661   */\n      tag_70\n      jump\t// in\n    tag_231:\n        /* \"#utility.yul\":11632:11635   */\n      dup3\n        /* \"#utility.yul\":11625:11662   */\n      mstore\n        /* \"#utility.yul\":11560:11668   */\n      pop\n      pop\n      jump\t// out\n        /* \"#utility.yul\":11674:11853   */\n    tag_98:\n        /* \"#utility.yul\":11743:11753   */\n      0x00\n        /* \"#utility.yul\":11764:11810   */\n      tag_233\n        /* \"#utility.yul\":11806:11809   */\n      dup4\n        /* \"#utility.yul\":11798:11804   */\n      dup4\n        /* \"#utility.yul\":11764:11810   */\n      tag_97\n      jump\t// in\n    tag_233:\n        /* \"#utility.yul\":11842:11846   */\n      0x20\n        /* \"#utility.yul\":11837:11840   */\n      dup4\n        /* \"#utility.yul\":11833:11847   */\n      add\n        /* \"#utility.yul\":11819:11847   */\n      swap1\n      pop\n        /* \"#utility.yul\":11674:11853   */\n      swap3\n      swap2\n      pop\n      pop\n      jump\t// out\n        /* \"#utility.yul\":11859:11972   */\n    tag_99:\n        /* \"#utility.yul\":11929:11933   */\n      0x00\n        /* \"#utility.yul\":11961:11965   */\n      0x20\n        /* \"#utility.yul\":11956:11959   */\n      dup3\n        /* \"#utility.yul\":11952:11966   */\n      add\n        /* \"#utility.yul\":11944:11966   */\n      swap1\n      pop\n        /* \"#utility.yul\":11859:11972   */\n      swap2\n      swap1\n      pop\n      jump\t// out\n        /* \"#utility.yul\":12008:12740   */\n    tag_100:\n        /* \"#utility.yul\":12127:12130   */\n      0x00\n        /* \"#utility.yul\":12156:12210   */\n      tag_236\n        /* \"#utility.yul\":12204:12209   */\n      dup3\n        /* \"#utility.yul\":12156:12210   */\n      tag_95\n      jump\t// in\n    tag_236:\n        /* \"#utility.yul\":12226:12312   */\n      tag_237\n        /* \"#utility.yul\":12305:12311   */\n      dup2\n        /* \"#utility.yul\":12300:12303   */\n      dup6\n        /* \"#utility.yul\":12226:12312   */\n      tag_77\n      jump\t// in\n    tag_237:\n        /* \"#utility.yul\":12219:12312   */\n      swap4\n      pop\n        /* \"#utility.yul\":12336:12392   */\n      tag_238\n        /* \"#utility.yul\":12386:12391   */\n      dup4\n        /* \"#utility.yul\":12336:12392   */\n      tag_96\n      jump\t// in\n    tag_238:\n        /* \"#utility.yul\":12415:12422   */\n      dup1\n        /* \"#utility.yul\":12446:12447   */\n      0x00\n        /* \"#utility.yul\":12431:12715   */\n    tag_239:\n        /* \"#utility.yul\":12456:12462   */\n      dup4\n        /* \"#utility.yul\":12453:12454   */\n      dup2\n        /* \"#utility.yul\":12450:12463   */\n      lt\n        /* \"#utility.yul\":12431:12715   */\n      iszero\n      tag_241\n      jumpi\n        /* \"#utility.yul\":12532:12538   */\n      dup2\n        /* \"#utility.yul\":12526:12539   */\n      mload\n        /* \"#utility.yul\":12559:12622   */\n      tag_242\n        /* \"#utility.yul\":12618:12621   */\n      dup9\n        /* \"#utility.yul\":12603:12616   */\n      dup3\n        /* \"#utility.yul\":12559:12622   */\n      tag_98\n      jump\t// in\n    tag_242:\n        /* \"#utility.yul\":12552:12622   */\n      swap8\n      pop\n        /* \"#utility.yul\":12645:12705   */\n      tag_243\n        /* \"#utility.yul\":12698:12704   */\n      dup4\n        /* \"#utility.yul\":12645:12705   */\n      tag_99\n      jump\t// in\n    tag_243:\n        /* \"#utility.yul\":12635:12705   */\n      swap3\n      pop\n        /* \"#utility.yul\":12491:12715   */\n      pop\n        /* \"#utility.yul\":12478:12479   */\n      0x01\n        /* \"#utility.yul\":12475:12476   */\n      dup2\n        /* \"#utility.yul\":12471:12480   */\n      add\n        /* \"#utility.yul\":12466:12480   */\n      swap1\n      pop\n        /* \"#utility.yul\":12431:12715   */\n      jump(tag_239)\n    tag_241:\n        /* \"#utility.yul\":12435:12449   */\n      pop\n        /* \"#utility.yul\":12731:12734   */\n      dup6\n        /* \"#utility.yul\":12724:12734   */\n      swap4\n      pop\n        /* \"#utility.yul\":12132:12740   */\n      pop\n      pop\n      pop\n        /* \"#utility.yul\":12008:12740   */\n      swap3\n      swap2\n      pop\n      pop\n      jump\t// out\n        /* \"#utility.yul\":12746:13430   */\n    tag_34:\n        /* \"#utility.yul\":12965:12969   */\n      0x00\n        /* \"#utility.yul\":13003:13005   */\n      0x60\n        /* \"#utility.yul\":12992:13001   */\n      dup3\n        /* \"#utility.yul\":12988:13006   */\n      add\n        /* \"#utility.yul\":12980:13006   */\n      swap1\n      pop\n        /* \"#utility.yul\":13052:13061   */\n      dup2\n        /* \"#utility.yul\":13046:13050   */\n      dup2\n        /* \"#utility.yul\":13042:13062   */\n      sub\n        /* \"#utility.yul\":13038:13039   */\n      0x00\n        /* \"#utility.yul\":13027:13036   */\n      dup4\n        /* \"#utility.yul\":13023:13040   */\n      add\n        /* \"#utility.yul\":13016:13063   */\n      mstore\n        /* \"#utility.yul\":13080:13158   */\n      tag_245\n        /* \"#utility.yul\":13153:13157   */\n      dup2\n        /* \"#utility.yul\":13144:13150   */\n      dup7\n        /* \"#utility.yul\":13080:13158   */\n      tag_94\n      jump\t// in\n    tag_245:\n        /* \"#utility.yul\":13072:13158   */\n      swap1\n      pop\n        /* \"#utility.yul\":13168:13240   */\n      tag_246\n        /* \"#utility.yul\":13236:13238   */\n      0x20\n        /* \"#utility.yul\":13225:13234   */\n      dup4\n        /* \"#utility.yul\":13221:13239   */\n      add\n        /* \"#utility.yul\":13212:13218   */\n      dup6\n        /* \"#utility.yul\":13168:13240   */\n      tag_75\n      jump\t// in\n    tag_246:\n        /* \"#utility.yul\":13287:13296   */\n      dup2\n        /* \"#utility.yul\":13281:13285   */\n      dup2\n        /* \"#utility.yul\":13277:13297   */\n      sub\n        /* \"#utility.yul\":13272:13274   */\n      0x40\n        /* \"#utility.yul\":13261:13270   */\n      dup4\n        /* \"#utility.yul\":13257:13275   */\n      add\n        /* \"#utility.yul\":13250:13298   */\n      mstore\n        /* \"#utility.yul\":13315:13423   */\n      tag_247\n        /* \"#utility.yul\":13418:13422   */\n      dup2\n        /* \"#utility.yul\":13409:13415   */\n      dup5\n        /* \"#utility.yul\":13315:13423   */\n      tag_100\n      jump\t// in\n    tag_247:\n        /* \"#utility.yul\":13307:13423   */\n      swap1\n      pop\n        /* \"#utility.yul\":12746:13430   */\n      swap5\n      swap4\n      pop\n      pop\n      pop\n      pop\n      jump\t// out\n    stop\n\n    sub_0: assembly {\n            /* \"EstatePlanning.sol\":933:5543  contract EstatePlanning {... */\n          mstore(0x40, 0x80)\n            /* \"EstatePlanning.sol\":1345:1349  true */\n          0x01\n            /* \"EstatePlanning.sol\":1325:1349  bool activeStatus = true */\n          0x08\n          exp(0x0100, 0x00)\n          dup2\n          sload\n          dup2\n          0xff\n          mul\n          not\n          and\n          swap1\n          dup4\n          iszero\n          iszero\n          mul\n          or\n          swap1\n          sstore\n          pop\n            /* \"EstatePlanning.sol\":2417:2621  constructor(... */\n          mload(0x40)\n          sub(codesize, bytecodeSize)\n          dup1\n          bytecodeSize\n          dup4\n          codecopy\n          dup2\n          dup2\n          add\n          0x40\n          mstore\n          dup2\n          add\n          swap1\n          tag_1\n          swap2\n          swap1\n          tag_2\n          jump\t// in\n        tag_1:\n            /* \"EstatePlanning.sol\":2552:2558  _admin */\n          dup2\n            /* \"EstatePlanning.sol\":2544:2549  admin */\n          0x00\n          dup1\n            /* \"EstatePlanning.sol\":2544:2558  admin = _admin */\n          0x0100\n          exp\n          dup2\n          sload\n          dup2\n          0xffffffffffffffffffffffffffffffffffffffff\n          mul\n          not\n          and\n          swap1\n          dup4\n          0xffffffffffffffffffffffffffffffffffffffff\n          and\n          mul\n          or\n          swap1\n          sstore\n          pop\n            /* \"EstatePlanning.sol\":2580:2590  _trustName */\n          dup3\n            /* \"EstatePlanning.sol\":2568:2577  trustName */\n          0x07\n            /* \"EstatePlanning.sol\":2568:2590  trustName = _trustName */\n          swap1\n          dup2\n          tag_5\n          swap2\n          swap1\n          tag_6\n          jump\t// in\n        tag_5:\n          pop\n            /* \"EstatePlanning.sol\":2608:2614  _users */\n          dup1\n            /* \"EstatePlanning.sol\":2600:2605  users */\n          0x01\n            /* \"EstatePlanning.sol\":2600:2614  users = _users */\n          swap1\n          dup1\n          mload\n          swap1\n          0x20\n          add\n          swap1\n          tag_7\n          swap3\n          swap2\n          swap1\n          tag_8\n          jump\t// in\n        tag_7:\n          pop\n            /* \"EstatePlanning.sol\":2417:2621  constructor(... */\n          pop\n          pop\n          pop\n            /* \"EstatePlanning.sol\":933:5543  contract EstatePlanning {... */\n          jump(tag_9)\n        tag_8:\n          dup3\n          dup1\n          sload\n          dup3\n          dup3\n          sstore\n          swap1\n          0x00\n          mstore\n          keccak256(0x00, 0x20)\n          swap1\n          dup2\n          add\n          swap3\n          dup3\n          iszero\n          tag_10\n          jumpi\n          swap2\n          0x20\n          mul\n          dup3\n          add\n        tag_11:\n          dup3\n          dup2\n          gt\n          iszero\n          tag_12\n          jumpi\n          dup3\n          mload\n          dup3\n          exp(0x0100, 0x00)\n          dup2\n          sload\n          dup2\n          0xffffffffffffffffffffffffffffffffffffffff\n          mul\n          not\n          and\n          swap1\n          dup4\n          0xffffffffffffffffffffffffffffffffffffffff\n          and\n          mul\n          or\n          swap1\n          sstore\n          pop\n          swap2\n          0x20\n          add\n          swap2\n          swap1\n          0x01\n          add\n          swap1\n          jump(tag_11)\n        tag_12:\n        tag_10:\n          pop\n          swap1\n          pop\n          tag_13\n          swap2\n          swap1\n          tag_14\n          jump\t// in\n        tag_13:\n          pop\n          swap1\n          jump\t// out\n        tag_14:\n        tag_15:\n          dup1\n          dup3\n          gt\n          iszero\n          tag_16\n          jumpi\n          0x00\n          dup2\n          0x00\n          swap1\n          sstore\n          pop\n          0x01\n          add\n          jump(tag_15)\n        tag_16:\n          pop\n          swap1\n          jump\t// out\n            /* \"#utility.yul\":7:82   */\n        tag_17:\n            /* \"#utility.yul\":40:46   */\n          0x00\n            /* \"#utility.yul\":73:75   */\n          0x40\n            /* \"#utility.yul\":67:76   */\n          mload\n            /* \"#utility.yul\":57:76   */\n          swap1\n          pop\n            /* \"#utility.yul\":7:82   */\n          swap1\n          jump\t// out\n            /* \"#utility.yul\":88:205   */\n        tag_18:\n            /* \"#utility.yul\":197:198   */\n          0x00\n            /* \"#utility.yul\":194:195   */\n          dup1\n            /* \"#utility.yul\":187:199   */\n          revert\n            /* \"#utility.yul\":211:328   */\n        tag_19:\n            /* \"#utility.yul\":320:321   */\n          0x00\n            /* \"#utility.yul\":317:318   */\n          dup1\n            /* \"#utility.yul\":310:322   */\n          revert\n            /* \"#utility.yul\":334:451   */\n        tag_20:\n            /* \"#utility.yul\":443:444   */\n          0x00\n            /* \"#utility.yul\":440:441   */\n          dup1\n            /* \"#utility.yul\":433:445   */\n          revert\n            /* \"#utility.yul\":457:574   */\n        tag_21:\n            /* \"#utility.yul\":566:567   */\n          0x00\n            /* \"#utility.yul\":563:564   */\n          dup1\n            /* \"#utility.yul\":556:568   */\n          revert\n            /* \"#utility.yul\":580:682   */\n        tag_22:\n            /* \"#utility.yul\":621:627   */\n          0x00\n            /* \"#utility.yul\":672:674   */\n          0x1f\n            /* \"#utility.yul\":668:675   */\n          not\n            /* \"#utility.yul\":663:665   */\n          0x1f\n            /* \"#utility.yul\":656:661   */\n          dup4\n            /* \"#utility.yul\":652:666   */\n          add\n            /* \"#utility.yul\":648:676   */\n          and\n            /* \"#utility.yul\":638:676   */\n          swap1\n          pop\n            /* \"#utility.yul\":580:682   */\n          swap2\n          swap1\n          pop\n          jump\t// out\n            /* \"#utility.yul\":688:868   */\n        tag_23:\n            /* \"#utility.yul\":736:813   */\n          0x4e487b7100000000000000000000000000000000000000000000000000000000\n            /* \"#utility.yul\":733:734   */\n          0x00\n            /* \"#utility.yul\":726:814   */\n          mstore\n            /* \"#utility.yul\":833:837   */\n          0x41\n            /* \"#utility.yul\":830:831   */\n          0x04\n            /* \"#utility.yul\":823:838   */\n          mstore\n            /* \"#utility.yul\":857:861   */\n          0x24\n            /* \"#utility.yul\":854:855   */\n          0x00\n            /* \"#utility.yul\":847:862   */\n          revert\n            /* \"#utility.yul\":874:1155   */\n        tag_24:\n            /* \"#utility.yul\":957:984   */\n          tag_66\n            /* \"#utility.yul\":979:983   */\n          dup3\n            /* \"#utility.yul\":957:984   */\n          tag_22\n          jump\t// in\n        tag_66:\n            /* \"#utility.yul\":949:955   */\n          dup2\n            /* \"#utility.yul\":945:985   */\n          add\n            /* \"#utility.yul\":1087:1093   */\n          dup2\n            /* \"#utility.yul\":1075:1085   */\n          dup2\n            /* \"#utility.yul\":1072:1094   */\n          lt\n            /* \"#utility.yul\":1051:1069   */\n          0xffffffffffffffff\n            /* \"#utility.yul\":1039:1049   */\n          dup3\n            /* \"#utility.yul\":1036:1070   */\n          gt\n            /* \"#utility.yul\":1033:1095   */\n          or\n            /* \"#utility.yul\":1030:1118   */\n          iszero\n          tag_67\n          jumpi\n            /* \"#utility.yul\":1098:1116   */\n          tag_68\n          tag_23\n          jump\t// in\n        tag_68:\n            /* \"#utility.yul\":1030:1118   */\n        tag_67:\n            /* \"#utility.yul\":1138:1148   */\n          dup1\n            /* \"#utility.yul\":1134:1136   */\n          0x40\n            /* \"#utility.yul\":1127:1149   */\n          mstore\n            /* \"#utility.yul\":917:1155   */\n          pop\n            /* \"#utility.yul\":874:1155   */\n          pop\n          pop\n          jump\t// out\n            /* \"#utility.yul\":1161:1290   */\n        tag_25:\n            /* \"#utility.yul\":1195:1201   */\n          0x00\n            /* \"#utility.yul\":1222:1242   */\n          tag_70\n          tag_17\n          jump\t// in\n        tag_70:\n            /* \"#utility.yul\":1212:1242   */\n          swap1\n          pop\n            /* \"#utility.yul\":1251:1284   */\n          tag_71\n            /* \"#utility.yul\":1279:1283   */\n          dup3\n            /* \"#utility.yul\":1271:1277   */\n          dup3\n            /* \"#utility.yul\":1251:1284   */\n          tag_24\n          jump\t// in\n        tag_71:\n            /* \"#utility.yul\":1161:1290   */\n          swap2\n          swap1\n          pop\n          jump\t// out\n            /* \"#utility.yul\":1296:1604   */\n        tag_26:\n            /* \"#utility.yul\":1358:1362   */\n          0x00\n            /* \"#utility.yul\":1448:1466   */\n          0xffffffffffffffff\n            /* \"#utility.yul\":1440:1446   */\n          dup3\n            /* \"#utility.yul\":1437:1467   */\n          gt\n            /* \"#utility.yul\":1434:1490   */\n          iszero\n          tag_73\n          jumpi\n            /* \"#utility.yul\":1470:1488   */\n          tag_74\n          tag_23\n          jump\t// in\n        tag_74:\n            /* \"#utility.yul\":1434:1490   */\n        tag_73:\n            /* \"#utility.yul\":1508:1537   */\n          tag_75\n            /* \"#utility.yul\":1530:1536   */\n          dup3\n            /* \"#utility.yul\":1508:1537   */\n          tag_22\n          jump\t// in\n        tag_75:\n            /* \"#utility.yul\":1500:1537   */\n          swap1\n          pop\n            /* \"#utility.yul\":1592:1596   */\n          0x20\n            /* \"#utility.yul\":1586:1590   */\n          dup2\n            /* \"#utility.yul\":1582:1597   */\n          add\n            /* \"#utility.yul\":1574:1597   */\n          swap1\n          pop\n            /* \"#utility.yul\":1296:1604   */\n          swap2\n          swap1\n          pop\n          jump\t// out\n            /* \"#utility.yul\":1610:1856   */\n        tag_27:\n            /* \"#utility.yul\":1691:1692   */\n          0x00\n            /* \"#utility.yul\":1701:1814   */\n        tag_77:\n            /* \"#utility.yul\":1715:1721   */\n          dup4\n            /* \"#utility.yul\":1712:1713   */\n          dup2\n            /* \"#utility.yul\":1709:1722   */\n          lt\n            /* \"#utility.yul\":1701:1814   */\n          iszero\n          tag_79\n          jumpi\n            /* \"#utility.yul\":1800:1801   */\n          dup1\n            /* \"#utility.yul\":1795:1798   */\n          dup3\n            /* \"#utility.yul\":1791:1802   */\n          add\n            /* \"#utility.yul\":1785:1803   */\n          mload\n            /* \"#utility.yul\":1781:1782   */\n          dup2\n            /* \"#utility.yul\":1776:1779   */\n          dup5\n            /* \"#utility.yul\":1772:1783   */\n          add\n            /* \"#utility.yul\":1765:1804   */\n          mstore\n            /* \"#utility.yul\":1737:1739   */\n          0x20\n            /* \"#utility.yul\":1734:1735   */\n          dup2\n            /* \"#utility.yul\":1730:1740   */\n          add\n            /* \"#utility.yul\":1725:1740   */\n          swap1\n          pop\n            /* \"#utility.yul\":1701:1814   */\n          jump(tag_77)\n        tag_79:\n            /* \"#utility.yul\":1848:1849   */\n          0x00\n            /* \"#utility.yul\":1839:1845   */\n          dup5\n            /* \"#utility.yul\":1834:1837   */\n          dup5\n            /* \"#utility.yul\":1830:1846   */\n          add\n            /* \"#utility.yul\":1823:1850   */\n          mstore\n            /* \"#utility.yul\":1672:1856   */\n          pop\n            /* \"#utility.yul\":1610:1856   */\n          pop\n          pop\n          pop\n          jump\t// out\n            /* \"#utility.yul\":1862:2296   */\n        tag_28:\n            /* \"#utility.yul\":1951:1956   */\n          0x00\n            /* \"#utility.yul\":1976:2042   */\n          tag_81\n            /* \"#utility.yul\":1992:2041   */\n          tag_82\n            /* \"#utility.yul\":2034:2040   */\n          dup5\n            /* \"#utility.yul\":1992:2041   */\n          tag_26\n          jump\t// in\n        tag_82:\n            /* \"#utility.yul\":1976:2042   */\n          tag_25\n          jump\t// in\n        tag_81:\n            /* \"#utility.yul\":1967:2042   */\n          swap1\n          pop\n            /* \"#utility.yul\":2065:2071   */\n          dup3\n            /* \"#utility.yul\":2058:2063   */\n          dup2\n            /* \"#utility.yul\":2051:2072   */\n          mstore\n            /* \"#utility.yul\":2103:2107   */\n          0x20\n            /* \"#utility.yul\":2096:2101   */\n          dup2\n            /* \"#utility.yul\":2092:2108   */\n          add\n            /* \"#utility.yul\":2141:2144   */\n          dup5\n            /* \"#utility.yul\":2132:2138   */\n          dup5\n            /* \"#utility.yul\":2127:2130   */\n          dup5\n            /* \"#utility.yul\":2123:2139   */\n          add\n            /* \"#utility.yul\":2120:2145   */\n          gt\n            /* \"#utility.yul\":2117:2229   */\n          iszero\n          tag_83\n          jumpi\n            /* \"#utility.yul\":2148:2227   */\n          tag_84\n          tag_21\n          jump\t// in\n        tag_84:\n            /* \"#utility.yul\":2117:2229   */\n        tag_83:\n            /* \"#utility.yul\":2238:2290   */\n          tag_85\n            /* \"#utility.yul\":2283:2289   */\n          dup5\n            /* \"#utility.yul\":2278:2281   */\n          dup3\n            /* \"#utility.yul\":2273:2276   */\n          dup6\n            /* \"#utility.yul\":2238:2290   */\n          tag_27\n          jump\t// in\n        tag_85:\n            /* \"#utility.yul\":1957:2296   */\n          pop\n            /* \"#utility.yul\":1862:2296   */\n          swap4\n          swap3\n          pop\n          pop\n          pop\n          jump\t// out\n            /* \"#utility.yul\":2316:2671   */\n        tag_29:\n            /* \"#utility.yul\":2383:2388   */\n          0x00\n            /* \"#utility.yul\":2432:2435   */\n          dup3\n            /* \"#utility.yul\":2425:2429   */\n          0x1f\n            /* \"#utility.yul\":2417:2423   */\n          dup4\n            /* \"#utility.yul\":2413:2430   */\n          add\n            /* \"#utility.yul\":2409:2436   */\n          slt\n            /* \"#utility.yul\":2399:2521   */\n          tag_87\n          jumpi\n            /* \"#utility.yul\":2440:2519   */\n          tag_88\n          tag_20\n          jump\t// in\n        tag_88:\n            /* \"#utility.yul\":2399:2521   */\n        tag_87:\n            /* \"#utility.yul\":2550:2556   */\n          dup2\n            /* \"#utility.yul\":2544:2557   */\n          mload\n            /* \"#utility.yul\":2575:2665   */\n          tag_89\n            /* \"#utility.yul\":2661:2664   */\n          dup5\n            /* \"#utility.yul\":2653:2659   */\n          dup3\n            /* \"#utility.yul\":2646:2650   */\n          0x20\n            /* \"#utility.yul\":2638:2644   */\n          dup7\n            /* \"#utility.yul\":2634:2651   */\n          add\n            /* \"#utility.yul\":2575:2665   */\n          tag_28\n          jump\t// in\n        tag_89:\n            /* \"#utility.yul\":2566:2665   */\n          swap2\n          pop\n            /* \"#utility.yul\":2389:2671   */\n          pop\n            /* \"#utility.yul\":2316:2671   */\n          swap3\n          swap2\n          pop\n          pop\n          jump\t// out\n            /* \"#utility.yul\":2677:2803   */\n        tag_30:\n            /* \"#utility.yul\":2714:2721   */\n          0x00\n            /* \"#utility.yul\":2754:2796   */\n          0xffffffffffffffffffffffffffffffffffffffff\n            /* \"#utility.yul\":2747:2752   */\n          dup3\n            /* \"#utility.yul\":2743:2797   */\n          and\n            /* \"#utility.yul\":2732:2797   */\n          swap1\n          pop\n            /* \"#utility.yul\":2677:2803   */\n          swap2\n          swap1\n          pop\n          jump\t// out\n            /* \"#utility.yul\":2809:2905   */\n        tag_31:\n            /* \"#utility.yul\":2846:2853   */\n          0x00\n            /* \"#utility.yul\":2875:2899   */\n          tag_92\n            /* \"#utility.yul\":2893:2898   */\n          dup3\n            /* \"#utility.yul\":2875:2899   */\n          tag_30\n          jump\t// in\n        tag_92:\n            /* \"#utility.yul\":2864:2899   */\n          swap1\n          pop\n            /* \"#utility.yul\":2809:2905   */\n          swap2\n          swap1\n          pop\n          jump\t// out\n            /* \"#utility.yul\":2911:3033   */\n        tag_32:\n            /* \"#utility.yul\":2984:3008   */\n          tag_94\n            /* \"#utility.yul\":3002:3007   */\n          dup2\n            /* \"#utility.yul\":2984:3008   */\n          tag_31\n          jump\t// in\n        tag_94:\n            /* \"#utility.yul\":2977:2982   */\n          dup2\n            /* \"#utility.yul\":2974:3009   */\n          eq\n            /* \"#utility.yul\":2964:3027   */\n          tag_95\n          jumpi\n            /* \"#utility.yul\":3023:3024   */\n          0x00\n            /* \"#utility.yul\":3020:3021   */\n          dup1\n            /* \"#utility.yul\":3013:3025   */\n          revert\n            /* \"#utility.yul\":2964:3027   */\n        tag_95:\n            /* \"#utility.yul\":2911:3033   */\n          pop\n          jump\t// out\n            /* \"#utility.yul\":3039:3182   */\n        tag_33:\n            /* \"#utility.yul\":3096:3101   */\n          0x00\n            /* \"#utility.yul\":3127:3133   */\n          dup2\n            /* \"#utility.yul\":3121:3134   */\n          mload\n            /* \"#utility.yul\":3112:3134   */\n          swap1\n          pop\n            /* \"#utility.yul\":3143:3176   */\n          tag_97\n            /* \"#utility.yul\":3170:3175   */\n          dup2\n            /* \"#utility.yul\":3143:3176   */\n          tag_32\n          jump\t// in\n        tag_97:\n            /* \"#utility.yul\":3039:3182   */\n          swap3\n          swap2\n          pop\n          pop\n          jump\t// out\n            /* \"#utility.yul\":3188:3499   */\n        tag_34:\n            /* \"#utility.yul\":3265:3269   */\n          0x00\n            /* \"#utility.yul\":3355:3373   */\n          0xffffffffffffffff\n            /* \"#utility.yul\":3347:3353   */\n          dup3\n            /* \"#utility.yul\":3344:3374   */\n          gt\n            /* \"#utility.yul\":3341:3397   */\n          iszero\n          tag_99\n          jumpi\n            /* \"#utility.yul\":3377:3395   */\n          tag_100\n          tag_23\n          jump\t// in\n        tag_100:\n            /* \"#utility.yul\":3341:3397   */\n        tag_99:\n            /* \"#utility.yul\":3427:3431   */\n          0x20\n            /* \"#utility.yul\":3419:3425   */\n          dup3\n            /* \"#utility.yul\":3415:3432   */\n          mul\n            /* \"#utility.yul\":3407:3432   */\n          swap1\n          pop\n            /* \"#utility.yul\":3487:3491   */\n          0x20\n            /* \"#utility.yul\":3481:3485   */\n          dup2\n            /* \"#utility.yul\":3477:3492   */\n          add\n            /* \"#utility.yul\":3469:3492   */\n          swap1\n          pop\n            /* \"#utility.yul\":3188:3499   */\n          swap2\n          swap1\n          pop\n          jump\t// out\n            /* \"#utility.yul\":3505:3622   */\n        tag_35:\n            /* \"#utility.yul\":3614:3615   */\n          0x00\n            /* \"#utility.yul\":3611:3612   */\n          dup1\n            /* \"#utility.yul\":3604:3616   */\n          revert\n            /* \"#utility.yul\":3645:4377   */\n        tag_36:\n            /* \"#utility.yul\":3752:3757   */\n          0x00\n            /* \"#utility.yul\":3777:3858   */\n          tag_103\n            /* \"#utility.yul\":3793:3857   */\n          tag_104\n            /* \"#utility.yul\":3850:3856   */\n          dup5\n            /* \"#utility.yul\":3793:3857   */\n          tag_34\n          jump\t// in\n        tag_104:\n            /* \"#utility.yul\":3777:3858   */\n          tag_25\n          jump\t// in\n        tag_103:\n            /* \"#utility.yul\":3768:3858   */\n          swap1\n          pop\n            /* \"#utility.yul\":3878:3883   */\n          dup1\n            /* \"#utility.yul\":3907:3913   */\n          dup4\n            /* \"#utility.yul\":3900:3905   */\n          dup3\n            /* \"#utility.yul\":3893:3914   */\n          mstore\n            /* \"#utility.yul\":3941:3945   */\n          0x20\n            /* \"#utility.yul\":3934:3939   */\n          dup3\n            /* \"#utility.yul\":3930:3946   */\n          add\n            /* \"#utility.yul\":3923:3946   */\n          swap1\n          pop\n            /* \"#utility.yul\":3994:3998   */\n          0x20\n            /* \"#utility.yul\":3986:3992   */\n          dup5\n            /* \"#utility.yul\":3982:3999   */\n          mul\n            /* \"#utility.yul\":3974:3980   */\n          dup4\n            /* \"#utility.yul\":3970:4000   */\n          add\n            /* \"#utility.yul\":4023:4026   */\n          dup6\n            /* \"#utility.yul\":4015:4021   */\n          dup2\n            /* \"#utility.yul\":4012:4027   */\n          gt\n            /* \"#utility.yul\":4009:4131   */\n          iszero\n          tag_105\n          jumpi\n            /* \"#utility.yul\":4042:4121   */\n          tag_106\n          tag_35\n          jump\t// in\n        tag_106:\n            /* \"#utility.yul\":4009:4131   */\n        tag_105:\n            /* \"#utility.yul\":4157:4163   */\n          dup4\n            /* \"#utility.yul\":4140:4371   */\n        tag_107:\n            /* \"#utility.yul\":4174:4180   */\n          dup2\n            /* \"#utility.yul\":4169:4172   */\n          dup2\n            /* \"#utility.yul\":4166:4181   */\n          lt\n            /* \"#utility.yul\":4140:4371   */\n          iszero\n          tag_109\n          jumpi\n            /* \"#utility.yul\":4249:4252   */\n          dup1\n            /* \"#utility.yul\":4278:4326   */\n          tag_110\n            /* \"#utility.yul\":4322:4325   */\n          dup9\n            /* \"#utility.yul\":4310:4320   */\n          dup3\n            /* \"#utility.yul\":4278:4326   */\n          tag_33\n          jump\t// in\n        tag_110:\n            /* \"#utility.yul\":4273:4276   */\n          dup5\n            /* \"#utility.yul\":4266:4327   */\n          mstore\n            /* \"#utility.yul\":4356:4360   */\n          0x20\n            /* \"#utility.yul\":4351:4354   */\n          dup5\n            /* \"#utility.yul\":4347:4361   */\n          add\n            /* \"#utility.yul\":4340:4361   */\n          swap4\n          pop\n            /* \"#utility.yul\":4216:4371   */\n          pop\n            /* \"#utility.yul\":4200:4204   */\n          0x20\n            /* \"#utility.yul\":4195:4198   */\n          dup2\n            /* \"#utility.yul\":4191:4205   */\n          add\n            /* \"#utility.yul\":4184:4205   */\n          swap1\n          pop\n            /* \"#utility.yul\":4140:4371   */\n          jump(tag_107)\n        tag_109:\n            /* \"#utility.yul\":4144:4165   */\n          pop\n            /* \"#utility.yul\":3758:4377   */\n          pop\n          pop\n            /* \"#utility.yul\":3645:4377   */\n          swap4\n          swap3\n          pop\n          pop\n          pop\n          jump\t// out\n            /* \"#utility.yul\":4400:4785   */\n        tag_37:\n            /* \"#utility.yul\":4482:4487   */\n          0x00\n            /* \"#utility.yul\":4531:4534   */\n          dup3\n            /* \"#utility.yul\":4524:4528   */\n          0x1f\n            /* \"#utility.yul\":4516:4522   */\n          dup4\n            /* \"#utility.yul\":4512:4529   */\n          add\n            /* \"#utility.yul\":4508:4535   */\n          slt\n            /* \"#utility.yul\":4498:4620   */\n          tag_112\n          jumpi\n            /* \"#utility.yul\":4539:4618   */\n          tag_113\n          tag_20\n          jump\t// in\n        tag_113:\n            /* \"#utility.yul\":4498:4620   */\n        tag_112:\n            /* \"#utility.yul\":4649:4655   */\n          dup2\n            /* \"#utility.yul\":4643:4656   */\n          mload\n            /* \"#utility.yul\":4674:4779   */\n          tag_114\n            /* \"#utility.yul\":4775:4778   */\n          dup5\n            /* \"#utility.yul\":4767:4773   */\n          dup3\n            /* \"#utility.yul\":4760:4764   */\n          0x20\n            /* \"#utility.yul\":4752:4758   */\n          dup7\n            /* \"#utility.yul\":4748:4765   */\n          add\n            /* \"#utility.yul\":4674:4779   */\n          tag_36\n          jump\t// in\n        tag_114:\n            /* \"#utility.yul\":4665:4779   */\n          swap2\n          pop\n            /* \"#utility.yul\":4488:4785   */\n          pop\n            /* \"#utility.yul\":4400:4785   */\n          swap3\n          swap2\n          pop\n          pop\n          jump\t// out\n            /* \"#utility.yul\":4791:5830   */\n        tag_2:\n            /* \"#utility.yul\":4914:4920   */\n          0x00\n            /* \"#utility.yul\":4922:4928   */\n          dup1\n            /* \"#utility.yul\":4930:4936   */\n          0x00\n            /* \"#utility.yul\":4979:4981   */\n          0x60\n            /* \"#utility.yul\":4967:4976   */\n          dup5\n            /* \"#utility.yul\":4958:4965   */\n          dup7\n            /* \"#utility.yul\":4954:4977   */\n          sub\n            /* \"#utility.yul\":4950:4982   */\n          slt\n            /* \"#utility.yul\":4947:5066   */\n          iszero\n          tag_116\n          jumpi\n            /* \"#utility.yul\":4985:5064   */\n          tag_117\n          tag_18\n          jump\t// in\n        tag_117:\n            /* \"#utility.yul\":4947:5066   */\n        tag_116:\n            /* \"#utility.yul\":5126:5127   */\n          0x00\n            /* \"#utility.yul\":5115:5124   */\n          dup5\n            /* \"#utility.yul\":5111:5128   */\n          add\n            /* \"#utility.yul\":5105:5129   */\n          mload\n            /* \"#utility.yul\":5156:5174   */\n          0xffffffffffffffff\n            /* \"#utility.yul\":5148:5154   */\n          dup2\n            /* \"#utility.yul\":5145:5175   */\n          gt\n            /* \"#utility.yul\":5142:5259   */\n          iszero\n          tag_118\n          jumpi\n            /* \"#utility.yul\":5178:5257   */\n          tag_119\n          tag_19\n          jump\t// in\n        tag_119:\n            /* \"#utility.yul\":5142:5259   */\n        tag_118:\n            /* \"#utility.yul\":5283:5357   */\n          tag_120\n            /* \"#utility.yul\":5349:5356   */\n          dup7\n            /* \"#utility.yul\":5340:5346   */\n          dup3\n            /* \"#utility.yul\":5329:5338   */\n          dup8\n            /* \"#utility.yul\":5325:5347   */\n          add\n            /* \"#utility.yul\":5283:5357   */\n          tag_29\n          jump\t// in\n        tag_120:\n            /* \"#utility.yul\":5273:5357   */\n          swap4\n          pop\n            /* \"#utility.yul\":5076:5367   */\n          pop\n            /* \"#utility.yul\":5406:5408   */\n          0x20\n            /* \"#utility.yul\":5432:5496   */\n          tag_121\n            /* \"#utility.yul\":5488:5495   */\n          dup7\n            /* \"#utility.yul\":5479:5485   */\n          dup3\n            /* \"#utility.yul\":5468:5477   */\n          dup8\n            /* \"#utility.yul\":5464:5486   */\n          add\n            /* \"#utility.yul\":5432:5496   */\n          tag_33\n          jump\t// in\n        tag_121:\n            /* \"#utility.yul\":5422:5496   */\n          swap3\n          pop\n            /* \"#utility.yul\":5377:5506   */\n          pop\n            /* \"#utility.yul\":5566:5568   */\n          0x40\n            /* \"#utility.yul\":5555:5564   */\n          dup5\n            /* \"#utility.yul\":5551:5569   */\n          add\n            /* \"#utility.yul\":5545:5570   */\n          mload\n            /* \"#utility.yul\":5597:5615   */\n          0xffffffffffffffff\n            /* \"#utility.yul\":5589:5595   */\n          dup2\n            /* \"#utility.yul\":5586:5616   */\n          gt\n            /* \"#utility.yul\":5583:5700   */\n          iszero\n          tag_122\n          jumpi\n            /* \"#utility.yul\":5619:5698   */\n          tag_123\n          tag_19\n          jump\t// in\n        tag_123:\n            /* \"#utility.yul\":5583:5700   */\n        tag_122:\n            /* \"#utility.yul\":5724:5813   */\n          tag_124\n            /* \"#utility.yul\":5805:5812   */\n          dup7\n            /* \"#utility.yul\":5796:5802   */\n          dup3\n            /* \"#utility.yul\":5785:5794   */\n          dup8\n            /* \"#utility.yul\":5781:5803   */\n          add\n            /* \"#utility.yul\":5724:5813   */\n          tag_37\n          jump\t// in\n        tag_124:\n            /* \"#utility.yul\":5714:5813   */\n          swap2\n          pop\n            /* \"#utility.yul\":5516:5823   */\n          pop\n            /* \"#utility.yul\":4791:5830   */\n          swap3\n          pop\n          swap3\n          pop\n          swap3\n          jump\t// out\n            /* \"#utility.yul\":5836:5935   */\n        tag_38:\n            /* \"#utility.yul\":5888:5894   */\n          0x00\n            /* \"#utility.yul\":5922:5927   */\n          dup2\n            /* \"#utility.yul\":5916:5928   */\n          mload\n            /* \"#utility.yul\":5906:5928   */\n          swap1\n          pop\n            /* \"#utility.yul\":5836:5935   */\n          swap2\n          swap1\n          pop\n          jump\t// out\n            /* \"#utility.yul\":5941:6121   */\n        tag_39:\n            /* \"#utility.yul\":5989:6066   */\n          0x4e487b7100000000000000000000000000000000000000000000000000000000\n            /* \"#utility.yul\":5986:5987   */\n          0x00\n            /* \"#utility.yul\":5979:6067   */\n          mstore\n            /* \"#utility.yul\":6086:6090   */\n          0x22\n            /* \"#utility.yul\":6083:6084   */\n          0x04\n            /* \"#utility.yul\":6076:6091   */\n          mstore\n            /* \"#utility.yul\":6110:6114   */\n          0x24\n            /* \"#utility.yul\":6107:6108   */\n          0x00\n            /* \"#utility.yul\":6100:6115   */\n          revert\n            /* \"#utility.yul\":6127:6447   */\n        tag_40:\n            /* \"#utility.yul\":6171:6177   */\n          0x00\n            /* \"#utility.yul\":6208:6209   */\n          0x02\n            /* \"#utility.yul\":6202:6206   */\n          dup3\n            /* \"#utility.yul\":6198:6210   */\n          div\n            /* \"#utility.yul\":6188:6210   */\n          swap1\n          pop\n            /* \"#utility.yul\":6255:6256   */\n          0x01\n            /* \"#utility.yul\":6249:6253   */\n          dup3\n            /* \"#utility.yul\":6245:6257   */\n          and\n            /* \"#utility.yul\":6276:6294   */\n          dup1\n            /* \"#utility.yul\":6266:6347   */\n          tag_128\n          jumpi\n            /* \"#utility.yul\":6332:6336   */\n          0x7f\n            /* \"#utility.yul\":6324:6330   */\n          dup3\n            /* \"#utility.yul\":6320:6337   */\n          and\n            /* \"#utility.yul\":6310:6337   */\n          swap2\n          pop\n            /* \"#utility.yul\":6266:6347   */\n        tag_128:\n            /* \"#utility.yul\":6394:6396   */\n          0x20\n            /* \"#utility.yul\":6386:6392   */\n          dup3\n            /* \"#utility.yul\":6383:6397   */\n          lt\n            /* \"#utility.yul\":6363:6381   */\n          dup2\n            /* \"#utility.yul\":6360:6398   */\n          sub\n            /* \"#utility.yul\":6357:6441   */\n          tag_129\n          jumpi\n            /* \"#utility.yul\":6413:6431   */\n          tag_130\n          tag_39\n          jump\t// in\n        tag_130:\n            /* \"#utility.yul\":6357:6441   */\n        tag_129:\n            /* \"#utility.yul\":6178:6447   */\n          pop\n            /* \"#utility.yul\":6127:6447   */\n          swap2\n          swap1\n          pop\n          jump\t// out\n            /* \"#utility.yul\":6453:6594   */\n        tag_41:\n            /* \"#utility.yul\":6502:6506   */\n          0x00\n            /* \"#utility.yul\":6525:6528   */\n          dup2\n            /* \"#utility.yul\":6517:6528   */\n          swap1\n          pop\n            /* \"#utility.yul\":6548:6551   */\n          dup2\n            /* \"#utility.yul\":6545:6546   */\n          0x00\n            /* \"#utility.yul\":6538:6552   */\n          mstore\n            /* \"#utility.yul\":6582:6586   */\n          0x20\n            /* \"#utility.yul\":6579:6580   */\n          0x00\n            /* \"#utility.yul\":6569:6587   */\n          keccak256\n            /* \"#utility.yul\":6561:6587   */\n          swap1\n          pop\n            /* \"#utility.yul\":6453:6594   */\n          swap2\n          swap1\n          pop\n          jump\t// out\n            /* \"#utility.yul\":6600:6693   */\n        tag_42:\n            /* \"#utility.yul\":6637:6643   */\n          0x00\n            /* \"#utility.yul\":6684:6686   */\n          0x20\n            /* \"#utility.yul\":6679:6681   */\n          0x1f\n            /* \"#utility.yul\":6672:6677   */\n          dup4\n            /* \"#utility.yul\":6668:6682   */\n          add\n            /* \"#utility.yul\":6664:6687   */\n          div\n            /* \"#utility.yul\":6654:6687   */\n          swap1\n          pop\n            /* \"#utility.yul\":6600:6693   */\n          swap2\n          swap1\n          pop\n          jump\t// out\n            /* \"#utility.yul\":6699:6806   */\n        tag_43:\n            /* \"#utility.yul\":6743:6751   */\n          0x00\n            /* \"#utility.yul\":6793:6798   */\n          dup3\n            /* \"#utility.yul\":6787:6791   */\n          dup3\n            /* \"#utility.yul\":6783:6799   */\n          shl\n            /* \"#utility.yul\":6762:6799   */\n          swap1\n          pop\n            /* \"#utility.yul\":6699:6806   */\n          swap3\n          swap2\n          pop\n          pop\n          jump\t// out\n            /* \"#utility.yul\":6812:7205   */\n        tag_44:\n            /* \"#utility.yul\":6881:6887   */\n          0x00\n            /* \"#utility.yul\":6931:6932   */\n          0x08\n            /* \"#utility.yul\":6919:6929   */\n          dup4\n            /* \"#utility.yul\":6915:6933   */\n          mul\n            /* \"#utility.yul\":6954:7051   */\n          tag_135\n            /* \"#utility.yul\":6984:7050   */\n          0xffffffffffffffffffffffffffffffffffffffffffffffffffffffffffffffff\n            /* \"#utility.yul\":6973:6982   */\n          dup3\n            /* \"#utility.yul\":6954:7051   */\n          tag_43\n          jump\t// in\n        tag_135:\n            /* \"#utility.yul\":7072:7111   */\n          tag_136\n            /* \"#utility.yul\":7102:7110   */\n          dup7\n            /* \"#utility.yul\":7091:7100   */\n          dup4\n            /* \"#utility.yul\":7072:7111   */\n          tag_43\n          jump\t// in\n        tag_136:\n            /* \"#utility.yul\":7060:7111   */\n          swap6\n          pop\n            /* \"#utility.yul\":7144:7148   */\n          dup1\n            /* \"#utility.yul\":7140:7149   */\n          not\n            /* \"#utility.yul\":7133:7138   */\n          dup5\n            /* \"#utility.yul\":7129:7150   */\n          and\n            /* \"#utility.yul\":7120:7150   */\n          swap4\n          pop\n            /* \"#utility.yul\":7193:7197   */\n          dup1\n            /* \"#utility.yul\":7183:7191   */\n          dup7\n            /* \"#utility.yul\":7179:7198   */\n          and\n            /* \"#utility.yul\":7172:7177   */\n          dup5\n            /* \"#utility.yul\":7169:7199   */\n          or\n            /* \"#utility.yul\":7159:7199   */\n          swap3\n          pop\n            /* \"#utility.yul\":6888:7205   */\n          pop\n          pop\n            /* \"#utility.yul\":6812:7205   */\n          swap4\n          swap3\n          pop\n          pop\n          pop\n          jump\t// out\n            /* \"#utility.yul\":7211:7288   */\n        tag_45:\n            /* \"#utility.yul\":7248:7255   */\n          0x00\n            /* \"#utility.yul\":7277:7282   */\n          dup2\n            /* \"#utility.yul\":7266:7282   */\n          swap1\n          pop\n            /* \"#utility.yul\":7211:7288   */\n          swap2\n          swap1\n          pop\n          jump\t// out\n            /* \"#utility.yul\":7294:7354   */\n        tag_46:\n            /* \"#utility.yul\":7322:7325   */\n          0x00\n            /* \"#utility.yul\":7343:7348   */\n          dup2\n            /* \"#utility.yul\":7336:7348   */\n          swap1\n          pop\n            /* \"#utility.yul\":7294:7354   */\n          swap2\n          swap1\n          pop\n          jump\t// out\n            /* \"#utility.yul\":7360:7502   */\n        tag_47:\n            /* \"#utility.yul\":7410:7419   */\n          0x00\n            /* \"#utility.yul\":7443:7496   */\n          tag_140\n            /* \"#utility.yul\":7461:7495   */\n          tag_141\n            /* \"#utility.yul\":7470:7494   */\n          tag_142\n            /* \"#utility.yul\":7488:7493   */\n          dup5\n            /* \"#utility.yul\":7470:7494   */\n          tag_45\n          jump\t// in\n        tag_142:\n            /* \"#utility.yul\":7461:7495   */\n          tag_46\n          jump\t// in\n        tag_141:\n            /* \"#utility.yul\":7443:7496   */\n          tag_45\n          jump\t// in\n        tag_140:\n            /* \"#utility.yul\":7430:7496   */\n          swap1\n          pop\n            /* \"#utility.yul\":7360:7502   */\n          swap2\n          swap1\n          pop\n          jump\t// out\n            /* \"#utility.yul\":7508:7583   */\n        tag_48:\n            /* \"#utility.yul\":7551:7554   */\n          0x00\n            /* \"#utility.yul\":7572:7577   */\n          dup2\n            /* \"#utility.yul\":7565:7577   */\n          swap1\n          pop\n            /* \"#utility.yul\":7508:7583   */\n          swap2\n          swap1\n          pop\n          jump\t// out\n            /* \"#utility.yul\":7589:7858   */\n        tag_49:\n            /* \"#utility.yul\":7699:7738   */\n          tag_145\n            /* \"#utility.yul\":7730:7737   */\n          dup4\n            /* \"#utility.yul\":7699:7738   */\n          tag_47\n          jump\t// in\n        tag_145:\n            /* \"#utility.yul\":7760:7851   */\n          tag_146\n            /* \"#utility.yul\":7809:7850   */\n          tag_147\n            /* \"#utility.yul\":7833:7849   */\n          dup3\n            /* \"#utility.yul\":7809:7850   */\n          tag_48\n          jump\t// in\n        tag_147:\n            /* \"#utility.yul\":7801:7807   */\n          dup5\n            /* \"#utility.yul\":7794:7798   */\n          dup5\n            /* \"#utility.yul\":7788:7799   */\n          sload\n            /* \"#utility.yul\":7760:7851   */\n          tag_44\n          jump\t// in\n        tag_146:\n            /* \"#utility.yul\":7754:7758   */\n          dup3\n            /* \"#utility.yul\":7747:7852   */\n          sstore\n            /* \"#utility.yul\":7665:7858   */\n          pop\n            /* \"#utility.yul\":7589:7858   */\n          pop\n          pop\n          pop\n          jump\t// out\n            /* \"#utility.yul\":7864:7937   */\n        tag_50:\n            /* \"#utility.yul\":7909:7912   */\n          0x00\n            /* \"#utility.yul\":7864:7937   */\n          swap1\n          jump\t// out\n            /* \"#utility.yul\":7943:8132   */\n        tag_51:\n            /* \"#utility.yul\":8020:8052   */\n          tag_150\n          tag_50\n          jump\t// in\n        tag_150:\n            /* \"#utility.yul\":8061:8126   */\n          tag_151\n            /* \"#utility.yul\":8119:8125   */\n          dup2\n            /* \"#utility.yul\":8111:8117   */\n          dup5\n            /* \"#utility.yul\":8105:8109   */\n          dup5\n            /* \"#utility.yul\":8061:8126   */\n          tag_49\n          jump\t// in\n        tag_151:\n            /* \"#utility.yul\":7996:8132   */\n          pop\n            /* \"#utility.yul\":7943:8132   */\n          pop\n          pop\n          jump\t// out\n            /* \"#utility.yul\":8138:8324   */\n        tag_52:\n            /* \"#utility.yul\":8198:8318   */\n        tag_153:\n            /* \"#utility.yul\":8215:8218   */\n          dup2\n            /* \"#utility.yul\":8208:8213   */\n          dup2\n            /* \"#utility.yul\":8205:8219   */\n          lt\n            /* \"#utility.yul\":8198:8318   */\n          iszero\n          tag_155\n          jumpi\n            /* \"#utility.yul\":8269:8308   */\n          tag_156\n            /* \"#utility.yul\":8306:8307   */\n          0x00\n            /* \"#utility.yul\":8299:8304   */\n          dup3\n            /* \"#utility.yul\":8269:8308   */\n          tag_51\n          jump\t// in\n        tag_156:\n            /* \"#utility.yul\":8242:8243   */\n          0x01\n            /* \"#utility.yul\":8235:8240   */\n          dup2\n            /* \"#utility.yul\":8231:8244   */\n          add\n            /* \"#utility.yul\":8222:8244   */\n          swap1\n          pop\n            /* \"#utility.yul\":8198:8318   */\n          jump(tag_153)\n        tag_155:\n            /* \"#utility.yul\":8138:8324   */\n          pop\n          pop\n          jump\t// out\n            /* \"#utility.yul\":8330:8873   */\n        tag_53:\n            /* \"#utility.yul\":8431:8433   */\n          0x1f\n            /* \"#utility.yul\":8426:8429   */\n          dup3\n            /* \"#utility.yul\":8423:8434   */\n          gt\n            /* \"#utility.yul\":8420:8866   */\n          iszero\n          tag_158\n          jumpi\n            /* \"#utility.yul\":8465:8503   */\n          tag_159\n            /* \"#utility.yul\":8497:8502   */\n          dup2\n            /* \"#utility.yul\":8465:8503   */\n          tag_41\n          jump\t// in\n        tag_159:\n            /* \"#utility.yul\":8549:8578   */\n          tag_160\n            /* \"#utility.yul\":8567:8577   */\n          dup5\n            /* \"#utility.yul\":8549:8578   */\n          tag_42\n          jump\t// in\n        tag_160:\n            /* \"#utility.yul\":8539:8547   */\n          dup2\n            /* \"#utility.yul\":8535:8579   */\n          add\n            /* \"#utility.yul\":8732:8734   */\n          0x20\n            /* \"#utility.yul\":8720:8730   */\n          dup6\n            /* \"#utility.yul\":8717:8735   */\n          lt\n            /* \"#utility.yul\":8714:8763   */\n          iszero\n          tag_161\n          jumpi\n            /* \"#utility.yul\":8753:8761   */\n          dup2\n            /* \"#utility.yul\":8738:8761   */\n          swap1\n          pop\n            /* \"#utility.yul\":8714:8763   */\n        tag_161:\n            /* \"#utility.yul\":8776:8856   */\n          tag_162\n            /* \"#utility.yul\":8832:8854   */\n          tag_163\n            /* \"#utility.yul\":8850:8853   */\n          dup6\n            /* \"#utility.yul\":8832:8854   */\n          tag_42\n          jump\t// in\n        tag_163:\n            /* \"#utility.yul\":8822:8830   */\n          dup4\n            /* \"#utility.yul\":8818:8855   */\n          add\n            /* \"#utility.yul\":8805:8816   */\n          dup3\n            /* \"#utility.yul\":8776:8856   */\n          tag_52\n          jump\t// in\n        tag_162:\n            /* \"#utility.yul\":8435:8866   */\n          pop\n          pop\n            /* \"#utility.yul\":8420:8866   */\n        tag_158:\n            /* \"#utility.yul\":8330:8873   */\n          pop\n          pop\n          pop\n          jump\t// out\n            /* \"#utility.yul\":8879:8996   */\n        tag_54:\n            /* \"#utility.yul\":8933:8941   */\n          0x00\n            /* \"#utility.yul\":8983:8988   */\n          dup3\n            /* \"#utility.yul\":8977:8981   */\n          dup3\n            /* \"#utility.yul\":8973:8989   */\n          shr\n            /* \"#utility.yul\":8952:8989   */\n          swap1\n          pop\n            /* \"#utility.yul\":8879:8996   */\n          swap3\n          swap2\n          pop\n          pop\n          jump\t// out\n            /* \"#utility.yul\":9002:9171   */\n        tag_55:\n            /* \"#utility.yul\":9046:9052   */\n          0x00\n            /* \"#utility.yul\":9079:9130   */\n          tag_166\n            /* \"#utility.yul\":9127:9128   */\n          0x00\n            /* \"#utility.yul\":9123:9129   */\n          not\n            /* \"#utility.yul\":9115:9120   */\n          dup5\n            /* \"#utility.yul\":9112:9113   */\n          0x08\n            /* \"#utility.yul\":9108:9121   */\n          mul\n            /* \"#utility.yul\":9079:9130   */\n          tag_54\n          jump\t// in\n        tag_166:\n            /* \"#utility.yul\":9075:9131   */\n          not\n            /* \"#utility.yul\":9160:9164   */\n          dup1\n            /* \"#utility.yul\":9154:9158   */\n          dup4\n            /* \"#utility.yul\":9150:9165   */\n          and\n            /* \"#utility.yul\":9140:9165   */\n          swap2\n          pop\n            /* \"#utility.yul\":9053:9171   */\n          pop\n            /* \"#utility.yul\":9002:9171   */\n          swap3\n          swap2\n          pop\n          pop\n          jump\t// out\n            /* \"#utility.yul\":9176:9471   */\n        tag_56:\n            /* \"#utility.yul\":9252:9256   */\n          0x00\n            /* \"#utility.yul\":9398:9427   */\n          tag_168\n            /* \"#utility.yul\":9423:9426   */\n          dup4\n            /* \"#utility.yul\":9417:9421   */\n          dup4\n            /* \"#utility.yul\":9398:9427   */\n          tag_55\n          jump\t// in\n        tag_168:\n            /* \"#utility.yul\":9390:9427   */\n          swap2\n          pop\n            /* \"#utility.yul\":9460:9463   */\n          dup3\n            /* \"#utility.yul\":9457:9458   */\n          0x02\n            /* \"#utility.yul\":9453:9464   */\n          mul\n            /* \"#utility.yul\":9447:9451   */\n          dup3\n            /* \"#utility.yul\":9444:9465   */\n          or\n            /* \"#utility.yul\":9436:9465   */\n          swap1\n          pop\n            /* \"#utility.yul\":9176:9471   */\n          swap3\n          swap2\n          pop\n          pop\n          jump\t// out\n            /* \"#utility.yul\":9476:10871   */\n        tag_6:\n            /* \"#utility.yul\":9593:9630   */\n          tag_170\n            /* \"#utility.yul\":9626:9629   */\n          dup3\n            /* \"#utility.yul\":9593:9630   */\n          tag_38\n          jump\t// in\n        tag_170:\n            /* \"#utility.yul\":9695:9713   */\n          0xffffffffffffffff\n            /* \"#utility.yul\":9687:9693   */\n          dup2\n            /* \"#utility.yul\":9684:9714   */\n          gt\n            /* \"#utility.yul\":9681:9737   */\n          iszero\n          tag_171\n          jumpi\n            /* \"#utility.yul\":9717:9735   */\n          tag_172\n          tag_23\n          jump\t// in\n        tag_172:\n            /* \"#utility.yul\":9681:9737   */\n        tag_171:\n            /* \"#utility.yul\":9761:9799   */\n          tag_173\n            /* \"#utility.yul\":9793:9797   */\n          dup3\n            /* \"#utility.yul\":9787:9798   */\n          sload\n            /* \"#utility.yul\":9761:9799   */\n          tag_40\n          jump\t// in\n        tag_173:\n            /* \"#utility.yul\":9846:9913   */\n          tag_174\n            /* \"#utility.yul\":9906:9912   */\n          dup3\n            /* \"#utility.yul\":9898:9904   */\n          dup3\n            /* \"#utility.yul\":9892:9896   */\n          dup6\n            /* \"#utility.yul\":9846:9913   */\n          tag_53\n          jump\t// in\n        tag_174:\n            /* \"#utility.yul\":9940:9941   */\n          0x00\n            /* \"#utility.yul\":9964:9968   */\n          0x20\n            /* \"#utility.yul\":9951:9968   */\n          swap1\n          pop\n            /* \"#utility.yul\":9996:9998   */\n          0x1f\n            /* \"#utility.yul\":9988:9994   */\n          dup4\n            /* \"#utility.yul\":9985:9999   */\n          gt\n            /* \"#utility.yul\":10013:10014   */\n          0x01\n            /* \"#utility.yul\":10008:10626   */\n          dup2\n          eq\n          tag_176\n          jumpi\n            /* \"#utility.yul\":10670:10671   */\n          0x00\n            /* \"#utility.yul\":10687:10693   */\n          dup5\n            /* \"#utility.yul\":10684:10761   */\n          iszero\n          tag_177\n          jumpi\n            /* \"#utility.yul\":10736:10745   */\n          dup3\n            /* \"#utility.yul\":10731:10734   */\n          dup8\n            /* \"#utility.yul\":10727:10746   */\n          add\n            /* \"#utility.yul\":10721:10747   */\n          mload\n            /* \"#utility.yul\":10712:10747   */\n          swap1\n          pop\n            /* \"#utility.yul\":10684:10761   */\n        tag_177:\n            /* \"#utility.yul\":10787:10854   */\n          tag_178\n            /* \"#utility.yul\":10847:10853   */\n          dup6\n            /* \"#utility.yul\":10840:10845   */\n          dup3\n            /* \"#utility.yul\":10787:10854   */\n          tag_56\n          jump\t// in\n        tag_178:\n            /* \"#utility.yul\":10781:10785   */\n          dup7\n            /* \"#utility.yul\":10774:10855   */\n          sstore\n            /* \"#utility.yul\":10643:10865   */\n          pop\n            /* \"#utility.yul\":9978:10865   */\n          jump(tag_175)\n            /* \"#utility.yul\":10008:10626   */\n        tag_176:\n            /* \"#utility.yul\":10060:10064   */\n          0x1f\n            /* \"#utility.yul\":10056:10065   */\n          not\n            /* \"#utility.yul\":10048:10054   */\n          dup5\n            /* \"#utility.yul\":10044:10066   */\n          and\n            /* \"#utility.yul\":10094:10131   */\n          tag_179\n            /* \"#utility.yul\":10126:10130   */\n          dup7\n            /* \"#utility.yul\":10094:10131   */\n          tag_41\n          jump\t// in\n        tag_179:\n            /* \"#utility.yul\":10153:10154   */\n          0x00\n            /* \"#utility.yul\":10167:10375   */\n        tag_180:\n            /* \"#utility.yul\":10181:10188   */\n          dup3\n            /* \"#utility.yul\":10178:10179   */\n          dup2\n            /* \"#utility.yul\":10175:10189   */\n          lt\n            /* \"#utility.yul\":10167:10375   */\n          iszero\n          tag_182\n          jumpi\n            /* \"#utility.yul\":10260:10269   */\n          dup5\n            /* \"#utility.yul\":10255:10258   */\n          dup10\n            /* \"#utility.yul\":10251:10270   */\n          add\n            /* \"#utility.yul\":10245:10271   */\n          mload\n            /* \"#utility.yul\":10237:10243   */\n          dup3\n            /* \"#utility.yul\":10230:10272   */\n          sstore\n            /* \"#utility.yul\":10311:10312   */\n          0x01\n            /* \"#utility.yul\":10303:10309   */\n          dup3\n            /* \"#utility.yul\":10299:10313   */\n          add\n            /* \"#utility.yul\":10289:10313   */\n          swap2\n          pop\n            /* \"#utility.yul\":10358:10360   */\n          0x20\n            /* \"#utility.yul\":10347:10356   */\n          dup6\n            /* \"#utility.yul\":10343:10361   */\n          add\n            /* \"#utility.yul\":10330:10361   */\n          swap5\n          pop\n            /* \"#utility.yul\":10204:10208   */\n          0x20\n            /* \"#utility.yul\":10201:10202   */\n          dup2\n            /* \"#utility.yul\":10197:10209   */\n          add\n            /* \"#utility.yul\":10192:10209   */\n          swap1\n          pop\n            /* \"#utility.yul\":10167:10375   */\n          jump(tag_180)\n        tag_182:\n            /* \"#utility.yul\":10403:10409   */\n          dup7\n            /* \"#utility.yul\":10394:10401   */\n          dup4\n            /* \"#utility.yul\":10391:10410   */\n          lt\n            /* \"#utility.yul\":10388:10567   */\n          iszero\n          tag_183\n          jumpi\n            /* \"#utility.yul\":10461:10470   */\n          dup5\n            /* \"#utility.yul\":10456:10459   */\n          dup10\n            /* \"#utility.yul\":10452:10471   */\n          add\n            /* \"#utility.yul\":10446:10472   */\n          mload\n            /* \"#utility.yul\":10504:10552   */\n          tag_184\n            /* \"#utility.yul\":10546:10550   */\n          0x1f\n            /* \"#utility.yul\":10538:10544   */\n          dup10\n            /* \"#utility.yul\":10534:10551   */\n          and\n            /* \"#utility.yul\":10523:10532   */\n          dup3\n            /* \"#utility.yul\":10504:10552   */\n          tag_55\n          jump\t// in\n        tag_184:\n            /* \"#utility.yul\":10496:10502   */\n          dup4\n            /* \"#utility.yul\":10489:10553   */\n          sstore\n            /* \"#utility.yul\":10411:10567   */\n          pop\n            /* \"#utility.yul\":10388:10567   */\n        tag_183:\n            /* \"#utility.yul\":10613:10614   */\n          0x01\n            /* \"#utility.yul\":10609:10610   */\n          0x02\n            /* \"#utility.yul\":10601:10607   */\n          dup9\n            /* \"#utility.yul\":10597:10611   */\n          mul\n            /* \"#utility.yul\":10593:10615   */\n          add\n            /* \"#utility.yul\":10587:10591   */\n          dup9\n            /* \"#utility.yul\":10580:10616   */\n          sstore\n            /* \"#utility.yul\":10015:10626   */\n          pop\n          pop\n          pop\n            /* \"#utility.yul\":9978:10865   */\n        tag_175:\n          pop\n            /* \"#utility.yul\":9568:10871   */\n          pop\n          pop\n          pop\n            /* \"#utility.yul\":9476:10871   */\n          pop\n          pop\n          jump\t// out\n            /* \"EstatePlanning.sol\":933:5543  contract EstatePlanning {... */\n        tag_9:\n          dataSize(sub_0)\n          dup1\n          dataOffset(sub_0)\n          0x00\n          codecopy\n          0x00\n          return\n        stop\n\n        sub_0: assembly {\n                /* \"EstatePlanning.sol\":933:5543  contract EstatePlanning {... */\n              mstore(0x40, 0x80)\n              jumpi(tag_1, lt(calldatasize, 0x04))\n              shr(0xe0, calldataload(0x00))\n              dup1\n              0xb5e7f0b2\n              gt\n              tag_14\n              jumpi\n              dup1\n              0xb5e7f0b2\n              eq\n              tag_8\n              jumpi\n              dup1\n              0xbb3accf0\n              eq\n              tag_9\n              jumpi\n              dup1\n              0xbeffaf09\n              eq\n              tag_10\n              jumpi\n              dup1\n              0xe512fcf2\n              eq\n              tag_11\n              jumpi\n              dup1\n              0xec5630ca\n              eq\n              tag_12\n              jumpi\n              dup1\n              0xfc8c79b5\n              eq\n              tag_13\n              jumpi\n              jump(tag_1)\n            tag_14:\n              dup1\n              0x36685e44\n              eq\n              tag_2\n              jumpi\n              dup1\n              0x4b47e588\n              eq\n              tag_3\n              jumpi\n              dup1\n              0x5c0badfc\n              eq\n              tag_4\n              jumpi\n              dup1\n              0x603c0430\n              eq\n              tag_5\n              jumpi\n              dup1\n              0x8a72c0f1\n              eq\n              tag_6\n              jumpi\n              dup1\n              0x913b722c\n              eq\n              tag_7\n              jumpi\n            tag_1:\n              0x00\n              dup1\n              revert\n                /* \"EstatePlanning.sol\":1614:2240  function payoutTrust() public requireAdminTrustorOnly {... */\n            tag_2:\n              callvalue\n              dup1\n              iszero\n              tag_15\n              jumpi\n              0x00\n              dup1\n              revert\n            tag_15:\n              pop\n              tag_16\n              tag_17\n              jump\t// in\n            tag_16:\n              stop\n                /* \"EstatePlanning.sol\":3261:3358  function setTrustor(address _trustor) public requireAdminOnly {... */\n            tag_3:\n              callvalue\n              dup1\n              iszero\n              tag_18\n              jumpi\n              0x00\n              dup1\n              revert\n            tag_18:\n              pop\n              tag_19\n              0x04\n              dup1\n              calldatasize\n              sub\n              dup2\n              add\n              swap1\n              tag_20\n              swap2\n              swap1\n              tag_21\n              jump\t// in\n            tag_20:\n              tag_22\n              jump\t// in\n            tag_19:\n              stop\n                /* \"EstatePlanning.sol\":4337:4796  function getTrustDetails()... */\n            tag_4:\n              callvalue\n              dup1\n              iszero\n              tag_23\n              jumpi\n              0x00\n              dup1\n              revert\n            tag_23:\n              pop\n              tag_24\n              tag_25\n              jump\t// in\n            tag_24:\n              mload(0x40)\n              tag_26\n              swap9\n              swap8\n              swap7\n              swap6\n              swap5\n              swap4\n              swap3\n              swap2\n              swap1\n              tag_27\n              jump\t// in\n            tag_26:\n              mload(0x40)\n              dup1\n              swap2\n              sub\n              swap1\n              return\n                /* \"EstatePlanning.sol\":2627:2970  function enter(... */\n            tag_5:\n              tag_28\n              0x04\n              dup1\n              calldatasize\n              sub\n              dup2\n              add\n              swap1\n              tag_29\n              swap2\n              swap1\n              tag_30\n              jump\t// in\n            tag_29:\n              tag_31\n              jump\t// in\n            tag_28:\n              stop\n                /* \"EstatePlanning.sol\":1124:1182  mapping(address => uint256) public beneficiariesPercentage */\n            tag_6:\n              callvalue\n              dup1\n              iszero\n              tag_32\n              jumpi\n              0x00\n              dup1\n              revert\n            tag_32:\n              pop\n              tag_33\n              0x04\n              dup1\n              calldatasize\n              sub\n              dup2\n              add\n              swap1\n              tag_34\n              swap2\n              swap1\n              tag_21\n              jump\t// in\n            tag_34:\n              tag_35\n              jump\t// in\n            tag_33:\n              mload(0x40)\n              tag_36\n              swap2\n              swap1\n              tag_37\n              jump\t// in\n            tag_36:\n              mload(0x40)\n              dup1\n              swap2\n              sub\n              swap1\n              return\n                /* \"EstatePlanning.sol\":3949:4097  function getBeneficiaries()... */\n            tag_7:\n              callvalue\n              dup1\n              iszero\n              tag_38\n              jumpi\n              0x00\n              dup1\n              revert\n            tag_38:\n              pop\n              tag_39\n              tag_40\n              jump\t// in\n            tag_39:\n              mload(0x40)\n              tag_41\n              swap2\n              swap1\n              tag_42\n              jump\t// in\n            tag_41:\n              mload(0x40)\n              dup1\n              swap2\n              sub\n              swap1\n              return\n                /* \"EstatePlanning.sol\":1471:1573  function setRevoked(bool _isRevoked) public requireTrustorOnly {... */\n            tag_8:\n              callvalue\n              dup1\n              iszero\n              tag_43\n              jumpi\n              0x00\n              dup1\n              revert\n            tag_43:\n              pop\n              tag_44\n              0x04\n              dup1\n              calldatasize\n              sub\n              dup2\n              add\n              swap1\n              tag_45\n              swap2\n              swap1\n              tag_46\n              jump\t// in\n            tag_45:\n              tag_47\n              jump\t// in\n            tag_44:\n              stop\n                /* \"EstatePlanning.sol\":5409:5541  function setTrustees(address[] memory trustee)... */\n            tag_9:\n              tag_48\n              0x04\n              dup1\n              calldatasize\n              sub\n              dup2\n              add\n              swap1\n              tag_49\n              swap2\n              swap1\n              tag_50\n              jump\t// in\n            tag_49:\n              tag_51\n              jump\t// in\n            tag_48:\n              stop\n                /* \"EstatePlanning.sol\":3525:3663  function getTrustees()... */\n            tag_10:\n              callvalue\n              dup1\n              iszero\n              tag_52\n              jumpi\n              0x00\n              dup1\n              revert\n            tag_52:\n              pop\n              tag_53\n              tag_54\n              jump\t// in\n            tag_53:\n              mload(0x40)\n              tag_55\n              swap2\n              swap1\n              tag_42\n              jump\t// in\n            tag_55:\n              mload(0x40)\n              dup1\n              swap2\n              sub\n              swap1\n              return\n                /* \"EstatePlanning.sol\":3364:3491  function getTrustor()... */\n            tag_11:\n              callvalue\n              dup1\n              iszero\n              tag_56\n              jumpi\n              0x00\n              dup1\n              revert\n            tag_56:\n              pop\n              tag_57\n              tag_58\n              jump\t// in\n            tag_57:\n              mload(0x40)\n              tag_59\n              swap2\n              swap1\n              tag_60\n              jump\t// in\n            tag_59:\n              mload(0x40)\n              dup1\n              swap2\n              sub\n              swap1\n              return\n                /* \"EstatePlanning.sol\":1070:1092  address public trustor */\n            tag_12:\n              callvalue\n              dup1\n              iszero\n              tag_61\n              jumpi\n              0x00\n              dup1\n              revert\n            tag_61:\n              pop\n              tag_62\n              tag_63\n              jump\t// in\n            tag_62:\n              mload(0x40)\n              tag_64\n              swap2\n              swap1\n              tag_60\n              jump\t// in\n            tag_64:\n              mload(0x40)\n              dup1\n              swap2\n              sub\n              swap1\n              return\n                /* \"EstatePlanning.sol\":3714:3943  function setBeneficiaries(address beneficiary, uint256 num)... */\n            tag_13:\n              callvalue\n              dup1\n              iszero\n              tag_65\n              jumpi\n              0x00\n              dup1\n              revert\n            tag_65:\n              pop\n              tag_66\n              0x04\n              dup1\n              calldatasize\n              sub\n              dup2\n              add\n              swap1\n              tag_67\n              swap2\n              swap1\n              tag_68\n              jump\t// in\n            tag_67:\n              tag_69\n              jump\t// in\n            tag_66:\n              stop\n                /* \"EstatePlanning.sol\":1614:2240  function payoutTrust() public requireAdminTrustorOnly {... */\n            tag_17:\n                /* \"EstatePlanning.sol\":2313:2318  admin */\n              0x00\n              dup1\n              sload\n              swap1\n              0x0100\n              exp\n              swap1\n              div\n              0xffffffffffffffffffffffffffffffffffffffff\n              and\n                /* \"EstatePlanning.sol\":2299:2318  msg.sender == admin */\n              0xffffffffffffffffffffffffffffffffffffffff\n              and\n                /* \"EstatePlanning.sol\":2299:2309  msg.sender */\n              caller\n                /* \"EstatePlanning.sol\":2299:2318  msg.sender == admin */\n              0xffffffffffffffffffffffffffffffffffffffff\n              and\n              eq\n                /* \"EstatePlanning.sol\":2299:2343  msg.sender == admin || msg.sender == trustor */\n              dup1\n              tag_71\n              jumpi\n              pop\n                /* \"EstatePlanning.sol\":2336:2343  trustor */\n              0x02\n              0x00\n              swap1\n              sload\n              swap1\n              0x0100\n              exp\n              swap1\n              div\n              0xffffffffffffffffffffffffffffffffffffffff\n              and\n                /* \"EstatePlanning.sol\":2322:2343  msg.sender == trustor */\n              0xffffffffffffffffffffffffffffffffffffffff\n              and\n                /* \"EstatePlanning.sol\":2322:2332  msg.sender */\n              caller\n                /* \"EstatePlanning.sol\":2322:2343  msg.sender == trustor */\n              0xffffffffffffffffffffffffffffffffffffffff\n              and\n              eq\n                /* \"EstatePlanning.sol\":2299:2343  msg.sender == admin || msg.sender == trustor */\n            tag_71:\n                /* \"EstatePlanning.sol\":2291:2344  require(msg.sender == admin || msg.sender == trustor) */\n              tag_72\n              jumpi\n              0x00\n              dup1\n              revert\n            tag_72:\n                /* \"EstatePlanning.sol\":1699:1703  true */\n              0x01\n                /* \"EstatePlanning.sol\":1686:1703  isRevoked == true */\n              iszero\n              iszero\n                /* \"EstatePlanning.sol\":1686:1695  isRevoked */\n              0x08\n              0x01\n              swap1\n              sload\n              swap1\n              0x0100\n              exp\n              swap1\n              div\n              0xff\n              and\n                /* \"EstatePlanning.sol\":1686:1703  isRevoked == true */\n              iszero\n              iszero\n              eq\n                /* \"EstatePlanning.sol\":1678:1704  require(isRevoked == true) */\n              tag_74\n              jumpi\n              0x00\n              dup1\n              revert\n            tag_74:\n                /* \"EstatePlanning.sol\":1714:1733  uint256 arrayLength */\n              0x00\n                /* \"EstatePlanning.sol\":1736:1749  beneficiaries */\n              0x05\n                /* \"EstatePlanning.sol\":1736:1756  beneficiaries.length */\n              dup1\n              sload\n              swap1\n              pop\n                /* \"EstatePlanning.sol\":1714:1756  uint256 arrayLength = beneficiaries.length */\n              swap1\n              pop\n                /* \"EstatePlanning.sol\":1771:1780  uint256 i */\n              0x00\n                /* \"EstatePlanning.sol\":1766:2234  for (uint256 i = 0; i < arrayLength; i++) {... */\n            tag_75:\n                /* \"EstatePlanning.sol\":1790:1801  arrayLength */\n              dup2\n                /* \"EstatePlanning.sol\":1786:1787  i */\n              dup2\n                /* \"EstatePlanning.sol\":1786:1801  i < arrayLength */\n              lt\n                /* \"EstatePlanning.sol\":1766:2234  for (uint256 i = 0; i < arrayLength; i++) {... */\n              iszero\n              tag_76\n              jumpi\n                /* \"EstatePlanning.sol\":1881:1910  address payable payoutAddress */\n              0x00\n                /* \"EstatePlanning.sol\":1921:1934  beneficiaries */\n              0x05\n                /* \"EstatePlanning.sol\":1935:1936  i */\n              dup3\n                /* \"EstatePlanning.sol\":1921:1937  beneficiaries[i] */\n              dup2\n              sload\n              dup2\n              lt\n              tag_78\n              jumpi\n              tag_79\n              tag_80\n              jump\t// in\n            tag_79:\n            tag_78:\n              swap1\n              0x00\n              mstore\n              keccak256(0x00, 0x20)\n              add\n              0x00\n              swap1\n              sload\n              swap1\n              0x0100\n              exp\n              swap1\n              div\n              0xffffffffffffffffffffffffffffffffffffffff\n              and\n                /* \"EstatePlanning.sol\":1881:1938  address payable payoutAddress = payable(beneficiaries[i]) */\n              swap1\n              pop\n                /* \"EstatePlanning.sol\":2015:2033  uint256 percentage */\n              0x00\n                /* \"EstatePlanning.sol\":2036:2059  beneficiariesPercentage */\n              0x04\n                /* \"EstatePlanning.sol\":2036:2074  beneficiariesPercentage[payoutAddress] */\n              0x00\n                /* \"EstatePlanning.sol\":2060:2073  payoutAddress */\n              dup4\n                /* \"EstatePlanning.sol\":2036:2074  beneficiariesPercentage[payoutAddress] */\n              0xffffffffffffffffffffffffffffffffffffffff\n              and\n              0xffffffffffffffffffffffffffffffffffffffff\n              and\n              dup2\n              mstore\n              0x20\n              add\n              swap1\n              dup2\n              mstore\n              0x20\n              add\n              0x00\n              keccak256\n              sload\n                /* \"EstatePlanning.sol\":2015:2074  uint256 percentage = beneficiariesPercentage[payoutAddress] */\n              swap1\n              pop\n                /* \"EstatePlanning.sol\":2125:2138  payoutAddress */\n              dup2\n                /* \"EstatePlanning.sol\":2125:2147  payoutAddress.transfer */\n              0xffffffffffffffffffffffffffffffffffffffff\n              and\n                /* \"EstatePlanning.sol\":2125:2223  payoutAddress.transfer(... */\n              0x08fc\n                /* \"EstatePlanning.sol\":2204:2209  100.0 */\n              0x64\n                /* \"EstatePlanning.sol\":2190:2200  percentage */\n              dup4\n                /* \"EstatePlanning.sol\":2166:2187  address(this).balance */\n              selfbalance\n                /* \"EstatePlanning.sol\":2166:2200  address(this).balance * percentage */\n              tag_82\n              swap2\n              swap1\n              tag_83\n              jump\t// in\n            tag_82:\n                /* \"EstatePlanning.sol\":2165:2209  (address(this).balance * percentage) / 100.0 */\n              tag_84\n              swap2\n              swap1\n              tag_85\n              jump\t// in\n            tag_84:\n                /* \"EstatePlanning.sol\":2125:2223  payoutAddress.transfer(... */\n              swap1\n              dup2\n              iszero\n              mul\n              swap1\n              mload(0x40)\n              0x00\n              mload(0x40)\n              dup1\n              dup4\n              sub\n              dup2\n              dup6\n              dup9\n              dup9\n              call\n              swap4\n              pop\n              pop\n              pop\n              pop\n              iszero\n              dup1\n              iszero\n              tag_87\n              jumpi\n              returndatasize\n              0x00\n              dup1\n              returndatacopy\n              revert(0x00, returndatasize)\n            tag_87:\n              pop\n                /* \"EstatePlanning.sol\":1808:2234  {... */\n              pop\n              pop\n                /* \"EstatePlanning.sol\":1803:1806  i++ */\n              dup1\n              dup1\n              0x01\n              add\n              swap2\n              pop\n              pop\n                /* \"EstatePlanning.sol\":1766:2234  for (uint256 i = 0; i < arrayLength; i++) {... */\n              jump(tag_75)\n            tag_76:\n              pop\n                /* \"EstatePlanning.sol\":1668:2240  {... */\n              pop\n                /* \"EstatePlanning.sol\":1614:2240  function payoutTrust() public requireAdminTrustorOnly {... */\n              jump\t// out\n                /* \"EstatePlanning.sol\":3261:3358  function setTrustor(address _trustor) public requireAdminOnly {... */\n            tag_22:\n                /* \"EstatePlanning.sol\":4936:4941  admin */\n              0x00\n              dup1\n              sload\n              swap1\n              0x0100\n              exp\n              swap1\n              div\n              0xffffffffffffffffffffffffffffffffffffffff\n              and\n                /* \"EstatePlanning.sol\":4922:4941  msg.sender == admin */\n              0xffffffffffffffffffffffffffffffffffffffff\n              and\n                /* \"EstatePlanning.sol\":4922:4932  msg.sender */\n              caller\n                /* \"EstatePlanning.sol\":4922:4941  msg.sender == admin */\n              0xffffffffffffffffffffffffffffffffffffffff\n              and\n              eq\n                /* \"EstatePlanning.sol\":4914:4942  require(msg.sender == admin) */\n              tag_89\n              jumpi\n              0x00\n              dup1\n              revert\n            tag_89:\n                /* \"EstatePlanning.sol\":3343:3351  _trustor */\n              dup1\n                /* \"EstatePlanning.sol\":3333:3340  trustor */\n              0x02\n              0x00\n                /* \"EstatePlanning.sol\":3333:3351  trustor = _trustor */\n              0x0100\n              exp\n              dup2\n              sload\n              dup2\n              0xffffffffffffffffffffffffffffffffffffffff\n              mul\n              not\n              and\n              swap1\n              dup4\n              0xffffffffffffffffffffffffffffffffffffffff\n              and\n              mul\n              or\n              swap1\n              sstore\n              pop\n                /* \"EstatePlanning.sol\":3261:3358  function setTrustor(address _trustor) public requireAdminOnly {... */\n              pop\n              jump\t// out\n                /* \"EstatePlanning.sol\":4337:4796  function getTrustDetails()... */\n            tag_25:\n                /* \"EstatePlanning.sol\":4406:4413  address */\n              0x00\n                /* \"EstatePlanning.sol\":4423:4439  address[] memory */\n              0x60\n                /* \"EstatePlanning.sol\":4449:4456  uint256 */\n              0x00\n                /* \"EstatePlanning.sol\":4466:4479  string memory */\n              0x60\n                /* \"EstatePlanning.sol\":4489:4493  bool */\n              0x00\n                /* \"EstatePlanning.sol\":4503:4519  address[] memory */\n              0x60\n                /* \"EstatePlanning.sol\":4529:4545  uint256[] memory */\n              dup1\n                /* \"EstatePlanning.sol\":4555:4559  bool */\n              0x00\n                /* \"EstatePlanning.sol\":4601:4608  trustor */\n              0x02\n              0x00\n              swap1\n              sload\n              swap1\n              0x0100\n              exp\n              swap1\n              div\n              0xffffffffffffffffffffffffffffffffffffffff\n              and\n                /* \"EstatePlanning.sol\":4622:4630  trustees */\n              0x03\n                /* \"EstatePlanning.sol\":4644:4655  totalAmount */\n              sload(0x06)\n                /* \"EstatePlanning.sol\":4669:4678  trustName */\n              0x07\n                /* \"EstatePlanning.sol\":4692:4704  activeStatus */\n              0x08\n              0x00\n              swap1\n              sload\n              swap1\n              0x0100\n              exp\n              swap1\n              div\n              0xff\n              and\n                /* \"EstatePlanning.sol\":4718:4731  beneficiaries */\n              0x05\n                /* \"EstatePlanning.sol\":4745:4756  percentages */\n              0x0a\n                /* \"EstatePlanning.sol\":4770:4779  isRevoked */\n              0x08\n              0x01\n              swap1\n              sload\n              swap1\n              0x0100\n              exp\n              swap1\n              div\n              0xff\n              and\n                /* \"EstatePlanning.sol\":4580:4789  return (... */\n              dup7\n              dup1\n              sload\n              dup1\n              0x20\n              mul\n              0x20\n              add\n              mload(0x40)\n              swap1\n              dup2\n              add\n              0x40\n              mstore\n              dup1\n              swap3\n              swap2\n              swap1\n              dup2\n              dup2\n              mstore\n              0x20\n              add\n              dup3\n              dup1\n              sload\n              dup1\n              iszero\n              tag_92\n              jumpi\n              0x20\n              mul\n              dup3\n              add\n              swap2\n              swap1\n              0x00\n              mstore\n              keccak256(0x00, 0x20)\n              swap1\n            tag_93:\n              dup2\n              0x00\n              swap1\n              sload\n              swap1\n              0x0100\n              exp\n              swap1\n              div\n              0xffffffffffffffffffffffffffffffffffffffff\n              and\n              0xffffffffffffffffffffffffffffffffffffffff\n              and\n              dup2\n              mstore\n              0x20\n              add\n              swap1\n              0x01\n              add\n              swap1\n              dup1\n              dup4\n              gt\n              tag_93\n              jumpi\n            tag_92:\n              pop\n              pop\n              pop\n              pop\n              pop\n              swap7\n              pop\n              dup5\n              dup1\n              sload\n              tag_94\n              swap1\n              tag_95\n              jump\t// in\n            tag_94:\n              dup1\n              0x1f\n              add\n              0x20\n              dup1\n              swap2\n              div\n              mul\n              0x20\n              add\n              mload(0x40)\n              swap1\n              dup2\n              add\n              0x40\n              mstore\n              dup1\n              swap3\n              swap2\n              swap1\n              dup2\n              dup2\n              mstore\n              0x20\n              add\n              dup3\n              dup1\n              sload\n              tag_96\n              swap1\n              tag_95\n              jump\t// in\n            tag_96:\n              dup1\n              iszero\n              tag_97\n              jumpi\n              dup1\n              0x1f\n              lt\n              tag_98\n              jumpi\n              0x0100\n              dup1\n              dup4\n              sload\n              div\n              mul\n              dup4\n              mstore\n              swap2\n              0x20\n              add\n              swap2\n              jump(tag_97)\n            tag_98:\n              dup3\n              add\n              swap2\n              swap1\n              0x00\n              mstore\n              keccak256(0x00, 0x20)\n              swap1\n            tag_99:\n              dup2\n              sload\n              dup2\n              mstore\n              swap1\n              0x01\n              add\n              swap1\n              0x20\n              add\n              dup1\n              dup4\n              gt\n              tag_99\n              jumpi\n              dup3\n              swap1\n              sub\n              0x1f\n              and\n              dup3\n              add\n              swap2\n            tag_97:\n              pop\n              pop\n              pop\n              pop\n              pop\n              swap5\n              pop\n              dup3\n              dup1\n              sload\n              dup1\n              0x20\n              mul\n              0x20\n              add\n              mload(0x40)\n              swap1\n              dup2\n              add\n              0x40\n              mstore\n              dup1\n              swap3\n              swap2\n              swap1\n              dup2\n              dup2\n              mstore\n              0x20\n              add\n              dup3\n              dup1\n              sload\n              dup1\n              iszero\n              tag_100\n              jumpi\n              0x20\n              mul\n              dup3\n              add\n              swap2\n              swap1\n              0x00\n              mstore\n              keccak256(0x00, 0x20)\n              swap1\n            tag_101:\n              dup2\n              0x00\n              swap1\n              sload\n              swap1\n              0x0100\n              exp\n              swap1\n              div\n              0xffffffffffffffffffffffffffffffffffffffff\n              and\n              0xffffffffffffffffffffffffffffffffffffffff\n              and\n              dup2\n              mstore\n              0x20\n              add\n              swap1\n              0x01\n              add\n              swap1\n              dup1\n              dup4\n              gt\n              tag_101\n              jumpi\n            tag_100:\n              pop\n              pop\n              pop\n              pop\n              pop\n              swap3\n              pop\n              dup2\n              dup1\n              sload\n              dup1\n              0x20\n              mul\n              0x20\n              add\n              mload(0x40)\n              swap1\n              dup2\n              add\n              0x40\n              mstore\n              dup1\n              swap3\n              swap2\n              swap1\n              dup2\n              dup2\n              mstore\n              0x20\n              add\n              dup3\n              dup1\n              sload\n              dup1\n              iszero\n              tag_102\n              jumpi\n              0x20\n              mul\n              dup3\n              add\n              swap2\n              swap1\n              0x00\n              mstore\n              keccak256(0x00, 0x20)\n              swap1\n            tag_103:\n              dup2\n              sload\n              dup2\n              mstore\n              0x20\n              add\n              swap1\n              0x01\n              add\n              swap1\n              dup1\n              dup4\n              gt\n              tag_103\n              jumpi\n            tag_102:\n              pop\n              pop\n              pop\n              pop\n              pop\n              swap2\n              pop\n              swap8\n              pop\n              swap8\n              pop\n              swap8\n              pop\n              swap8\n              pop\n              swap8\n              pop\n              swap8\n              pop\n              swap8\n              pop\n              swap8\n              pop\n                /* \"EstatePlanning.sol\":4337:4796  function getTrustDetails()... */\n              swap1\n              swap2\n              swap3\n              swap4\n              swap5\n              swap6\n              swap7\n              swap8\n              jump\t// out\n                /* \"EstatePlanning.sol\":2627:2970  function enter(... */\n            tag_31:\n                /* \"EstatePlanning.sol\":2799:2809  msg.sender */\n              caller\n                /* \"EstatePlanning.sol\":2789:2796  trustor */\n              0x02\n              0x00\n                /* \"EstatePlanning.sol\":2789:2809  trustor = msg.sender */\n              0x0100\n              exp\n              dup2\n              sload\n              dup2\n              0xffffffffffffffffffffffffffffffffffffffff\n              mul\n              not\n              and\n              swap1\n              dup4\n              0xffffffffffffffffffffffffffffffffffffffff\n              and\n              mul\n              or\n              swap1\n              sstore\n              pop\n                /* \"EstatePlanning.sol\":2833:2842  msg.value */\n              callvalue\n                /* \"EstatePlanning.sol\":2819:2830  totalAmount */\n              0x06\n                /* \"EstatePlanning.sol\":2819:2842  totalAmount = msg.value */\n              dup2\n              swap1\n              sstore\n              pop\n                /* \"EstatePlanning.sol\":2883:2897  _beneficiaries */\n              dup3\n                /* \"EstatePlanning.sol\":2867:2880  beneficiaries */\n              0x05\n                /* \"EstatePlanning.sol\":2867:2897  beneficiaries = _beneficiaries */\n              swap1\n              dup1\n              mload\n              swap1\n              0x20\n              add\n              swap1\n              tag_105\n              swap3\n              swap2\n              swap1\n              tag_106\n              jump\t// in\n            tag_105:\n              pop\n                /* \"EstatePlanning.sol\":2921:2933  _percentages */\n              dup2\n                /* \"EstatePlanning.sol\":2907:2918  percentages */\n              0x0a\n                /* \"EstatePlanning.sol\":2907:2933  percentages = _percentages */\n              swap1\n              dup1\n              mload\n              swap1\n              0x20\n              add\n              swap1\n              tag_107\n              swap3\n              swap2\n              swap1\n              tag_108\n              jump\t// in\n            tag_107:\n              pop\n                /* \"EstatePlanning.sol\":2954:2963  _trustees */\n              dup1\n                /* \"EstatePlanning.sol\":2943:2951  trustees */\n              0x03\n                /* \"EstatePlanning.sol\":2943:2963  trustees = _trustees */\n              swap1\n              dup1\n              mload\n              swap1\n              0x20\n              add\n              swap1\n              tag_109\n              swap3\n              swap2\n              swap1\n              tag_106\n              jump\t// in\n            tag_109:\n              pop\n                /* \"EstatePlanning.sol\":2627:2970  function enter(... */\n              pop\n              pop\n              pop\n              jump\t// out\n                /* \"EstatePlanning.sol\":1124:1182  mapping(address => uint256) public beneficiariesPercentage */\n            tag_35:\n              mstore(0x20, 0x04)\n              dup1\n              0x00\n              mstore\n              keccak256(0x00, 0x40)\n              0x00\n              swap2\n              pop\n              swap1\n              pop\n              sload\n              dup2\n              jump\t// out\n                /* \"EstatePlanning.sol\":3949:4097  function getBeneficiaries()... */\n            tag_40:\n                /* \"EstatePlanning.sol\":4038:4054  address[] memory */\n              0x60\n                /* \"EstatePlanning.sol\":2313:2318  admin */\n              0x00\n              dup1\n              sload\n              swap1\n              0x0100\n              exp\n              swap1\n              div\n              0xffffffffffffffffffffffffffffffffffffffff\n              and\n                /* \"EstatePlanning.sol\":2299:2318  msg.sender == admin */\n              0xffffffffffffffffffffffffffffffffffffffff\n              and\n                /* \"EstatePlanning.sol\":2299:2309  msg.sender */\n              caller\n                /* \"EstatePlanning.sol\":2299:2318  msg.sender == admin */\n              0xffffffffffffffffffffffffffffffffffffffff\n              and\n              eq\n                /* \"EstatePlanning.sol\":2299:2343  msg.sender == admin || msg.sender == trustor */\n              dup1\n              tag_111\n              jumpi\n              pop\n                /* \"EstatePlanning.sol\":2336:2343  trustor */\n              0x02\n              0x00\n              swap1\n              sload\n              swap1\n              0x0100\n              exp\n              swap1\n              div\n              0xffffffffffffffffffffffffffffffffffffffff\n              and\n                /* \"EstatePlanning.sol\":2322:2343  msg.sender == trustor */\n              0xffffffffffffffffffffffffffffffffffffffff\n              and\n                /* \"EstatePlanning.sol\":2322:2332  msg.sender */\n              caller\n                /* \"EstatePlanning.sol\":2322:2343  msg.sender == trustor */\n              0xffffffffffffffffffffffffffffffffffffffff\n              and\n              eq\n                /* \"EstatePlanning.sol\":2299:2343  msg.sender == admin || msg.sender == trustor */\n            tag_111:\n                /* \"EstatePlanning.sol\":2291:2344  require(msg.sender == admin || msg.sender == trustor) */\n              tag_112\n              jumpi\n              0x00\n              dup1\n              revert\n            tag_112:\n                /* \"EstatePlanning.sol\":4077:4090  beneficiaries */\n              0x05\n                /* \"EstatePlanning.sol\":4070:4090  return beneficiaries */\n              dup1\n              sload\n              dup1\n              0x20\n              mul\n              0x20\n              add\n              mload(0x40)\n              swap1\n              dup2\n              add\n              0x40\n              mstore\n              dup1\n              swap3\n              swap2\n              swap1\n              dup2\n              dup2\n              mstore\n              0x20\n              add\n              dup3\n              dup1\n              sload\n              dup1\n              iszero\n              tag_114\n              jumpi\n              0x20\n              mul\n              dup3\n              add\n              swap2\n              swap1\n              0x00\n              mstore\n              keccak256(0x00, 0x20)\n              swap1\n            tag_115:\n              dup2\n              0x00\n              swap1\n              sload\n              swap1\n              0x0100\n              exp\n              swap1\n              div\n              0xffffffffffffffffffffffffffffffffffffffff\n              and\n              0xffffffffffffffffffffffffffffffffffffffff\n              and\n              dup2\n              mstore\n              0x20\n              add\n              swap1\n              0x01\n              add\n              swap1\n              dup1\n              dup4\n              gt\n              tag_115\n              jumpi\n            tag_114:\n              pop\n              pop\n              pop\n              pop\n              pop\n              swap1\n              pop\n                /* \"EstatePlanning.sol\":3949:4097  function getBeneficiaries()... */\n              swap1\n              jump\t// out\n                /* \"EstatePlanning.sol\":1471:1573  function setRevoked(bool _isRevoked) public requireTrustorOnly {... */\n            tag_47:\n                /* \"EstatePlanning.sol\":5129:5136  trustor */\n              0x02\n              0x00\n              swap1\n              sload\n              swap1\n              0x0100\n              exp\n              swap1\n              div\n              0xffffffffffffffffffffffffffffffffffffffff\n              and\n                /* \"EstatePlanning.sol\":5115:5136  msg.sender == trustor */\n              0xffffffffffffffffffffffffffffffffffffffff\n              and\n                /* \"EstatePlanning.sol\":5115:5125  msg.sender */\n              caller\n                /* \"EstatePlanning.sol\":5115:5136  msg.sender == trustor */\n              0xffffffffffffffffffffffffffffffffffffffff\n              and\n              eq\n                /* \"EstatePlanning.sol\":5107:5137  require(msg.sender == trustor) */\n              tag_117\n              jumpi\n              0x00\n              dup1\n              revert\n            tag_117:\n                /* \"EstatePlanning.sol\":1556:1566  _isRevoked */\n              dup1\n                /* \"EstatePlanning.sol\":1544:1553  isRevoked */\n              0x08\n              0x01\n                /* \"EstatePlanning.sol\":1544:1566  isRevoked = _isRevoked */\n              0x0100\n              exp\n              dup2\n              sload\n              dup2\n              0xff\n              mul\n              not\n              and\n              swap1\n              dup4\n              iszero\n              iszero\n              mul\n              or\n              swap1\n              sstore\n              pop\n                /* \"EstatePlanning.sol\":1471:1573  function setRevoked(bool _isRevoked) public requireTrustorOnly {... */\n              pop\n              jump\t// out\n                /* \"EstatePlanning.sol\":5409:5541  function setTrustees(address[] memory trustee)... */\n            tag_51:\n                /* \"EstatePlanning.sol\":5129:5136  trustor */\n              0x02\n              0x00\n              swap1\n              sload\n              swap1\n              0x0100\n              exp\n              swap1\n              div\n              0xffffffffffffffffffffffffffffffffffffffff\n              and\n                /* \"EstatePlanning.sol\":5115:5136  msg.sender == trustor */\n              0xffffffffffffffffffffffffffffffffffffffff\n              and\n                /* \"EstatePlanning.sol\":5115:5125  msg.sender */\n              caller\n                /* \"EstatePlanning.sol\":5115:5136  msg.sender == trustor */\n              0xffffffffffffffffffffffffffffffffffffffff\n              and\n              eq\n                /* \"EstatePlanning.sol\":5107:5137  require(msg.sender == trustor) */\n              tag_120\n              jumpi\n              0x00\n              dup1\n              revert\n            tag_120:\n                /* \"EstatePlanning.sol\":5527:5534  trustee */\n              dup1\n                /* \"EstatePlanning.sol\":5516:5524  trustees */\n              0x03\n                /* \"EstatePlanning.sol\":5516:5534  trustees = trustee */\n              swap1\n              dup1\n              mload\n              swap1\n              0x20\n              add\n              swap1\n              tag_122\n              swap3\n              swap2\n              swap1\n              tag_106\n              jump\t// in\n            tag_122:\n              pop\n                /* \"EstatePlanning.sol\":5409:5541  function setTrustees(address[] memory trustee)... */\n              pop\n              jump\t// out\n                /* \"EstatePlanning.sol\":3525:3663  function getTrustees()... */\n            tag_54:\n                /* \"EstatePlanning.sol\":3609:3625  address[] memory */\n              0x60\n                /* \"EstatePlanning.sol\":2313:2318  admin */\n              0x00\n              dup1\n              sload\n              swap1\n              0x0100\n              exp\n              swap1\n              div\n              0xffffffffffffffffffffffffffffffffffffffff\n              and\n                /* \"EstatePlanning.sol\":2299:2318  msg.sender == admin */\n              0xffffffffffffffffffffffffffffffffffffffff\n              and\n                /* \"EstatePlanning.sol\":2299:2309  msg.sender */\n              caller\n                /* \"EstatePlanning.sol\":2299:2318  msg.sender == admin */\n              0xffffffffffffffffffffffffffffffffffffffff\n              and\n              eq\n                /* \"EstatePlanning.sol\":2299:2343  msg.sender == admin || msg.sender == trustor */\n              dup1\n              tag_124\n              jumpi\n              pop\n                /* \"EstatePlanning.sol\":2336:2343  trustor */\n              0x02\n              0x00\n              swap1\n              sload\n              swap1\n              0x0100\n              exp\n              swap1\n              div\n              0xffffffffffffffffffffffffffffffffffffffff\n              and\n                /* \"EstatePlanning.sol\":2322:2343  msg.sender == trustor */\n              0xffffffffffffffffffffffffffffffffffffffff\n              and\n                /* \"EstatePlanning.sol\":2322:2332  msg.sender */\n              caller\n                /* \"EstatePlanning.sol\":2322:2343  msg.sender == trustor */\n              0xffffffffffffffffffffffffffffffffffffffff\n              and\n              eq\n                /* \"EstatePlanning.sol\":2299:2343  msg.sender == admin || msg.sender == trustor */\n            tag_124:\n                /* \"EstatePlanning.sol\":2291:2344  require(msg.sender == admin || msg.sender == trustor) */\n              tag_125\n              jumpi\n              0x00\n              dup1\n              revert\n            tag_125:\n                /* \"EstatePlanning.sol\":3648:3656  trustees */\n              0x03\n                /* \"EstatePlanning.sol\":3641:3656  return trustees */\n              dup1\n              sload\n              dup1\n              0x20\n              mul\n              0x20\n              add\n              mload(0x40)\n              swap1\n              dup2\n              add\n              0x40\n              mstore\n              dup1\n              swap3\n              swap2\n              swap1\n              dup2\n              dup2\n              mstore\n              0x20\n              add\n              dup3\n              dup1\n              sload\n              dup1\n              iszero\n              tag_127\n              jumpi\n              0x20\n              mul\n              dup3\n              add\n              swap2\n              swap1\n              0x00\n              mstore\n              keccak256(0x00, 0x20)\n              swap1\n            tag_128:\n              dup2\n              0x00\n              swap1\n              sload\n              swap1\n              0x0100\n              exp\n              swap1\n              div\n              0xffffffffffffffffffffffffffffffffffffffff\n              and\n              0xffffffffffffffffffffffffffffffffffffffff\n              and\n              dup2\n              mstore\n              0x20\n              add\n              swap1\n              0x01\n              add\n              swap1\n              dup1\n              dup4\n              gt\n              tag_128\n              jumpi\n            tag_127:\n              pop\n              pop\n              pop\n              pop\n              pop\n              swap1\n              pop\n                /* \"EstatePlanning.sol\":3525:3663  function getTrustees()... */\n              swap1\n              jump\t// out\n                /* \"EstatePlanning.sol\":3364:3491  function getTrustor()... */\n            tag_58:\n                /* \"EstatePlanning.sol\":3447:3454  address */\n              0x00\n                /* \"EstatePlanning.sol\":2313:2318  admin */\n              dup1\n              0x00\n              swap1\n              sload\n              swap1\n              0x0100\n              exp\n              swap1\n              div\n              0xffffffffffffffffffffffffffffffffffffffff\n              and\n                /* \"EstatePlanning.sol\":2299:2318  msg.sender == admin */\n              0xffffffffffffffffffffffffffffffffffffffff\n              and\n                /* \"EstatePlanning.sol\":2299:2309  msg.sender */\n              caller\n                /* \"EstatePlanning.sol\":2299:2318  msg.sender == admin */\n              0xffffffffffffffffffffffffffffffffffffffff\n              and\n              eq\n                /* \"EstatePlanning.sol\":2299:2343  msg.sender == admin || msg.sender == trustor */\n              dup1\n              tag_130\n              jumpi\n              pop\n                /* \"EstatePlanning.sol\":2336:2343  trustor */\n              0x02\n              0x00\n              swap1\n              sload\n              swap1\n              0x0100\n              exp\n              swap1\n              div\n              0xffffffffffffffffffffffffffffffffffffffff\n              and\n                /* \"EstatePlanning.sol\":2322:2343  msg.sender == trustor */\n              0xffffffffffffffffffffffffffffffffffffffff\n              and\n                /* \"EstatePlanning.sol\":2322:2332  msg.sender */\n              caller\n                /* \"EstatePlanning.sol\":2322:2343  msg.sender == trustor */\n              0xffffffffffffffffffffffffffffffffffffffff\n              and\n              eq\n                /* \"EstatePlanning.sol\":2299:2343  msg.sender == admin || msg.sender == trustor */\n            tag_130:\n                /* \"EstatePlanning.sol\":2291:2344  require(msg.sender == admin || msg.sender == trustor) */\n              tag_131\n              jumpi\n              0x00\n              dup1\n              revert\n            tag_131:\n                /* \"EstatePlanning.sol\":3477:3484  trustor */\n              0x02\n              0x00\n              swap1\n              sload\n              swap1\n              0x0100\n              exp\n              swap1\n              div\n              0xffffffffffffffffffffffffffffffffffffffff\n              and\n                /* \"EstatePlanning.sol\":3470:3484  return trustor */\n              swap1\n              pop\n                /* \"EstatePlanning.sol\":3364:3491  function getTrustor()... */\n              swap1\n              jump\t// out\n                /* \"EstatePlanning.sol\":1070:1092  address public trustor */\n            tag_63:\n              0x02\n              0x00\n              swap1\n              sload\n              swap1\n              0x0100\n              exp\n              swap1\n              div\n              0xffffffffffffffffffffffffffffffffffffffff\n              and\n              dup2\n              jump\t// out\n                /* \"EstatePlanning.sol\":3714:3943  function setBeneficiaries(address beneficiary, uint256 num)... */\n            tag_69:\n                /* \"EstatePlanning.sol\":5129:5136  trustor */\n              0x02\n              0x00\n              swap1\n              sload\n              swap1\n              0x0100\n              exp\n              swap1\n              div\n              0xffffffffffffffffffffffffffffffffffffffff\n              and\n                /* \"EstatePlanning.sol\":5115:5136  msg.sender == trustor */\n              0xffffffffffffffffffffffffffffffffffffffff\n              and\n                /* \"EstatePlanning.sol\":5115:5125  msg.sender */\n              caller\n                /* \"EstatePlanning.sol\":5115:5136  msg.sender == trustor */\n              0xffffffffffffffffffffffffffffffffffffffff\n              and\n              eq\n                /* \"EstatePlanning.sol\":5107:5137  require(msg.sender == trustor) */\n              tag_134\n              jumpi\n              0x00\n              dup1\n              revert\n            tag_134:\n                /* \"EstatePlanning.sol\":3861:3864  num */\n              dup1\n                /* \"EstatePlanning.sol\":3822:3845  beneficiariesPercentage */\n              0x04\n                /* \"EstatePlanning.sol\":3822:3858  beneficiariesPercentage[beneficiary] */\n              0x00\n                /* \"EstatePlanning.sol\":3846:3857  beneficiary */\n              dup5\n                /* \"EstatePlanning.sol\":3822:3858  beneficiariesPercentage[beneficiary] */\n              0xffffffffffffffffffffffffffffffffffffffff\n              and\n              0xffffffffffffffffffffffffffffffffffffffff\n              and\n              dup2\n              mstore\n              0x20\n              add\n              swap1\n              dup2\n              mstore\n              0x20\n              add\n              0x00\n              keccak256\n                /* \"EstatePlanning.sol\":3822:3864  beneficiariesPercentage[beneficiary] = num */\n              dup2\n              swap1\n              sstore\n              pop\n                /* \"EstatePlanning.sol\":3874:3887  beneficiaries */\n              0x05\n                /* \"EstatePlanning.sol\":3893:3904  beneficiary */\n              dup3\n                /* \"EstatePlanning.sol\":3874:3905  beneficiaries.push(beneficiary) */\n              swap1\n              dup1\n              0x01\n              dup2\n              sload\n              add\n              dup1\n              dup3\n              sstore\n              dup1\n              swap2\n              pop\n              pop\n              0x01\n              swap1\n              sub\n              swap1\n              0x00\n              mstore\n              keccak256(0x00, 0x20)\n              add\n              0x00\n              swap1\n              swap2\n              swap1\n              swap2\n              swap1\n              swap2\n              0x0100\n              exp\n              dup2\n              sload\n              dup2\n              0xffffffffffffffffffffffffffffffffffffffff\n              mul\n              not\n              and\n              swap1\n              dup4\n              0xffffffffffffffffffffffffffffffffffffffff\n              and\n              mul\n              or\n              swap1\n              sstore\n              pop\n                /* \"EstatePlanning.sol\":3915:3926  percentages */\n              0x0a\n                /* \"EstatePlanning.sol\":3932:3935  num */\n              dup2\n                /* \"EstatePlanning.sol\":3915:3936  percentages.push(num) */\n              swap1\n              dup1\n              0x01\n              dup2\n              sload\n              add\n              dup1\n              dup3\n              sstore\n              dup1\n              swap2\n              pop\n              pop\n              0x01\n              swap1\n              sub\n              swap1\n              0x00\n              mstore\n              keccak256(0x00, 0x20)\n              add\n              0x00\n              swap1\n              swap2\n              swap1\n              swap2\n              swap1\n              swap2\n              pop\n              sstore\n                /* \"EstatePlanning.sol\":3714:3943  function setBeneficiaries(address beneficiary, uint256 num)... */\n              pop\n              pop\n              jump\t// out\n            tag_106:\n              dup3\n              dup1\n              sload\n              dup3\n              dup3\n              sstore\n              swap1\n              0x00\n              mstore\n              keccak256(0x00, 0x20)\n              swap1\n              dup2\n              add\n              swap3\n              dup3\n              iszero\n              tag_138\n              jumpi\n              swap2\n              0x20\n              mul\n              dup3\n              add\n            tag_139:\n              dup3\n              dup2\n              gt\n              iszero\n              tag_140\n              jumpi\n              dup3\n              mload\n              dup3\n              exp(0x0100, 0x00)\n              dup2\n              sload\n              dup2\n              0xffffffffffffffffffffffffffffffffffffffff\n              mul\n              not\n              and\n              swap1\n              dup4\n              0xffffffffffffffffffffffffffffffffffffffff\n              and\n              mul\n              or\n              swap1\n              sstore\n              pop\n              swap2\n              0x20\n              add\n              swap2\n              swap1\n              0x01\n              add\n              swap1\n              jump(tag_139)\n            tag_140:\n            tag_138:\n              pop\n              swap1\n              pop\n              tag_141\n              swap2\n              swap1\n              tag_142\n              jump\t// in\n            tag_141:\n              pop\n              swap1\n              jump\t// out\n            tag_108:\n              dup3\n              dup1\n              sload\n              dup3\n              dup3\n              sstore\n              swap1\n              0x00\n              mstore\n              keccak256(0x00, 0x20)\n              swap1\n              dup2\n              add\n              swap3\n              dup3\n              iszero\n              tag_143\n              jumpi\n              swap2\n              0x20\n              mul\n              dup3\n              add\n            tag_144:\n              dup3\n              dup2\n              gt\n              iszero\n              tag_145\n              jumpi\n              dup3\n              mload\n              dup3\n              sstore\n              swap2\n              0x20\n              add\n              swap2\n              swap1\n              0x01\n              add\n              swap1\n              jump(tag_144)\n            tag_145:\n            tag_143:\n              pop\n              swap1\n              pop\n              tag_146\n              swap2\n              swap1\n              tag_142\n              jump\t// in\n            tag_146:\n              pop\n              swap1\n              jump\t// out\n            tag_142:\n            tag_147:\n              dup1\n              dup3\n              gt\n              iszero\n              tag_148\n              jumpi\n              0x00\n              dup2\n              0x00\n              swap1\n              sstore\n              pop\n              0x01\n              add\n              jump(tag_147)\n            tag_148:\n              pop\n              swap1\n              jump\t// out\n                /* \"#utility.yul\":7:82   */\n            tag_149:\n                /* \"#utility.yul\":40:46   */\n              0x00\n                /* \"#utility.yul\":73:75   */\n              0x40\n                /* \"#utility.yul\":67:76   */\n              mload\n                /* \"#utility.yul\":57:76   */\n              swap1\n              pop\n                /* \"#utility.yul\":7:82   */\n              swap1\n              jump\t// out\n                /* \"#utility.yul\":88:205   */\n            tag_150:\n                /* \"#utility.yul\":197:198   */\n              0x00\n                /* \"#utility.yul\":194:195   */\n              dup1\n                /* \"#utility.yul\":187:199   */\n              revert\n                /* \"#utility.yul\":211:328   */\n            tag_151:\n                /* \"#utility.yul\":320:321   */\n              0x00\n                /* \"#utility.yul\":317:318   */\n              dup1\n                /* \"#utility.yul\":310:322   */\n              revert\n                /* \"#utility.yul\":334:460   */\n            tag_152:\n                /* \"#utility.yul\":371:378   */\n              0x00\n                /* \"#utility.yul\":411:453   */\n              0xffffffffffffffffffffffffffffffffffffffff\n                /* \"#utility.yul\":404:409   */\n              dup3\n                /* \"#utility.yul\":400:454   */\n              and\n                /* \"#utility.yul\":389:454   */\n              swap1\n              pop\n                /* \"#utility.yul\":334:460   */\n              swap2\n              swap1\n              pop\n              jump\t// out\n                /* \"#utility.yul\":466:562   */\n            tag_153:\n                /* \"#utility.yul\":503:510   */\n              0x00\n                /* \"#utility.yul\":532:556   */\n              tag_204\n                /* \"#utility.yul\":550:555   */\n              dup3\n                /* \"#utility.yul\":532:556   */\n              tag_152\n              jump\t// in\n            tag_204:\n                /* \"#utility.yul\":521:556   */\n              swap1\n              pop\n                /* \"#utility.yul\":466:562   */\n              swap2\n              swap1\n              pop\n              jump\t// out\n                /* \"#utility.yul\":568:690   */\n            tag_154:\n                /* \"#utility.yul\":641:665   */\n              tag_206\n                /* \"#utility.yul\":659:664   */\n              dup2\n                /* \"#utility.yul\":641:665   */\n              tag_153\n              jump\t// in\n            tag_206:\n                /* \"#utility.yul\":634:639   */\n              dup2\n                /* \"#utility.yul\":631:666   */\n              eq\n                /* \"#utility.yul\":621:684   */\n              tag_207\n              jumpi\n                /* \"#utility.yul\":680:681   */\n              0x00\n                /* \"#utility.yul\":677:678   */\n              dup1\n                /* \"#utility.yul\":670:682   */\n              revert\n                /* \"#utility.yul\":621:684   */\n            tag_207:\n                /* \"#utility.yul\":568:690   */\n              pop\n              jump\t// out\n                /* \"#utility.yul\":696:835   */\n            tag_155:\n                /* \"#utility.yul\":742:747   */\n              0x00\n                /* \"#utility.yul\":780:786   */\n              dup2\n                /* \"#utility.yul\":767:787   */\n              calldataload\n                /* \"#utility.yul\":758:787   */\n              swap1\n              pop\n                /* \"#utility.yul\":796:829   */\n              tag_209\n                /* \"#utility.yul\":823:828   */\n              dup2\n                /* \"#utility.yul\":796:829   */\n              tag_154\n              jump\t// in\n            tag_209:\n                /* \"#utility.yul\":696:835   */\n              swap3\n              swap2\n              pop\n              pop\n              jump\t// out\n                /* \"#utility.yul\":841:1170   */\n            tag_21:\n                /* \"#utility.yul\":900:906   */\n              0x00\n                /* \"#utility.yul\":949:951   */\n              0x20\n                /* \"#utility.yul\":937:946   */\n              dup3\n                /* \"#utility.yul\":928:935   */\n              dup5\n                /* \"#utility.yul\":924:947   */\n              sub\n                /* \"#utility.yul\":920:952   */\n              slt\n                /* \"#utility.yul\":917:1036   */\n              iszero\n              tag_211\n              jumpi\n                /* \"#utility.yul\":955:1034   */\n              tag_212\n              tag_150\n              jump\t// in\n            tag_212:\n                /* \"#utility.yul\":917:1036   */\n            tag_211:\n                /* \"#utility.yul\":1075:1076   */\n              0x00\n                /* \"#utility.yul\":1100:1153   */\n              tag_213\n                /* \"#utility.yul\":1145:1152   */\n              dup5\n                /* \"#utility.yul\":1136:1142   */\n              dup3\n                /* \"#utility.yul\":1125:1134   */\n              dup6\n                /* \"#utility.yul\":1121:1143   */\n              add\n                /* \"#utility.yul\":1100:1153   */\n              tag_155\n              jump\t// in\n            tag_213:\n                /* \"#utility.yul\":1090:1153   */\n              swap2\n              pop\n                /* \"#utility.yul\":1046:1163   */\n              pop\n                /* \"#utility.yul\":841:1170   */\n              swap3\n              swap2\n              pop\n              pop\n              jump\t// out\n                /* \"#utility.yul\":1176:1294   */\n            tag_156:\n                /* \"#utility.yul\":1263:1287   */\n              tag_215\n                /* \"#utility.yul\":1281:1286   */\n              dup2\n                /* \"#utility.yul\":1263:1287   */\n              tag_153\n              jump\t// in\n            tag_215:\n                /* \"#utility.yul\":1258:1261   */\n              dup3\n                /* \"#utility.yul\":1251:1288   */\n              mstore\n                /* \"#utility.yul\":1176:1294   */\n              pop\n              pop\n              jump\t// out\n                /* \"#utility.yul\":1300:1414   */\n            tag_157:\n                /* \"#utility.yul\":1367:1373   */\n              0x00\n                /* \"#utility.yul\":1401:1406   */\n              dup2\n                /* \"#utility.yul\":1395:1407   */\n              mload\n                /* \"#utility.yul\":1385:1407   */\n              swap1\n              pop\n                /* \"#utility.yul\":1300:1414   */\n              swap2\n              swap1\n              pop\n              jump\t// out\n                /* \"#utility.yul\":1420:1604   */\n            tag_158:\n                /* \"#utility.yul\":1519:1530   */\n              0x00\n                /* \"#utility.yul\":1553:1559   */\n              dup3\n                /* \"#utility.yul\":1548:1551   */\n              dup3\n                /* \"#utility.yul\":1541:1560   */\n              mstore\n                /* \"#utility.yul\":1593:1597   */\n              0x20\n                /* \"#utility.yul\":1588:1591   */\n              dup3\n                /* \"#utility.yul\":1584:1598   */\n              add\n                /* \"#utility.yul\":1569:1598   */\n              swap1\n              pop\n                /* \"#utility.yul\":1420:1604   */\n              swap3\n              swap2\n              pop\n              pop\n              jump\t// out\n                /* \"#utility.yul\":1610:1742   */\n            tag_159:\n                /* \"#utility.yul\":1677:1681   */\n              0x00\n                /* \"#utility.yul\":1700:1703   */\n              dup2\n                /* \"#utility.yul\":1692:1703   */\n              swap1\n              pop\n                /* \"#utility.yul\":1730:1734   */\n              0x20\n                /* \"#utility.yul\":1725:1728   */\n              dup3\n                /* \"#utility.yul\":1721:1735   */\n              add\n                /* \"#utility.yul\":1713:1735   */\n              swap1\n              pop\n                /* \"#utility.yul\":1610:1742   */\n              swap2\n              swap1\n              pop\n              jump\t// out\n                /* \"#utility.yul\":1748:1856   */\n            tag_160:\n                /* \"#utility.yul\":1825:1849   */\n              tag_220\n                /* \"#utility.yul\":1843:1848   */\n              dup2\n                /* \"#utility.yul\":1825:1849   */\n              tag_153\n              jump\t// in\n            tag_220:\n                /* \"#utility.yul\":1820:1823   */\n              dup3\n                /* \"#utility.yul\":1813:1850   */\n              mstore\n                /* \"#utility.yul\":1748:1856   */\n              pop\n              pop\n              jump\t// out\n                /* \"#utility.yul\":1862:2041   */\n            tag_161:\n                /* \"#utility.yul\":1931:1941   */\n              0x00\n                /* \"#utility.yul\":1952:1998   */\n              tag_222\n                /* \"#utility.yul\":1994:1997   */\n              dup4\n                /* \"#utility.yul\":1986:1992   */\n              dup4\n                /* \"#utility.yul\":1952:1998   */\n              tag_160\n              jump\t// in\n            tag_222:\n                /* \"#utility.yul\":2030:2034   */\n              0x20\n                /* \"#utility.yul\":2025:2028   */\n              dup4\n                /* \"#utility.yul\":2021:2035   */\n              add\n                /* \"#utility.yul\":2007:2035   */\n              swap1\n              pop\n                /* \"#utility.yul\":1862:2041   */\n              swap3\n              swap2\n              pop\n              pop\n              jump\t// out\n                /* \"#utility.yul\":2047:2160   */\n            tag_162:\n                /* \"#utility.yul\":2117:2121   */\n              0x00\n                /* \"#utility.yul\":2149:2153   */\n              0x20\n                /* \"#utility.yul\":2144:2147   */\n              dup3\n                /* \"#utility.yul\":2140:2154   */\n              add\n                /* \"#utility.yul\":2132:2154   */\n              swap1\n              pop\n                /* \"#utility.yul\":2047:2160   */\n              swap2\n              swap1\n              pop\n              jump\t// out\n                /* \"#utility.yul\":2196:2928   */\n            tag_163:\n                /* \"#utility.yul\":2315:2318   */\n              0x00\n                /* \"#utility.yul\":2344:2398   */\n              tag_225\n                /* \"#utility.yul\":2392:2397   */\n              dup3\n                /* \"#utility.yul\":2344:2398   */\n              tag_157\n              jump\t// in\n            tag_225:\n                /* \"#utility.yul\":2414:2500   */\n              tag_226\n                /* \"#utility.yul\":2493:2499   */\n              dup2\n                /* \"#utility.yul\":2488:2491   */\n              dup6\n                /* \"#utility.yul\":2414:2500   */\n              tag_158\n              jump\t// in\n            tag_226:\n                /* \"#utility.yul\":2407:2500   */\n              swap4\n              pop\n                /* \"#utility.yul\":2524:2580   */\n              tag_227\n                /* \"#utility.yul\":2574:2579   */\n              dup4\n                /* \"#utility.yul\":2524:2580   */\n              tag_159\n              jump\t// in\n            tag_227:\n                /* \"#utility.yul\":2603:2610   */\n              dup1\n                /* \"#utility.yul\":2634:2635   */\n              0x00\n                /* \"#utility.yul\":2619:2903   */\n            tag_228:\n                /* \"#utility.yul\":2644:2650   */\n              dup4\n                /* \"#utility.yul\":2641:2642   */\n              dup2\n                /* \"#utility.yul\":2638:2651   */\n              lt\n                /* \"#utility.yul\":2619:2903   */\n              iszero\n              tag_230\n              jumpi\n                /* \"#utility.yul\":2720:2726   */\n              dup2\n                /* \"#utility.yul\":2714:2727   */\n              mload\n                /* \"#utility.yul\":2747:2810   */\n              tag_231\n                /* \"#utility.yul\":2806:2809   */\n              dup9\n                /* \"#utility.yul\":2791:2804   */\n              dup3\n                /* \"#utility.yul\":2747:2810   */\n              tag_161\n              jump\t// in\n            tag_231:\n                /* \"#utility.yul\":2740:2810   */\n              swap8\n              pop\n                /* \"#utility.yul\":2833:2893   */\n              tag_232\n                /* \"#utility.yul\":2886:2892   */\n              dup4\n                /* \"#utility.yul\":2833:2893   */\n              tag_162\n              jump\t// in\n            tag_232:\n                /* \"#utility.yul\":2823:2893   */\n              swap3\n              pop\n                /* \"#utility.yul\":2679:2903   */\n              pop\n                /* \"#utility.yul\":2666:2667   */\n              0x01\n                /* \"#utility.yul\":2663:2664   */\n              dup2\n                /* \"#utility.yul\":2659:2668   */\n              add\n                /* \"#utility.yul\":2654:2668   */\n              swap1\n              pop\n                /* \"#utility.yul\":2619:2903   */\n              jump(tag_228)\n            tag_230:\n                /* \"#utility.yul\":2623:2637   */\n              pop\n                /* \"#utility.yul\":2919:2922   */\n              dup6\n                /* \"#utility.yul\":2912:2922   */\n              swap4\n              pop\n                /* \"#utility.yul\":2320:2928   */\n              pop\n              pop\n              pop\n                /* \"#utility.yul\":2196:2928   */\n              swap3\n              swap2\n              pop\n              pop\n              jump\t// out\n                /* \"#utility.yul\":2934:3011   */\n            tag_164:\n                /* \"#utility.yul\":2971:2978   */\n              0x00\n                /* \"#utility.yul\":3000:3005   */\n              dup2\n                /* \"#utility.yul\":2989:3005   */\n              swap1\n              pop\n                /* \"#utility.yul\":2934:3011   */\n              swap2\n              swap1\n              pop\n              jump\t// out\n                /* \"#utility.yul\":3017:3135   */\n            tag_165:\n                /* \"#utility.yul\":3104:3128   */\n              tag_235\n                /* \"#utility.yul\":3122:3127   */\n              dup2\n                /* \"#utility.yul\":3104:3128   */\n              tag_164\n              jump\t// in\n            tag_235:\n                /* \"#utility.yul\":3099:3102   */\n              dup3\n                /* \"#utility.yul\":3092:3129   */\n              mstore\n                /* \"#utility.yul\":3017:3135   */\n              pop\n              pop\n              jump\t// out\n                /* \"#utility.yul\":3141:3240   */\n            tag_166:\n                /* \"#utility.yul\":3193:3199   */\n              0x00\n                /* \"#utility.yul\":3227:3232   */\n              dup2\n                /* \"#utility.yul\":3221:3233   */\n              mload\n                /* \"#utility.yul\":3211:3233   */\n              swap1\n              pop\n                /* \"#utility.yul\":3141:3240   */\n              swap2\n              swap1\n              pop\n              jump\t// out\n                /* \"#utility.yul\":3246:3415   */\n            tag_167:\n                /* \"#utility.yul\":3330:3341   */\n              0x00\n                /* \"#utility.yul\":3364:3370   */\n              dup3\n                /* \"#utility.yul\":3359:3362   */\n              dup3\n                /* \"#utility.yul\":3352:3371   */\n              mstore\n                /* \"#utility.yul\":3404:3408   */\n              0x20\n                /* \"#utility.yul\":3399:3402   */\n              dup3\n                /* \"#utility.yul\":3395:3409   */\n              add\n                /* \"#utility.yul\":3380:3409   */\n              swap1\n              pop\n                /* \"#utility.yul\":3246:3415   */\n              swap3\n              swap2\n              pop\n              pop\n              jump\t// out\n                /* \"#utility.yul\":3421:3667   */\n            tag_168:\n                /* \"#utility.yul\":3502:3503   */\n              0x00\n                /* \"#utility.yul\":3512:3625   */\n            tag_239:\n                /* \"#utility.yul\":3526:3532   */\n              dup4\n                /* \"#utility.yul\":3523:3524   */\n              dup2\n                /* \"#utility.yul\":3520:3533   */\n              lt\n                /* \"#utility.yul\":3512:3625   */\n              iszero\n              tag_241\n              jumpi\n                /* \"#utility.yul\":3611:3612   */\n              dup1\n                /* \"#utility.yul\":3606:3609   */\n              dup3\n                /* \"#utility.yul\":3602:3613   */\n              add\n                /* \"#utility.yul\":3596:3614   */\n              mload\n                /* \"#utility.yul\":3592:3593   */\n              dup2\n                /* \"#utility.yul\":3587:3590   */\n              dup5\n                /* \"#utility.yul\":3583:3594   */\n              add\n                /* \"#utility.yul\":3576:3615   */\n              mstore\n                /* \"#utility.yul\":3548:3550   */\n              0x20\n                /* \"#utility.yul\":3545:3546   */\n              dup2\n                /* \"#utility.yul\":3541:3551   */\n              add\n                /* \"#utility.yul\":3536:3551   */\n              swap1\n              pop\n                /* \"#utility.yul\":3512:3625   */\n              jump(tag_239)\n            tag_241:\n                /* \"#utility.yul\":3659:3660   */\n              0x00\n                /* \"#utility.yul\":3650:3656   */\n              dup5\n                /* \"#utility.yul\":3645:3648   */\n              dup5\n                /* \"#utility.yul\":3641:3657   */\n              add\n                /* \"#utility.yul\":3634:3661   */\n              mstore\n                /* \"#utility.yul\":3483:3667   */\n              pop\n                /* \"#utility.yul\":3421:3667   */\n              pop\n              pop\n              pop\n              jump\t// out\n                /* \"#utility.yul\":3673:3775   */\n            tag_169:\n                /* \"#utility.yul\":3714:3720   */\n              0x00\n                /* \"#utility.yul\":3765:3767   */\n              0x1f\n                /* \"#utility.yul\":3761:3768   */\n              not\n                /* \"#utility.yul\":3756:3758   */\n              0x1f\n                /* \"#utility.yul\":3749:3754   */\n              dup4\n                /* \"#utility.yul\":3745:3759   */\n              add\n                /* \"#utility.yul\":3741:3769   */\n              and\n                /* \"#utility.yul\":3731:3769   */\n              swap1\n              pop\n                /* \"#utility.yul\":3673:3775   */\n              swap2\n              swap1\n              pop\n              jump\t// out\n                /* \"#utility.yul\":3781:4158   */\n            tag_170:\n                /* \"#utility.yul\":3869:3872   */\n              0x00\n                /* \"#utility.yul\":3897:3936   */\n              tag_244\n                /* \"#utility.yul\":3930:3935   */\n              dup3\n                /* \"#utility.yul\":3897:3936   */\n              tag_166\n              jump\t// in\n            tag_244:\n                /* \"#utility.yul\":3952:4023   */\n              tag_245\n                /* \"#utility.yul\":4016:4022   */\n              dup2\n                /* \"#utility.yul\":4011:4014   */\n              dup6\n                /* \"#utility.yul\":3952:4023   */\n              tag_167\n              jump\t// in\n            tag_245:\n                /* \"#utility.yul\":3945:4023   */\n              swap4\n              pop\n                /* \"#utility.yul\":4032:4097   */\n              tag_246\n                /* \"#utility.yul\":4090:4096   */\n              dup2\n                /* \"#utility.yul\":4085:4088   */\n              dup6\n                /* \"#utility.yul\":4078:4082   */\n              0x20\n                /* \"#utility.yul\":4071:4076   */\n              dup7\n                /* \"#utility.yul\":4067:4083   */\n              add\n                /* \"#utility.yul\":4032:4097   */\n              tag_168\n              jump\t// in\n            tag_246:\n                /* \"#utility.yul\":4122:4151   */\n              tag_247\n                /* \"#utility.yul\":4144:4150   */\n              dup2\n                /* \"#utility.yul\":4122:4151   */\n              tag_169\n              jump\t// in\n            tag_247:\n                /* \"#utility.yul\":4117:4120   */\n              dup5\n                /* \"#utility.yul\":4113:4152   */\n              add\n                /* \"#utility.yul\":4106:4152   */\n              swap2\n              pop\n                /* \"#utility.yul\":3873:4158   */\n              pop\n                /* \"#utility.yul\":3781:4158   */\n              swap3\n              swap2\n              pop\n              pop\n              jump\t// out\n                /* \"#utility.yul\":4164:4254   */\n            tag_171:\n                /* \"#utility.yul\":4198:4205   */\n              0x00\n                /* \"#utility.yul\":4241:4246   */\n              dup2\n                /* \"#utility.yul\":4234:4247   */\n              iszero\n                /* \"#utility.yul\":4227:4248   */\n              iszero\n                /* \"#utility.yul\":4216:4248   */\n              swap1\n              pop\n                /* \"#utility.yul\":4164:4254   */\n              swap2\n              swap1\n              pop\n              jump\t// out\n                /* \"#utility.yul\":4260:4369   */\n            tag_172:\n                /* \"#utility.yul\":4341:4362   */\n              tag_250\n                /* \"#utility.yul\":4356:4361   */\n              dup2\n                /* \"#utility.yul\":4341:4362   */\n              tag_171\n              jump\t// in\n            tag_250:\n                /* \"#utility.yul\":4336:4339   */\n              dup3\n                /* \"#utility.yul\":4329:4363   */\n              mstore\n                /* \"#utility.yul\":4260:4369   */\n              pop\n              pop\n              jump\t// out\n                /* \"#utility.yul\":4375:4489   */\n            tag_173:\n                /* \"#utility.yul\":4442:4448   */\n              0x00\n                /* \"#utility.yul\":4476:4481   */\n              dup2\n                /* \"#utility.yul\":4470:4482   */\n              mload\n                /* \"#utility.yul\":4460:4482   */\n              swap1\n              pop\n                /* \"#utility.yul\":4375:4489   */\n              swap2\n              swap1\n              pop\n              jump\t// out\n                /* \"#utility.yul\":4495:4679   */\n            tag_174:\n                /* \"#utility.yul\":4594:4605   */\n              0x00\n                /* \"#utility.yul\":4628:4634   */\n              dup3\n                /* \"#utility.yul\":4623:4626   */\n              dup3\n                /* \"#utility.yul\":4616:4635   */\n              mstore\n                /* \"#utility.yul\":4668:4672   */\n              0x20\n                /* \"#utility.yul\":4663:4666   */\n              dup3\n                /* \"#utility.yul\":4659:4673   */\n              add\n                /* \"#utility.yul\":4644:4673   */\n              swap1\n              pop\n                /* \"#utility.yul\":4495:4679   */\n              swap3\n              swap2\n              pop\n              pop\n              jump\t// out\n                /* \"#utility.yul\":4685:4817   */\n            tag_175:\n                /* \"#utility.yul\":4752:4756   */\n              0x00\n                /* \"#utility.yul\":4775:4778   */\n              dup2\n                /* \"#utility.yul\":4767:4778   */\n              swap1\n              pop\n                /* \"#utility.yul\":4805:4809   */\n              0x20\n                /* \"#utility.yul\":4800:4803   */\n              dup3\n                /* \"#utility.yul\":4796:4810   */\n              add\n                /* \"#utility.yul\":4788:4810   */\n              swap1\n              pop\n                /* \"#utility.yul\":4685:4817   */\n              swap2\n              swap1\n              pop\n              jump\t// out\n                /* \"#utility.yul\":4823:4931   */\n            tag_176:\n                /* \"#utility.yul\":4900:4924   */\n              tag_255\n                /* \"#utility.yul\":4918:4923   */\n              dup2\n                /* \"#utility.yul\":4900:4924   */\n              tag_164\n              jump\t// in\n            tag_255:\n                /* \"#utility.yul\":4895:4898   */\n              dup3\n                /* \"#utility.yul\":4888:4925   */\n              mstore\n                /* \"#utility.yul\":4823:4931   */\n              pop\n              pop\n              jump\t// out\n                /* \"#utility.yul\":4937:5116   */\n            tag_177:\n                /* \"#utility.yul\":5006:5016   */\n              0x00\n                /* \"#utility.yul\":5027:5073   */\n              tag_257\n                /* \"#utility.yul\":5069:5072   */\n              dup4\n                /* \"#utility.yul\":5061:5067   */\n              dup4\n                /* \"#utility.yul\":5027:5073   */\n              tag_176\n              jump\t// in\n            tag_257:\n                /* \"#utility.yul\":5105:5109   */\n              0x20\n                /* \"#utility.yul\":5100:5103   */\n              dup4\n                /* \"#utility.yul\":5096:5110   */\n              add\n                /* \"#utility.yul\":5082:5110   */\n              swap1\n              pop\n                /* \"#utility.yul\":4937:5116   */\n              swap3\n              swap2\n              pop\n              pop\n              jump\t// out\n                /* \"#utility.yul\":5122:5235   */\n            tag_178:\n                /* \"#utility.yul\":5192:5196   */\n              0x00\n                /* \"#utility.yul\":5224:5228   */\n              0x20\n                /* \"#utility.yul\":5219:5222   */\n              dup3\n                /* \"#utility.yul\":5215:5229   */\n              add\n                /* \"#utility.yul\":5207:5229   */\n              swap1\n              pop\n                /* \"#utility.yul\":5122:5235   */\n              swap2\n              swap1\n              pop\n              jump\t// out\n                /* \"#utility.yul\":5271:6003   */\n            tag_179:\n                /* \"#utility.yul\":5390:5393   */\n              0x00\n                /* \"#utility.yul\":5419:5473   */\n              tag_260\n                /* \"#utility.yul\":5467:5472   */\n              dup3\n                /* \"#utility.yul\":5419:5473   */\n              tag_173\n              jump\t// in\n            tag_260:\n                /* \"#utility.yul\":5489:5575   */\n              tag_261\n                /* \"#utility.yul\":5568:5574   */\n              dup2\n                /* \"#utility.yul\":5563:5566   */\n              dup6\n                /* \"#utility.yul\":5489:5575   */\n              tag_174\n              jump\t// in\n            tag_261:\n                /* \"#utility.yul\":5482:5575   */\n              swap4\n              pop\n                /* \"#utility.yul\":5599:5655   */\n              tag_262\n                /* \"#utility.yul\":5649:5654   */\n              dup4\n                /* \"#utility.yul\":5599:5655   */\n              tag_175\n              jump\t// in\n            tag_262:\n                /* \"#utility.yul\":5678:5685   */\n              dup1\n                /* \"#utility.yul\":5709:5710   */\n              0x00\n                /* \"#utility.yul\":5694:5978   */\n            tag_263:\n                /* \"#utility.yul\":5719:5725   */\n              dup4\n                /* \"#utility.yul\":5716:5717   */\n              dup2\n                /* \"#utility.yul\":5713:5726   */\n              lt\n                /* \"#utility.yul\":5694:5978   */\n              iszero\n              tag_265\n              jumpi\n                /* \"#utility.yul\":5795:5801   */\n              dup2\n                /* \"#utility.yul\":5789:5802   */\n              mload\n                /* \"#utility.yul\":5822:5885   */\n              tag_266\n                /* \"#utility.yul\":5881:5884   */\n              dup9\n                /* \"#utility.yul\":5866:5879   */\n              dup3\n                /* \"#utility.yul\":5822:5885   */\n              tag_177\n              jump\t// in\n            tag_266:\n                /* \"#utility.yul\":5815:5885   */\n              swap8\n              pop\n                /* \"#utility.yul\":5908:5968   */\n              tag_267\n                /* \"#utility.yul\":5961:5967   */\n              dup4\n                /* \"#utility.yul\":5908:5968   */\n              tag_178\n              jump\t// in\n            tag_267:\n                /* \"#utility.yul\":5898:5968   */\n              swap3\n              pop\n                /* \"#utility.yul\":5754:5978   */\n              pop\n                /* \"#utility.yul\":5741:5742   */\n              0x01\n                /* \"#utility.yul\":5738:5739   */\n              dup2\n                /* \"#utility.yul\":5734:5743   */\n              add\n                /* \"#utility.yul\":5729:5743   */\n              swap1\n              pop\n                /* \"#utility.yul\":5694:5978   */\n              jump(tag_263)\n            tag_265:\n                /* \"#utility.yul\":5698:5712   */\n              pop\n                /* \"#utility.yul\":5994:5997   */\n              dup6\n                /* \"#utility.yul\":5987:5997   */\n              swap4\n              pop\n                /* \"#utility.yul\":5395:6003   */\n              pop\n              pop\n              pop\n                /* \"#utility.yul\":5271:6003   */\n              swap3\n              swap2\n              pop\n              pop\n              jump\t// out\n                /* \"#utility.yul\":6009:7526   */\n            tag_27:\n                /* \"#utility.yul\":6456:6460   */\n              0x00\n                /* \"#utility.yul\":6494:6497   */\n              0x0100\n                /* \"#utility.yul\":6483:6492   */\n              dup3\n                /* \"#utility.yul\":6479:6498   */\n              add\n                /* \"#utility.yul\":6471:6498   */\n              swap1\n              pop\n                /* \"#utility.yul\":6508:6579   */\n              tag_269\n                /* \"#utility.yul\":6576:6577   */\n              0x00\n                /* \"#utility.yul\":6565:6574   */\n              dup4\n                /* \"#utility.yul\":6561:6578   */\n              add\n                /* \"#utility.yul\":6552:6558   */\n              dup12\n                /* \"#utility.yul\":6508:6579   */\n              tag_156\n              jump\t// in\n            tag_269:\n                /* \"#utility.yul\":6626:6635   */\n              dup2\n                /* \"#utility.yul\":6620:6624   */\n              dup2\n                /* \"#utility.yul\":6616:6636   */\n              sub\n                /* \"#utility.yul\":6611:6613   */\n              0x20\n                /* \"#utility.yul\":6600:6609   */\n              dup4\n                /* \"#utility.yul\":6596:6614   */\n              add\n                /* \"#utility.yul\":6589:6637   */\n              mstore\n                /* \"#utility.yul\":6654:6762   */\n              tag_270\n                /* \"#utility.yul\":6757:6761   */\n              dup2\n                /* \"#utility.yul\":6748:6754   */\n              dup11\n                /* \"#utility.yul\":6654:6762   */\n              tag_163\n              jump\t// in\n            tag_270:\n                /* \"#utility.yul\":6646:6762   */\n              swap1\n              pop\n                /* \"#utility.yul\":6772:6844   */\n              tag_271\n                /* \"#utility.yul\":6840:6842   */\n              0x40\n                /* \"#utility.yul\":6829:6838   */\n              dup4\n                /* \"#utility.yul\":6825:6843   */\n              add\n                /* \"#utility.yul\":6816:6822   */\n              dup10\n                /* \"#utility.yul\":6772:6844   */\n              tag_165\n              jump\t// in\n            tag_271:\n                /* \"#utility.yul\":6891:6900   */\n              dup2\n                /* \"#utility.yul\":6885:6889   */\n              dup2\n                /* \"#utility.yul\":6881:6901   */\n              sub\n                /* \"#utility.yul\":6876:6878   */\n              0x60\n                /* \"#utility.yul\":6865:6874   */\n              dup4\n                /* \"#utility.yul\":6861:6879   */\n              add\n                /* \"#utility.yul\":6854:6902   */\n              mstore\n                /* \"#utility.yul\":6919:6997   */\n              tag_272\n                /* \"#utility.yul\":6992:6996   */\n              dup2\n                /* \"#utility.yul\":6983:6989   */\n              dup9\n                /* \"#utility.yul\":6919:6997   */\n              tag_170\n              jump\t// in\n            tag_272:\n                /* \"#utility.yul\":6911:6997   */\n              swap1\n              pop\n                /* \"#utility.yul\":7007:7074   */\n              tag_273\n                /* \"#utility.yul\":7069:7072   */\n              0x80\n                /* \"#utility.yul\":7058:7067   */\n              dup4\n                /* \"#utility.yul\":7054:7073   */\n              add\n                /* \"#utility.yul\":7045:7051   */\n              dup8\n                /* \"#utility.yul\":7007:7074   */\n              tag_172\n              jump\t// in\n            tag_273:\n                /* \"#utility.yul\":7122:7131   */\n              dup2\n                /* \"#utility.yul\":7116:7120   */\n              dup2\n                /* \"#utility.yul\":7112:7132   */\n              sub\n                /* \"#utility.yul\":7106:7109   */\n              0xa0\n                /* \"#utility.yul\":7095:7104   */\n              dup4\n                /* \"#utility.yul\":7091:7110   */\n              add\n                /* \"#utility.yul\":7084:7133   */\n              mstore\n                /* \"#utility.yul\":7150:7258   */\n              tag_274\n                /* \"#utility.yul\":7253:7257   */\n              dup2\n                /* \"#utility.yul\":7244:7250   */\n              dup7\n                /* \"#utility.yul\":7150:7258   */\n              tag_163\n              jump\t// in\n            tag_274:\n                /* \"#utility.yul\":7142:7258   */\n              swap1\n              pop\n                /* \"#utility.yul\":7306:7315   */\n              dup2\n                /* \"#utility.yul\":7300:7304   */\n              dup2\n                /* \"#utility.yul\":7296:7316   */\n              sub\n                /* \"#utility.yul\":7290:7293   */\n              0xc0\n                /* \"#utility.yul\":7279:7288   */\n              dup4\n                /* \"#utility.yul\":7275:7294   */\n              add\n                /* \"#utility.yul\":7268:7317   */\n              mstore\n                /* \"#utility.yul\":7334:7442   */\n              tag_275\n                /* \"#utility.yul\":7437:7441   */\n              dup2\n                /* \"#utility.yul\":7428:7434   */\n              dup6\n                /* \"#utility.yul\":7334:7442   */\n              tag_179\n              jump\t// in\n            tag_275:\n                /* \"#utility.yul\":7326:7442   */\n              swap1\n              pop\n                /* \"#utility.yul\":7452:7519   */\n              tag_276\n                /* \"#utility.yul\":7514:7517   */\n              0xe0\n                /* \"#utility.yul\":7503:7512   */\n              dup4\n                /* \"#utility.yul\":7499:7518   */\n              add\n                /* \"#utility.yul\":7490:7496   */\n              dup5\n                /* \"#utility.yul\":7452:7519   */\n              tag_172\n              jump\t// in\n            tag_276:\n                /* \"#utility.yul\":6009:7526   */\n              swap10\n              swap9\n              pop\n              pop\n              pop\n              pop\n              pop\n              pop\n              pop\n              pop\n              pop\n              jump\t// out\n                /* \"#utility.yul\":7532:7649   */\n            tag_180:\n                /* \"#utility.yul\":7641:7642   */\n              0x00\n                /* \"#utility.yul\":7638:7639   */\n              dup1\n                /* \"#utility.yul\":7631:7643   */\n              revert\n                /* \"#utility.yul\":7655:7835   */\n            tag_181:\n                /* \"#utility.yul\":7703:7780   */\n              0x4e487b7100000000000000000000000000000000000000000000000000000000\n                /* \"#utility.yul\":7700:7701   */\n              0x00\n                /* \"#utility.yul\":7693:7781   */\n              mstore\n                /* \"#utility.yul\":7800:7804   */\n              0x41\n                /* \"#utility.yul\":7797:7798   */\n              0x04\n                /* \"#utility.yul\":7790:7805   */\n              mstore\n                /* \"#utility.yul\":7824:7828   */\n              0x24\n                /* \"#utility.yul\":7821:7822   */\n              0x00\n                /* \"#utility.yul\":7814:7829   */\n              revert\n                /* \"#utility.yul\":7841:8122   */\n            tag_182:\n                /* \"#utility.yul\":7924:7951   */\n              tag_280\n                /* \"#utility.yul\":7946:7950   */\n              dup3\n                /* \"#utility.yul\":7924:7951   */\n              tag_169\n              jump\t// in\n            tag_280:\n                /* \"#utility.yul\":7916:7922   */\n              dup2\n                /* \"#utility.yul\":7912:7952   */\n              add\n                /* \"#utility.yul\":8054:8060   */\n              dup2\n                /* \"#utility.yul\":8042:8052   */\n              dup2\n                /* \"#utility.yul\":8039:8061   */\n              lt\n                /* \"#utility.yul\":8018:8036   */\n              0xffffffffffffffff\n                /* \"#utility.yul\":8006:8016   */\n              dup3\n                /* \"#utility.yul\":8003:8037   */\n              gt\n                /* \"#utility.yul\":8000:8062   */\n              or\n                /* \"#utility.yul\":7997:8085   */\n              iszero\n              tag_281\n              jumpi\n                /* \"#utility.yul\":8065:8083   */\n              tag_282\n              tag_181\n              jump\t// in\n            tag_282:\n                /* \"#utility.yul\":7997:8085   */\n            tag_281:\n                /* \"#utility.yul\":8105:8115   */\n              dup1\n                /* \"#utility.yul\":8101:8103   */\n              0x40\n                /* \"#utility.yul\":8094:8116   */\n              mstore\n                /* \"#utility.yul\":7884:8122   */\n              pop\n                /* \"#utility.yul\":7841:8122   */\n              pop\n              pop\n              jump\t// out\n                /* \"#utility.yul\":8128:8257   */\n            tag_183:\n                /* \"#utility.yul\":8162:8168   */\n              0x00\n                /* \"#utility.yul\":8189:8209   */\n              tag_284\n              tag_149\n              jump\t// in\n            tag_284:\n                /* \"#utility.yul\":8179:8209   */\n              swap1\n              pop\n                /* \"#utility.yul\":8218:8251   */\n              tag_285\n                /* \"#utility.yul\":8246:8250   */\n              dup3\n                /* \"#utility.yul\":8238:8244   */\n              dup3\n                /* \"#utility.yul\":8218:8251   */\n              tag_182\n              jump\t// in\n            tag_285:\n                /* \"#utility.yul\":8128:8257   */\n              swap2\n              swap1\n              pop\n              jump\t// out\n                /* \"#utility.yul\":8263:8574   */\n            tag_184:\n                /* \"#utility.yul\":8340:8344   */\n              0x00\n                /* \"#utility.yul\":8430:8448   */\n              0xffffffffffffffff\n                /* \"#utility.yul\":8422:8428   */\n              dup3\n                /* \"#utility.yul\":8419:8449   */\n              gt\n                /* \"#utility.yul\":8416:8472   */\n              iszero\n              tag_287\n              jumpi\n                /* \"#utility.yul\":8452:8470   */\n              tag_288\n              tag_181\n              jump\t// in\n            tag_288:\n                /* \"#utility.yul\":8416:8472   */\n            tag_287:\n                /* \"#utility.yul\":8502:8506   */\n              0x20\n                /* \"#utility.yul\":8494:8500   */\n              dup3\n                /* \"#utility.yul\":8490:8507   */\n              mul\n                /* \"#utility.yul\":8482:8507   */\n              swap1\n              pop\n                /* \"#utility.yul\":8562:8566   */\n              0x20\n                /* \"#utility.yul\":8556:8560   */\n              dup2\n                /* \"#utility.yul\":8552:8567   */\n              add\n                /* \"#utility.yul\":8544:8567   */\n              swap1\n              pop\n                /* \"#utility.yul\":8263:8574   */\n              swap2\n              swap1\n              pop\n              jump\t// out\n                /* \"#utility.yul\":8580:8697   */\n            tag_185:\n                /* \"#utility.yul\":8689:8690   */\n              0x00\n                /* \"#utility.yul\":8686:8687   */\n              dup1\n                /* \"#utility.yul\":8679:8691   */\n              revert\n                /* \"#utility.yul\":8720:9430   */\n            tag_186:\n                /* \"#utility.yul\":8816:8821   */\n              0x00\n                /* \"#utility.yul\":8841:8922   */\n              tag_291\n                /* \"#utility.yul\":8857:8921   */\n              tag_292\n                /* \"#utility.yul\":8914:8920   */\n              dup5\n                /* \"#utility.yul\":8857:8921   */\n              tag_184\n              jump\t// in\n            tag_292:\n                /* \"#utility.yul\":8841:8922   */\n              tag_183\n              jump\t// in\n            tag_291:\n                /* \"#utility.yul\":8832:8922   */\n              swap1\n              pop\n                /* \"#utility.yul\":8942:8947   */\n              dup1\n                /* \"#utility.yul\":8971:8977   */\n              dup4\n                /* \"#utility.yul\":8964:8969   */\n              dup3\n                /* \"#utility.yul\":8957:8978   */\n              mstore\n                /* \"#utility.yul\":9005:9009   */\n              0x20\n                /* \"#utility.yul\":8998:9003   */\n              dup3\n                /* \"#utility.yul\":8994:9010   */\n              add\n                /* \"#utility.yul\":8987:9010   */\n              swap1\n              pop\n                /* \"#utility.yul\":9058:9062   */\n              0x20\n                /* \"#utility.yul\":9050:9056   */\n              dup5\n                /* \"#utility.yul\":9046:9063   */\n              mul\n                /* \"#utility.yul\":9038:9044   */\n              dup4\n                /* \"#utility.yul\":9034:9064   */\n              add\n                /* \"#utility.yul\":9087:9090   */\n              dup6\n                /* \"#utility.yul\":9079:9085   */\n              dup2\n                /* \"#utility.yul\":9076:9091   */\n              gt\n                /* \"#utility.yul\":9073:9195   */\n              iszero\n              tag_293\n              jumpi\n                /* \"#utility.yul\":9106:9185   */\n              tag_294\n              tag_185\n              jump\t// in\n            tag_294:\n                /* \"#utility.yul\":9073:9195   */\n            tag_293:\n                /* \"#utility.yul\":9221:9227   */\n              dup4\n                /* \"#utility.yul\":9204:9424   */\n            tag_295:\n                /* \"#utility.yul\":9238:9244   */\n              dup2\n                /* \"#utility.yul\":9233:9236   */\n              dup2\n                /* \"#utility.yul\":9230:9245   */\n              lt\n                /* \"#utility.yul\":9204:9424   */\n              iszero\n              tag_297\n              jumpi\n                /* \"#utility.yul\":9313:9316   */\n              dup1\n                /* \"#utility.yul\":9342:9379   */\n              tag_298\n                /* \"#utility.yul\":9375:9378   */\n              dup9\n                /* \"#utility.yul\":9363:9373   */\n              dup3\n                /* \"#utility.yul\":9342:9379   */\n              tag_155\n              jump\t// in\n            tag_298:\n                /* \"#utility.yul\":9337:9340   */\n              dup5\n                /* \"#utility.yul\":9330:9380   */\n              mstore\n                /* \"#utility.yul\":9409:9413   */\n              0x20\n                /* \"#utility.yul\":9404:9407   */\n              dup5\n                /* \"#utility.yul\":9400:9414   */\n              add\n                /* \"#utility.yul\":9393:9414   */\n              swap4\n              pop\n                /* \"#utility.yul\":9280:9424   */\n              pop\n                /* \"#utility.yul\":9264:9268   */\n              0x20\n                /* \"#utility.yul\":9259:9262   */\n              dup2\n                /* \"#utility.yul\":9255:9269   */\n              add\n                /* \"#utility.yul\":9248:9269   */\n              swap1\n              pop\n                /* \"#utility.yul\":9204:9424   */\n              jump(tag_295)\n            tag_297:\n                /* \"#utility.yul\":9208:9229   */\n              pop\n                /* \"#utility.yul\":8822:9430   */\n              pop\n              pop\n                /* \"#utility.yul\":8720:9430   */\n              swap4\n              swap3\n              pop\n              pop\n              pop\n              jump\t// out\n                /* \"#utility.yul\":9453:9823   */\n            tag_187:\n                /* \"#utility.yul\":9524:9529   */\n              0x00\n                /* \"#utility.yul\":9573:9576   */\n              dup3\n                /* \"#utility.yul\":9566:9570   */\n              0x1f\n                /* \"#utility.yul\":9558:9564   */\n              dup4\n                /* \"#utility.yul\":9554:9571   */\n              add\n                /* \"#utility.yul\":9550:9577   */\n              slt\n                /* \"#utility.yul\":9540:9662   */\n              tag_300\n              jumpi\n                /* \"#utility.yul\":9581:9660   */\n              tag_301\n              tag_180\n              jump\t// in\n            tag_301:\n                /* \"#utility.yul\":9540:9662   */\n            tag_300:\n                /* \"#utility.yul\":9698:9704   */\n              dup2\n                /* \"#utility.yul\":9685:9705   */\n              calldataload\n                /* \"#utility.yul\":9723:9817   */\n              tag_302\n                /* \"#utility.yul\":9813:9816   */\n              dup5\n                /* \"#utility.yul\":9805:9811   */\n              dup3\n                /* \"#utility.yul\":9798:9802   */\n              0x20\n                /* \"#utility.yul\":9790:9796   */\n              dup7\n                /* \"#utility.yul\":9786:9803   */\n              add\n                /* \"#utility.yul\":9723:9817   */\n              tag_186\n              jump\t// in\n            tag_302:\n                /* \"#utility.yul\":9714:9817   */\n              swap2\n              pop\n                /* \"#utility.yul\":9530:9823   */\n              pop\n                /* \"#utility.yul\":9453:9823   */\n              swap3\n              swap2\n              pop\n              pop\n              jump\t// out\n                /* \"#utility.yul\":9829:10140   */\n            tag_188:\n                /* \"#utility.yul\":9906:9910   */\n              0x00\n                /* \"#utility.yul\":9996:10014   */\n              0xffffffffffffffff\n                /* \"#utility.yul\":9988:9994   */\n              dup3\n                /* \"#utility.yul\":9985:10015   */\n              gt\n                /* \"#utility.yul\":9982:10038   */\n              iszero\n              tag_304\n              jumpi\n                /* \"#utility.yul\":10018:10036   */\n              tag_305\n              tag_181\n              jump\t// in\n            tag_305:\n                /* \"#utility.yul\":9982:10038   */\n            tag_304:\n                /* \"#utility.yul\":10068:10072   */\n              0x20\n                /* \"#utility.yul\":10060:10066   */\n              dup3\n                /* \"#utility.yul\":10056:10073   */\n              mul\n                /* \"#utility.yul\":10048:10073   */\n              swap1\n              pop\n                /* \"#utility.yul\":10128:10132   */\n              0x20\n                /* \"#utility.yul\":10122:10126   */\n              dup2\n                /* \"#utility.yul\":10118:10133   */\n              add\n                /* \"#utility.yul\":10110:10133   */\n              swap1\n              pop\n                /* \"#utility.yul\":9829:10140   */\n              swap2\n              swap1\n              pop\n              jump\t// out\n                /* \"#utility.yul\":10146:10268   */\n            tag_189:\n                /* \"#utility.yul\":10219:10243   */\n              tag_307\n                /* \"#utility.yul\":10237:10242   */\n              dup2\n                /* \"#utility.yul\":10219:10243   */\n              tag_164\n              jump\t// in\n            tag_307:\n                /* \"#utility.yul\":10212:10217   */\n              dup2\n                /* \"#utility.yul\":10209:10244   */\n              eq\n                /* \"#utility.yul\":10199:10262   */\n              tag_308\n              jumpi\n                /* \"#utility.yul\":10258:10259   */\n              0x00\n                /* \"#utility.yul\":10255:10256   */\n              dup1\n                /* \"#utility.yul\":10248:10260   */\n              revert\n                /* \"#utility.yul\":10199:10262   */\n            tag_308:\n                /* \"#utility.yul\":10146:10268   */\n              pop\n              jump\t// out\n                /* \"#utility.yul\":10274:10413   */\n            tag_190:\n                /* \"#utility.yul\":10320:10325   */\n              0x00\n                /* \"#utility.yul\":10358:10364   */\n              dup2\n                /* \"#utility.yul\":10345:10365   */\n              calldataload\n                /* \"#utility.yul\":10336:10365   */\n              swap1\n              pop\n                /* \"#utility.yul\":10374:10407   */\n              tag_310\n                /* \"#utility.yul\":10401:10406   */\n              dup2\n                /* \"#utility.yul\":10374:10407   */\n              tag_189\n              jump\t// in\n            tag_310:\n                /* \"#utility.yul\":10274:10413   */\n              swap3\n              swap2\n              pop\n              pop\n              jump\t// out\n                /* \"#utility.yul\":10436:11146   */\n            tag_191:\n                /* \"#utility.yul\":10532:10537   */\n              0x00\n                /* \"#utility.yul\":10557:10638   */\n              tag_312\n                /* \"#utility.yul\":10573:10637   */\n              tag_313\n                /* \"#utility.yul\":10630:10636   */\n              dup5\n                /* \"#utility.yul\":10573:10637   */\n              tag_188\n              jump\t// in\n            tag_313:\n                /* \"#utility.yul\":10557:10638   */\n              tag_183\n              jump\t// in\n            tag_312:\n                /* \"#utility.yul\":10548:10638   */\n              swap1\n              pop\n                /* \"#utility.yul\":10658:10663   */\n              dup1\n                /* \"#utility.yul\":10687:10693   */\n              dup4\n                /* \"#utility.yul\":10680:10685   */\n              dup3\n                /* \"#utility.yul\":10673:10694   */\n              mstore\n                /* \"#utility.yul\":10721:10725   */\n              0x20\n                /* \"#utility.yul\":10714:10719   */\n              dup3\n                /* \"#utility.yul\":10710:10726   */\n              add\n                /* \"#utility.yul\":10703:10726   */\n              swap1\n              pop\n                /* \"#utility.yul\":10774:10778   */\n              0x20\n                /* \"#utility.yul\":10766:10772   */\n              dup5\n                /* \"#utility.yul\":10762:10779   */\n              mul\n                /* \"#utility.yul\":10754:10760   */\n              dup4\n                /* \"#utility.yul\":10750:10780   */\n              add\n                /* \"#utility.yul\":10803:10806   */\n              dup6\n                /* \"#utility.yul\":10795:10801   */\n              dup2\n                /* \"#utility.yul\":10792:10807   */\n              gt\n                /* \"#utility.yul\":10789:10911   */\n              iszero\n              tag_314\n              jumpi\n                /* \"#utility.yul\":10822:10901   */\n              tag_315\n              tag_185\n              jump\t// in\n            tag_315:\n                /* \"#utility.yul\":10789:10911   */\n            tag_314:\n                /* \"#utility.yul\":10937:10943   */\n              dup4\n                /* \"#utility.yul\":10920:11140   */\n            tag_316:\n                /* \"#utility.yul\":10954:10960   */\n              dup2\n                /* \"#utility.yul\":10949:10952   */\n              dup2\n                /* \"#utility.yul\":10946:10961   */\n              lt\n                /* \"#utility.yul\":10920:11140   */\n              iszero\n              tag_318\n              jumpi\n                /* \"#utility.yul\":11029:11032   */\n              dup1\n                /* \"#utility.yul\":11058:11095   */\n              tag_319\n                /* \"#utility.yul\":11091:11094   */\n              dup9\n                /* \"#utility.yul\":11079:11089   */\n              dup3\n                /* \"#utility.yul\":11058:11095   */\n              tag_190\n              jump\t// in\n            tag_319:\n                /* \"#utility.yul\":11053:11056   */\n              dup5\n                /* \"#utility.yul\":11046:11096   */\n              mstore\n                /* \"#utility.yul\":11125:11129   */\n              0x20\n                /* \"#utility.yul\":11120:11123   */\n              dup5\n                /* \"#utility.yul\":11116:11130   */\n              add\n                /* \"#utility.yul\":11109:11130   */\n              swap4\n              pop\n                /* \"#utility.yul\":10996:11140   */\n              pop\n                /* \"#utility.yul\":10980:10984   */\n              0x20\n                /* \"#utility.yul\":10975:10978   */\n              dup2\n                /* \"#utility.yul\":10971:10985   */\n              add\n                /* \"#utility.yul\":10964:10985   */\n              swap1\n              pop\n                /* \"#utility.yul\":10920:11140   */\n              jump(tag_316)\n            tag_318:\n                /* \"#utility.yul\":10924:10945   */\n              pop\n                /* \"#utility.yul\":10538:11146   */\n              pop\n              pop\n                /* \"#utility.yul\":10436:11146   */\n              swap4\n              swap3\n              pop\n              pop\n              pop\n              jump\t// out\n                /* \"#utility.yul\":11169:11539   */\n            tag_192:\n                /* \"#utility.yul\":11240:11245   */\n              0x00\n                /* \"#utility.yul\":11289:11292   */\n              dup3\n                /* \"#utility.yul\":11282:11286   */\n              0x1f\n                /* \"#utility.yul\":11274:11280   */\n              dup4\n                /* \"#utility.yul\":11270:11287   */\n              add\n                /* \"#utility.yul\":11266:11293   */\n              slt\n                /* \"#utility.yul\":11256:11378   */\n              tag_321\n              jumpi\n                /* \"#utility.yul\":11297:11376   */\n              tag_322\n              tag_180\n              jump\t// in\n            tag_322:\n                /* \"#utility.yul\":11256:11378   */\n            tag_321:\n                /* \"#utility.yul\":11414:11420   */\n              dup2\n                /* \"#utility.yul\":11401:11421   */\n              calldataload\n                /* \"#utility.yul\":11439:11533   */\n              tag_323\n                /* \"#utility.yul\":11529:11532   */\n              dup5\n                /* \"#utility.yul\":11521:11527   */\n              dup3\n                /* \"#utility.yul\":11514:11518   */\n              0x20\n                /* \"#utility.yul\":11506:11512   */\n              dup7\n                /* \"#utility.yul\":11502:11519   */\n              add\n                /* \"#utility.yul\":11439:11533   */\n              tag_191\n              jump\t// in\n            tag_323:\n                /* \"#utility.yul\":11430:11533   */\n              swap2\n              pop\n                /* \"#utility.yul\":11246:11539   */\n              pop\n                /* \"#utility.yul\":11169:11539   */\n              swap3\n              swap2\n              pop\n              pop\n              jump\t// out\n                /* \"#utility.yul\":11545:12794   */\n            tag_30:\n                /* \"#utility.yul\":11697:11703   */\n              0x00\n                /* \"#utility.yul\":11705:11711   */\n              dup1\n                /* \"#utility.yul\":11713:11719   */\n              0x00\n                /* \"#utility.yul\":11762:11764   */\n              0x60\n                /* \"#utility.yul\":11750:11759   */\n              dup5\n                /* \"#utility.yul\":11741:11748   */\n              dup7\n                /* \"#utility.yul\":11737:11760   */\n              sub\n                /* \"#utility.yul\":11733:11765   */\n              slt\n                /* \"#utility.yul\":11730:11849   */\n              iszero\n              tag_325\n              jumpi\n                /* \"#utility.yul\":11768:11847   */\n              tag_326\n              tag_150\n              jump\t// in\n            tag_326:\n                /* \"#utility.yul\":11730:11849   */\n            tag_325:\n                /* \"#utility.yul\":11916:11917   */\n              0x00\n                /* \"#utility.yul\":11905:11914   */\n              dup5\n                /* \"#utility.yul\":11901:11918   */\n              add\n                /* \"#utility.yul\":11888:11919   */\n              calldataload\n                /* \"#utility.yul\":11946:11964   */\n              0xffffffffffffffff\n                /* \"#utility.yul\":11938:11944   */\n              dup2\n                /* \"#utility.yul\":11935:11965   */\n              gt\n                /* \"#utility.yul\":11932:12049   */\n              iszero\n              tag_327\n              jumpi\n                /* \"#utility.yul\":11968:12047   */\n              tag_328\n              tag_151\n              jump\t// in\n            tag_328:\n                /* \"#utility.yul\":11932:12049   */\n            tag_327:\n                /* \"#utility.yul\":12073:12151   */\n              tag_329\n                /* \"#utility.yul\":12143:12150   */\n              dup7\n                /* \"#utility.yul\":12134:12140   */\n              dup3\n                /* \"#utility.yul\":12123:12132   */\n              dup8\n                /* \"#utility.yul\":12119:12141   */\n              add\n                /* \"#utility.yul\":12073:12151   */\n              tag_187\n              jump\t// in\n            tag_329:\n                /* \"#utility.yul\":12063:12151   */\n              swap4\n              pop\n                /* \"#utility.yul\":11859:12161   */\n              pop\n                /* \"#utility.yul\":12228:12230   */\n              0x20\n                /* \"#utility.yul\":12217:12226   */\n              dup5\n                /* \"#utility.yul\":12213:12231   */\n              add\n                /* \"#utility.yul\":12200:12232   */\n              calldataload\n                /* \"#utility.yul\":12259:12277   */\n              0xffffffffffffffff\n                /* \"#utility.yul\":12251:12257   */\n              dup2\n                /* \"#utility.yul\":12248:12278   */\n              gt\n                /* \"#utility.yul\":12245:12362   */\n              iszero\n              tag_330\n              jumpi\n                /* \"#utility.yul\":12281:12360   */\n              tag_331\n              tag_151\n              jump\t// in\n            tag_331:\n                /* \"#utility.yul\":12245:12362   */\n            tag_330:\n                /* \"#utility.yul\":12386:12464   */\n              tag_332\n                /* \"#utility.yul\":12456:12463   */\n              dup7\n                /* \"#utility.yul\":12447:12453   */\n              dup3\n                /* \"#utility.yul\":12436:12445   */\n              dup8\n                /* \"#utility.yul\":12432:12454   */\n              add\n                /* \"#utility.yul\":12386:12464   */\n              tag_192\n              jump\t// in\n            tag_332:\n                /* \"#utility.yul\":12376:12464   */\n              swap3\n              pop\n                /* \"#utility.yul\":12171:12474   */\n              pop\n                /* \"#utility.yul\":12541:12543   */\n              0x40\n                /* \"#utility.yul\":12530:12539   */\n              dup5\n                /* \"#utility.yul\":12526:12544   */\n              add\n                /* \"#utility.yul\":12513:12545   */\n              calldataload\n                /* \"#utility.yul\":12572:12590   */\n              0xffffffffffffffff\n                /* \"#utility.yul\":12564:12570   */\n              dup2\n                /* \"#utility.yul\":12561:12591   */\n              gt\n                /* \"#utility.yul\":12558:12675   */\n              iszero\n              tag_333\n              jumpi\n                /* \"#utility.yul\":12594:12673   */\n              tag_334\n              tag_151\n              jump\t// in\n            tag_334:\n                /* \"#utility.yul\":12558:12675   */\n            tag_333:\n                /* \"#utility.yul\":12699:12777   */\n              tag_335\n                /* \"#utility.yul\":12769:12776   */\n              dup7\n                /* \"#utility.yul\":12760:12766   */\n              dup3\n                /* \"#utility.yul\":12749:12758   */\n              dup8\n                /* \"#utility.yul\":12745:12767   */\n              add\n                /* \"#utility.yul\":12699:12777   */\n              tag_187\n              jump\t// in\n            tag_335:\n                /* \"#utility.yul\":12689:12777   */\n              swap2\n              pop\n                /* \"#utility.yul\":12484:12787   */\n              pop\n                /* \"#utility.yul\":11545:12794   */\n              swap3\n              pop\n              swap3\n              pop\n              swap3\n              jump\t// out\n                /* \"#utility.yul\":12800:13022   */\n            tag_37:\n                /* \"#utility.yul\":12893:12897   */\n              0x00\n                /* \"#utility.yul\":12931:12933   */\n              0x20\n                /* \"#utility.yul\":12920:12929   */\n              dup3\n                /* \"#utility.yul\":12916:12934   */\n              add\n                /* \"#utility.yul\":12908:12934   */\n              swap1\n              pop\n                /* \"#utility.yul\":12944:13015   */\n              tag_337\n                /* \"#utility.yul\":13012:13013   */\n              0x00\n                /* \"#utility.yul\":13001:13010   */\n              dup4\n                /* \"#utility.yul\":12997:13014   */\n              add\n                /* \"#utility.yul\":12988:12994   */\n              dup5\n                /* \"#utility.yul\":12944:13015   */\n              tag_165\n              jump\t// in\n            tag_337:\n                /* \"#utility.yul\":12800:13022   */\n              swap3\n              swap2\n              pop\n              pop\n              jump\t// out\n                /* \"#utility.yul\":13028:13401   */\n            tag_42:\n                /* \"#utility.yul\":13171:13175   */\n              0x00\n                /* \"#utility.yul\":13209:13211   */\n              0x20\n                /* \"#utility.yul\":13198:13207   */\n              dup3\n                /* \"#utility.yul\":13194:13212   */\n              add\n                /* \"#utility.yul\":13186:13212   */\n              swap1\n              pop\n                /* \"#utility.yul\":13258:13267   */\n              dup2\n                /* \"#utility.yul\":13252:13256   */\n              dup2\n                /* \"#utility.yul\":13248:13268   */\n              sub\n                /* \"#utility.yul\":13244:13245   */\n              0x00\n                /* \"#utility.yul\":13233:13242   */\n              dup4\n                /* \"#utility.yul\":13229:13246   */\n              add\n                /* \"#utility.yul\":13222:13269   */\n              mstore\n                /* \"#utility.yul\":13286:13394   */\n              tag_339\n                /* \"#utility.yul\":13389:13393   */\n              dup2\n                /* \"#utility.yul\":13380:13386   */\n              dup5\n                /* \"#utility.yul\":13286:13394   */\n              tag_163\n              jump\t// in\n            tag_339:\n                /* \"#utility.yul\":13278:13394   */\n              swap1\n              pop\n                /* \"#utility.yul\":13028:13401   */\n              swap3\n              swap2\n              pop\n              pop\n              jump\t// out\n                /* \"#utility.yul\":13407:13523   */\n            tag_193:\n                /* \"#utility.yul\":13477:13498   */\n              tag_341\n                /* \"#utility.yul\":13492:13497   */\n              dup2\n                /* \"#utility.yul\":13477:13498   */\n              tag_171\n              jump\t// in\n            tag_341:\n                /* \"#utility.yul\":13470:13475   */\n              dup2\n                /* \"#utility.yul\":13467:13499   */\n              eq\n                /* \"#utility.yul\":13457:13517   */\n              tag_342\n              jumpi\n                /* \"#utility.yul\":13513:13514   */\n              0x00\n                /* \"#utility.yul\":13510:13511   */\n              dup1\n                /* \"#utility.yul\":13503:13515   */\n              revert\n                /* \"#utility.yul\":13457:13517   */\n            tag_342:\n                /* \"#utility.yul\":13407:13523   */\n              pop\n              jump\t// out\n                /* \"#utility.yul\":13529:13662   */\n            tag_194:\n                /* \"#utility.yul\":13572:13577   */\n              0x00\n                /* \"#utility.yul\":13610:13616   */\n              dup2\n                /* \"#utility.yul\":13597:13617   */\n              calldataload\n                /* \"#utility.yul\":13588:13617   */\n              swap1\n              pop\n                /* \"#utility.yul\":13626:13656   */\n              tag_344\n                /* \"#utility.yul\":13650:13655   */\n              dup2\n                /* \"#utility.yul\":13626:13656   */\n              tag_193\n              jump\t// in\n            tag_344:\n                /* \"#utility.yul\":13529:13662   */\n              swap3\n              swap2\n              pop\n              pop\n              jump\t// out\n                /* \"#utility.yul\":13668:13991   */\n            tag_46:\n                /* \"#utility.yul\":13724:13730   */\n              0x00\n                /* \"#utility.yul\":13773:13775   */\n              0x20\n                /* \"#utility.yul\":13761:13770   */\n              dup3\n                /* \"#utility.yul\":13752:13759   */\n              dup5\n                /* \"#utility.yul\":13748:13771   */\n              sub\n                /* \"#utility.yul\":13744:13776   */\n              slt\n                /* \"#utility.yul\":13741:13860   */\n              iszero\n              tag_346\n              jumpi\n                /* \"#utility.yul\":13779:13858   */\n              tag_347\n              tag_150\n              jump\t// in\n            tag_347:\n                /* \"#utility.yul\":13741:13860   */\n            tag_346:\n                /* \"#utility.yul\":13899:13900   */\n              0x00\n                /* \"#utility.yul\":13924:13974   */\n              tag_348\n                /* \"#utility.yul\":13966:13973   */\n              dup5\n                /* \"#utility.yul\":13957:13963   */\n              dup3\n                /* \"#utility.yul\":13946:13955   */\n              dup6\n                /* \"#utility.yul\":13942:13964   */\n              add\n                /* \"#utility.yul\":13924:13974   */\n              tag_194\n              jump\t// in\n            tag_348:\n                /* \"#utility.yul\":13914:13974   */\n              swap2\n              pop\n                /* \"#utility.yul\":13870:13984   */\n              pop\n                /* \"#utility.yul\":13668:13991   */\n              swap3\n              swap2\n              pop\n              pop\n              jump\t// out\n                /* \"#utility.yul\":13997:14536   */\n            tag_50:\n                /* \"#utility.yul\":14081:14087   */\n              0x00\n                /* \"#utility.yul\":14130:14132   */\n              0x20\n                /* \"#utility.yul\":14118:14127   */\n              dup3\n                /* \"#utility.yul\":14109:14116   */\n              dup5\n                /* \"#utility.yul\":14105:14128   */\n              sub\n                /* \"#utility.yul\":14101:14133   */\n              slt\n                /* \"#utility.yul\":14098:14217   */\n              iszero\n              tag_350\n              jumpi\n                /* \"#utility.yul\":14136:14215   */\n              tag_351\n              tag_150\n              jump\t// in\n            tag_351:\n                /* \"#utility.yul\":14098:14217   */\n            tag_350:\n                /* \"#utility.yul\":14284:14285   */\n              0x00\n                /* \"#utility.yul\":14273:14282   */\n              dup3\n                /* \"#utility.yul\":14269:14286   */\n              add\n                /* \"#utility.yul\":14256:14287   */\n              calldataload\n                /* \"#utility.yul\":14314:14332   */\n              0xffffffffffffffff\n                /* \"#utility.yul\":14306:14312   */\n              dup2\n                /* \"#utility.yul\":14303:14333   */\n              gt\n                /* \"#utility.yul\":14300:14417   */\n              iszero\n              tag_352\n              jumpi\n                /* \"#utility.yul\":14336:14415   */\n              tag_353\n              tag_151\n              jump\t// in\n            tag_353:\n                /* \"#utility.yul\":14300:14417   */\n            tag_352:\n                /* \"#utility.yul\":14441:14519   */\n              tag_354\n                /* \"#utility.yul\":14511:14518   */\n              dup5\n                /* \"#utility.yul\":14502:14508   */\n              dup3\n                /* \"#utility.yul\":14491:14500   */\n              dup6\n                /* \"#utility.yul\":14487:14509   */\n              add\n                /* \"#utility.yul\":14441:14519   */\n              tag_187\n              jump\t// in\n            tag_354:\n                /* \"#utility.yul\":14431:14519   */\n              swap2\n              pop\n                /* \"#utility.yul\":14227:14529   */\n              pop\n                /* \"#utility.yul\":13997:14536   */\n              swap3\n              swap2\n              pop\n              pop\n              jump\t// out\n                /* \"#utility.yul\":14542:14764   */\n            tag_60:\n                /* \"#utility.yul\":14635:14639   */\n              0x00\n                /* \"#utility.yul\":14673:14675   */\n              0x20\n                /* \"#utility.yul\":14662:14671   */\n              dup3\n                /* \"#utility.yul\":14658:14676   */\n              add\n                /* \"#utility.yul\":14650:14676   */\n              swap1\n              pop\n                /* \"#utility.yul\":14686:14757   */\n              tag_356\n                /* \"#utility.yul\":14754:14755   */\n              0x00\n                /* \"#utility.yul\":14743:14752   */\n              dup4\n                /* \"#utility.yul\":14739:14756   */\n              add\n                /* \"#utility.yul\":14730:14736   */\n              dup5\n                /* \"#utility.yul\":14686:14757   */\n              tag_156\n              jump\t// in\n            tag_356:\n                /* \"#utility.yul\":14542:14764   */\n              swap3\n              swap2\n              pop\n              pop\n              jump\t// out\n                /* \"#utility.yul\":14770:15244   */\n            tag_68:\n                /* \"#utility.yul\":14838:14844   */\n              0x00\n                /* \"#utility.yul\":14846:14852   */\n              dup1\n                /* \"#utility.yul\":14895:14897   */\n              0x40\n                /* \"#utility.yul\":14883:14892   */\n              dup4\n                /* \"#utility.yul\":14874:14881   */\n              dup6\n                /* \"#utility.yul\":14870:14893   */\n              sub\n                /* \"#utility.yul\":14866:14898   */\n              slt\n                /* \"#utility.yul\":14863:14982   */\n              iszero\n              tag_358\n              jumpi\n                /* \"#utility.yul\":14901:14980   */\n              tag_359\n              tag_150\n              jump\t// in\n            tag_359:\n                /* \"#utility.yul\":14863:14982   */\n            tag_358:\n                /* \"#utility.yul\":15021:15022   */\n              0x00\n                /* \"#utility.yul\":15046:15099   */\n              tag_360\n                /* \"#utility.yul\":15091:15098   */\n              dup6\n                /* \"#utility.yul\":15082:15088   */\n              dup3\n                /* \"#utility.yul\":15071:15080   */\n              dup7\n                /* \"#utility.yul\":15067:15089   */\n              add\n                /* \"#utility.yul\":15046:15099   */\n              tag_155\n              jump\t// in\n            tag_360:\n                /* \"#utility.yul\":15036:15099   */\n              swap3\n              pop\n                /* \"#utility.yul\":14992:15109   */\n              pop\n                /* \"#utility.yul\":15148:15150   */\n              0x20\n                /* \"#utility.yul\":15174:15227   */\n              tag_361\n                /* \"#utility.yul\":15219:15226   */\n              dup6\n                /* \"#utility.yul\":15210:15216   */\n              dup3\n                /* \"#utility.yul\":15199:15208   */\n              dup7\n                /* \"#utility.yul\":15195:15217   */\n              add\n                /* \"#utility.yul\":15174:15227   */\n              tag_190\n              jump\t// in\n            tag_361:\n                /* \"#utility.yul\":15164:15227   */\n              swap2\n              pop\n                /* \"#utility.yul\":15119:15237   */\n              pop\n                /* \"#utility.yul\":14770:15244   */\n              swap3\n              pop\n              swap3\n              swap1\n              pop\n              jump\t// out\n                /* \"#utility.yul\":15250:15430   */\n            tag_80:\n                /* \"#utility.yul\":15298:15375   */\n              0x4e487b7100000000000000000000000000000000000000000000000000000000\n                /* \"#utility.yul\":15295:15296   */\n              0x00\n                /* \"#utility.yul\":15288:15376   */\n              mstore\n                /* \"#utility.yul\":15395:15399   */\n              0x32\n                /* \"#utility.yul\":15392:15393   */\n              0x04\n                /* \"#utility.yul\":15385:15400   */\n              mstore\n                /* \"#utility.yul\":15419:15423   */\n              0x24\n                /* \"#utility.yul\":15416:15417   */\n              0x00\n                /* \"#utility.yul\":15409:15424   */\n              revert\n                /* \"#utility.yul\":15436:15616   */\n            tag_195:\n                /* \"#utility.yul\":15484:15561   */\n              0x4e487b7100000000000000000000000000000000000000000000000000000000\n                /* \"#utility.yul\":15481:15482   */\n              0x00\n                /* \"#utility.yul\":15474:15562   */\n              mstore\n                /* \"#utility.yul\":15581:15585   */\n              0x11\n                /* \"#utility.yul\":15578:15579   */\n              0x04\n                /* \"#utility.yul\":15571:15586   */\n              mstore\n                /* \"#utility.yul\":15605:15609   */\n              0x24\n                /* \"#utility.yul\":15602:15603   */\n              0x00\n                /* \"#utility.yul\":15595:15610   */\n              revert\n                /* \"#utility.yul\":15622:16032   */\n            tag_83:\n                /* \"#utility.yul\":15662:15669   */\n              0x00\n                /* \"#utility.yul\":15685:15705   */\n              tag_365\n                /* \"#utility.yul\":15703:15704   */\n              dup3\n                /* \"#utility.yul\":15685:15705   */\n              tag_164\n              jump\t// in\n            tag_365:\n                /* \"#utility.yul\":15680:15705   */\n              swap2\n              pop\n                /* \"#utility.yul\":15719:15739   */\n              tag_366\n                /* \"#utility.yul\":15737:15738   */\n              dup4\n                /* \"#utility.yul\":15719:15739   */\n              tag_164\n              jump\t// in\n            tag_366:\n                /* \"#utility.yul\":15714:15739   */\n              swap3\n              pop\n                /* \"#utility.yul\":15774:15775   */\n              dup3\n                /* \"#utility.yul\":15771:15772   */\n              dup3\n                /* \"#utility.yul\":15767:15776   */\n              mul\n                /* \"#utility.yul\":15796:15826   */\n              tag_367\n                /* \"#utility.yul\":15814:15825   */\n              dup2\n                /* \"#utility.yul\":15796:15826   */\n              tag_164\n              jump\t// in\n            tag_367:\n                /* \"#utility.yul\":15785:15826   */\n              swap2\n              pop\n                /* \"#utility.yul\":15975:15976   */\n              dup3\n                /* \"#utility.yul\":15966:15973   */\n              dup3\n                /* \"#utility.yul\":15962:15977   */\n              div\n                /* \"#utility.yul\":15959:15960   */\n              dup5\n                /* \"#utility.yul\":15956:15978   */\n              eq\n                /* \"#utility.yul\":15936:15937   */\n              dup4\n                /* \"#utility.yul\":15929:15938   */\n              iszero\n                /* \"#utility.yul\":15909:15992   */\n              or\n                /* \"#utility.yul\":15886:16025   */\n              tag_368\n              jumpi\n                /* \"#utility.yul\":16005:16023   */\n              tag_369\n              tag_195\n              jump\t// in\n            tag_369:\n                /* \"#utility.yul\":15886:16025   */\n            tag_368:\n                /* \"#utility.yul\":15670:16032   */\n              pop\n                /* \"#utility.yul\":15622:16032   */\n              swap3\n              swap2\n              pop\n              pop\n              jump\t// out\n                /* \"#utility.yul\":16038:16218   */\n            tag_196:\n                /* \"#utility.yul\":16086:16163   */\n              0x4e487b7100000000000000000000000000000000000000000000000000000000\n                /* \"#utility.yul\":16083:16084   */\n              0x00\n                /* \"#utility.yul\":16076:16164   */\n              mstore\n                /* \"#utility.yul\":16183:16187   */\n              0x12\n                /* \"#utility.yul\":16180:16181   */\n              0x04\n                /* \"#utility.yul\":16173:16188   */\n              mstore\n                /* \"#utility.yul\":16207:16211   */\n              0x24\n                /* \"#utility.yul\":16204:16205   */\n              0x00\n                /* \"#utility.yul\":16197:16212   */\n              revert\n                /* \"#utility.yul\":16224:16409   */\n            tag_85:\n                /* \"#utility.yul\":16264:16265   */\n              0x00\n                /* \"#utility.yul\":16281:16301   */\n              tag_372\n                /* \"#utility.yul\":16299:16300   */\n              dup3\n                /* \"#utility.yul\":16281:16301   */\n              tag_164\n              jump\t// in\n            tag_372:\n                /* \"#utility.yul\":16276:16301   */\n              swap2\n              pop\n                /* \"#utility.yul\":16315:16335   */\n              tag_373\n                /* \"#utility.yul\":16333:16334   */\n              dup4\n                /* \"#utility.yul\":16315:16335   */\n              tag_164\n              jump\t// in\n            tag_373:\n                /* \"#utility.yul\":16310:16335   */\n              swap3\n              pop\n                /* \"#utility.yul\":16354:16355   */\n              dup3\n                /* \"#utility.yul\":16344:16379   */\n              tag_374\n              jumpi\n                /* \"#utility.yul\":16359:16377   */\n              tag_375\n              tag_196\n              jump\t// in\n            tag_375:\n                /* \"#utility.yul\":16344:16379   */\n            tag_374:\n                /* \"#utility.yul\":16401:16402   */\n              dup3\n                /* \"#utility.yul\":16398:16399   */\n              dup3\n                /* \"#utility.yul\":16394:16403   */\n              div\n                /* \"#utility.yul\":16389:16403   */\n              swap1\n              pop\n                /* \"#utility.yul\":16224:16409   */\n              swap3\n              swap2\n              pop\n              pop\n              jump\t// out\n                /* \"#utility.yul\":16415:16595   */\n            tag_197:\n                /* \"#utility.yul\":16463:16540   */\n              0x4e487b7100000000000000000000000000000000000000000000000000000000\n                /* \"#utility.yul\":16460:16461   */\n              0x00\n                /* \"#utility.yul\":16453:16541   */\n              mstore\n                /* \"#utility.yul\":16560:16564   */\n              0x22\n                /* \"#utility.yul\":16557:16558   */\n              0x04\n                /* \"#utility.yul\":16550:16565   */\n              mstore\n                /* \"#utility.yul\":16584:16588   */\n              0x24\n                /* \"#utility.yul\":16581:16582   */\n              0x00\n                /* \"#utility.yul\":16574:16589   */\n              revert\n                /* \"#utility.yul\":16601:16921   */\n            tag_95:\n                /* \"#utility.yul\":16645:16651   */\n              0x00\n                /* \"#utility.yul\":16682:16683   */\n              0x02\n                /* \"#utility.yul\":16676:16680   */\n              dup3\n                /* \"#utility.yul\":16672:16684   */\n              div\n                /* \"#utility.yul\":16662:16684   */\n              swap1\n              pop\n                /* \"#utility.yul\":16729:16730   */\n              0x01\n                /* \"#utility.yul\":16723:16727   */\n              dup3\n                /* \"#utility.yul\":16719:16731   */\n              and\n                /* \"#utility.yul\":16750:16768   */\n              dup1\n                /* \"#utility.yul\":16740:16821   */\n              tag_378\n              jumpi\n                /* \"#utility.yul\":16806:16810   */\n              0x7f\n                /* \"#utility.yul\":16798:16804   */\n              dup3\n                /* \"#utility.yul\":16794:16811   */\n              and\n                /* \"#utility.yul\":16784:16811   */\n              swap2\n              pop\n                /* \"#utility.yul\":16740:16821   */\n            tag_378:\n                /* \"#utility.yul\":16868:16870   */\n              0x20\n                /* \"#utility.yul\":16860:16866   */\n              dup3\n                /* \"#utility.yul\":16857:16871   */\n              lt\n                /* \"#utility.yul\":16837:16855   */\n              dup2\n                /* \"#utility.yul\":16834:16872   */\n              sub\n                /* \"#utility.yul\":16831:16915   */\n              tag_379\n              jumpi\n                /* \"#utility.yul\":16887:16905   */\n              tag_380\n              tag_197\n              jump\t// in\n            tag_380:\n                /* \"#utility.yul\":16831:16915   */\n            tag_379:\n                /* \"#utility.yul\":16652:16921   */\n              pop\n                /* \"#utility.yul\":16601:16921   */\n              swap2\n              swap1\n              pop\n              jump\t// out\n\n            auxdata: 0xa26469706673582212203d084e79892d251330789aab7d4e5521b472124506c6c852eac8f2c7148a437864736f6c63430008170033\n        }\n    }\n\n    auxdata: 0xa26469706673582212206de21bd84bc8f812f15c4166f256c4e534415b48b582afec8ce8dca743d6f8a364736f6c63430008170033\n}\n","bytecode":{"linkReferences":{},"object":"608060405234801561000f575f80fd5b50612a528061001d5f395ff3fe608060405234801562000010575f80fd5b50600436106200005c575f3560e01c806315ce364714620000605780633d91fc6214620000805780636e9960c314620000a05780637d1a943514620000c25780639ad1ee1014620000e4575b5f80fd5b6200007e6004803603810190620000789190620006b6565b6200011a565b005b6200009e600480360381019062000098919062000739565b620001fb565b005b620000aa6200026e565b604051620000b9919062000799565b60405180910390f35b620000cc62000295565b604051620000db9190620008d1565b60405180910390f35b620001026004803603810190620000fc91906200092b565b62000322565b6040516200011191906200096c565b60405180910390f35b5f8233836040516200012c906200035e565b6200013a9392919062000ac2565b604051809103905ff08015801562000154573d5f803e3d5ffd5b509050335f806101000a81548173ffffffffffffffffffffffffffffffffffffffff021916908373ffffffffffffffffffffffffffffffffffffffff160217905550600181908060018154018082558091505060019003905f5260205f20015f9091909190916101000a81548173ffffffffffffffffffffffffffffffffffffffff021916908373ffffffffffffffffffffffffffffffffffffffff160217905550505050565b3373ffffffffffffffffffffffffffffffffffffffff165f8054906101000a900473ffffffffffffffffffffffffffffffffffffffff1673ffffffffffffffffffffffffffffffffffffffff161462000252575f80fd5b80600290805190602001906200026a9291906200036c565b5050565b5f805f9054906101000a900473ffffffffffffffffffffffffffffffffffffffff16905090565b606060018054806020026020016040519081016040528092919081815260200182805480156200031857602002820191905f5260205f20905b815f9054906101000a900473ffffffffffffffffffffffffffffffffffffffff1673ffffffffffffffffffffffffffffffffffffffff1681526020019060010190808311620002ce575b5050505050905090565b6001818154811062000332575f80fd5b905f5260205f20015f915054906101000a900473ffffffffffffffffffffffffffffffffffffffff1681565b611f118062000b0c83390190565b828054828255905f5260205f20908101928215620003e5579160200282015b82811115620003e4578251825f6101000a81548173ffffffffffffffffffffffffffffffffffffffff021916908373ffffffffffffffffffffffffffffffffffffffff160217905550916020019190600101906200038b565b5b509050620003f49190620003f8565b5090565b5b8082111562000411575f815f905550600101620003f9565b5090565b5f604051905090565b5f80fd5b5f80fd5b5f80fd5b5f80fd5b5f601f19601f8301169050919050565b7f4e487b71000000000000000000000000000000000000000000000000000000005f52604160045260245ffd5b62000476826200042e565b810181811067ffffffffffffffff821117156200049857620004976200043e565b5b80604052505050565b5f620004ac62000415565b9050620004ba82826200046b565b919050565b5f67ffffffffffffffff821115620004dc57620004db6200043e565b5b620004e7826200042e565b9050602081019050919050565b828183375f83830152505050565b5f620005186200051284620004bf565b620004a1565b9050828152602081018484840111156200053757620005366200042a565b5b62000544848285620004f4565b509392505050565b5f82601f83011262000563576200056262000426565b5b81356200057584826020860162000502565b91505092915050565b5f67ffffffffffffffff8211156200059b576200059a6200043e565b5b602082029050602081019050919050565b5f80fd5b5f73ffffffffffffffffffffffffffffffffffffffff82169050919050565b5f620005db82620005b0565b9050919050565b620005ed81620005cf565b8114620005f8575f80fd5b50565b5f813590506200060b81620005e2565b92915050565b5f6200062762000621846200057e565b620004a1565b905080838252602082019050602084028301858111156200064d576200064c620005ac565b5b835b818110156200067a5780620006658882620005fb565b8452602084019350506020810190506200064f565b5050509392505050565b5f82601f8301126200069b576200069a62000426565b5b8135620006ad84826020860162000611565b91505092915050565b5f8060408385031215620006cf57620006ce6200041e565b5b5f83013567ffffffffffffffff811115620006ef57620006ee62000422565b5b620006fd858286016200054c565b925050602083013567ffffffffffffffff81111562000721576200072062000422565b5b6200072f8582860162000684565b9150509250929050565b5f602082840312156200075157620007506200041e565b5b5f82013567ffffffffffffffff81111562000771576200077062000422565b5b6200077f8482850162000684565b91505092915050565b6200079381620005cf565b82525050565b5f602082019050620007ae5f83018462000788565b92915050565b5f81519050919050565b5f82825260208201905092915050565b5f819050602082019050919050565b5f819050919050565b5f6200080662000800620007fa84620005b0565b620007dd565b620005b0565b9050919050565b5f6200081982620007e6565b9050919050565b5f6200082c826200080d565b9050919050565b6200083e8162000820565b82525050565b5f62000851838362000833565b60208301905092915050565b5f602082019050919050565b5f6200087582620007b4565b620008818185620007be565b93506200088e83620007ce565b805f5b83811015620008c4578151620008a8888262000844565b9750620008b5836200085d565b92505060018101905062000891565b5085935050505092915050565b5f6020820190508181035f830152620008eb818462000869565b905092915050565b5f819050919050565b6200090781620008f3565b811462000912575f80fd5b50565b5f813590506200092581620008fc565b92915050565b5f602082840312156200094357620009426200041e565b5b5f620009528482850162000915565b91505092915050565b620009668162000820565b82525050565b5f602082019050620009815f8301846200095b565b92915050565b5f81519050919050565b5f82825260208201905092915050565b5f5b83811015620009c0578082015181840152602081019050620009a3565b5f8484015250505050565b5f620009d78262000987565b620009e3818562000991565b9350620009f5818560208601620009a1565b62000a00816200042e565b840191505092915050565b5f81519050919050565b5f819050602082019050919050565b62000a2f81620005cf565b82525050565b5f62000a42838362000a24565b60208301905092915050565b5f602082019050919050565b5f62000a668262000a0b565b62000a728185620007be565b935062000a7f8362000a15565b805f5b8381101562000ab557815162000a99888262000a35565b975062000aa68362000a4e565b92505060018101905062000a82565b5085935050505092915050565b5f6060820190508181035f83015262000adc8186620009cb565b905062000aed602083018562000788565b818103604083015262000b01818462000a5a565b905094935050505056fe6080604052600160085f6101000a81548160ff02191690831515021790555060405162001f1138038062001f1183398181016040528101906200004391906200041c565b815f806101000a81548173ffffffffffffffffffffffffffffffffffffffff021916908373ffffffffffffffffffffffffffffffffffffffff1602179055508260079081620000939190620006ea565b508060019080519060200190620000ac929190620000b6565b50505050620007ce565b828054828255905f5260205f209081019282156200012f579160200282015b828111156200012e578251825f6101000a81548173ffffffffffffffffffffffffffffffffffffffff021916908373ffffffffffffffffffffffffffffffffffffffff16021790555091602001919060010190620000d5565b5b5090506200013e919062000142565b5090565b5b808211156200015b575f815f90555060010162000143565b5090565b5f604051905090565b5f80fd5b5f80fd5b5f80fd5b5f80fd5b5f601f19601f8301169050919050565b7f4e487b71000000000000000000000000000000000000000000000000000000005f52604160045260245ffd5b620001c08262000178565b810181811067ffffffffffffffff82111715620001e257620001e162000188565b5b80604052505050565b5f620001f66200015f565b9050620002048282620001b5565b919050565b5f67ffffffffffffffff82111562000226576200022562000188565b5b620002318262000178565b9050602081019050919050565b5f5b838110156200025d57808201518184015260208101905062000240565b5f8484015250505050565b5f6200027e620002788462000209565b620001eb565b9050828152602081018484840111156200029d576200029c62000174565b5b620002aa8482856200023e565b509392505050565b5f82601f830112620002c957620002c862000170565b5b8151620002db84826020860162000268565b91505092915050565b5f73ffffffffffffffffffffffffffffffffffffffff82169050919050565b5f6200030f82620002e4565b9050919050565b620003218162000303565b81146200032c575f80fd5b50565b5f815190506200033f8162000316565b92915050565b5f67ffffffffffffffff82111562000362576200036162000188565b5b602082029050602081019050919050565b5f80fd5b5f6200038d620003878462000345565b620001eb565b90508083825260208201905060208402830185811115620003b357620003b262000373565b5b835b81811015620003e05780620003cb88826200032f565b845260208401935050602081019050620003b5565b5050509392505050565b5f82601f83011262000401576200040062000170565b5b81516200041384826020860162000377565b91505092915050565b5f805f6060848603121562000436576200043562000168565b5b5f84015167ffffffffffffffff8111156200045657620004556200016c565b5b6200046486828701620002b2565b935050602062000477868287016200032f565b925050604084015167ffffffffffffffff8111156200049b576200049a6200016c565b5b620004a986828701620003ea565b9150509250925092565b5f81519050919050565b7f4e487b71000000000000000000000000000000000000000000000000000000005f52602260045260245ffd5b5f60028204905060018216806200050257607f821691505b602082108103620005185762000517620004bd565b5b50919050565b5f819050815f5260205f209050919050565b5f6020601f8301049050919050565b5f82821b905092915050565b5f600883026200057c7fffffffffffffffffffffffffffffffffffffffffffffffffffffffffffffffff826200053f565b6200058886836200053f565b95508019841693508086168417925050509392505050565b5f819050919050565b5f819050919050565b5f620005d2620005cc620005c684620005a0565b620005a9565b620005a0565b9050919050565b5f819050919050565b620005ed83620005b2565b62000605620005fc82620005d9565b8484546200054b565b825550505050565b5f90565b6200061b6200060d565b62000628818484620005e2565b505050565b5b818110156200064f57620006435f8262000611565b6001810190506200062e565b5050565b601f8211156200069e5762000668816200051e565b620006738462000530565b8101602085101562000683578190505b6200069b620006928562000530565b8301826200062d565b50505b505050565b5f82821c905092915050565b5f620006c05f1984600802620006a3565b1980831691505092915050565b5f620006da8383620006af565b9150826002028217905092915050565b620006f582620004b3565b67ffffffffffffffff81111562000711576200071062000188565b5b6200071d8254620004ea565b6200072a82828562000653565b5f60209050601f83116001811462000760575f84156200074b578287015190505b620007578582620006cd565b865550620007c6565b601f19841662000770866200051e565b5f5b82811015620007995784890151825560018201915060208501945060208101905062000772565b86831015620007b95784890151620007b5601f891682620006af565b8355505b6001600288020188555050505b505050505050565b61173580620007dc5f395ff3fe6080604052600436106100a6575f3560e01c8063b5e7f0b211610063578063b5e7f0b21461019b578063bb3accf0146101c3578063beffaf09146101df578063e512fcf214610209578063ec5630ca14610233578063fc8c79b51461025d576100a6565b806336685e44146100aa5780634b47e588146100c05780635c0badfc146100e8578063603c0430146101195780638a72c0f114610135578063913b722c14610171575b5f80fd5b3480156100b5575f80fd5b506100be610285565b005b3480156100cb575f80fd5b506100e660048036038101906100e19190610eb4565b610452565b005b3480156100f3575f80fd5b506100fc6104eb565b604051610110989796959493929190611118565b60405180910390f35b610133600480360381019061012e91906113da565b610740565b005b348015610140575f80fd5b5061015b60048036038101906101569190610eb4565b6107d1565b604051610168919061147e565b60405180910390f35b34801561017c575f80fd5b506101856107e6565b6040516101929190611497565b60405180910390f35b3480156101a6575f80fd5b506101c160048036038101906101bc91906114e1565b61091e565b005b6101dd60048036038101906101d8919061150c565b610993565b005b3480156101ea575f80fd5b506101f3610a05565b6040516102009190611497565b60405180910390f35b348015610214575f80fd5b5061021d610b3d565b60405161022a9190611553565b60405180910390f35b34801561023e575f80fd5b50610247610c13565b6040516102549190611553565b60405180910390f35b348015610268575f80fd5b50610283600480360381019061027e919061156c565b610c38565b005b5f8054906101000a900473ffffffffffffffffffffffffffffffffffffffff1673ffffffffffffffffffffffffffffffffffffffff163373ffffffffffffffffffffffffffffffffffffffff16148061032a575060025f9054906101000a900473ffffffffffffffffffffffffffffffffffffffff1673ffffffffffffffffffffffffffffffffffffffff163373ffffffffffffffffffffffffffffffffffffffff16145b610332575f80fd5b60011515600860019054906101000a900460ff16151514610351575f80fd5b5f60058054905090505f5b8181101561044e575f60058281548110610379576103786115aa565b5b905f5260205f20015f9054906101000a900473ffffffffffffffffffffffffffffffffffffffff1690505f60045f8373ffffffffffffffffffffffffffffffffffffffff1673ffffffffffffffffffffffffffffffffffffffff1681526020019081526020015f205490508173ffffffffffffffffffffffffffffffffffffffff166108fc6064834761040c9190611604565b6104169190611672565b90811502906040515f60405180830381858888f1935050505015801561043e573d5f803e3d5ffd5b505050808060010191505061035c565b5050565b5f8054906101000a900473ffffffffffffffffffffffffffffffffffffffff1673ffffffffffffffffffffffffffffffffffffffff163373ffffffffffffffffffffffffffffffffffffffff16146104a8575f80fd5b8060025f6101000a81548173ffffffffffffffffffffffffffffffffffffffff021916908373ffffffffffffffffffffffffffffffffffffffff16021790555050565b5f60605f60605f6060805f60025f9054906101000a900473ffffffffffffffffffffffffffffffffffffffff166003600654600760085f9054906101000a900460ff166005600a600860019054906101000a900460ff16868054806020026020016040519081016040528092919081815260200182805480156105c057602002820191905f5260205f20905b815f9054906101000a900473ffffffffffffffffffffffffffffffffffffffff1673ffffffffffffffffffffffffffffffffffffffff1681526020019060010190808311610577575b505050505096508480546105d3906116cf565b80601f01602080910402602001604051908101604052809291908181526020018280546105ff906116cf565b801561064a5780601f106106215761010080835404028352916020019161064a565b820191905f5260205f20905b81548152906001019060200180831161062d57829003601f168201915b50505050509450828054806020026020016040519081016040528092919081815260200182805480156106cf57602002820191905f5260205f20905b815f9054906101000a900473ffffffffffffffffffffffffffffffffffffffff1673ffffffffffffffffffffffffffffffffffffffff1681526020019060010190808311610686575b505050505092508180548060200260200160405190810160405280929190818152602001828054801561071f57602002820191905f5260205f20905b81548152602001906001019080831161070b575b50505050509150975097509750975097509750975097509091929394959697565b3360025f6101000a81548173ffffffffffffffffffffffffffffffffffffffff021916908373ffffffffffffffffffffffffffffffffffffffff16021790555034600681905550826005908051906020019061079d929190610d5c565b5081600a90805190602001906107b4929190610de3565b5080600390805190602001906107cb929190610d5c565b50505050565b6004602052805f5260405f205f915090505481565b60605f8054906101000a900473ffffffffffffffffffffffffffffffffffffffff1673ffffffffffffffffffffffffffffffffffffffff163373ffffffffffffffffffffffffffffffffffffffff16148061088d575060025f9054906101000a900473ffffffffffffffffffffffffffffffffffffffff1673ffffffffffffffffffffffffffffffffffffffff163373ffffffffffffffffffffffffffffffffffffffff16145b610895575f80fd5b600580548060200260200160405190810160405280929190818152602001828054801561091457602002820191905f5260205f20905b815f9054906101000a900473ffffffffffffffffffffffffffffffffffffffff1673ffffffffffffffffffffffffffffffffffffffff16815260200190600101908083116108cb575b5050505050905090565b60025f9054906101000a900473ffffffffffffffffffffffffffffffffffffffff1673ffffffffffffffffffffffffffffffffffffffff163373ffffffffffffffffffffffffffffffffffffffff1614610976575f80fd5b80600860016101000a81548160ff02191690831515021790555050565b60025f9054906101000a900473ffffffffffffffffffffffffffffffffffffffff1673ffffffffffffffffffffffffffffffffffffffff163373ffffffffffffffffffffffffffffffffffffffff16146109eb575f80fd5b8060039080519060200190610a01929190610d5c565b5050565b60605f8054906101000a900473ffffffffffffffffffffffffffffffffffffffff1673ffffffffffffffffffffffffffffffffffffffff163373ffffffffffffffffffffffffffffffffffffffff161480610aac575060025f9054906101000a900473ffffffffffffffffffffffffffffffffffffffff1673ffffffffffffffffffffffffffffffffffffffff163373ffffffffffffffffffffffffffffffffffffffff16145b610ab4575f80fd5b6003805480602002602001604051908101604052809291908181526020018280548015610b3357602002820191905f5260205f20905b815f9054906101000a900473ffffffffffffffffffffffffffffffffffffffff1673ffffffffffffffffffffffffffffffffffffffff1681526020019060010190808311610aea575b5050505050905090565b5f805f9054906101000a900473ffffffffffffffffffffffffffffffffffffffff1673ffffffffffffffffffffffffffffffffffffffff163373ffffffffffffffffffffffffffffffffffffffff161480610be4575060025f9054906101000a900473ffffffffffffffffffffffffffffffffffffffff1673ffffffffffffffffffffffffffffffffffffffff163373ffffffffffffffffffffffffffffffffffffffff16145b610bec575f80fd5b60025f9054906101000a900473ffffffffffffffffffffffffffffffffffffffff16905090565b60025f9054906101000a900473ffffffffffffffffffffffffffffffffffffffff1681565b60025f9054906101000a900473ffffffffffffffffffffffffffffffffffffffff1673ffffffffffffffffffffffffffffffffffffffff163373ffffffffffffffffffffffffffffffffffffffff1614610c90575f80fd5b8060045f8473ffffffffffffffffffffffffffffffffffffffff1673ffffffffffffffffffffffffffffffffffffffff1681526020019081526020015f2081905550600582908060018154018082558091505060019003905f5260205f20015f9091909190916101000a81548173ffffffffffffffffffffffffffffffffffffffff021916908373ffffffffffffffffffffffffffffffffffffffff160217905550600a81908060018154018082558091505060019003905f5260205f20015f90919091909150555050565b828054828255905f5260205f20908101928215610dd2579160200282015b82811115610dd1578251825f6101000a81548173ffffffffffffffffffffffffffffffffffffffff021916908373ffffffffffffffffffffffffffffffffffffffff16021790555091602001919060010190610d7a565b5b509050610ddf9190610e2e565b5090565b828054828255905f5260205f20908101928215610e1d579160200282015b82811115610e1c578251825591602001919060010190610e01565b5b509050610e2a9190610e2e565b5090565b5b80821115610e45575f815f905550600101610e2f565b5090565b5f604051905090565b5f80fd5b5f80fd5b5f73ffffffffffffffffffffffffffffffffffffffff82169050919050565b5f610e8382610e5a565b9050919050565b610e9381610e79565b8114610e9d575f80fd5b50565b5f81359050610eae81610e8a565b92915050565b5f60208284031215610ec957610ec8610e52565b5b5f610ed684828501610ea0565b91505092915050565b610ee881610e79565b82525050565b5f81519050919050565b5f82825260208201905092915050565b5f819050602082019050919050565b610f2081610e79565b82525050565b5f610f318383610f17565b60208301905092915050565b5f602082019050919050565b5f610f5382610eee565b610f5d8185610ef8565b9350610f6883610f08565b805f5b83811015610f98578151610f7f8882610f26565b9750610f8a83610f3d565b925050600181019050610f6b565b5085935050505092915050565b5f819050919050565b610fb781610fa5565b82525050565b5f81519050919050565b5f82825260208201905092915050565b5f5b83811015610ff4578082015181840152602081019050610fd9565b5f8484015250505050565b5f601f19601f8301169050919050565b5f61101982610fbd565b6110238185610fc7565b9350611033818560208601610fd7565b61103c81610fff565b840191505092915050565b5f8115159050919050565b61105b81611047565b82525050565b5f81519050919050565b5f82825260208201905092915050565b5f819050602082019050919050565b61109381610fa5565b82525050565b5f6110a4838361108a565b60208301905092915050565b5f602082019050919050565b5f6110c682611061565b6110d0818561106b565b93506110db8361107b565b805f5b8381101561110b5781516110f28882611099565b97506110fd836110b0565b9250506001810190506110de565b5085935050505092915050565b5f6101008201905061112c5f83018b610edf565b818103602083015261113e818a610f49565b905061114d6040830189610fae565b818103606083015261115f818861100f565b905061116e6080830187611052565b81810360a08301526111808186610f49565b905081810360c083015261119481856110bc565b90506111a360e0830184611052565b9998505050505050505050565b5f80fd5b7f4e487b71000000000000000000000000000000000000000000000000000000005f52604160045260245ffd5b6111ea82610fff565b810181811067ffffffffffffffff82111715611209576112086111b4565b5b80604052505050565b5f61121b610e49565b905061122782826111e1565b919050565b5f67ffffffffffffffff821115611246576112456111b4565b5b602082029050602081019050919050565b5f80fd5b5f61126d6112688461122c565b611212565b905080838252602082019050602084028301858111156112905761128f611257565b5b835b818110156112b957806112a58882610ea0565b845260208401935050602081019050611292565b5050509392505050565b5f82601f8301126112d7576112d66111b0565b5b81356112e784826020860161125b565b91505092915050565b5f67ffffffffffffffff82111561130a576113096111b4565b5b602082029050602081019050919050565b61132481610fa5565b811461132e575f80fd5b50565b5f8135905061133f8161131b565b92915050565b5f611357611352846112f0565b611212565b9050808382526020820190506020840283018581111561137a57611379611257565b5b835b818110156113a3578061138f8882611331565b84526020840193505060208101905061137c565b5050509392505050565b5f82601f8301126113c1576113c06111b0565b5b81356113d1848260208601611345565b91505092915050565b5f805f606084860312156113f1576113f0610e52565b5b5f84013567ffffffffffffffff81111561140e5761140d610e56565b5b61141a868287016112c3565b935050602084013567ffffffffffffffff81111561143b5761143a610e56565b5b611447868287016113ad565b925050604084013567ffffffffffffffff81111561146857611467610e56565b5b611474868287016112c3565b9150509250925092565b5f6020820190506114915f830184610fae565b92915050565b5f6020820190508181035f8301526114af8184610f49565b905092915050565b6114c081611047565b81146114ca575f80fd5b50565b5f813590506114db816114b7565b92915050565b5f602082840312156114f6576114f5610e52565b5b5f611503848285016114cd565b91505092915050565b5f6020828403121561152157611520610e52565b5b5f82013567ffffffffffffffff81111561153e5761153d610e56565b5b61154a848285016112c3565b91505092915050565b5f6020820190506115665f830184610edf565b92915050565b5f806040838503121561158257611581610e52565b5b5f61158f85828601610ea0565b92505060206115a085828601611331565b9150509250929050565b7f4e487b71000000000000000000000000000000000000000000000000000000005f52603260045260245ffd5b7f4e487b71000000000000000000000000000000000000000000000000000000005f52601160045260245ffd5b5f61160e82610fa5565b915061161983610fa5565b925082820261162781610fa5565b9150828204841483151761163e5761163d6115d7565b5b5092915050565b7f4e487b71000000000000000000000000000000000000000000000000000000005f52601260045260245ffd5b5f61167c82610fa5565b915061168783610fa5565b92508261169757611696611645565b5b828204905092915050565b7f4e487b71000000000000000000000000000000000000000000000000000000005f52602260045260245ffd5b5f60028204905060018216806116e657607f821691505b6020821081036116f9576116f86116a2565b5b5091905056fea26469706673582212203d084e79892d251330789aab7d4e5521b472124506c6c852eac8f2c7148a437864736f6c63430008170033a26469706673582212206de21bd84bc8f812f15c4166f256c4e534415b48b582afec8ce8dca743d6f8a364736f6c63430008170033","opcodes":"PUSH1 0x80 PUSH1 0x40 MSTORE CALLVALUE DUP1 ISZERO PUSH2 0xF JUMPI PUSH0 DUP1 REVERT JUMPDEST POP PUSH2 0x2A52 DUP1 PUSH2 0x1D PUSH0 CODECOPY PUSH0 RETURN INVALID PUSH1 0x80 PUSH1 0x40 MSTORE CALLVALUE DUP1 ISZERO PUSH3 0x10 JUMPI PUSH0 DUP1 REVERT JUMPDEST POP PUSH1 0x4 CALLDATASIZE LT PUSH3 0x5C JUMPI PUSH0 CALLDATALOAD PUSH1 0xE0 SHR DUP1 PUSH4 0x15CE3647 EQ PUSH3 0x60 JUMPI DUP1 PUSH4 0x3D91FC62 EQ PUSH3 0x80 JUMPI DUP1 PUSH4 0x6E9960C3 EQ PUSH3 0xA0 JUMPI DUP1 PUSH4 0x7D1A9435 EQ PUSH3 0xC2 JUMPI DUP1 PUSH4 0x9AD1EE10 EQ PUSH3 0xE4 JUMPI JUMPDEST PUSH0 DUP1 REVERT JUMPDEST PUSH3 0x7E PUSH1 0x4 DUP1 CALLDATASIZE SUB DUP2 ADD SWAP1 PUSH3 0x78 SWAP2 SWAP1 PUSH3 0x6B6 JUMP JUMPDEST PUSH3 0x11A JUMP JUMPDEST STOP JUMPDEST PUSH3 0x9E PUSH1 0x4 DUP1 CALLDATASIZE SUB DUP2 ADD SWAP1 PUSH3 0x98 SWAP2 SWAP1 PUSH3 0x739 JUMP JUMPDEST PUSH3 0x1FB JUMP JUMPDEST STOP JUMPDEST PUSH3 0xAA PUSH3 0x26E JUMP JUMPDEST PUSH1 0x40 MLOAD PUSH3 0xB9 SWAP2 SWAP1 PUSH3 0x799 JUMP JUMPDEST PUSH1 0x40 MLOAD DUP1 SWAP2 SUB SWAP1 RETURN JUMPDEST PUSH3 0xCC PUSH3 0x295 JUMP JUMPDEST PUSH1 0x40 MLOAD PUSH3 0xDB SWAP2 SWAP1 PUSH3 0x8D1 JUMP JUMPDEST PUSH1 0x40 MLOAD DUP1 SWAP2 SUB SWAP1 RETURN JUMPDEST PUSH3 0x102 PUSH1 0x4 DUP1 CALLDATASIZE SUB DUP2 ADD SWAP1 PUSH3 0xFC SWAP2 SWAP1 PUSH3 0x92B JUMP JUMPDEST PUSH3 0x322 JUMP JUMPDEST PUSH1 0x40 MLOAD PUSH3 0x111 SWAP2 SWAP1 PUSH3 0x96C JUMP JUMPDEST PUSH1 0x40 MLOAD DUP1 SWAP2 SUB SWAP1 RETURN JUMPDEST PUSH0 DUP3 CALLER DUP4 PUSH1 0x40 MLOAD PUSH3 0x12C SWAP1 PUSH3 0x35E JUMP JUMPDEST PUSH3 0x13A SWAP4 SWAP3 SWAP2 SWAP1 PUSH3 0xAC2 JUMP JUMPDEST PUSH1 0x40 MLOAD DUP1 SWAP2 SUB SWAP1 PUSH0 CREATE DUP1 ISZERO DUP1 ISZERO PUSH3 0x154 JUMPI RETURNDATASIZE PUSH0 DUP1 RETURNDATACOPY RETURNDATASIZE PUSH0 REVERT JUMPDEST POP SWAP1 POP CALLER PUSH0 DUP1 PUSH2 0x100 EXP DUP2 SLOAD DUP2 PUSH20 0xFFFFFFFFFFFFFFFFFFFFFFFFFFFFFFFFFFFFFFFF MUL NOT AND SWAP1 DUP4 PUSH20 0xFFFFFFFFFFFFFFFFFFFFFFFFFFFFFFFFFFFFFFFF AND MUL OR SWAP1 SSTORE POP PUSH1 0x1 DUP2 SWAP1 DUP1 PUSH1 0x1 DUP2 SLOAD ADD DUP1 DUP3 SSTORE DUP1 SWAP2 POP POP PUSH1 0x1 SWAP1 SUB SWAP1 PUSH0 MSTORE PUSH1 0x20 PUSH0 KECCAK256 ADD PUSH0 SWAP1 SWAP2 SWAP1 SWAP2 SWAP1 SWAP2 PUSH2 0x100 EXP DUP2 SLOAD DUP2 PUSH20 0xFFFFFFFFFFFFFFFFFFFFFFFFFFFFFFFFFFFFFFFF MUL NOT AND SWAP1 DUP4 PUSH20 0xFFFFFFFFFFFFFFFFFFFFFFFFFFFFFFFFFFFFFFFF AND MUL OR SWAP1 SSTORE POP POP POP POP JUMP JUMPDEST CALLER PUSH20 0xFFFFFFFFFFFFFFFFFFFFFFFFFFFFFFFFFFFFFFFF AND PUSH0 DUP1 SLOAD SWAP1 PUSH2 0x100 EXP SWAP1 DIV PUSH20 0xFFFFFFFFFFFFFFFFFFFFFFFFFFFFFFFFFFFFFFFF AND PUSH20 0xFFFFFFFFFFFFFFFFFFFFFFFFFFFFFFFFFFFFFFFF AND EQ PUSH3 0x252 JUMPI PUSH0 DUP1 REVERT JUMPDEST DUP1 PUSH1 0x2 SWAP1 DUP1 MLOAD SWAP1 PUSH1 0x20 ADD SWAP1 PUSH3 0x26A SWAP3 SWAP2 SWAP1 PUSH3 0x36C JUMP JUMPDEST POP POP JUMP JUMPDEST PUSH0 DUP1 PUSH0 SWAP1 SLOAD SWAP1 PUSH2 0x100 EXP SWAP1 DIV PUSH20 0xFFFFFFFFFFFFFFFFFFFFFFFFFFFFFFFFFFFFFFFF AND SWAP1 POP SWAP1 JUMP JUMPDEST PUSH1 0x60 PUSH1 0x1 DUP1 SLOAD DUP1 PUSH1 0x20 MUL PUSH1 0x20 ADD PUSH1 0x40 MLOAD SWAP1 DUP2 ADD PUSH1 0x40 MSTORE DUP1 SWAP3 SWAP2 SWAP1 DUP2 DUP2 MSTORE PUSH1 0x20 ADD DUP3 DUP1 SLOAD DUP1 ISZERO PUSH3 0x318 JUMPI PUSH1 0x20 MUL DUP3 ADD SWAP2 SWAP1 PUSH0 MSTORE PUSH1 0x20 PUSH0 KECCAK256 SWAP1 JUMPDEST DUP2 PUSH0 SWAP1 SLOAD SWAP1 PUSH2 0x100 EXP SWAP1 DIV PUSH20 0xFFFFFFFFFFFFFFFFFFFFFFFFFFFFFFFFFFFFFFFF AND PUSH20 0xFFFFFFFFFFFFFFFFFFFFFFFFFFFFFFFFFFFFFFFF AND DUP2 MSTORE PUSH1 0x20 ADD SWAP1 PUSH1 0x1 ADD SWAP1 DUP1 DUP4 GT PUSH3 0x2CE JUMPI JUMPDEST POP POP POP POP POP SWAP1 POP SWAP1 JUMP JUMPDEST PUSH1 0x1 DUP2 DUP2 SLOAD DUP2 LT PUSH3 0x332 JUMPI PUSH0 DUP1 REVERT JUMPDEST SWAP1 PUSH0 MSTORE PUSH1 0x20 PUSH0 KECCAK256 ADD PUSH0 SWAP2 POP SLOAD SWAP1 PUSH2 0x100 EXP SWAP1 DIV PUSH20 0xFFFFFFFFFFFFFFFFFFFFFFFFFFFFFFFFFFFFFFFF AND DUP2 JUMP JUMPDEST PUSH2 0x1F11 DUP1 PUSH3 0xB0C DUP4 CODECOPY ADD SWAP1 JUMP JUMPDEST DUP3 DUP1 SLOAD DUP3 DUP3 SSTORE SWAP1 PUSH0 MSTORE PUSH1 0x20 PUSH0 KECCAK256 SWAP1 DUP2 ADD SWAP3 DUP3 ISZERO PUSH3 0x3E5 JUMPI SWAP2 PUSH1 0x20 MUL DUP3 ADD JUMPDEST DUP3 DUP2 GT ISZERO PUSH3 0x3E4 JUMPI DUP3 MLOAD DUP3 PUSH0 PUSH2 0x100 EXP DUP2 SLOAD DUP2 PUSH20 0xFFFFFFFFFFFFFFFFFFFFFFFFFFFFFFFFFFFFFFFF MUL NOT AND SWAP1 DUP4 PUSH20 0xFFFFFFFFFFFFFFFFFFFFFFFFFFFFFFFFFFFFFFFF AND MUL OR SWAP1 SSTORE POP SWAP2 PUSH1 0x20 ADD SWAP2 SWAP1 PUSH1 0x1 ADD SWAP1 PUSH3 0x38B JUMP JUMPDEST JUMPDEST POP SWAP1 POP PUSH3 0x3F4 SWAP2 SWAP1 PUSH3 0x3F8 JUMP JUMPDEST POP SWAP1 JUMP JUMPDEST JUMPDEST DUP1 DUP3 GT ISZERO PUSH3 0x411 JUMPI PUSH0 DUP2 PUSH0 SWAP1 SSTORE POP PUSH1 0x1 ADD PUSH3 0x3F9 JUMP JUMPDEST POP SWAP1 JUMP JUMPDEST PUSH0 PUSH1 0x40 MLOAD SWAP1 POP SWAP1 JUMP JUMPDEST PUSH0 DUP1 REVERT JUMPDEST PUSH0 DUP1 REVERT JUMPDEST PUSH0 DUP1 REVERT JUMPDEST PUSH0 DUP1 REVERT JUMPDEST PUSH0 PUSH1 0x1F NOT PUSH1 0x1F DUP4 ADD AND SWAP1 POP SWAP2 SWAP1 POP JUMP JUMPDEST PUSH32 0x4E487B7100000000000000000000000000000000000000000000000000000000 PUSH0 MSTORE PUSH1 0x41 PUSH1 0x4 MSTORE PUSH1 0x24 PUSH0 REVERT JUMPDEST PUSH3 0x476 DUP3 PUSH3 0x42E JUMP JUMPDEST DUP2 ADD DUP2 DUP2 LT PUSH8 0xFFFFFFFFFFFFFFFF DUP3 GT OR ISZERO PUSH3 0x498 JUMPI PUSH3 0x497 PUSH3 0x43E JUMP JUMPDEST JUMPDEST DUP1 PUSH1 0x40 MSTORE POP POP POP JUMP JUMPDEST PUSH0 PUSH3 0x4AC PUSH3 0x415 JUMP JUMPDEST SWAP1 POP PUSH3 0x4BA DUP3 DUP3 PUSH3 0x46B JUMP JUMPDEST SWAP2 SWAP1 POP JUMP JUMPDEST PUSH0 PUSH8 0xFFFFFFFFFFFFFFFF DUP3 GT ISZERO PUSH3 0x4DC JUMPI PUSH3 0x4DB PUSH3 0x43E JUMP JUMPDEST JUMPDEST PUSH3 0x4E7 DUP3 PUSH3 0x42E JUMP JUMPDEST SWAP1 POP PUSH1 0x20 DUP2 ADD SWAP1 POP SWAP2 SWAP1 POP JUMP JUMPDEST DUP3 DUP2 DUP4 CALLDATACOPY PUSH0 DUP4 DUP4 ADD MSTORE POP POP POP JUMP JUMPDEST PUSH0 PUSH3 0x518 PUSH3 0x512 DUP5 PUSH3 0x4BF JUMP JUMPDEST PUSH3 0x4A1 JUMP JUMPDEST SWAP1 POP DUP3 DUP2 MSTORE PUSH1 0x20 DUP2 ADD DUP5 DUP5 DUP5 ADD GT ISZERO PUSH3 0x537 JUMPI PUSH3 0x536 PUSH3 0x42A JUMP JUMPDEST JUMPDEST PUSH3 0x544 DUP5 DUP3 DUP6 PUSH3 0x4F4 JUMP JUMPDEST POP SWAP4 SWAP3 POP POP POP JUMP JUMPDEST PUSH0 DUP3 PUSH1 0x1F DUP4 ADD SLT PUSH3 0x563 JUMPI PUSH3 0x562 PUSH3 0x426 JUMP JUMPDEST JUMPDEST DUP2 CALLDATALOAD PUSH3 0x575 DUP5 DUP3 PUSH1 0x20 DUP7 ADD PUSH3 0x502 JUMP JUMPDEST SWAP2 POP POP SWAP3 SWAP2 POP POP JUMP JUMPDEST PUSH0 PUSH8 0xFFFFFFFFFFFFFFFF DUP3 GT ISZERO PUSH3 0x59B JUMPI PUSH3 0x59A PUSH3 0x43E JUMP JUMPDEST JUMPDEST PUSH1 0x20 DUP3 MUL SWAP1 POP PUSH1 0x20 DUP2 ADD SWAP1 POP SWAP2 SWAP1 POP JUMP JUMPDEST PUSH0 DUP1 REVERT JUMPDEST PUSH0 PUSH20 0xFFFFFFFFFFFFFFFFFFFFFFFFFFFFFFFFFFFFFFFF DUP3 AND SWAP1 POP SWAP2 SWAP1 POP JUMP JUMPDEST PUSH0 PUSH3 0x5DB DUP3 PUSH3 0x5B0 JUMP JUMPDEST SWAP1 POP SWAP2 SWAP1 POP JUMP JUMPDEST PUSH3 0x5ED DUP2 PUSH3 0x5CF JUMP JUMPDEST DUP2 EQ PUSH3 0x5F8 JUMPI PUSH0 DUP1 REVERT JUMPDEST POP JUMP JUMPDEST PUSH0 DUP2 CALLDATALOAD SWAP1 POP PUSH3 0x60B DUP2 PUSH3 0x5E2 JUMP JUMPDEST SWAP3 SWAP2 POP POP JUMP JUMPDEST PUSH0 PUSH3 0x627 PUSH3 0x621 DUP5 PUSH3 0x57E JUMP JUMPDEST PUSH3 0x4A1 JUMP JUMPDEST SWAP1 POP DUP1 DUP4 DUP3 MSTORE PUSH1 0x20 DUP3 ADD SWAP1 POP PUSH1 0x20 DUP5 MUL DUP4 ADD DUP6 DUP2 GT ISZERO PUSH3 0x64D JUMPI PUSH3 0x64C PUSH3 0x5AC JUMP JUMPDEST JUMPDEST DUP4 JUMPDEST DUP2 DUP2 LT ISZERO PUSH3 0x67A JUMPI DUP1 PUSH3 0x665 DUP9 DUP3 PUSH3 0x5FB JUMP JUMPDEST DUP5 MSTORE PUSH1 0x20 DUP5 ADD SWAP4 POP POP PUSH1 0x20 DUP2 ADD SWAP1 POP PUSH3 0x64F JUMP JUMPDEST POP POP POP SWAP4 SWAP3 POP POP POP JUMP JUMPDEST PUSH0 DUP3 PUSH1 0x1F DUP4 ADD SLT PUSH3 0x69B JUMPI PUSH3 0x69A PUSH3 0x426 JUMP JUMPDEST JUMPDEST DUP2 CALLDATALOAD PUSH3 0x6AD DUP5 DUP3 PUSH1 0x20 DUP7 ADD PUSH3 0x611 JUMP JUMPDEST SWAP2 POP POP SWAP3 SWAP2 POP POP JUMP JUMPDEST PUSH0 DUP1 PUSH1 0x40 DUP4 DUP6 SUB SLT ISZERO PUSH3 0x6CF JUMPI PUSH3 0x6CE PUSH3 0x41E JUMP JUMPDEST JUMPDEST PUSH0 DUP4 ADD CALLDATALOAD PUSH8 0xFFFFFFFFFFFFFFFF DUP2 GT ISZERO PUSH3 0x6EF JUMPI PUSH3 0x6EE PUSH3 0x422 JUMP JUMPDEST JUMPDEST PUSH3 0x6FD DUP6 DUP3 DUP7 ADD PUSH3 0x54C JUMP JUMPDEST SWAP3 POP POP PUSH1 0x20 DUP4 ADD CALLDATALOAD PUSH8 0xFFFFFFFFFFFFFFFF DUP2 GT ISZERO PUSH3 0x721 JUMPI PUSH3 0x720 PUSH3 0x422 JUMP JUMPDEST JUMPDEST PUSH3 0x72F DUP6 DUP3 DUP7 ADD PUSH3 0x684 JUMP JUMPDEST SWAP2 POP POP SWAP3 POP SWAP3 SWAP1 POP JUMP JUMPDEST PUSH0 PUSH1 0x20 DUP3 DUP5 SUB SLT ISZERO PUSH3 0x751 JUMPI PUSH3 0x750 PUSH3 0x41E JUMP JUMPDEST JUMPDEST PUSH0 DUP3 ADD CALLDATALOAD PUSH8 0xFFFFFFFFFFFFFFFF DUP2 GT ISZERO PUSH3 0x771 JUMPI PUSH3 0x770 PUSH3 0x422 JUMP JUMPDEST JUMPDEST PUSH3 0x77F DUP5 DUP3 DUP6 ADD PUSH3 0x684 JUMP JUMPDEST SWAP2 POP POP SWAP3 SWAP2 POP POP JUMP JUMPDEST PUSH3 0x793 DUP2 PUSH3 0x5CF JUMP JUMPDEST DUP3 MSTORE POP POP JUMP JUMPDEST PUSH0 PUSH1 0x20 DUP3 ADD SWAP1 POP PUSH3 0x7AE PUSH0 DUP4 ADD DUP5 PUSH3 0x788 JUMP JUMPDEST SWAP3 SWAP2 POP POP JUMP JUMPDEST PUSH0 DUP2 MLOAD SWAP1 POP SWAP2 SWAP1 POP JUMP JUMPDEST PUSH0 DUP3 DUP3 MSTORE PUSH1 0x20 DUP3 ADD SWAP1 POP SWAP3 SWAP2 POP POP JUMP JUMPDEST PUSH0 DUP2 SWAP1 POP PUSH1 0x20 DUP3 ADD SWAP1 POP SWAP2 SWAP1 POP JUMP JUMPDEST PUSH0 DUP2 SWAP1 POP SWAP2 SWAP1 POP JUMP JUMPDEST PUSH0 PUSH3 0x806 PUSH3 0x800 PUSH3 0x7FA DUP5 PUSH3 0x5B0 JUMP JUMPDEST PUSH3 0x7DD JUMP JUMPDEST PUSH3 0x5B0 JUMP JUMPDEST SWAP1 POP SWAP2 SWAP1 POP JUMP JUMPDEST PUSH0 PUSH3 0x819 DUP3 PUSH3 0x7E6 JUMP JUMPDEST SWAP1 POP SWAP2 SWAP1 POP JUMP JUMPDEST PUSH0 PUSH3 0x82C DUP3 PUSH3 0x80D JUMP JUMPDEST SWAP1 POP SWAP2 SWAP1 POP JUMP JUMPDEST PUSH3 0x83E DUP2 PUSH3 0x820 JUMP JUMPDEST DUP3 MSTORE POP POP JUMP JUMPDEST PUSH0 PUSH3 0x851 DUP4 DUP4 PUSH3 0x833 JUMP JUMPDEST PUSH1 0x20 DUP4 ADD SWAP1 POP SWAP3 SWAP2 POP POP JUMP JUMPDEST PUSH0 PUSH1 0x20 DUP3 ADD SWAP1 POP SWAP2 SWAP1 POP JUMP JUMPDEST PUSH0 PUSH3 0x875 DUP3 PUSH3 0x7B4 JUMP JUMPDEST PUSH3 0x881 DUP2 DUP6 PUSH3 0x7BE JUMP JUMPDEST SWAP4 POP PUSH3 0x88E DUP4 PUSH3 0x7CE JUMP JUMPDEST DUP1 PUSH0 JUMPDEST DUP4 DUP2 LT ISZERO PUSH3 0x8C4 JUMPI DUP2 MLOAD PUSH3 0x8A8 DUP9 DUP3 PUSH3 0x844 JUMP JUMPDEST SWAP8 POP PUSH3 0x8B5 DUP4 PUSH3 0x85D JUMP JUMPDEST SWAP3 POP POP PUSH1 0x1 DUP2 ADD SWAP1 POP PUSH3 0x891 JUMP JUMPDEST POP DUP6 SWAP4 POP POP POP POP SWAP3 SWAP2 POP POP JUMP JUMPDEST PUSH0 PUSH1 0x20 DUP3 ADD SWAP1 POP DUP2 DUP2 SUB PUSH0 DUP4 ADD MSTORE PUSH3 0x8EB DUP2 DUP5 PUSH3 0x869 JUMP JUMPDEST SWAP1 POP SWAP3 SWAP2 POP POP JUMP JUMPDEST PUSH0 DUP2 SWAP1 POP SWAP2 SWAP1 POP JUMP JUMPDEST PUSH3 0x907 DUP2 PUSH3 0x8F3 JUMP JUMPDEST DUP2 EQ PUSH3 0x912 JUMPI PUSH0 DUP1 REVERT JUMPDEST POP JUMP JUMPDEST PUSH0 DUP2 CALLDATALOAD SWAP1 POP PUSH3 0x925 DUP2 PUSH3 0x8FC JUMP JUMPDEST SWAP3 SWAP2 POP POP JUMP JUMPDEST PUSH0 PUSH1 0x20 DUP3 DUP5 SUB SLT ISZERO PUSH3 0x943 JUMPI PUSH3 0x942 PUSH3 0x41E JUMP JUMPDEST JUMPDEST PUSH0 PUSH3 0x952 DUP5 DUP3 DUP6 ADD PUSH3 0x915 JUMP JUMPDEST SWAP2 POP POP SWAP3 SWAP2 POP POP JUMP JUMPDEST PUSH3 0x966 DUP2 PUSH3 0x820 JUMP JUMPDEST DUP3 MSTORE POP POP JUMP JUMPDEST PUSH0 PUSH1 0x20 DUP3 ADD SWAP1 POP PUSH3 0x981 PUSH0 DUP4 ADD DUP5 PUSH3 0x95B JUMP JUMPDEST SWAP3 SWAP2 POP POP JUMP JUMPDEST PUSH0 DUP2 MLOAD SWAP1 POP SWAP2 SWAP1 POP JUMP JUMPDEST PUSH0 DUP3 DUP3 MSTORE PUSH1 0x20 DUP3 ADD SWAP1 POP SWAP3 SWAP2 POP POP JUMP JUMPDEST PUSH0 JUMPDEST DUP4 DUP2 LT ISZERO PUSH3 0x9C0 JUMPI DUP1 DUP3 ADD MLOAD DUP2 DUP5 ADD MSTORE PUSH1 0x20 DUP2 ADD SWAP1 POP PUSH3 0x9A3 JUMP JUMPDEST PUSH0 DUP5 DUP5 ADD MSTORE POP POP POP POP JUMP JUMPDEST PUSH0 PUSH3 0x9D7 DUP3 PUSH3 0x987 JUMP JUMPDEST PUSH3 0x9E3 DUP2 DUP6 PUSH3 0x991 JUMP JUMPDEST SWAP4 POP PUSH3 0x9F5 DUP2 DUP6 PUSH1 0x20 DUP7 ADD PUSH3 0x9A1 JUMP JUMPDEST PUSH3 0xA00 DUP2 PUSH3 0x42E JUMP JUMPDEST DUP5 ADD SWAP2 POP POP SWAP3 SWAP2 POP POP JUMP JUMPDEST PUSH0 DUP2 MLOAD SWAP1 POP SWAP2 SWAP1 POP JUMP JUMPDEST PUSH0 DUP2 SWAP1 POP PUSH1 0x20 DUP3 ADD SWAP1 POP SWAP2 SWAP1 POP JUMP JUMPDEST PUSH3 0xA2F DUP2 PUSH3 0x5CF JUMP JUMPDEST DUP3 MSTORE POP POP JUMP JUMPDEST PUSH0 PUSH3 0xA42 DUP4 DUP4 PUSH3 0xA24 JUMP JUMPDEST PUSH1 0x20 DUP4 ADD SWAP1 POP SWAP3 SWAP2 POP POP JUMP JUMPDEST PUSH0 PUSH1 0x20 DUP3 ADD SWAP1 POP SWAP2 SWAP1 POP JUMP JUMPDEST PUSH0 PUSH3 0xA66 DUP3 PUSH3 0xA0B JUMP JUMPDEST PUSH3 0xA72 DUP2 DUP6 PUSH3 0x7BE JUMP JUMPDEST SWAP4 POP PUSH3 0xA7F DUP4 PUSH3 0xA15 JUMP JUMPDEST DUP1 PUSH0 JUMPDEST DUP4 DUP2 LT ISZERO PUSH3 0xAB5 JUMPI DUP2 MLOAD PUSH3 0xA99 DUP9 DUP3 PUSH3 0xA35 JUMP JUMPDEST SWAP8 POP PUSH3 0xAA6 DUP4 PUSH3 0xA4E JUMP JUMPDEST SWAP3 POP POP PUSH1 0x1 DUP2 ADD SWAP1 POP PUSH3 0xA82 JUMP JUMPDEST POP DUP6 SWAP4 POP POP POP POP SWAP3 SWAP2 POP POP JUMP JUMPDEST PUSH0 PUSH1 0x60 DUP3 ADD SWAP1 POP DUP2 DUP2 SUB PUSH0 DUP4 ADD MSTORE PUSH3 0xADC DUP2 DUP7 PUSH3 0x9CB JUMP JUMPDEST SWAP1 POP PUSH3 0xAED PUSH1 0x20 DUP4 ADD DUP6 PUSH3 0x788 JUMP JUMPDEST DUP2 DUP2 SUB PUSH1 0x40 DUP4 ADD MSTORE PUSH3 0xB01 DUP2 DUP5 PUSH3 0xA5A JUMP JUMPDEST SWAP1 POP SWAP5 SWAP4 POP POP POP POP JUMP INVALID PUSH1 0x80 PUSH1 0x40 MSTORE PUSH1 0x1 PUSH1 0x8 PUSH0 PUSH2 0x100 EXP DUP2 SLOAD DUP2 PUSH1 0xFF MUL NOT AND SWAP1 DUP4 ISZERO ISZERO MUL OR SWAP1 SSTORE POP PUSH1 0x40 MLOAD PUSH3 0x1F11 CODESIZE SUB DUP1 PUSH3 0x1F11 DUP4 CODECOPY DUP2 DUP2 ADD PUSH1 0x40 MSTORE DUP2 ADD SWAP1 PUSH3 0x43 SWAP2 SWAP1 PUSH3 0x41C JUMP JUMPDEST DUP2 PUSH0 DUP1 PUSH2 0x100 EXP DUP2 SLOAD DUP2 PUSH20 0xFFFFFFFFFFFFFFFFFFFFFFFFFFFFFFFFFFFFFFFF MUL NOT AND SWAP1 DUP4 PUSH20 0xFFFFFFFFFFFFFFFFFFFFFFFFFFFFFFFFFFFFFFFF AND MUL OR SWAP1 SSTORE POP DUP3 PUSH1 0x7 SWAP1 DUP2 PUSH3 0x93 SWAP2 SWAP1 PUSH3 0x6EA JUMP JUMPDEST POP DUP1 PUSH1 0x1 SWAP1 DUP1 MLOAD SWAP1 PUSH1 0x20 ADD SWAP1 PUSH3 0xAC SWAP3 SWAP2 SWAP1 PUSH3 0xB6 JUMP JUMPDEST POP POP POP POP PUSH3 0x7CE JUMP JUMPDEST DUP3 DUP1 SLOAD DUP3 DUP3 SSTORE SWAP1 PUSH0 MSTORE PUSH1 0x20 PUSH0 KECCAK256 SWAP1 DUP2 ADD SWAP3 DUP3 ISZERO PUSH3 0x12F JUMPI SWAP2 PUSH1 0x20 MUL DUP3 ADD JUMPDEST DUP3 DUP2 GT ISZERO PUSH3 0x12E JUMPI DUP3 MLOAD DUP3 PUSH0 PUSH2 0x100 EXP DUP2 SLOAD DUP2 PUSH20 0xFFFFFFFFFFFFFFFFFFFFFFFFFFFFFFFFFFFFFFFF MUL NOT AND SWAP1 DUP4 PUSH20 0xFFFFFFFFFFFFFFFFFFFFFFFFFFFFFFFFFFFFFFFF AND MUL OR SWAP1 SSTORE POP SWAP2 PUSH1 0x20 ADD SWAP2 SWAP1 PUSH1 0x1 ADD SWAP1 PUSH3 0xD5 JUMP JUMPDEST JUMPDEST POP SWAP1 POP PUSH3 0x13E SWAP2 SWAP1 PUSH3 0x142 JUMP JUMPDEST POP SWAP1 JUMP JUMPDEST JUMPDEST DUP1 DUP3 GT ISZERO PUSH3 0x15B JUMPI PUSH0 DUP2 PUSH0 SWAP1 SSTORE POP PUSH1 0x1 ADD PUSH3 0x143 JUMP JUMPDEST POP SWAP1 JUMP JUMPDEST PUSH0 PUSH1 0x40 MLOAD SWAP1 POP SWAP1 JUMP JUMPDEST PUSH0 DUP1 REVERT JUMPDEST PUSH0 DUP1 REVERT JUMPDEST PUSH0 DUP1 REVERT JUMPDEST PUSH0 DUP1 REVERT JUMPDEST PUSH0 PUSH1 0x1F NOT PUSH1 0x1F DUP4 ADD AND SWAP1 POP SWAP2 SWAP1 POP JUMP JUMPDEST PUSH32 0x4E487B7100000000000000000000000000000000000000000000000000000000 PUSH0 MSTORE PUSH1 0x41 PUSH1 0x4 MSTORE PUSH1 0x24 PUSH0 REVERT JUMPDEST PUSH3 0x1C0 DUP3 PUSH3 0x178 JUMP JUMPDEST DUP2 ADD DUP2 DUP2 LT PUSH8 0xFFFFFFFFFFFFFFFF DUP3 GT OR ISZERO PUSH3 0x1E2 JUMPI PUSH3 0x1E1 PUSH3 0x188 JUMP JUMPDEST JUMPDEST DUP1 PUSH1 0x40 MSTORE POP POP POP JUMP JUMPDEST PUSH0 PUSH3 0x1F6 PUSH3 0x15F JUMP JUMPDEST SWAP1 POP PUSH3 0x204 DUP3 DUP3 PUSH3 0x1B5 JUMP JUMPDEST SWAP2 SWAP1 POP JUMP JUMPDEST PUSH0 PUSH8 0xFFFFFFFFFFFFFFFF DUP3 GT ISZERO PUSH3 0x226 JUMPI PUSH3 0x225 PUSH3 0x188 JUMP JUMPDEST JUMPDEST PUSH3 0x231 DUP3 PUSH3 0x178 JUMP JUMPDEST SWAP1 POP PUSH1 0x20 DUP2 ADD SWAP1 POP SWAP2 SWAP1 POP JUMP JUMPDEST PUSH0 JUMPDEST DUP4 DUP2 LT ISZERO PUSH3 0x25D JUMPI DUP1 DUP3 ADD MLOAD DUP2 DUP5 ADD MSTORE PUSH1 0x20 DUP2 ADD SWAP1 POP PUSH3 0x240 JUMP JUMPDEST PUSH0 DUP5 DUP5 ADD MSTORE POP POP POP POP JUMP JUMPDEST PUSH0 PUSH3 0x27E PUSH3 0x278 DUP5 PUSH3 0x209 JUMP JUMPDEST PUSH3 0x1EB JUMP JUMPDEST SWAP1 POP DUP3 DUP2 MSTORE PUSH1 0x20 DUP2 ADD DUP5 DUP5 DUP5 ADD GT ISZERO PUSH3 0x29D JUMPI PUSH3 0x29C PUSH3 0x174 JUMP JUMPDEST JUMPDEST PUSH3 0x2AA DUP5 DUP3 DUP6 PUSH3 0x23E JUMP JUMPDEST POP SWAP4 SWAP3 POP POP POP JUMP JUMPDEST PUSH0 DUP3 PUSH1 0x1F DUP4 ADD SLT PUSH3 0x2C9 JUMPI PUSH3 0x2C8 PUSH3 0x170 JUMP JUMPDEST JUMPDEST DUP2 MLOAD PUSH3 0x2DB DUP5 DUP3 PUSH1 0x20 DUP7 ADD PUSH3 0x268 JUMP JUMPDEST SWAP2 POP POP SWAP3 SWAP2 POP POP JUMP JUMPDEST PUSH0 PUSH20 0xFFFFFFFFFFFFFFFFFFFFFFFFFFFFFFFFFFFFFFFF DUP3 AND SWAP1 POP SWAP2 SWAP1 POP JUMP JUMPDEST PUSH0 PUSH3 0x30F DUP3 PUSH3 0x2E4 JUMP JUMPDEST SWAP1 POP SWAP2 SWAP1 POP JUMP JUMPDEST PUSH3 0x321 DUP2 PUSH3 0x303 JUMP JUMPDEST DUP2 EQ PUSH3 0x32C JUMPI PUSH0 DUP1 REVERT JUMPDEST POP JUMP JUMPDEST PUSH0 DUP2 MLOAD SWAP1 POP PUSH3 0x33F DUP2 PUSH3 0x316 JUMP JUMPDEST SWAP3 SWAP2 POP POP JUMP JUMPDEST PUSH0 PUSH8 0xFFFFFFFFFFFFFFFF DUP3 GT ISZERO PUSH3 0x362 JUMPI PUSH3 0x361 PUSH3 0x188 JUMP JUMPDEST JUMPDEST PUSH1 0x20 DUP3 MUL SWAP1 POP PUSH1 0x20 DUP2 ADD SWAP1 POP SWAP2 SWAP1 POP JUMP JUMPDEST PUSH0 DUP1 REVERT JUMPDEST PUSH0 PUSH3 0x38D PUSH3 0x387 DUP5 PUSH3 0x345 JUMP JUMPDEST PUSH3 0x1EB JUMP JUMPDEST SWAP1 POP DUP1 DUP4 DUP3 MSTORE PUSH1 0x20 DUP3 ADD SWAP1 POP PUSH1 0x20 DUP5 MUL DUP4 ADD DUP6 DUP2 GT ISZERO PUSH3 0x3B3 JUMPI PUSH3 0x3B2 PUSH3 0x373 JUMP JUMPDEST JUMPDEST DUP4 JUMPDEST DUP2 DUP2 LT ISZERO PUSH3 0x3E0 JUMPI DUP1 PUSH3 0x3CB DUP9 DUP3 PUSH3 0x32F JUMP JUMPDEST DUP5 MSTORE PUSH1 0x20 DUP5 ADD SWAP4 POP POP PUSH1 0x20 DUP2 ADD SWAP1 POP PUSH3 0x3B5 JUMP JUMPDEST POP POP POP SWAP4 SWAP3 POP POP POP JUMP JUMPDEST PUSH0 DUP3 PUSH1 0x1F DUP4 ADD SLT PUSH3 0x401 JUMPI PUSH3 0x400 PUSH3 0x170 JUMP JUMPDEST JUMPDEST DUP2 MLOAD PUSH3 0x413 DUP5 DUP3 PUSH1 0x20 DUP7 ADD PUSH3 0x377 JUMP JUMPDEST SWAP2 POP POP SWAP3 SWAP2 POP POP JUMP JUMPDEST PUSH0 DUP1 PUSH0 PUSH1 0x60 DUP5 DUP7 SUB SLT ISZERO PUSH3 0x436 JUMPI PUSH3 0x435 PUSH3 0x168 JUMP JUMPDEST JUMPDEST PUSH0 DUP5 ADD MLOAD PUSH8 0xFFFFFFFFFFFFFFFF DUP2 GT ISZERO PUSH3 0x456 JUMPI PUSH3 0x455 PUSH3 0x16C JUMP JUMPDEST JUMPDEST PUSH3 0x464 DUP7 DUP3 DUP8 ADD PUSH3 0x2B2 JUMP JUMPDEST SWAP4 POP POP PUSH1 0x20 PUSH3 0x477 DUP7 DUP3 DUP8 ADD PUSH3 0x32F JUMP JUMPDEST SWAP3 POP POP PUSH1 0x40 DUP5 ADD MLOAD PUSH8 0xFFFFFFFFFFFFFFFF DUP2 GT ISZERO PUSH3 0x49B JUMPI PUSH3 0x49A PUSH3 0x16C JUMP JUMPDEST JUMPDEST PUSH3 0x4A9 DUP7 DUP3 DUP8 ADD PUSH3 0x3EA JUMP JUMPDEST SWAP2 POP POP SWAP3 POP SWAP3 POP SWAP3 JUMP JUMPDEST PUSH0 DUP2 MLOAD SWAP1 POP SWAP2 SWAP1 POP JUMP JUMPDEST PUSH32 0x4E487B7100000000000000000000000000000000000000000000000000000000 PUSH0 MSTORE PUSH1 0x22 PUSH1 0x4 MSTORE PUSH1 0x24 PUSH0 REVERT JUMPDEST PUSH0 PUSH1 0x2 DUP3 DIV SWAP1 POP PUSH1 0x1 DUP3 AND DUP1 PUSH3 0x502 JUMPI PUSH1 0x7F DUP3 AND SWAP2 POP JUMPDEST PUSH1 0x20 DUP3 LT DUP2 SUB PUSH3 0x518 JUMPI PUSH3 0x517 PUSH3 0x4BD JUMP JUMPDEST JUMPDEST POP SWAP2 SWAP1 POP JUMP JUMPDEST PUSH0 DUP2 SWAP1 POP DUP2 PUSH0 MSTORE PUSH1 0x20 PUSH0 KECCAK256 SWAP1 POP SWAP2 SWAP1 POP JUMP JUMPDEST PUSH0 PUSH1 0x20 PUSH1 0x1F DUP4 ADD DIV SWAP1 POP SWAP2 SWAP1 POP JUMP JUMPDEST PUSH0 DUP3 DUP3 SHL SWAP1 POP SWAP3 SWAP2 POP POP JUMP JUMPDEST PUSH0 PUSH1 0x8 DUP4 MUL PUSH3 0x57C PUSH32 0xFFFFFFFFFFFFFFFFFFFFFFFFFFFFFFFFFFFFFFFFFFFFFFFFFFFFFFFFFFFFFFFF DUP3 PUSH3 0x53F JUMP JUMPDEST PUSH3 0x588 DUP7 DUP4 PUSH3 0x53F JUMP JUMPDEST SWAP6 POP DUP1 NOT DUP5 AND SWAP4 POP DUP1 DUP7 AND DUP5 OR SWAP3 POP POP POP SWAP4 SWAP3 POP POP POP JUMP JUMPDEST PUSH0 DUP2 SWAP1 POP SWAP2 SWAP1 POP JUMP JUMPDEST PUSH0 DUP2 SWAP1 POP SWAP2 SWAP1 POP JUMP JUMPDEST PUSH0 PUSH3 0x5D2 PUSH3 0x5CC PUSH3 0x5C6 DUP5 PUSH3 0x5A0 JUMP JUMPDEST PUSH3 0x5A9 JUMP JUMPDEST PUSH3 0x5A0 JUMP JUMPDEST SWAP1 POP SWAP2 SWAP1 POP JUMP JUMPDEST PUSH0 DUP2 SWAP1 POP SWAP2 SWAP1 POP JUMP JUMPDEST PUSH3 0x5ED DUP4 PUSH3 0x5B2 JUMP JUMPDEST PUSH3 0x605 PUSH3 0x5FC DUP3 PUSH3 0x5D9 JUMP JUMPDEST DUP5 DUP5 SLOAD PUSH3 0x54B JUMP JUMPDEST DUP3 SSTORE POP POP POP POP JUMP JUMPDEST PUSH0 SWAP1 JUMP JUMPDEST PUSH3 0x61B PUSH3 0x60D JUMP JUMPDEST PUSH3 0x628 DUP2 DUP5 DUP5 PUSH3 0x5E2 JUMP JUMPDEST POP POP POP JUMP JUMPDEST JUMPDEST DUP2 DUP2 LT ISZERO PUSH3 0x64F JUMPI PUSH3 0x643 PUSH0 DUP3 PUSH3 0x611 JUMP JUMPDEST PUSH1 0x1 DUP2 ADD SWAP1 POP PUSH3 0x62E JUMP JUMPDEST POP POP JUMP JUMPDEST PUSH1 0x1F DUP3 GT ISZERO PUSH3 0x69E JUMPI PUSH3 0x668 DUP2 PUSH3 0x51E JUMP JUMPDEST PUSH3 0x673 DUP5 PUSH3 0x530 JUMP JUMPDEST DUP2 ADD PUSH1 0x20 DUP6 LT ISZERO PUSH3 0x683 JUMPI DUP2 SWAP1 POP JUMPDEST PUSH3 0x69B PUSH3 0x692 DUP6 PUSH3 0x530 JUMP JUMPDEST DUP4 ADD DUP3 PUSH3 0x62D JUMP JUMPDEST POP POP JUMPDEST POP POP POP JUMP JUMPDEST PUSH0 DUP3 DUP3 SHR SWAP1 POP SWAP3 SWAP2 POP POP JUMP JUMPDEST PUSH0 PUSH3 0x6C0 PUSH0 NOT DUP5 PUSH1 0x8 MUL PUSH3 0x6A3 JUMP JUMPDEST NOT DUP1 DUP4 AND SWAP2 POP POP SWAP3 SWAP2 POP POP JUMP JUMPDEST PUSH0 PUSH3 0x6DA DUP4 DUP4 PUSH3 0x6AF JUMP JUMPDEST SWAP2 POP DUP3 PUSH1 0x2 MUL DUP3 OR SWAP1 POP SWAP3 SWAP2 POP POP JUMP JUMPDEST PUSH3 0x6F5 DUP3 PUSH3 0x4B3 JUMP JUMPDEST PUSH8 0xFFFFFFFFFFFFFFFF DUP2 GT ISZERO PUSH3 0x711 JUMPI PUSH3 0x710 PUSH3 0x188 JUMP JUMPDEST JUMPDEST PUSH3 0x71D DUP3 SLOAD PUSH3 0x4EA JUMP JUMPDEST PUSH3 0x72A DUP3 DUP3 DUP6 PUSH3 0x653 JUMP JUMPDEST PUSH0 PUSH1 0x20 SWAP1 POP PUSH1 0x1F DUP4 GT PUSH1 0x1 DUP2 EQ PUSH3 0x760 JUMPI PUSH0 DUP5 ISZERO PUSH3 0x74B JUMPI DUP3 DUP8 ADD MLOAD SWAP1 POP JUMPDEST PUSH3 0x757 DUP6 DUP3 PUSH3 0x6CD JUMP JUMPDEST DUP7 SSTORE POP PUSH3 0x7C6 JUMP JUMPDEST PUSH1 0x1F NOT DUP5 AND PUSH3 0x770 DUP7 PUSH3 0x51E JUMP JUMPDEST PUSH0 JUMPDEST DUP3 DUP2 LT ISZERO PUSH3 0x799 JUMPI DUP5 DUP10 ADD MLOAD DUP3 SSTORE PUSH1 0x1 DUP3 ADD SWAP2 POP PUSH1 0x20 DUP6 ADD SWAP5 POP PUSH1 0x20 DUP2 ADD SWAP1 POP PUSH3 0x772 JUMP JUMPDEST DUP7 DUP4 LT ISZERO PUSH3 0x7B9 JUMPI DUP5 DUP10 ADD MLOAD PUSH3 0x7B5 PUSH1 0x1F DUP10 AND DUP3 PUSH3 0x6AF JUMP JUMPDEST DUP4 SSTORE POP JUMPDEST PUSH1 0x1 PUSH1 0x2 DUP9 MUL ADD DUP9 SSTORE POP POP POP JUMPDEST POP POP POP POP POP POP JUMP JUMPDEST PUSH2 0x1735 DUP1 PUSH3 0x7DC PUSH0 CODECOPY PUSH0 RETURN INVALID PUSH1 0x80 PUSH1 0x40 MSTORE PUSH1 0x4 CALLDATASIZE LT PUSH2 0xA6 JUMPI PUSH0 CALLDATALOAD PUSH1 0xE0 SHR DUP1 PUSH4 0xB5E7F0B2 GT PUSH2 0x63 JUMPI DUP1 PUSH4 0xB5E7F0B2 EQ PUSH2 0x19B JUMPI DUP1 PUSH4 0xBB3ACCF0 EQ PUSH2 0x1C3 JUMPI DUP1 PUSH4 0xBEFFAF09 EQ PUSH2 0x1DF JUMPI DUP1 PUSH4 0xE512FCF2 EQ PUSH2 0x209 JUMPI DUP1 PUSH4 0xEC5630CA EQ PUSH2 0x233 JUMPI DUP1 PUSH4 0xFC8C79B5 EQ PUSH2 0x25D JUMPI PUSH2 0xA6 JUMP JUMPDEST DUP1 PUSH4 0x36685E44 EQ PUSH2 0xAA JUMPI DUP1 PUSH4 0x4B47E588 EQ PUSH2 0xC0 JUMPI DUP1 PUSH4 0x5C0BADFC EQ PUSH2 0xE8 JUMPI DUP1 PUSH4 0x603C0430 EQ PUSH2 0x119 JUMPI DUP1 PUSH4 0x8A72C0F1 EQ PUSH2 0x135 JUMPI DUP1 PUSH4 0x913B722C EQ PUSH2 0x171 JUMPI JUMPDEST PUSH0 DUP1 REVERT JUMPDEST CALLVALUE DUP1 ISZERO PUSH2 0xB5 JUMPI PUSH0 DUP1 REVERT JUMPDEST POP PUSH2 0xBE PUSH2 0x285 JUMP JUMPDEST STOP JUMPDEST CALLVALUE DUP1 ISZERO PUSH2 0xCB JUMPI PUSH0 DUP1 REVERT JUMPDEST POP PUSH2 0xE6 PUSH1 0x4 DUP1 CALLDATASIZE SUB DUP2 ADD SWAP1 PUSH2 0xE1 SWAP2 SWAP1 PUSH2 0xEB4 JUMP JUMPDEST PUSH2 0x452 JUMP JUMPDEST STOP JUMPDEST CALLVALUE DUP1 ISZERO PUSH2 0xF3 JUMPI PUSH0 DUP1 REVERT JUMPDEST POP PUSH2 0xFC PUSH2 0x4EB JUMP JUMPDEST PUSH1 0x40 MLOAD PUSH2 0x110 SWAP9 SWAP8 SWAP7 SWAP6 SWAP5 SWAP4 SWAP3 SWAP2 SWAP1 PUSH2 0x1118 JUMP JUMPDEST PUSH1 0x40 MLOAD DUP1 SWAP2 SUB SWAP1 RETURN JUMPDEST PUSH2 0x133 PUSH1 0x4 DUP1 CALLDATASIZE SUB DUP2 ADD SWAP1 PUSH2 0x12E SWAP2 SWAP1 PUSH2 0x13DA JUMP JUMPDEST PUSH2 0x740 JUMP JUMPDEST STOP JUMPDEST CALLVALUE DUP1 ISZERO PUSH2 0x140 JUMPI PUSH0 DUP1 REVERT JUMPDEST POP PUSH2 0x15B PUSH1 0x4 DUP1 CALLDATASIZE SUB DUP2 ADD SWAP1 PUSH2 0x156 SWAP2 SWAP1 PUSH2 0xEB4 JUMP JUMPDEST PUSH2 0x7D1 JUMP JUMPDEST PUSH1 0x40 MLOAD PUSH2 0x168 SWAP2 SWAP1 PUSH2 0x147E JUMP JUMPDEST PUSH1 0x40 MLOAD DUP1 SWAP2 SUB SWAP1 RETURN JUMPDEST CALLVALUE DUP1 ISZERO PUSH2 0x17C JUMPI PUSH0 DUP1 REVERT JUMPDEST POP PUSH2 0x185 PUSH2 0x7E6 JUMP JUMPDEST PUSH1 0x40 MLOAD PUSH2 0x192 SWAP2 SWAP1 PUSH2 0x1497 JUMP JUMPDEST PUSH1 0x40 MLOAD DUP1 SWAP2 SUB SWAP1 RETURN JUMPDEST CALLVALUE DUP1 ISZERO PUSH2 0x1A6 JUMPI PUSH0 DUP1 REVERT JUMPDEST POP PUSH2 0x1C1 PUSH1 0x4 DUP1 CALLDATASIZE SUB DUP2 ADD SWAP1 PUSH2 0x1BC SWAP2 SWAP1 PUSH2 0x14E1 JUMP JUMPDEST PUSH2 0x91E JUMP JUMPDEST STOP JUMPDEST PUSH2 0x1DD PUSH1 0x4 DUP1 CALLDATASIZE SUB DUP2 ADD SWAP1 PUSH2 0x1D8 SWAP2 SWAP1 PUSH2 0x150C JUMP JUMPDEST PUSH2 0x993 JUMP JUMPDEST STOP JUMPDEST CALLVALUE DUP1 ISZERO PUSH2 0x1EA JUMPI PUSH0 DUP1 REVERT JUMPDEST POP PUSH2 0x1F3 PUSH2 0xA05 JUMP JUMPDEST PUSH1 0x40 MLOAD PUSH2 0x200 SWAP2 SWAP1 PUSH2 0x1497 JUMP JUMPDEST PUSH1 0x40 MLOAD DUP1 SWAP2 SUB SWAP1 RETURN JUMPDEST CALLVALUE DUP1 ISZERO PUSH2 0x214 JUMPI PUSH0 DUP1 REVERT JUMPDEST POP PUSH2 0x21D PUSH2 0xB3D JUMP JUMPDEST PUSH1 0x40 MLOAD PUSH2 0x22A SWAP2 SWAP1 PUSH2 0x1553 JUMP JUMPDEST PUSH1 0x40 MLOAD DUP1 SWAP2 SUB SWAP1 RETURN JUMPDEST CALLVALUE DUP1 ISZERO PUSH2 0x23E JUMPI PUSH0 DUP1 REVERT JUMPDEST POP PUSH2 0x247 PUSH2 0xC13 JUMP JUMPDEST PUSH1 0x40 MLOAD PUSH2 0x254 SWAP2 SWAP1 PUSH2 0x1553 JUMP JUMPDEST PUSH1 0x40 MLOAD DUP1 SWAP2 SUB SWAP1 RETURN JUMPDEST CALLVALUE DUP1 ISZERO PUSH2 0x268 JUMPI PUSH0 DUP1 REVERT JUMPDEST POP PUSH2 0x283 PUSH1 0x4 DUP1 CALLDATASIZE SUB DUP2 ADD SWAP1 PUSH2 0x27E SWAP2 SWAP1 PUSH2 0x156C JUMP JUMPDEST PUSH2 0xC38 JUMP JUMPDEST STOP JUMPDEST PUSH0 DUP1 SLOAD SWAP1 PUSH2 0x100 EXP SWAP1 DIV PUSH20 0xFFFFFFFFFFFFFFFFFFFFFFFFFFFFFFFFFFFFFFFF AND PUSH20 0xFFFFFFFFFFFFFFFFFFFFFFFFFFFFFFFFFFFFFFFF AND CALLER PUSH20 0xFFFFFFFFFFFFFFFFFFFFFFFFFFFFFFFFFFFFFFFF AND EQ DUP1 PUSH2 0x32A JUMPI POP PUSH1 0x2 PUSH0 SWAP1 SLOAD SWAP1 PUSH2 0x100 EXP SWAP1 DIV PUSH20 0xFFFFFFFFFFFFFFFFFFFFFFFFFFFFFFFFFFFFFFFF AND PUSH20 0xFFFFFFFFFFFFFFFFFFFFFFFFFFFFFFFFFFFFFFFF AND CALLER PUSH20 0xFFFFFFFFFFFFFFFFFFFFFFFFFFFFFFFFFFFFFFFF AND EQ JUMPDEST PUSH2 0x332 JUMPI PUSH0 DUP1 REVERT JUMPDEST PUSH1 0x1 ISZERO ISZERO PUSH1 0x8 PUSH1 0x1 SWAP1 SLOAD SWAP1 PUSH2 0x100 EXP SWAP1 DIV PUSH1 0xFF AND ISZERO ISZERO EQ PUSH2 0x351 JUMPI PUSH0 DUP1 REVERT JUMPDEST PUSH0 PUSH1 0x5 DUP1 SLOAD SWAP1 POP SWAP1 POP PUSH0 JUMPDEST DUP2 DUP2 LT ISZERO PUSH2 0x44E JUMPI PUSH0 PUSH1 0x5 DUP3 DUP2 SLOAD DUP2 LT PUSH2 0x379 JUMPI PUSH2 0x378 PUSH2 0x15AA JUMP JUMPDEST JUMPDEST SWAP1 PUSH0 MSTORE PUSH1 0x20 PUSH0 KECCAK256 ADD PUSH0 SWAP1 SLOAD SWAP1 PUSH2 0x100 EXP SWAP1 DIV PUSH20 0xFFFFFFFFFFFFFFFFFFFFFFFFFFFFFFFFFFFFFFFF AND SWAP1 POP PUSH0 PUSH1 0x4 PUSH0 DUP4 PUSH20 0xFFFFFFFFFFFFFFFFFFFFFFFFFFFFFFFFFFFFFFFF AND PUSH20 0xFFFFFFFFFFFFFFFFFFFFFFFFFFFFFFFFFFFFFFFF AND DUP2 MSTORE PUSH1 0x20 ADD SWAP1 DUP2 MSTORE PUSH1 0x20 ADD PUSH0 KECCAK256 SLOAD SWAP1 POP DUP2 PUSH20 0xFFFFFFFFFFFFFFFFFFFFFFFFFFFFFFFFFFFFFFFF AND PUSH2 0x8FC PUSH1 0x64 DUP4 SELFBALANCE PUSH2 0x40C SWAP2 SWAP1 PUSH2 0x1604 JUMP JUMPDEST PUSH2 0x416 SWAP2 SWAP1 PUSH2 0x1672 JUMP JUMPDEST SWAP1 DUP2 ISZERO MUL SWAP1 PUSH1 0x40 MLOAD PUSH0 PUSH1 0x40 MLOAD DUP1 DUP4 SUB DUP2 DUP6 DUP9 DUP9 CALL SWAP4 POP POP POP POP ISZERO DUP1 ISZERO PUSH2 0x43E JUMPI RETURNDATASIZE PUSH0 DUP1 RETURNDATACOPY RETURNDATASIZE PUSH0 REVERT JUMPDEST POP POP POP DUP1 DUP1 PUSH1 0x1 ADD SWAP2 POP POP PUSH2 0x35C JUMP JUMPDEST POP POP JUMP JUMPDEST PUSH0 DUP1 SLOAD SWAP1 PUSH2 0x100 EXP SWAP1 DIV PUSH20 0xFFFFFFFFFFFFFFFFFFFFFFFFFFFFFFFFFFFFFFFF AND PUSH20 0xFFFFFFFFFFFFFFFFFFFFFFFFFFFFFFFFFFFFFFFF AND CALLER PUSH20 0xFFFFFFFFFFFFFFFFFFFFFFFFFFFFFFFFFFFFFFFF AND EQ PUSH2 0x4A8 JUMPI PUSH0 DUP1 REVERT JUMPDEST DUP1 PUSH1 0x2 PUSH0 PUSH2 0x100 EXP DUP2 SLOAD DUP2 PUSH20 0xFFFFFFFFFFFFFFFFFFFFFFFFFFFFFFFFFFFFFFFF MUL NOT AND SWAP1 DUP4 PUSH20 0xFFFFFFFFFFFFFFFFFFFFFFFFFFFFFFFFFFFFFFFF AND MUL OR SWAP1 SSTORE POP POP JUMP JUMPDEST PUSH0 PUSH1 0x60 PUSH0 PUSH1 0x60 PUSH0 PUSH1 0x60 DUP1 PUSH0 PUSH1 0x2 PUSH0 SWAP1 SLOAD SWAP1 PUSH2 0x100 EXP SWAP1 DIV PUSH20 0xFFFFFFFFFFFFFFFFFFFFFFFFFFFFFFFFFFFFFFFF AND PUSH1 0x3 PUSH1 0x6 SLOAD PUSH1 0x7 PUSH1 0x8 PUSH0 SWAP1 SLOAD SWAP1 PUSH2 0x100 EXP SWAP1 DIV PUSH1 0xFF AND PUSH1 0x5 PUSH1 0xA PUSH1 0x8 PUSH1 0x1 SWAP1 SLOAD SWAP1 PUSH2 0x100 EXP SWAP1 DIV PUSH1 0xFF AND DUP7 DUP1 SLOAD DUP1 PUSH1 0x20 MUL PUSH1 0x20 ADD PUSH1 0x40 MLOAD SWAP1 DUP2 ADD PUSH1 0x40 MSTORE DUP1 SWAP3 SWAP2 SWAP1 DUP2 DUP2 MSTORE PUSH1 0x20 ADD DUP3 DUP1 SLOAD DUP1 ISZERO PUSH2 0x5C0 JUMPI PUSH1 0x20 MUL DUP3 ADD SWAP2 SWAP1 PUSH0 MSTORE PUSH1 0x20 PUSH0 KECCAK256 SWAP1 JUMPDEST DUP2 PUSH0 SWAP1 SLOAD SWAP1 PUSH2 0x100 EXP SWAP1 DIV PUSH20 0xFFFFFFFFFFFFFFFFFFFFFFFFFFFFFFFFFFFFFFFF AND PUSH20 0xFFFFFFFFFFFFFFFFFFFFFFFFFFFFFFFFFFFFFFFF AND DUP2 MSTORE PUSH1 0x20 ADD SWAP1 PUSH1 0x1 ADD SWAP1 DUP1 DUP4 GT PUSH2 0x577 JUMPI JUMPDEST POP POP POP POP POP SWAP7 POP DUP5 DUP1 SLOAD PUSH2 0x5D3 SWAP1 PUSH2 0x16CF JUMP JUMPDEST DUP1 PUSH1 0x1F ADD PUSH1 0x20 DUP1 SWAP2 DIV MUL PUSH1 0x20 ADD PUSH1 0x40 MLOAD SWAP1 DUP2 ADD PUSH1 0x40 MSTORE DUP1 SWAP3 SWAP2 SWAP1 DUP2 DUP2 MSTORE PUSH1 0x20 ADD DUP3 DUP1 SLOAD PUSH2 0x5FF SWAP1 PUSH2 0x16CF JUMP JUMPDEST DUP1 ISZERO PUSH2 0x64A JUMPI DUP1 PUSH1 0x1F LT PUSH2 0x621 JUMPI PUSH2 0x100 DUP1 DUP4 SLOAD DIV MUL DUP4 MSTORE SWAP2 PUSH1 0x20 ADD SWAP2 PUSH2 0x64A JUMP JUMPDEST DUP3 ADD SWAP2 SWAP1 PUSH0 MSTORE PUSH1 0x20 PUSH0 KECCAK256 SWAP1 JUMPDEST DUP2 SLOAD DUP2 MSTORE SWAP1 PUSH1 0x1 ADD SWAP1 PUSH1 0x20 ADD DUP1 DUP4 GT PUSH2 0x62D JUMPI DUP3 SWAP1 SUB PUSH1 0x1F AND DUP3 ADD SWAP2 JUMPDEST POP POP POP POP POP SWAP5 POP DUP3 DUP1 SLOAD DUP1 PUSH1 0x20 MUL PUSH1 0x20 ADD PUSH1 0x40 MLOAD SWAP1 DUP2 ADD PUSH1 0x40 MSTORE DUP1 SWAP3 SWAP2 SWAP1 DUP2 DUP2 MSTORE PUSH1 0x20 ADD DUP3 DUP1 SLOAD DUP1 ISZERO PUSH2 0x6CF JUMPI PUSH1 0x20 MUL DUP3 ADD SWAP2 SWAP1 PUSH0 MSTORE PUSH1 0x20 PUSH0 KECCAK256 SWAP1 JUMPDEST DUP2 PUSH0 SWAP1 SLOAD SWAP1 PUSH2 0x100 EXP SWAP1 DIV PUSH20 0xFFFFFFFFFFFFFFFFFFFFFFFFFFFFFFFFFFFFFFFF AND PUSH20 0xFFFFFFFFFFFFFFFFFFFFFFFFFFFFFFFFFFFFFFFF AND DUP2 MSTORE PUSH1 0x20 ADD SWAP1 PUSH1 0x1 ADD SWAP1 DUP1 DUP4 GT PUSH2 0x686 JUMPI JUMPDEST POP POP POP POP POP SWAP3 POP DUP2 DUP1 SLOAD DUP1 PUSH1 0x20 MUL PUSH1 0x20 ADD PUSH1 0x40 MLOAD SWAP1 DUP2 ADD PUSH1 0x40 MSTORE DUP1 SWAP3 SWAP2 SWAP1 DUP2 DUP2 MSTORE PUSH1 0x20 ADD DUP3 DUP1 SLOAD DUP1 ISZERO PUSH2 0x71F JUMPI PUSH1 0x20 MUL DUP3 ADD SWAP2 SWAP1 PUSH0 MSTORE PUSH1 0x20 PUSH0 KECCAK256 SWAP1 JUMPDEST DUP2 SLOAD DUP2 MSTORE PUSH1 0x20 ADD SWAP1 PUSH1 0x1 ADD SWAP1 DUP1 DUP4 GT PUSH2 0x70B JUMPI JUMPDEST POP POP POP POP POP SWAP2 POP SWAP8 POP SWAP8 POP SWAP8 POP SWAP8 POP SWAP8 POP SWAP8 POP SWAP8 POP SWAP8 POP SWAP1 SWAP2 SWAP3 SWAP4 SWAP5 SWAP6 SWAP7 SWAP8 JUMP JUMPDEST CALLER PUSH1 0x2 PUSH0 PUSH2 0x100 EXP DUP2 SLOAD DUP2 PUSH20 0xFFFFFFFFFFFFFFFFFFFFFFFFFFFFFFFFFFFFFFFF MUL NOT AND SWAP1 DUP4 PUSH20 0xFFFFFFFFFFFFFFFFFFFFFFFFFFFFFFFFFFFFFFFF AND MUL OR SWAP1 SSTORE POP CALLVALUE PUSH1 0x6 DUP2 SWAP1 SSTORE POP DUP3 PUSH1 0x5 SWAP1 DUP1 MLOAD SWAP1 PUSH1 0x20 ADD SWAP1 PUSH2 0x79D SWAP3 SWAP2 SWAP1 PUSH2 0xD5C JUMP JUMPDEST POP DUP2 PUSH1 0xA SWAP1 DUP1 MLOAD SWAP1 PUSH1 0x20 ADD SWAP1 PUSH2 0x7B4 SWAP3 SWAP2 SWAP1 PUSH2 0xDE3 JUMP JUMPDEST POP DUP1 PUSH1 0x3 SWAP1 DUP1 MLOAD SWAP1 PUSH1 0x20 ADD SWAP1 PUSH2 0x7CB SWAP3 SWAP2 SWAP1 PUSH2 0xD5C JUMP JUMPDEST POP POP POP POP JUMP JUMPDEST PUSH1 0x4 PUSH1 0x20 MSTORE DUP1 PUSH0 MSTORE PUSH1 0x40 PUSH0 KECCAK256 PUSH0 SWAP2 POP SWAP1 POP SLOAD DUP2 JUMP JUMPDEST PUSH1 0x60 PUSH0 DUP1 SLOAD SWAP1 PUSH2 0x100 EXP SWAP1 DIV PUSH20 0xFFFFFFFFFFFFFFFFFFFFFFFFFFFFFFFFFFFFFFFF AND PUSH20 0xFFFFFFFFFFFFFFFFFFFFFFFFFFFFFFFFFFFFFFFF AND CALLER PUSH20 0xFFFFFFFFFFFFFFFFFFFFFFFFFFFFFFFFFFFFFFFF AND EQ DUP1 PUSH2 0x88D JUMPI POP PUSH1 0x2 PUSH0 SWAP1 SLOAD SWAP1 PUSH2 0x100 EXP SWAP1 DIV PUSH20 0xFFFFFFFFFFFFFFFFFFFFFFFFFFFFFFFFFFFFFFFF AND PUSH20 0xFFFFFFFFFFFFFFFFFFFFFFFFFFFFFFFFFFFFFFFF AND CALLER PUSH20 0xFFFFFFFFFFFFFFFFFFFFFFFFFFFFFFFFFFFFFFFF AND EQ JUMPDEST PUSH2 0x895 JUMPI PUSH0 DUP1 REVERT JUMPDEST PUSH1 0x5 DUP1 SLOAD DUP1 PUSH1 0x20 MUL PUSH1 0x20 ADD PUSH1 0x40 MLOAD SWAP1 DUP2 ADD PUSH1 0x40 MSTORE DUP1 SWAP3 SWAP2 SWAP1 DUP2 DUP2 MSTORE PUSH1 0x20 ADD DUP3 DUP1 SLOAD DUP1 ISZERO PUSH2 0x914 JUMPI PUSH1 0x20 MUL DUP3 ADD SWAP2 SWAP1 PUSH0 MSTORE PUSH1 0x20 PUSH0 KECCAK256 SWAP1 JUMPDEST DUP2 PUSH0 SWAP1 SLOAD SWAP1 PUSH2 0x100 EXP SWAP1 DIV PUSH20 0xFFFFFFFFFFFFFFFFFFFFFFFFFFFFFFFFFFFFFFFF AND PUSH20 0xFFFFFFFFFFFFFFFFFFFFFFFFFFFFFFFFFFFFFFFF AND DUP2 MSTORE PUSH1 0x20 ADD SWAP1 PUSH1 0x1 ADD SWAP1 DUP1 DUP4 GT PUSH2 0x8CB JUMPI JUMPDEST POP POP POP POP POP SWAP1 POP SWAP1 JUMP JUMPDEST PUSH1 0x2 PUSH0 SWAP1 SLOAD SWAP1 PUSH2 0x100 EXP SWAP1 DIV PUSH20 0xFFFFFFFFFFFFFFFFFFFFFFFFFFFFFFFFFFFFFFFF AND PUSH20 0xFFFFFFFFFFFFFFFFFFFFFFFFFFFFFFFFFFFFFFFF AND CALLER PUSH20 0xFFFFFFFFFFFFFFFFFFFFFFFFFFFFFFFFFFFFFFFF AND EQ PUSH2 0x976 JUMPI PUSH0 DUP1 REVERT JUMPDEST DUP1 PUSH1 0x8 PUSH1 0x1 PUSH2 0x100 EXP DUP2 SLOAD DUP2 PUSH1 0xFF MUL NOT AND SWAP1 DUP4 ISZERO ISZERO MUL OR SWAP1 SSTORE POP POP JUMP JUMPDEST PUSH1 0x2 PUSH0 SWAP1 SLOAD SWAP1 PUSH2 0x100 EXP SWAP1 DIV PUSH20 0xFFFFFFFFFFFFFFFFFFFFFFFFFFFFFFFFFFFFFFFF AND PUSH20 0xFFFFFFFFFFFFFFFFFFFFFFFFFFFFFFFFFFFFFFFF AND CALLER PUSH20 0xFFFFFFFFFFFFFFFFFFFFFFFFFFFFFFFFFFFFFFFF AND EQ PUSH2 0x9EB JUMPI PUSH0 DUP1 REVERT JUMPDEST DUP1 PUSH1 0x3 SWAP1 DUP1 MLOAD SWAP1 PUSH1 0x20 ADD SWAP1 PUSH2 0xA01 SWAP3 SWAP2 SWAP1 PUSH2 0xD5C JUMP JUMPDEST POP POP JUMP JUMPDEST PUSH1 0x60 PUSH0 DUP1 SLOAD SWAP1 PUSH2 0x100 EXP SWAP1 DIV PUSH20 0xFFFFFFFFFFFFFFFFFFFFFFFFFFFFFFFFFFFFFFFF AND PUSH20 0xFFFFFFFFFFFFFFFFFFFFFFFFFFFFFFFFFFFFFFFF AND CALLER PUSH20 0xFFFFFFFFFFFFFFFFFFFFFFFFFFFFFFFFFFFFFFFF AND EQ DUP1 PUSH2 0xAAC JUMPI POP PUSH1 0x2 PUSH0 SWAP1 SLOAD SWAP1 PUSH2 0x100 EXP SWAP1 DIV PUSH20 0xFFFFFFFFFFFFFFFFFFFFFFFFFFFFFFFFFFFFFFFF AND PUSH20 0xFFFFFFFFFFFFFFFFFFFFFFFFFFFFFFFFFFFFFFFF AND CALLER PUSH20 0xFFFFFFFFFFFFFFFFFFFFFFFFFFFFFFFFFFFFFFFF AND EQ JUMPDEST PUSH2 0xAB4 JUMPI PUSH0 DUP1 REVERT JUMPDEST PUSH1 0x3 DUP1 SLOAD DUP1 PUSH1 0x20 MUL PUSH1 0x20 ADD PUSH1 0x40 MLOAD SWAP1 DUP2 ADD PUSH1 0x40 MSTORE DUP1 SWAP3 SWAP2 SWAP1 DUP2 DUP2 MSTORE PUSH1 0x20 ADD DUP3 DUP1 SLOAD DUP1 ISZERO PUSH2 0xB33 JUMPI PUSH1 0x20 MUL DUP3 ADD SWAP2 SWAP1 PUSH0 MSTORE PUSH1 0x20 PUSH0 KECCAK256 SWAP1 JUMPDEST DUP2 PUSH0 SWAP1 SLOAD SWAP1 PUSH2 0x100 EXP SWAP1 DIV PUSH20 0xFFFFFFFFFFFFFFFFFFFFFFFFFFFFFFFFFFFFFFFF AND PUSH20 0xFFFFFFFFFFFFFFFFFFFFFFFFFFFFFFFFFFFFFFFF AND DUP2 MSTORE PUSH1 0x20 ADD SWAP1 PUSH1 0x1 ADD SWAP1 DUP1 DUP4 GT PUSH2 0xAEA JUMPI JUMPDEST POP POP POP POP POP SWAP1 POP SWAP1 JUMP JUMPDEST PUSH0 DUP1 PUSH0 SWAP1 SLOAD SWAP1 PUSH2 0x100 EXP SWAP1 DIV PUSH20 0xFFFFFFFFFFFFFFFFFFFFFFFFFFFFFFFFFFFFFFFF AND PUSH20 0xFFFFFFFFFFFFFFFFFFFFFFFFFFFFFFFFFFFFFFFF AND CALLER PUSH20 0xFFFFFFFFFFFFFFFFFFFFFFFFFFFFFFFFFFFFFFFF AND EQ DUP1 PUSH2 0xBE4 JUMPI POP PUSH1 0x2 PUSH0 SWAP1 SLOAD SWAP1 PUSH2 0x100 EXP SWAP1 DIV PUSH20 0xFFFFFFFFFFFFFFFFFFFFFFFFFFFFFFFFFFFFFFFF AND PUSH20 0xFFFFFFFFFFFFFFFFFFFFFFFFFFFFFFFFFFFFFFFF AND CALLER PUSH20 0xFFFFFFFFFFFFFFFFFFFFFFFFFFFFFFFFFFFFFFFF AND EQ JUMPDEST PUSH2 0xBEC JUMPI PUSH0 DUP1 REVERT JUMPDEST PUSH1 0x2 PUSH0 SWAP1 SLOAD SWAP1 PUSH2 0x100 EXP SWAP1 DIV PUSH20 0xFFFFFFFFFFFFFFFFFFFFFFFFFFFFFFFFFFFFFFFF AND SWAP1 POP SWAP1 JUMP JUMPDEST PUSH1 0x2 PUSH0 SWAP1 SLOAD SWAP1 PUSH2 0x100 EXP SWAP1 DIV PUSH20 0xFFFFFFFFFFFFFFFFFFFFFFFFFFFFFFFFFFFFFFFF AND DUP2 JUMP JUMPDEST PUSH1 0x2 PUSH0 SWAP1 SLOAD SWAP1 PUSH2 0x100 EXP SWAP1 DIV PUSH20 0xFFFFFFFFFFFFFFFFFFFFFFFFFFFFFFFFFFFFFFFF AND PUSH20 0xFFFFFFFFFFFFFFFFFFFFFFFFFFFFFFFFFFFFFFFF AND CALLER PUSH20 0xFFFFFFFFFFFFFFFFFFFFFFFFFFFFFFFFFFFFFFFF AND EQ PUSH2 0xC90 JUMPI PUSH0 DUP1 REVERT JUMPDEST DUP1 PUSH1 0x4 PUSH0 DUP5 PUSH20 0xFFFFFFFFFFFFFFFFFFFFFFFFFFFFFFFFFFFFFFFF AND PUSH20 0xFFFFFFFFFFFFFFFFFFFFFFFFFFFFFFFFFFFFFFFF AND DUP2 MSTORE PUSH1 0x20 ADD SWAP1 DUP2 MSTORE PUSH1 0x20 ADD PUSH0 KECCAK256 DUP2 SWAP1 SSTORE POP PUSH1 0x5 DUP3 SWAP1 DUP1 PUSH1 0x1 DUP2 SLOAD ADD DUP1 DUP3 SSTORE DUP1 SWAP2 POP POP PUSH1 0x1 SWAP1 SUB SWAP1 PUSH0 MSTORE PUSH1 0x20 PUSH0 KECCAK256 ADD PUSH0 SWAP1 SWAP2 SWAP1 SWAP2 SWAP1 SWAP2 PUSH2 0x100 EXP DUP2 SLOAD DUP2 PUSH20 0xFFFFFFFFFFFFFFFFFFFFFFFFFFFFFFFFFFFFFFFF MUL NOT AND SWAP1 DUP4 PUSH20 0xFFFFFFFFFFFFFFFFFFFFFFFFFFFFFFFFFFFFFFFF AND MUL OR SWAP1 SSTORE POP PUSH1 0xA DUP2 SWAP1 DUP1 PUSH1 0x1 DUP2 SLOAD ADD DUP1 DUP3 SSTORE DUP1 SWAP2 POP POP PUSH1 0x1 SWAP1 SUB SWAP1 PUSH0 MSTORE PUSH1 0x20 PUSH0 KECCAK256 ADD PUSH0 SWAP1 SWAP2 SWAP1 SWAP2 SWAP1 SWAP2 POP SSTORE POP POP JUMP JUMPDEST DUP3 DUP1 SLOAD DUP3 DUP3 SSTORE SWAP1 PUSH0 MSTORE PUSH1 0x20 PUSH0 KECCAK256 SWAP1 DUP2 ADD SWAP3 DUP3 ISZERO PUSH2 0xDD2 JUMPI SWAP2 PUSH1 0x20 MUL DUP3 ADD JUMPDEST DUP3 DUP2 GT ISZERO PUSH2 0xDD1 JUMPI DUP3 MLOAD DUP3 PUSH0 PUSH2 0x100 EXP DUP2 SLOAD DUP2 PUSH20 0xFFFFFFFFFFFFFFFFFFFFFFFFFFFFFFFFFFFFFFFF MUL NOT AND SWAP1 DUP4 PUSH20 0xFFFFFFFFFFFFFFFFFFFFFFFFFFFFFFFFFFFFFFFF AND MUL OR SWAP1 SSTORE POP SWAP2 PUSH1 0x20 ADD SWAP2 SWAP1 PUSH1 0x1 ADD SWAP1 PUSH2 0xD7A JUMP JUMPDEST JUMPDEST POP SWAP1 POP PUSH2 0xDDF SWAP2 SWAP1 PUSH2 0xE2E JUMP JUMPDEST POP SWAP1 JUMP JUMPDEST DUP3 DUP1 SLOAD DUP3 DUP3 SSTORE SWAP1 PUSH0 MSTORE PUSH1 0x20 PUSH0 KECCAK256 SWAP1 DUP2 ADD SWAP3 DUP3 ISZERO PUSH2 0xE1D JUMPI SWAP2 PUSH1 0x20 MUL DUP3 ADD JUMPDEST DUP3 DUP2 GT ISZERO PUSH2 0xE1C JUMPI DUP3 MLOAD DUP3 SSTORE SWAP2 PUSH1 0x20 ADD SWAP2 SWAP1 PUSH1 0x1 ADD SWAP1 PUSH2 0xE01 JUMP JUMPDEST JUMPDEST POP SWAP1 POP PUSH2 0xE2A SWAP2 SWAP1 PUSH2 0xE2E JUMP JUMPDEST POP SWAP1 JUMP JUMPDEST JUMPDEST DUP1 DUP3 GT ISZERO PUSH2 0xE45 JUMPI PUSH0 DUP2 PUSH0 SWAP1 SSTORE POP PUSH1 0x1 ADD PUSH2 0xE2F JUMP JUMPDEST POP SWAP1 JUMP JUMPDEST PUSH0 PUSH1 0x40 MLOAD SWAP1 POP SWAP1 JUMP JUMPDEST PUSH0 DUP1 REVERT JUMPDEST PUSH0 DUP1 REVERT JUMPDEST PUSH0 PUSH20 0xFFFFFFFFFFFFFFFFFFFFFFFFFFFFFFFFFFFFFFFF DUP3 AND SWAP1 POP SWAP2 SWAP1 POP JUMP JUMPDEST PUSH0 PUSH2 0xE83 DUP3 PUSH2 0xE5A JUMP JUMPDEST SWAP1 POP SWAP2 SWAP1 POP JUMP JUMPDEST PUSH2 0xE93 DUP2 PUSH2 0xE79 JUMP JUMPDEST DUP2 EQ PUSH2 0xE9D JUMPI PUSH0 DUP1 REVERT JUMPDEST POP JUMP JUMPDEST PUSH0 DUP2 CALLDATALOAD SWAP1 POP PUSH2 0xEAE DUP2 PUSH2 0xE8A JUMP JUMPDEST SWAP3 SWAP2 POP POP JUMP JUMPDEST PUSH0 PUSH1 0x20 DUP3 DUP5 SUB SLT ISZERO PUSH2 0xEC9 JUMPI PUSH2 0xEC8 PUSH2 0xE52 JUMP JUMPDEST JUMPDEST PUSH0 PUSH2 0xED6 DUP5 DUP3 DUP6 ADD PUSH2 0xEA0 JUMP JUMPDEST SWAP2 POP POP SWAP3 SWAP2 POP POP JUMP JUMPDEST PUSH2 0xEE8 DUP2 PUSH2 0xE79 JUMP JUMPDEST DUP3 MSTORE POP POP JUMP JUMPDEST PUSH0 DUP2 MLOAD SWAP1 POP SWAP2 SWAP1 POP JUMP JUMPDEST PUSH0 DUP3 DUP3 MSTORE PUSH1 0x20 DUP3 ADD SWAP1 POP SWAP3 SWAP2 POP POP JUMP JUMPDEST PUSH0 DUP2 SWAP1 POP PUSH1 0x20 DUP3 ADD SWAP1 POP SWAP2 SWAP1 POP JUMP JUMPDEST PUSH2 0xF20 DUP2 PUSH2 0xE79 JUMP JUMPDEST DUP3 MSTORE POP POP JUMP JUMPDEST PUSH0 PUSH2 0xF31 DUP4 DUP4 PUSH2 0xF17 JUMP JUMPDEST PUSH1 0x20 DUP4 ADD SWAP1 POP SWAP3 SWAP2 POP POP JUMP JUMPDEST PUSH0 PUSH1 0x20 DUP3 ADD SWAP1 POP SWAP2 SWAP1 POP JUMP JUMPDEST PUSH0 PUSH2 0xF53 DUP3 PUSH2 0xEEE JUMP JUMPDEST PUSH2 0xF5D DUP2 DUP6 PUSH2 0xEF8 JUMP JUMPDEST SWAP4 POP PUSH2 0xF68 DUP4 PUSH2 0xF08 JUMP JUMPDEST DUP1 PUSH0 JUMPDEST DUP4 DUP2 LT ISZERO PUSH2 0xF98 JUMPI DUP2 MLOAD PUSH2 0xF7F DUP9 DUP3 PUSH2 0xF26 JUMP JUMPDEST SWAP8 POP PUSH2 0xF8A DUP4 PUSH2 0xF3D JUMP JUMPDEST SWAP3 POP POP PUSH1 0x1 DUP2 ADD SWAP1 POP PUSH2 0xF6B JUMP JUMPDEST POP DUP6 SWAP4 POP POP POP POP SWAP3 SWAP2 POP POP JUMP JUMPDEST PUSH0 DUP2 SWAP1 POP SWAP2 SWAP1 POP JUMP JUMPDEST PUSH2 0xFB7 DUP2 PUSH2 0xFA5 JUMP JUMPDEST DUP3 MSTORE POP POP JUMP JUMPDEST PUSH0 DUP2 MLOAD SWAP1 POP SWAP2 SWAP1 POP JUMP JUMPDEST PUSH0 DUP3 DUP3 MSTORE PUSH1 0x20 DUP3 ADD SWAP1 POP SWAP3 SWAP2 POP POP JUMP JUMPDEST PUSH0 JUMPDEST DUP4 DUP2 LT ISZERO PUSH2 0xFF4 JUMPI DUP1 DUP3 ADD MLOAD DUP2 DUP5 ADD MSTORE PUSH1 0x20 DUP2 ADD SWAP1 POP PUSH2 0xFD9 JUMP JUMPDEST PUSH0 DUP5 DUP5 ADD MSTORE POP POP POP POP JUMP JUMPDEST PUSH0 PUSH1 0x1F NOT PUSH1 0x1F DUP4 ADD AND SWAP1 POP SWAP2 SWAP1 POP JUMP JUMPDEST PUSH0 PUSH2 0x1019 DUP3 PUSH2 0xFBD JUMP JUMPDEST PUSH2 0x1023 DUP2 DUP6 PUSH2 0xFC7 JUMP JUMPDEST SWAP4 POP PUSH2 0x1033 DUP2 DUP6 PUSH1 0x20 DUP7 ADD PUSH2 0xFD7 JUMP JUMPDEST PUSH2 0x103C DUP2 PUSH2 0xFFF JUMP JUMPDEST DUP5 ADD SWAP2 POP POP SWAP3 SWAP2 POP POP JUMP JUMPDEST PUSH0 DUP2 ISZERO ISZERO SWAP1 POP SWAP2 SWAP1 POP JUMP JUMPDEST PUSH2 0x105B DUP2 PUSH2 0x1047 JUMP JUMPDEST DUP3 MSTORE POP POP JUMP JUMPDEST PUSH0 DUP2 MLOAD SWAP1 POP SWAP2 SWAP1 POP JUMP JUMPDEST PUSH0 DUP3 DUP3 MSTORE PUSH1 0x20 DUP3 ADD SWAP1 POP SWAP3 SWAP2 POP POP JUMP JUMPDEST PUSH0 DUP2 SWAP1 POP PUSH1 0x20 DUP3 ADD SWAP1 POP SWAP2 SWAP1 POP JUMP JUMPDEST PUSH2 0x1093 DUP2 PUSH2 0xFA5 JUMP JUMPDEST DUP3 MSTORE POP POP JUMP JUMPDEST PUSH0 PUSH2 0x10A4 DUP4 DUP4 PUSH2 0x108A JUMP JUMPDEST PUSH1 0x20 DUP4 ADD SWAP1 POP SWAP3 SWAP2 POP POP JUMP JUMPDEST PUSH0 PUSH1 0x20 DUP3 ADD SWAP1 POP SWAP2 SWAP1 POP JUMP JUMPDEST PUSH0 PUSH2 0x10C6 DUP3 PUSH2 0x1061 JUMP JUMPDEST PUSH2 0x10D0 DUP2 DUP6 PUSH2 0x106B JUMP JUMPDEST SWAP4 POP PUSH2 0x10DB DUP4 PUSH2 0x107B JUMP JUMPDEST DUP1 PUSH0 JUMPDEST DUP4 DUP2 LT ISZERO PUSH2 0x110B JUMPI DUP2 MLOAD PUSH2 0x10F2 DUP9 DUP3 PUSH2 0x1099 JUMP JUMPDEST SWAP8 POP PUSH2 0x10FD DUP4 PUSH2 0x10B0 JUMP JUMPDEST SWAP3 POP POP PUSH1 0x1 DUP2 ADD SWAP1 POP PUSH2 0x10DE JUMP JUMPDEST POP DUP6 SWAP4 POP POP POP POP SWAP3 SWAP2 POP POP JUMP JUMPDEST PUSH0 PUSH2 0x100 DUP3 ADD SWAP1 POP PUSH2 0x112C PUSH0 DUP4 ADD DUP12 PUSH2 0xEDF JUMP JUMPDEST DUP2 DUP2 SUB PUSH1 0x20 DUP4 ADD MSTORE PUSH2 0x113E DUP2 DUP11 PUSH2 0xF49 JUMP JUMPDEST SWAP1 POP PUSH2 0x114D PUSH1 0x40 DUP4 ADD DUP10 PUSH2 0xFAE JUMP JUMPDEST DUP2 DUP2 SUB PUSH1 0x60 DUP4 ADD MSTORE PUSH2 0x115F DUP2 DUP9 PUSH2 0x100F JUMP JUMPDEST SWAP1 POP PUSH2 0x116E PUSH1 0x80 DUP4 ADD DUP8 PUSH2 0x1052 JUMP JUMPDEST DUP2 DUP2 SUB PUSH1 0xA0 DUP4 ADD MSTORE PUSH2 0x1180 DUP2 DUP7 PUSH2 0xF49 JUMP JUMPDEST SWAP1 POP DUP2 DUP2 SUB PUSH1 0xC0 DUP4 ADD MSTORE PUSH2 0x1194 DUP2 DUP6 PUSH2 0x10BC JUMP JUMPDEST SWAP1 POP PUSH2 0x11A3 PUSH1 0xE0 DUP4 ADD DUP5 PUSH2 0x1052 JUMP JUMPDEST SWAP10 SWAP9 POP POP POP POP POP POP POP POP POP JUMP JUMPDEST PUSH0 DUP1 REVERT JUMPDEST PUSH32 0x4E487B7100000000000000000000000000000000000000000000000000000000 PUSH0 MSTORE PUSH1 0x41 PUSH1 0x4 MSTORE PUSH1 0x24 PUSH0 REVERT JUMPDEST PUSH2 0x11EA DUP3 PUSH2 0xFFF JUMP JUMPDEST DUP2 ADD DUP2 DUP2 LT PUSH8 0xFFFFFFFFFFFFFFFF DUP3 GT OR ISZERO PUSH2 0x1209 JUMPI PUSH2 0x1208 PUSH2 0x11B4 JUMP JUMPDEST JUMPDEST DUP1 PUSH1 0x40 MSTORE POP POP POP JUMP JUMPDEST PUSH0 PUSH2 0x121B PUSH2 0xE49 JUMP JUMPDEST SWAP1 POP PUSH2 0x1227 DUP3 DUP3 PUSH2 0x11E1 JUMP JUMPDEST SWAP2 SWAP1 POP JUMP JUMPDEST PUSH0 PUSH8 0xFFFFFFFFFFFFFFFF DUP3 GT ISZERO PUSH2 0x1246 JUMPI PUSH2 0x1245 PUSH2 0x11B4 JUMP JUMPDEST JUMPDEST PUSH1 0x20 DUP3 MUL SWAP1 POP PUSH1 0x20 DUP2 ADD SWAP1 POP SWAP2 SWAP1 POP JUMP JUMPDEST PUSH0 DUP1 REVERT JUMPDEST PUSH0 PUSH2 0x126D PUSH2 0x1268 DUP5 PUSH2 0x122C JUMP JUMPDEST PUSH2 0x1212 JUMP JUMPDEST SWAP1 POP DUP1 DUP4 DUP3 MSTORE PUSH1 0x20 DUP3 ADD SWAP1 POP PUSH1 0x20 DUP5 MUL DUP4 ADD DUP6 DUP2 GT ISZERO PUSH2 0x1290 JUMPI PUSH2 0x128F PUSH2 0x1257 JUMP JUMPDEST JUMPDEST DUP4 JUMPDEST DUP2 DUP2 LT ISZERO PUSH2 0x12B9 JUMPI DUP1 PUSH2 0x12A5 DUP9 DUP3 PUSH2 0xEA0 JUMP JUMPDEST DUP5 MSTORE PUSH1 0x20 DUP5 ADD SWAP4 POP POP PUSH1 0x20 DUP2 ADD SWAP1 POP PUSH2 0x1292 JUMP JUMPDEST POP POP POP SWAP4 SWAP3 POP POP POP JUMP JUMPDEST PUSH0 DUP3 PUSH1 0x1F DUP4 ADD SLT PUSH2 0x12D7 JUMPI PUSH2 0x12D6 PUSH2 0x11B0 JUMP JUMPDEST JUMPDEST DUP2 CALLDATALOAD PUSH2 0x12E7 DUP5 DUP3 PUSH1 0x20 DUP7 ADD PUSH2 0x125B JUMP JUMPDEST SWAP2 POP POP SWAP3 SWAP2 POP POP JUMP JUMPDEST PUSH0 PUSH8 0xFFFFFFFFFFFFFFFF DUP3 GT ISZERO PUSH2 0x130A JUMPI PUSH2 0x1309 PUSH2 0x11B4 JUMP JUMPDEST JUMPDEST PUSH1 0x20 DUP3 MUL SWAP1 POP PUSH1 0x20 DUP2 ADD SWAP1 POP SWAP2 SWAP1 POP JUMP JUMPDEST PUSH2 0x1324 DUP2 PUSH2 0xFA5 JUMP JUMPDEST DUP2 EQ PUSH2 0x132E JUMPI PUSH0 DUP1 REVERT JUMPDEST POP JUMP JUMPDEST PUSH0 DUP2 CALLDATALOAD SWAP1 POP PUSH2 0x133F DUP2 PUSH2 0x131B JUMP JUMPDEST SWAP3 SWAP2 POP POP JUMP JUMPDEST PUSH0 PUSH2 0x1357 PUSH2 0x1352 DUP5 PUSH2 0x12F0 JUMP JUMPDEST PUSH2 0x1212 JUMP JUMPDEST SWAP1 POP DUP1 DUP4 DUP3 MSTORE PUSH1 0x20 DUP3 ADD SWAP1 POP PUSH1 0x20 DUP5 MUL DUP4 ADD DUP6 DUP2 GT ISZERO PUSH2 0x137A JUMPI PUSH2 0x1379 PUSH2 0x1257 JUMP JUMPDEST JUMPDEST DUP4 JUMPDEST DUP2 DUP2 LT ISZERO PUSH2 0x13A3 JUMPI DUP1 PUSH2 0x138F DUP9 DUP3 PUSH2 0x1331 JUMP JUMPDEST DUP5 MSTORE PUSH1 0x20 DUP5 ADD SWAP4 POP POP PUSH1 0x20 DUP2 ADD SWAP1 POP PUSH2 0x137C JUMP JUMPDEST POP POP POP SWAP4 SWAP3 POP POP POP JUMP JUMPDEST PUSH0 DUP3 PUSH1 0x1F DUP4 ADD SLT PUSH2 0x13C1 JUMPI PUSH2 0x13C0 PUSH2 0x11B0 JUMP JUMPDEST JUMPDEST DUP2 CALLDATALOAD PUSH2 0x13D1 DUP5 DUP3 PUSH1 0x20 DUP7 ADD PUSH2 0x1345 JUMP JUMPDEST SWAP2 POP POP SWAP3 SWAP2 POP POP JUMP JUMPDEST PUSH0 DUP1 PUSH0 PUSH1 0x60 DUP5 DUP7 SUB SLT ISZERO PUSH2 0x13F1 JUMPI PUSH2 0x13F0 PUSH2 0xE52 JUMP JUMPDEST JUMPDEST PUSH0 DUP5 ADD CALLDATALOAD PUSH8 0xFFFFFFFFFFFFFFFF DUP2 GT ISZERO PUSH2 0x140E JUMPI PUSH2 0x140D PUSH2 0xE56 JUMP JUMPDEST JUMPDEST PUSH2 0x141A DUP7 DUP3 DUP8 ADD PUSH2 0x12C3 JUMP JUMPDEST SWAP4 POP POP PUSH1 0x20 DUP5 ADD CALLDATALOAD PUSH8 0xFFFFFFFFFFFFFFFF DUP2 GT ISZERO PUSH2 0x143B JUMPI PUSH2 0x143A PUSH2 0xE56 JUMP JUMPDEST JUMPDEST PUSH2 0x1447 DUP7 DUP3 DUP8 ADD PUSH2 0x13AD JUMP JUMPDEST SWAP3 POP POP PUSH1 0x40 DUP5 ADD CALLDATALOAD PUSH8 0xFFFFFFFFFFFFFFFF DUP2 GT ISZERO PUSH2 0x1468 JUMPI PUSH2 0x1467 PUSH2 0xE56 JUMP JUMPDEST JUMPDEST PUSH2 0x1474 DUP7 DUP3 DUP8 ADD PUSH2 0x12C3 JUMP JUMPDEST SWAP2 POP POP SWAP3 POP SWAP3 POP SWAP3 JUMP JUMPDEST PUSH0 PUSH1 0x20 DUP3 ADD SWAP1 POP PUSH2 0x1491 PUSH0 DUP4 ADD DUP5 PUSH2 0xFAE JUMP JUMPDEST SWAP3 SWAP2 POP POP JUMP JUMPDEST PUSH0 PUSH1 0x20 DUP3 ADD SWAP1 POP DUP2 DUP2 SUB PUSH0 DUP4 ADD MSTORE PUSH2 0x14AF DUP2 DUP5 PUSH2 0xF49 JUMP JUMPDEST SWAP1 POP SWAP3 SWAP2 POP POP JUMP JUMPDEST PUSH2 0x14C0 DUP2 PUSH2 0x1047 JUMP JUMPDEST DUP2 EQ PUSH2 0x14CA JUMPI PUSH0 DUP1 REVERT JUMPDEST POP JUMP JUMPDEST PUSH0 DUP2 CALLDATALOAD SWAP1 POP PUSH2 0x14DB DUP2 PUSH2 0x14B7 JUMP JUMPDEST SWAP3 SWAP2 POP POP JUMP JUMPDEST PUSH0 PUSH1 0x20 DUP3 DUP5 SUB SLT ISZERO PUSH2 0x14F6 JUMPI PUSH2 0x14F5 PUSH2 0xE52 JUMP JUMPDEST JUMPDEST PUSH0 PUSH2 0x1503 DUP5 DUP3 DUP6 ADD PUSH2 0x14CD JUMP JUMPDEST SWAP2 POP POP SWAP3 SWAP2 POP POP JUMP JUMPDEST PUSH0 PUSH1 0x20 DUP3 DUP5 SUB SLT ISZERO PUSH2 0x1521 JUMPI PUSH2 0x1520 PUSH2 0xE52 JUMP JUMPDEST JUMPDEST PUSH0 DUP3 ADD CALLDATALOAD PUSH8 0xFFFFFFFFFFFFFFFF DUP2 GT ISZERO PUSH2 0x153E JUMPI PUSH2 0x153D PUSH2 0xE56 JUMP JUMPDEST JUMPDEST PUSH2 0x154A DUP5 DUP3 DUP6 ADD PUSH2 0x12C3 JUMP JUMPDEST SWAP2 POP POP SWAP3 SWAP2 POP POP JUMP JUMPDEST PUSH0 PUSH1 0x20 DUP3 ADD SWAP1 POP PUSH2 0x1566 PUSH0 DUP4 ADD DUP5 PUSH2 0xEDF JUMP JUMPDEST SWAP3 SWAP2 POP POP JUMP JUMPDEST PUSH0 DUP1 PUSH1 0x40 DUP4 DUP6 SUB SLT ISZERO PUSH2 0x1582 JUMPI PUSH2 0x1581 PUSH2 0xE52 JUMP JUMPDEST JUMPDEST PUSH0 PUSH2 0x158F DUP6 DUP3 DUP7 ADD PUSH2 0xEA0 JUMP JUMPDEST SWAP3 POP POP PUSH1 0x20 PUSH2 0x15A0 DUP6 DUP3 DUP7 ADD PUSH2 0x1331 JUMP JUMPDEST SWAP2 POP POP SWAP3 POP SWAP3 SWAP1 POP JUMP JUMPDEST PUSH32 0x4E487B7100000000000000000000000000000000000000000000000000000000 PUSH0 MSTORE PUSH1 0x32 PUSH1 0x4 MSTORE PUSH1 0x24 PUSH0 REVERT JUMPDEST PUSH32 0x4E487B7100000000000000000000000000000000000000000000000000000000 PUSH0 MSTORE PUSH1 0x11 PUSH1 0x4 MSTORE PUSH1 0x24 PUSH0 REVERT JUMPDEST PUSH0 PUSH2 0x160E DUP3 PUSH2 0xFA5 JUMP JUMPDEST SWAP2 POP PUSH2 0x1619 DUP4 PUSH2 0xFA5 JUMP JUMPDEST SWAP3 POP DUP3 DUP3 MUL PUSH2 0x1627 DUP2 PUSH2 0xFA5 JUMP JUMPDEST SWAP2 POP DUP3 DUP3 DIV DUP5 EQ DUP4 ISZERO OR PUSH2 0x163E JUMPI PUSH2 0x163D PUSH2 0x15D7 JUMP JUMPDEST JUMPDEST POP SWAP3 SWAP2 POP POP JUMP JUMPDEST PUSH32 0x4E487B7100000000000000000000000000000000000000000000000000000000 PUSH0 MSTORE PUSH1 0x12 PUSH1 0x4 MSTORE PUSH1 0x24 PUSH0 REVERT JUMPDEST PUSH0 PUSH2 0x167C DUP3 PUSH2 0xFA5 JUMP JUMPDEST SWAP2 POP PUSH2 0x1687 DUP4 PUSH2 0xFA5 JUMP JUMPDEST SWAP3 POP DUP3 PUSH2 0x1697 JUMPI PUSH2 0x1696 PUSH2 0x1645 JUMP JUMPDEST JUMPDEST DUP3 DUP3 DIV SWAP1 POP SWAP3 SWAP2 POP POP JUMP JUMPDEST PUSH32 0x4E487B7100000000000000000000000000000000000000000000000000000000 PUSH0 MSTORE PUSH1 0x22 PUSH1 0x4 MSTORE PUSH1 0x24 PUSH0 REVERT JUMPDEST PUSH0 PUSH1 0x2 DUP3 DIV SWAP1 POP PUSH1 0x1 DUP3 AND DUP1 PUSH2 0x16E6 JUMPI PUSH1 0x7F DUP3 AND SWAP2 POP JUMPDEST PUSH1 0x20 DUP3 LT DUP2 SUB PUSH2 0x16F9 JUMPI PUSH2 0x16F8 PUSH2 0x16A2 JUMP JUMPDEST JUMPDEST POP SWAP2 SWAP1 POP JUMP INVALID LOG2 PUSH5 0x6970667358 0x22 SLT KECCAK256 RETURNDATASIZE ADDMOD 0x4E PUSH26 0x892D251330789AAB7D4E5521B472124506C6C852EAC8F2C7148A NUMBER PUSH25 0x64736F6C63430008170033A26469706673582212206DE21BD8 0x4B 0xC8 0xF8 SLT CALL 0x5C COINBASE PUSH7 0xF256C4E534415B BASEFEE 0xB5 DUP3 0xAF 0xEC DUP13 0xE8 0xDC 0xA7 NUMBER 0xD6 0xF8 LOG3 PUSH5 0x736F6C6343 STOP ADDMOD OR STOP CALLER "},"gasEstimates":{"creation":{"codeDepositCost":"2166800","executionCost":"2307","totalCost":"2169107"},"external":{"createTrustContract(string,address[])":"infinite","deployedContracts(uint256)":"infinite","getAdmin()":"2537","getDeployedTrustContract()":"infinite","setAuthenticatedUsers(address[])":"infinite"}},"methodIdentifiers":{"createTrustContract(string,address[])":"15ce3647","deployedContracts(uint256)":"9ad1ee10","getAdmin()":"6e9960c3","getDeployedTrustContract()":"7d1a9435","setAuthenticatedUsers(address[])":"3d91fc62"}},"storageLayout":{"storage":[{"astId":3,"contract":"EstatePlanning.sol:EstatePlanningFactory","label":"admin","offset":0,"slot":"0","type":"t_address"},{"astId":7,"contract":"EstatePlanning.sol:EstatePlanningFactory","label":"deployedContracts","offset":0,"slot":"1","type":"t_array(t_contract(EstatePlanning)430)dyn_storage"},{"astId":10,"contract":"EstatePlanning.sol:EstatePlanningFactory","label":"users","offset":0,"slot":"2","type":"t_array(t_address)dyn_storage"}],"types":{"t_address":{"encoding":"inplace","label":"address","numberOfBytes":"20"},"t_array(t_address)dyn_storage":{"base":"t_address","encoding":"dynamic_array","label":"address[]","numberOfBytes":"32"},"t_array(t_contract(EstatePlanning)430)dyn_storage":{"base":"t_contract(EstatePlanning)430","encoding":"dynamic_array","label":"contract EstatePlanning[]","numberOfBytes":"32"},"t_contract(EstatePlanning)430":{"encoding":"inplace","label":"contract EstatePlanning","numberOfBytes":"20"}}},"userdoc":{"kind":"user","methods":{},"version":1}}