{"abi":[{"inputs":[{"internalType":"string","name":"_trustName","type":"string"}],"name":"createCampaign","outputs":[],"stateMutability":"nonpayable","type":"function"},{"inputs":[{"internalType":"uint256","name":"","type":"uint256"}],"name":"deployedCampaigns","outputs":[{"internalType":"contract EstatePlanning","name":"","type":"address"}],"stateMutability":"view","type":"function"},{"inputs":[],"name":"getDeployedCampaigns","outputs":[{"internalType":"contract EstatePlanning[]","name":"","type":"address[]"}],"stateMutability":"view","type":"function"}],"devdoc":{"kind":"dev","methods":{},"version":1},"evm":{"assembly":"    /* \"EstatePlanning.sol\":57:447  contract EstatePlanningFactory {... */\n  mstore(0x40, 0x80)\n  callvalue\n  dup1\n  iszero\n  tag_1\n  jumpi\n  0x00\n  dup1\n  revert\ntag_1:\n  pop\n  dataSize(sub_0)\n  dup1\n  dataOffset(sub_0)\n  0x00\n  codecopy\n  0x00\n  return\nstop\n\nsub_0: assembly {\n        /* \"EstatePlanning.sol\":57:447  contract EstatePlanningFactory {... */\n      mstore(0x40, 0x80)\n      callvalue\n      dup1\n      iszero\n      tag_1\n      jumpi\n      0x00\n      dup1\n      revert\n    tag_1:\n      pop\n      jumpi(tag_2, lt(calldatasize, 0x04))\n      shr(0xe0, calldataload(0x00))\n      dup1\n      0x339d50a5\n      eq\n      tag_3\n      jumpi\n      dup1\n      0x4acb9d4f\n      eq\n      tag_4\n      jumpi\n      dup1\n      0xfdbf9ff1\n      eq\n      tag_5\n      jumpi\n    tag_2:\n      0x00\n      dup1\n      revert\n        /* \"EstatePlanning.sol\":94:135  EstatePlanning[] public deployedCampaigns */\n    tag_3:\n      tag_6\n      0x04\n      dup1\n      calldatasize\n      sub\n      dup2\n      add\n      swap1\n      tag_7\n      swap2\n      swap1\n      tag_8\n      jump\t// in\n    tag_7:\n      tag_9\n      jump\t// in\n    tag_6:\n      mload(0x40)\n      tag_10\n      swap2\n      swap1\n      tag_11\n      jump\t// in\n    tag_10:\n      mload(0x40)\n      dup1\n      swap2\n      sub\n      swap1\n      return\n        /* \"EstatePlanning.sol\":326:445  function getDeployedCampaigns() public view returns (EstatePlanning[] memory) {... */\n    tag_4:\n      tag_12\n      tag_13\n      jump\t// in\n    tag_12:\n      mload(0x40)\n      tag_14\n      swap2\n      swap1\n      tag_15\n      jump\t// in\n    tag_14:\n      mload(0x40)\n      dup1\n      swap2\n      sub\n      swap1\n      return\n        /* \"EstatePlanning.sol\":142:320  function createCampaign(string memory _trustName) public {... */\n    tag_5:\n      tag_16\n      0x04\n      dup1\n      calldatasize\n      sub\n      dup2\n      add\n      swap1\n      tag_17\n      swap2\n      swap1\n      tag_18\n      jump\t// in\n    tag_17:\n      tag_19\n      jump\t// in\n    tag_16:\n      stop\n        /* \"EstatePlanning.sol\":94:135  EstatePlanning[] public deployedCampaigns */\n    tag_9:\n      0x00\n      dup2\n      dup2\n      sload\n      dup2\n      lt\n      tag_20\n      jumpi\n      0x00\n      dup1\n      revert\n    tag_20:\n      swap1\n      0x00\n      mstore\n      keccak256(0x00, 0x20)\n      add\n      0x00\n      swap2\n      pop\n      sload\n      swap1\n      0x0100\n      exp\n      swap1\n      div\n      0xffffffffffffffffffffffffffffffffffffffff\n      and\n      dup2\n      jump\t// out\n        /* \"EstatePlanning.sol\":326:445  function getDeployedCampaigns() public view returns (EstatePlanning[] memory) {... */\n    tag_13:\n        /* \"EstatePlanning.sol\":379:402  EstatePlanning[] memory */\n      0x60\n        /* \"EstatePlanning.sol\":421:438  deployedCampaigns */\n      0x00\n        /* \"EstatePlanning.sol\":414:438  return deployedCampaigns */\n      dup1\n      sload\n      dup1\n      0x20\n      mul\n      0x20\n      add\n      mload(0x40)\n      swap1\n      dup2\n      add\n      0x40\n      mstore\n      dup1\n      swap3\n      swap2\n      swap1\n      dup2\n      dup2\n      mstore\n      0x20\n      add\n      dup3\n      dup1\n      sload\n      dup1\n      iszero\n      tag_23\n      jumpi\n      0x20\n      mul\n      dup3\n      add\n      swap2\n      swap1\n      0x00\n      mstore\n      keccak256(0x00, 0x20)\n      swap1\n    tag_24:\n      dup2\n      0x00\n      swap1\n      sload\n      swap1\n      0x0100\n      exp\n      swap1\n      div\n      0xffffffffffffffffffffffffffffffffffffffff\n      and\n      0xffffffffffffffffffffffffffffffffffffffff\n      and\n      dup2\n      mstore\n      0x20\n      add\n      swap1\n      0x01\n      add\n      swap1\n      dup1\n      dup4\n      gt\n      tag_24\n      jumpi\n    tag_23:\n      pop\n      pop\n      pop\n      pop\n      pop\n      swap1\n      pop\n        /* \"EstatePlanning.sol\":326:445  function getDeployedCampaigns() public view returns (EstatePlanning[] memory) {... */\n      swap1\n      jump\t// out\n        /* \"EstatePlanning.sol\":142:320  function createCampaign(string memory _trustName) public {... */\n    tag_19:\n        /* \"EstatePlanning.sol\":209:235  EstatePlanning newCampaign */\n      0x00\n        /* \"EstatePlanning.sol\":257:267  _trustName */\n      dup2\n        /* \"EstatePlanning.sol\":238:268  new EstatePlanning(_trustName) */\n      mload(0x40)\n      tag_26\n      swap1\n      tag_27\n      jump\t// in\n    tag_26:\n      tag_28\n      swap2\n      swap1\n      tag_29\n      jump\t// in\n    tag_28:\n      mload(0x40)\n      dup1\n      swap2\n      sub\n      swap1\n      0x00\n      create\n      dup1\n      iszero\n      dup1\n      iszero\n      tag_30\n      jumpi\n      returndatasize\n      0x00\n      dup1\n      returndatacopy\n      revert(0x00, returndatasize)\n    tag_30:\n      pop\n        /* \"EstatePlanning.sol\":209:268  EstatePlanning newCampaign = new EstatePlanning(_trustName) */\n      swap1\n      pop\n        /* \"EstatePlanning.sol\":278:295  deployedCampaigns */\n      0x00\n        /* \"EstatePlanning.sol\":301:312  newCampaign */\n      dup2\n        /* \"EstatePlanning.sol\":278:313  deployedCampaigns.push(newCampaign) */\n      swap1\n      dup1\n      0x01\n      dup2\n      sload\n      add\n      dup1\n      dup3\n      sstore\n      dup1\n      swap2\n      pop\n      pop\n      0x01\n      swap1\n      sub\n      swap1\n      0x00\n      mstore\n      keccak256(0x00, 0x20)\n      add\n      0x00\n      swap1\n      swap2\n      swap1\n      swap2\n      swap1\n      swap2\n      0x0100\n      exp\n      dup2\n      sload\n      dup2\n      0xffffffffffffffffffffffffffffffffffffffff\n      mul\n      not\n      and\n      swap1\n      dup4\n      0xffffffffffffffffffffffffffffffffffffffff\n      and\n      mul\n      or\n      swap1\n      sstore\n      pop\n        /* \"EstatePlanning.sol\":199:320  {... */\n      pop\n        /* \"EstatePlanning.sol\":142:320  function createCampaign(string memory _trustName) public {... */\n      pop\n      jump\t// out\n    tag_27:\n      dataSize(sub_0)\n      dup1\n      dataOffset(sub_0)\n      dup4\n      codecopy\n      add\n      swap1\n      jump\t// out\n        /* \"#utility.yul\":7:82   */\n    tag_32:\n        /* \"#utility.yul\":40:46   */\n      0x00\n        /* \"#utility.yul\":73:75   */\n      0x40\n        /* \"#utility.yul\":67:76   */\n      mload\n        /* \"#utility.yul\":57:76   */\n      swap1\n      pop\n        /* \"#utility.yul\":7:82   */\n      swap1\n      jump\t// out\n        /* \"#utility.yul\":88:205   */\n    tag_33:\n        /* \"#utility.yul\":197:198   */\n      0x00\n        /* \"#utility.yul\":194:195   */\n      dup1\n        /* \"#utility.yul\":187:199   */\n      revert\n        /* \"#utility.yul\":211:328   */\n    tag_34:\n        /* \"#utility.yul\":320:321   */\n      0x00\n        /* \"#utility.yul\":317:318   */\n      dup1\n        /* \"#utility.yul\":310:322   */\n      revert\n        /* \"#utility.yul\":334:411   */\n    tag_35:\n        /* \"#utility.yul\":371:378   */\n      0x00\n        /* \"#utility.yul\":400:405   */\n      dup2\n        /* \"#utility.yul\":389:405   */\n      swap1\n      pop\n        /* \"#utility.yul\":334:411   */\n      swap2\n      swap1\n      pop\n      jump\t// out\n        /* \"#utility.yul\":417:539   */\n    tag_36:\n        /* \"#utility.yul\":490:514   */\n      tag_71\n        /* \"#utility.yul\":508:513   */\n      dup2\n        /* \"#utility.yul\":490:514   */\n      tag_35\n      jump\t// in\n    tag_71:\n        /* \"#utility.yul\":483:488   */\n      dup2\n        /* \"#utility.yul\":480:515   */\n      eq\n        /* \"#utility.yul\":470:533   */\n      tag_72\n      jumpi\n        /* \"#utility.yul\":529:530   */\n      0x00\n        /* \"#utility.yul\":526:527   */\n      dup1\n        /* \"#utility.yul\":519:531   */\n      revert\n        /* \"#utility.yul\":470:533   */\n    tag_72:\n        /* \"#utility.yul\":417:539   */\n      pop\n      jump\t// out\n        /* \"#utility.yul\":545:684   */\n    tag_37:\n        /* \"#utility.yul\":591:596   */\n      0x00\n        /* \"#utility.yul\":629:635   */\n      dup2\n        /* \"#utility.yul\":616:636   */\n      calldataload\n        /* \"#utility.yul\":607:636   */\n      swap1\n      pop\n        /* \"#utility.yul\":645:678   */\n      tag_74\n        /* \"#utility.yul\":672:677   */\n      dup2\n        /* \"#utility.yul\":645:678   */\n      tag_36\n      jump\t// in\n    tag_74:\n        /* \"#utility.yul\":545:684   */\n      swap3\n      swap2\n      pop\n      pop\n      jump\t// out\n        /* \"#utility.yul\":690:1019   */\n    tag_8:\n        /* \"#utility.yul\":749:755   */\n      0x00\n        /* \"#utility.yul\":798:800   */\n      0x20\n        /* \"#utility.yul\":786:795   */\n      dup3\n        /* \"#utility.yul\":777:784   */\n      dup5\n        /* \"#utility.yul\":773:796   */\n      sub\n        /* \"#utility.yul\":769:801   */\n      slt\n        /* \"#utility.yul\":766:885   */\n      iszero\n      tag_76\n      jumpi\n        /* \"#utility.yul\":804:883   */\n      tag_77\n      tag_33\n      jump\t// in\n    tag_77:\n        /* \"#utility.yul\":766:885   */\n    tag_76:\n        /* \"#utility.yul\":924:925   */\n      0x00\n        /* \"#utility.yul\":949:1002   */\n      tag_78\n        /* \"#utility.yul\":994:1001   */\n      dup5\n        /* \"#utility.yul\":985:991   */\n      dup3\n        /* \"#utility.yul\":974:983   */\n      dup6\n        /* \"#utility.yul\":970:992   */\n      add\n        /* \"#utility.yul\":949:1002   */\n      tag_37\n      jump\t// in\n    tag_78:\n        /* \"#utility.yul\":939:1002   */\n      swap2\n      pop\n        /* \"#utility.yul\":895:1012   */\n      pop\n        /* \"#utility.yul\":690:1019   */\n      swap3\n      swap2\n      pop\n      pop\n      jump\t// out\n        /* \"#utility.yul\":1025:1151   */\n    tag_38:\n        /* \"#utility.yul\":1062:1069   */\n      0x00\n        /* \"#utility.yul\":1102:1144   */\n      0xffffffffffffffffffffffffffffffffffffffff\n        /* \"#utility.yul\":1095:1100   */\n      dup3\n        /* \"#utility.yul\":1091:1145   */\n      and\n        /* \"#utility.yul\":1080:1145   */\n      swap1\n      pop\n        /* \"#utility.yul\":1025:1151   */\n      swap2\n      swap1\n      pop\n      jump\t// out\n        /* \"#utility.yul\":1157:1217   */\n    tag_39:\n        /* \"#utility.yul\":1185:1188   */\n      0x00\n        /* \"#utility.yul\":1206:1211   */\n      dup2\n        /* \"#utility.yul\":1199:1211   */\n      swap1\n      pop\n        /* \"#utility.yul\":1157:1217   */\n      swap2\n      swap1\n      pop\n      jump\t// out\n        /* \"#utility.yul\":1223:1365   */\n    tag_40:\n        /* \"#utility.yul\":1273:1282   */\n      0x00\n        /* \"#utility.yul\":1306:1359   */\n      tag_82\n        /* \"#utility.yul\":1324:1358   */\n      tag_83\n        /* \"#utility.yul\":1333:1357   */\n      tag_84\n        /* \"#utility.yul\":1351:1356   */\n      dup5\n        /* \"#utility.yul\":1333:1357   */\n      tag_38\n      jump\t// in\n    tag_84:\n        /* \"#utility.yul\":1324:1358   */\n      tag_39\n      jump\t// in\n    tag_83:\n        /* \"#utility.yul\":1306:1359   */\n      tag_38\n      jump\t// in\n    tag_82:\n        /* \"#utility.yul\":1293:1359   */\n      swap1\n      pop\n        /* \"#utility.yul\":1223:1365   */\n      swap2\n      swap1\n      pop\n      jump\t// out\n        /* \"#utility.yul\":1371:1497   */\n    tag_41:\n        /* \"#utility.yul\":1421:1430   */\n      0x00\n        /* \"#utility.yul\":1454:1491   */\n      tag_86\n        /* \"#utility.yul\":1485:1490   */\n      dup3\n        /* \"#utility.yul\":1454:1491   */\n      tag_40\n      jump\t// in\n    tag_86:\n        /* \"#utility.yul\":1441:1491   */\n      swap1\n      pop\n        /* \"#utility.yul\":1371:1497   */\n      swap2\n      swap1\n      pop\n      jump\t// out\n        /* \"#utility.yul\":1503:1651   */\n    tag_42:\n        /* \"#utility.yul\":1575:1584   */\n      0x00\n        /* \"#utility.yul\":1608:1645   */\n      tag_88\n        /* \"#utility.yul\":1639:1644   */\n      dup3\n        /* \"#utility.yul\":1608:1645   */\n      tag_41\n      jump\t// in\n    tag_88:\n        /* \"#utility.yul\":1595:1645   */\n      swap1\n      pop\n        /* \"#utility.yul\":1503:1651   */\n      swap2\n      swap1\n      pop\n      jump\t// out\n        /* \"#utility.yul\":1657:1832   */\n    tag_43:\n        /* \"#utility.yul\":1766:1825   */\n      tag_90\n        /* \"#utility.yul\":1819:1824   */\n      dup2\n        /* \"#utility.yul\":1766:1825   */\n      tag_42\n      jump\t// in\n    tag_90:\n        /* \"#utility.yul\":1761:1764   */\n      dup3\n        /* \"#utility.yul\":1754:1826   */\n      mstore\n        /* \"#utility.yul\":1657:1832   */\n      pop\n      pop\n      jump\t// out\n        /* \"#utility.yul\":1838:2104   */\n    tag_11:\n        /* \"#utility.yul\":1953:1957   */\n      0x00\n        /* \"#utility.yul\":1991:1993   */\n      0x20\n        /* \"#utility.yul\":1980:1989   */\n      dup3\n        /* \"#utility.yul\":1976:1994   */\n      add\n        /* \"#utility.yul\":1968:1994   */\n      swap1\n      pop\n        /* \"#utility.yul\":2004:2097   */\n      tag_92\n        /* \"#utility.yul\":2094:2095   */\n      0x00\n        /* \"#utility.yul\":2083:2092   */\n      dup4\n        /* \"#utility.yul\":2079:2096   */\n      add\n        /* \"#utility.yul\":2070:2076   */\n      dup5\n        /* \"#utility.yul\":2004:2097   */\n      tag_43\n      jump\t// in\n    tag_92:\n        /* \"#utility.yul\":1838:2104   */\n      swap3\n      swap2\n      pop\n      pop\n      jump\t// out\n        /* \"#utility.yul\":2110:2246   */\n    tag_44:\n        /* \"#utility.yul\":2199:2205   */\n      0x00\n        /* \"#utility.yul\":2233:2238   */\n      dup2\n        /* \"#utility.yul\":2227:2239   */\n      mload\n        /* \"#utility.yul\":2217:2239   */\n      swap1\n      pop\n        /* \"#utility.yul\":2110:2246   */\n      swap2\n      swap1\n      pop\n      jump\t// out\n        /* \"#utility.yul\":2252:2436   */\n    tag_45:\n        /* \"#utility.yul\":2351:2362   */\n      0x00\n        /* \"#utility.yul\":2385:2391   */\n      dup3\n        /* \"#utility.yul\":2380:2383   */\n      dup3\n        /* \"#utility.yul\":2373:2392   */\n      mstore\n        /* \"#utility.yul\":2425:2429   */\n      0x20\n        /* \"#utility.yul\":2420:2423   */\n      dup3\n        /* \"#utility.yul\":2416:2430   */\n      add\n        /* \"#utility.yul\":2401:2430   */\n      swap1\n      pop\n        /* \"#utility.yul\":2252:2436   */\n      swap3\n      swap2\n      pop\n      pop\n      jump\t// out\n        /* \"#utility.yul\":2442:2596   */\n    tag_46:\n        /* \"#utility.yul\":2531:2535   */\n      0x00\n        /* \"#utility.yul\":2554:2557   */\n      dup2\n        /* \"#utility.yul\":2546:2557   */\n      swap1\n      pop\n        /* \"#utility.yul\":2584:2588   */\n      0x20\n        /* \"#utility.yul\":2579:2582   */\n      dup3\n        /* \"#utility.yul\":2575:2589   */\n      add\n        /* \"#utility.yul\":2567:2589   */\n      swap1\n      pop\n        /* \"#utility.yul\":2442:2596   */\n      swap2\n      swap1\n      pop\n      jump\t// out\n        /* \"#utility.yul\":2602:2767   */\n    tag_47:\n        /* \"#utility.yul\":2701:2760   */\n      tag_97\n        /* \"#utility.yul\":2754:2759   */\n      dup2\n        /* \"#utility.yul\":2701:2760   */\n      tag_42\n      jump\t// in\n    tag_97:\n        /* \"#utility.yul\":2696:2699   */\n      dup3\n        /* \"#utility.yul\":2689:2761   */\n      mstore\n        /* \"#utility.yul\":2602:2767   */\n      pop\n      pop\n      jump\t// out\n        /* \"#utility.yul\":2773:2996   */\n    tag_48:\n        /* \"#utility.yul\":2864:2874   */\n      0x00\n        /* \"#utility.yul\":2885:2953   */\n      tag_99\n        /* \"#utility.yul\":2949:2952   */\n      dup4\n        /* \"#utility.yul\":2941:2947   */\n      dup4\n        /* \"#utility.yul\":2885:2953   */\n      tag_47\n      jump\t// in\n    tag_99:\n        /* \"#utility.yul\":2985:2989   */\n      0x20\n        /* \"#utility.yul\":2980:2983   */\n      dup4\n        /* \"#utility.yul\":2976:2990   */\n      add\n        /* \"#utility.yul\":2962:2990   */\n      swap1\n      pop\n        /* \"#utility.yul\":2773:2996   */\n      swap3\n      swap2\n      pop\n      pop\n      jump\t// out\n        /* \"#utility.yul\":3002:3137   */\n    tag_49:\n        /* \"#utility.yul\":3094:3098   */\n      0x00\n        /* \"#utility.yul\":3126:3130   */\n      0x20\n        /* \"#utility.yul\":3121:3124   */\n      dup3\n        /* \"#utility.yul\":3117:3131   */\n      add\n        /* \"#utility.yul\":3109:3131   */\n      swap1\n      pop\n        /* \"#utility.yul\":3002:3137   */\n      swap2\n      swap1\n      pop\n      jump\t// out\n        /* \"#utility.yul\":3189:4031   */\n    tag_50:\n        /* \"#utility.yul\":3330:3333   */\n      0x00\n        /* \"#utility.yul\":3359:3435   */\n      tag_102\n        /* \"#utility.yul\":3429:3434   */\n      dup3\n        /* \"#utility.yul\":3359:3435   */\n      tag_44\n      jump\t// in\n    tag_102:\n        /* \"#utility.yul\":3451:3537   */\n      tag_103\n        /* \"#utility.yul\":3530:3536   */\n      dup2\n        /* \"#utility.yul\":3525:3528   */\n      dup6\n        /* \"#utility.yul\":3451:3537   */\n      tag_45\n      jump\t// in\n    tag_103:\n        /* \"#utility.yul\":3444:3537   */\n      swap4\n      pop\n        /* \"#utility.yul\":3561:3639   */\n      tag_104\n        /* \"#utility.yul\":3633:3638   */\n      dup4\n        /* \"#utility.yul\":3561:3639   */\n      tag_46\n      jump\t// in\n    tag_104:\n        /* \"#utility.yul\":3662:3669   */\n      dup1\n        /* \"#utility.yul\":3693:3694   */\n      0x00\n        /* \"#utility.yul\":3678:4006   */\n    tag_105:\n        /* \"#utility.yul\":3703:3709   */\n      dup4\n        /* \"#utility.yul\":3700:3701   */\n      dup2\n        /* \"#utility.yul\":3697:3710   */\n      lt\n        /* \"#utility.yul\":3678:4006   */\n      iszero\n      tag_107\n      jumpi\n        /* \"#utility.yul\":3779:3785   */\n      dup2\n        /* \"#utility.yul\":3773:3786   */\n      mload\n        /* \"#utility.yul\":3806:3891   */\n      tag_108\n        /* \"#utility.yul\":3887:3890   */\n      dup9\n        /* \"#utility.yul\":3872:3885   */\n      dup3\n        /* \"#utility.yul\":3806:3891   */\n      tag_48\n      jump\t// in\n    tag_108:\n        /* \"#utility.yul\":3799:3891   */\n      swap8\n      pop\n        /* \"#utility.yul\":3914:3996   */\n      tag_109\n        /* \"#utility.yul\":3989:3995   */\n      dup4\n        /* \"#utility.yul\":3914:3996   */\n      tag_49\n      jump\t// in\n    tag_109:\n        /* \"#utility.yul\":3904:3996   */\n      swap3\n      pop\n        /* \"#utility.yul\":3738:4006   */\n      pop\n        /* \"#utility.yul\":3725:3726   */\n      0x01\n        /* \"#utility.yul\":3722:3723   */\n      dup2\n        /* \"#utility.yul\":3718:3727   */\n      add\n        /* \"#utility.yul\":3713:3727   */\n      swap1\n      pop\n        /* \"#utility.yul\":3678:4006   */\n      jump(tag_105)\n    tag_107:\n        /* \"#utility.yul\":3682:3696   */\n      pop\n        /* \"#utility.yul\":4022:4025   */\n      dup6\n        /* \"#utility.yul\":4015:4025   */\n      swap4\n      pop\n        /* \"#utility.yul\":3335:4031   */\n      pop\n      pop\n      pop\n        /* \"#utility.yul\":3189:4031   */\n      swap3\n      swap2\n      pop\n      pop\n      jump\t// out\n        /* \"#utility.yul\":4037:4454   */\n    tag_15:\n        /* \"#utility.yul\":4202:4206   */\n      0x00\n        /* \"#utility.yul\":4240:4242   */\n      0x20\n        /* \"#utility.yul\":4229:4238   */\n      dup3\n        /* \"#utility.yul\":4225:4243   */\n      add\n        /* \"#utility.yul\":4217:4243   */\n      swap1\n      pop\n        /* \"#utility.yul\":4289:4298   */\n      dup2\n        /* \"#utility.yul\":4283:4287   */\n      dup2\n        /* \"#utility.yul\":4279:4299   */\n      sub\n        /* \"#utility.yul\":4275:4276   */\n      0x00\n        /* \"#utility.yul\":4264:4273   */\n      dup4\n        /* \"#utility.yul\":4260:4277   */\n      add\n        /* \"#utility.yul\":4253:4300   */\n      mstore\n        /* \"#utility.yul\":4317:4447   */\n      tag_111\n        /* \"#utility.yul\":4442:4446   */\n      dup2\n        /* \"#utility.yul\":4433:4439   */\n      dup5\n        /* \"#utility.yul\":4317:4447   */\n      tag_50\n      jump\t// in\n    tag_111:\n        /* \"#utility.yul\":4309:4447   */\n      swap1\n      pop\n        /* \"#utility.yul\":4037:4454   */\n      swap3\n      swap2\n      pop\n      pop\n      jump\t// out\n        /* \"#utility.yul\":4460:4577   */\n    tag_51:\n        /* \"#utility.yul\":4569:4570   */\n      0x00\n        /* \"#utility.yul\":4566:4567   */\n      dup1\n        /* \"#utility.yul\":4559:4571   */\n      revert\n        /* \"#utility.yul\":4583:4700   */\n    tag_52:\n        /* \"#utility.yul\":4692:4693   */\n      0x00\n        /* \"#utility.yul\":4689:4690   */\n      dup1\n        /* \"#utility.yul\":4682:4694   */\n      revert\n        /* \"#utility.yul\":4706:4808   */\n    tag_53:\n        /* \"#utility.yul\":4747:4753   */\n      0x00\n        /* \"#utility.yul\":4798:4800   */\n      0x1f\n        /* \"#utility.yul\":4794:4801   */\n      not\n        /* \"#utility.yul\":4789:4791   */\n      0x1f\n        /* \"#utility.yul\":4782:4787   */\n      dup4\n        /* \"#utility.yul\":4778:4792   */\n      add\n        /* \"#utility.yul\":4774:4802   */\n      and\n        /* \"#utility.yul\":4764:4802   */\n      swap1\n      pop\n        /* \"#utility.yul\":4706:4808   */\n      swap2\n      swap1\n      pop\n      jump\t// out\n        /* \"#utility.yul\":4814:4994   */\n    tag_54:\n        /* \"#utility.yul\":4862:4939   */\n      0x4e487b7100000000000000000000000000000000000000000000000000000000\n        /* \"#utility.yul\":4859:4860   */\n      0x00\n        /* \"#utility.yul\":4852:4940   */\n      mstore\n        /* \"#utility.yul\":4959:4963   */\n      0x41\n        /* \"#utility.yul\":4956:4957   */\n      0x04\n        /* \"#utility.yul\":4949:4964   */\n      mstore\n        /* \"#utility.yul\":4983:4987   */\n      0x24\n        /* \"#utility.yul\":4980:4981   */\n      0x00\n        /* \"#utility.yul\":4973:4988   */\n      revert\n        /* \"#utility.yul\":5000:5281   */\n    tag_55:\n        /* \"#utility.yul\":5083:5110   */\n      tag_117\n        /* \"#utility.yul\":5105:5109   */\n      dup3\n        /* \"#utility.yul\":5083:5110   */\n      tag_53\n      jump\t// in\n    tag_117:\n        /* \"#utility.yul\":5075:5081   */\n      dup2\n        /* \"#utility.yul\":5071:5111   */\n      add\n        /* \"#utility.yul\":5213:5219   */\n      dup2\n        /* \"#utility.yul\":5201:5211   */\n      dup2\n        /* \"#utility.yul\":5198:5220   */\n      lt\n        /* \"#utility.yul\":5177:5195   */\n      0xffffffffffffffff\n        /* \"#utility.yul\":5165:5175   */\n      dup3\n        /* \"#utility.yul\":5162:5196   */\n      gt\n        /* \"#utility.yul\":5159:5221   */\n      or\n        /* \"#utility.yul\":5156:5244   */\n      iszero\n      tag_118\n      jumpi\n        /* \"#utility.yul\":5224:5242   */\n      tag_119\n      tag_54\n      jump\t// in\n    tag_119:\n        /* \"#utility.yul\":5156:5244   */\n    tag_118:\n        /* \"#utility.yul\":5264:5274   */\n      dup1\n        /* \"#utility.yul\":5260:5262   */\n      0x40\n        /* \"#utility.yul\":5253:5275   */\n      mstore\n        /* \"#utility.yul\":5043:5281   */\n      pop\n        /* \"#utility.yul\":5000:5281   */\n      pop\n      pop\n      jump\t// out\n        /* \"#utility.yul\":5287:5416   */\n    tag_56:\n        /* \"#utility.yul\":5321:5327   */\n      0x00\n        /* \"#utility.yul\":5348:5368   */\n      tag_121\n      tag_32\n      jump\t// in\n    tag_121:\n        /* \"#utility.yul\":5338:5368   */\n      swap1\n      pop\n        /* \"#utility.yul\":5377:5410   */\n      tag_122\n        /* \"#utility.yul\":5405:5409   */\n      dup3\n        /* \"#utility.yul\":5397:5403   */\n      dup3\n        /* \"#utility.yul\":5377:5410   */\n      tag_55\n      jump\t// in\n    tag_122:\n        /* \"#utility.yul\":5287:5416   */\n      swap2\n      swap1\n      pop\n      jump\t// out\n        /* \"#utility.yul\":5422:5730   */\n    tag_57:\n        /* \"#utility.yul\":5484:5488   */\n      0x00\n        /* \"#utility.yul\":5574:5592   */\n      0xffffffffffffffff\n        /* \"#utility.yul\":5566:5572   */\n      dup3\n        /* \"#utility.yul\":5563:5593   */\n      gt\n        /* \"#utility.yul\":5560:5616   */\n      iszero\n      tag_124\n      jumpi\n        /* \"#utility.yul\":5596:5614   */\n      tag_125\n      tag_54\n      jump\t// in\n    tag_125:\n        /* \"#utility.yul\":5560:5616   */\n    tag_124:\n        /* \"#utility.yul\":5634:5663   */\n      tag_126\n        /* \"#utility.yul\":5656:5662   */\n      dup3\n        /* \"#utility.yul\":5634:5663   */\n      tag_53\n      jump\t// in\n    tag_126:\n        /* \"#utility.yul\":5626:5663   */\n      swap1\n      pop\n        /* \"#utility.yul\":5718:5722   */\n      0x20\n        /* \"#utility.yul\":5712:5716   */\n      dup2\n        /* \"#utility.yul\":5708:5723   */\n      add\n        /* \"#utility.yul\":5700:5723   */\n      swap1\n      pop\n        /* \"#utility.yul\":5422:5730   */\n      swap2\n      swap1\n      pop\n      jump\t// out\n        /* \"#utility.yul\":5736:5882   */\n    tag_58:\n        /* \"#utility.yul\":5833:5839   */\n      dup3\n        /* \"#utility.yul\":5828:5831   */\n      dup2\n        /* \"#utility.yul\":5823:5826   */\n      dup4\n        /* \"#utility.yul\":5810:5840   */\n      calldatacopy\n        /* \"#utility.yul\":5874:5875   */\n      0x00\n        /* \"#utility.yul\":5865:5871   */\n      dup4\n        /* \"#utility.yul\":5860:5863   */\n      dup4\n        /* \"#utility.yul\":5856:5872   */\n      add\n        /* \"#utility.yul\":5849:5876   */\n      mstore\n        /* \"#utility.yul\":5736:5882   */\n      pop\n      pop\n      pop\n      jump\t// out\n        /* \"#utility.yul\":5888:6313   */\n    tag_59:\n        /* \"#utility.yul\":5966:5971   */\n      0x00\n        /* \"#utility.yul\":5991:6057   */\n      tag_129\n        /* \"#utility.yul\":6007:6056   */\n      tag_130\n        /* \"#utility.yul\":6049:6055   */\n      dup5\n        /* \"#utility.yul\":6007:6056   */\n      tag_57\n      jump\t// in\n    tag_130:\n        /* \"#utility.yul\":5991:6057   */\n      tag_56\n      jump\t// in\n    tag_129:\n        /* \"#utility.yul\":5982:6057   */\n      swap1\n      pop\n        /* \"#utility.yul\":6080:6086   */\n      dup3\n        /* \"#utility.yul\":6073:6078   */\n      dup2\n        /* \"#utility.yul\":6066:6087   */\n      mstore\n        /* \"#utility.yul\":6118:6122   */\n      0x20\n        /* \"#utility.yul\":6111:6116   */\n      dup2\n        /* \"#utility.yul\":6107:6123   */\n      add\n        /* \"#utility.yul\":6156:6159   */\n      dup5\n        /* \"#utility.yul\":6147:6153   */\n      dup5\n        /* \"#utility.yul\":6142:6145   */\n      dup5\n        /* \"#utility.yul\":6138:6154   */\n      add\n        /* \"#utility.yul\":6135:6160   */\n      gt\n        /* \"#utility.yul\":6132:6244   */\n      iszero\n      tag_131\n      jumpi\n        /* \"#utility.yul\":6163:6242   */\n      tag_132\n      tag_52\n      jump\t// in\n    tag_132:\n        /* \"#utility.yul\":6132:6244   */\n    tag_131:\n        /* \"#utility.yul\":6253:6307   */\n      tag_133\n        /* \"#utility.yul\":6300:6306   */\n      dup5\n        /* \"#utility.yul\":6295:6298   */\n      dup3\n        /* \"#utility.yul\":6290:6293   */\n      dup6\n        /* \"#utility.yul\":6253:6307   */\n      tag_58\n      jump\t// in\n    tag_133:\n        /* \"#utility.yul\":5972:6313   */\n      pop\n        /* \"#utility.yul\":5888:6313   */\n      swap4\n      swap3\n      pop\n      pop\n      pop\n      jump\t// out\n        /* \"#utility.yul\":6333:6673   */\n    tag_60:\n        /* \"#utility.yul\":6389:6394   */\n      0x00\n        /* \"#utility.yul\":6438:6441   */\n      dup3\n        /* \"#utility.yul\":6431:6435   */\n      0x1f\n        /* \"#utility.yul\":6423:6429   */\n      dup4\n        /* \"#utility.yul\":6419:6436   */\n      add\n        /* \"#utility.yul\":6415:6442   */\n      slt\n        /* \"#utility.yul\":6405:6527   */\n      tag_135\n      jumpi\n        /* \"#utility.yul\":6446:6525   */\n      tag_136\n      tag_51\n      jump\t// in\n    tag_136:\n        /* \"#utility.yul\":6405:6527   */\n    tag_135:\n        /* \"#utility.yul\":6563:6569   */\n      dup2\n        /* \"#utility.yul\":6550:6570   */\n      calldataload\n        /* \"#utility.yul\":6588:6667   */\n      tag_137\n        /* \"#utility.yul\":6663:6666   */\n      dup5\n        /* \"#utility.yul\":6655:6661   */\n      dup3\n        /* \"#utility.yul\":6648:6652   */\n      0x20\n        /* \"#utility.yul\":6640:6646   */\n      dup7\n        /* \"#utility.yul\":6636:6653   */\n      add\n        /* \"#utility.yul\":6588:6667   */\n      tag_59\n      jump\t// in\n    tag_137:\n        /* \"#utility.yul\":6579:6667   */\n      swap2\n      pop\n        /* \"#utility.yul\":6395:6673   */\n      pop\n        /* \"#utility.yul\":6333:6673   */\n      swap3\n      swap2\n      pop\n      pop\n      jump\t// out\n        /* \"#utility.yul\":6679:7188   */\n    tag_18:\n        /* \"#utility.yul\":6748:6754   */\n      0x00\n        /* \"#utility.yul\":6797:6799   */\n      0x20\n        /* \"#utility.yul\":6785:6794   */\n      dup3\n        /* \"#utility.yul\":6776:6783   */\n      dup5\n        /* \"#utility.yul\":6772:6795   */\n      sub\n        /* \"#utility.yul\":6768:6800   */\n      slt\n        /* \"#utility.yul\":6765:6884   */\n      iszero\n      tag_139\n      jumpi\n        /* \"#utility.yul\":6803:6882   */\n      tag_140\n      tag_33\n      jump\t// in\n    tag_140:\n        /* \"#utility.yul\":6765:6884   */\n    tag_139:\n        /* \"#utility.yul\":6951:6952   */\n      0x00\n        /* \"#utility.yul\":6940:6949   */\n      dup3\n        /* \"#utility.yul\":6936:6953   */\n      add\n        /* \"#utility.yul\":6923:6954   */\n      calldataload\n        /* \"#utility.yul\":6981:6999   */\n      0xffffffffffffffff\n        /* \"#utility.yul\":6973:6979   */\n      dup2\n        /* \"#utility.yul\":6970:7000   */\n      gt\n        /* \"#utility.yul\":6967:7084   */\n      iszero\n      tag_141\n      jumpi\n        /* \"#utility.yul\":7003:7082   */\n      tag_142\n      tag_34\n      jump\t// in\n    tag_142:\n        /* \"#utility.yul\":6967:7084   */\n    tag_141:\n        /* \"#utility.yul\":7108:7171   */\n      tag_143\n        /* \"#utility.yul\":7163:7170   */\n      dup5\n        /* \"#utility.yul\":7154:7160   */\n      dup3\n        /* \"#utility.yul\":7143:7152   */\n      dup6\n        /* \"#utility.yul\":7139:7161   */\n      add\n        /* \"#utility.yul\":7108:7171   */\n      tag_60\n      jump\t// in\n    tag_143:\n        /* \"#utility.yul\":7098:7171   */\n      swap2\n      pop\n        /* \"#utility.yul\":6894:7181   */\n      pop\n        /* \"#utility.yul\":6679:7188   */\n      swap3\n      swap2\n      pop\n      pop\n      jump\t// out\n        /* \"#utility.yul\":7194:7293   */\n    tag_61:\n        /* \"#utility.yul\":7246:7252   */\n      0x00\n        /* \"#utility.yul\":7280:7285   */\n      dup2\n        /* \"#utility.yul\":7274:7286   */\n      mload\n        /* \"#utility.yul\":7264:7286   */\n      swap1\n      pop\n        /* \"#utility.yul\":7194:7293   */\n      swap2\n      swap1\n      pop\n      jump\t// out\n        /* \"#utility.yul\":7299:7468   */\n    tag_62:\n        /* \"#utility.yul\":7383:7394   */\n      0x00\n        /* \"#utility.yul\":7417:7423   */\n      dup3\n        /* \"#utility.yul\":7412:7415   */\n      dup3\n        /* \"#utility.yul\":7405:7424   */\n      mstore\n        /* \"#utility.yul\":7457:7461   */\n      0x20\n        /* \"#utility.yul\":7452:7455   */\n      dup3\n        /* \"#utility.yul\":7448:7462   */\n      add\n        /* \"#utility.yul\":7433:7462   */\n      swap1\n      pop\n        /* \"#utility.yul\":7299:7468   */\n      swap3\n      swap2\n      pop\n      pop\n      jump\t// out\n        /* \"#utility.yul\":7474:7720   */\n    tag_63:\n        /* \"#utility.yul\":7555:7556   */\n      0x00\n        /* \"#utility.yul\":7565:7678   */\n    tag_147:\n        /* \"#utility.yul\":7579:7585   */\n      dup4\n        /* \"#utility.yul\":7576:7577   */\n      dup2\n        /* \"#utility.yul\":7573:7586   */\n      lt\n        /* \"#utility.yul\":7565:7678   */\n      iszero\n      tag_149\n      jumpi\n        /* \"#utility.yul\":7664:7665   */\n      dup1\n        /* \"#utility.yul\":7659:7662   */\n      dup3\n        /* \"#utility.yul\":7655:7666   */\n      add\n        /* \"#utility.yul\":7649:7667   */\n      mload\n        /* \"#utility.yul\":7645:7646   */\n      dup2\n        /* \"#utility.yul\":7640:7643   */\n      dup5\n        /* \"#utility.yul\":7636:7647   */\n      add\n        /* \"#utility.yul\":7629:7668   */\n      mstore\n        /* \"#utility.yul\":7601:7603   */\n      0x20\n        /* \"#utility.yul\":7598:7599   */\n      dup2\n        /* \"#utility.yul\":7594:7604   */\n      add\n        /* \"#utility.yul\":7589:7604   */\n      swap1\n      pop\n        /* \"#utility.yul\":7565:7678   */\n      jump(tag_147)\n    tag_149:\n        /* \"#utility.yul\":7712:7713   */\n      0x00\n        /* \"#utility.yul\":7703:7709   */\n      dup5\n        /* \"#utility.yul\":7698:7701   */\n      dup5\n        /* \"#utility.yul\":7694:7710   */\n      add\n        /* \"#utility.yul\":7687:7714   */\n      mstore\n        /* \"#utility.yul\":7536:7720   */\n      pop\n        /* \"#utility.yul\":7474:7720   */\n      pop\n      pop\n      pop\n      jump\t// out\n        /* \"#utility.yul\":7726:8103   */\n    tag_64:\n        /* \"#utility.yul\":7814:7817   */\n      0x00\n        /* \"#utility.yul\":7842:7881   */\n      tag_151\n        /* \"#utility.yul\":7875:7880   */\n      dup3\n        /* \"#utility.yul\":7842:7881   */\n      tag_61\n      jump\t// in\n    tag_151:\n        /* \"#utility.yul\":7897:7968   */\n      tag_152\n        /* \"#utility.yul\":7961:7967   */\n      dup2\n        /* \"#utility.yul\":7956:7959   */\n      dup6\n        /* \"#utility.yul\":7897:7968   */\n      tag_62\n      jump\t// in\n    tag_152:\n        /* \"#utility.yul\":7890:7968   */\n      swap4\n      pop\n        /* \"#utility.yul\":7977:8042   */\n      tag_153\n        /* \"#utility.yul\":8035:8041   */\n      dup2\n        /* \"#utility.yul\":8030:8033   */\n      dup6\n        /* \"#utility.yul\":8023:8027   */\n      0x20\n        /* \"#utility.yul\":8016:8021   */\n      dup7\n        /* \"#utility.yul\":8012:8028   */\n      add\n        /* \"#utility.yul\":7977:8042   */\n      tag_63\n      jump\t// in\n    tag_153:\n        /* \"#utility.yul\":8067:8096   */\n      tag_154\n        /* \"#utility.yul\":8089:8095   */\n      dup2\n        /* \"#utility.yul\":8067:8096   */\n      tag_53\n      jump\t// in\n    tag_154:\n        /* \"#utility.yul\":8062:8065   */\n      dup5\n        /* \"#utility.yul\":8058:8097   */\n      add\n        /* \"#utility.yul\":8051:8097   */\n      swap2\n      pop\n        /* \"#utility.yul\":7818:8103   */\n      pop\n        /* \"#utility.yul\":7726:8103   */\n      swap3\n      swap2\n      pop\n      pop\n      jump\t// out\n        /* \"#utility.yul\":8109:8422   */\n    tag_29:\n        /* \"#utility.yul\":8222:8226   */\n      0x00\n        /* \"#utility.yul\":8260:8262   */\n      0x20\n        /* \"#utility.yul\":8249:8258   */\n      dup3\n        /* \"#utility.yul\":8245:8263   */\n      add\n        /* \"#utility.yul\":8237:8263   */\n      swap1\n      pop\n        /* \"#utility.yul\":8309:8318   */\n      dup2\n        /* \"#utility.yul\":8303:8307   */\n      dup2\n        /* \"#utility.yul\":8299:8319   */\n      sub\n        /* \"#utility.yul\":8295:8296   */\n      0x00\n        /* \"#utility.yul\":8284:8293   */\n      dup4\n        /* \"#utility.yul\":8280:8297   */\n      add\n        /* \"#utility.yul\":8273:8320   */\n      mstore\n        /* \"#utility.yul\":8337:8415   */\n      tag_156\n        /* \"#utility.yul\":8410:8414   */\n      dup2\n        /* \"#utility.yul\":8401:8407   */\n      dup5\n        /* \"#utility.yul\":8337:8415   */\n      tag_64\n      jump\t// in\n    tag_156:\n        /* \"#utility.yul\":8329:8415   */\n      swap1\n      pop\n        /* \"#utility.yul\":8109:8422   */\n      swap3\n      swap2\n      pop\n      pop\n      jump\t// out\n    stop\n\n    sub_0: assembly {\n            /* \"EstatePlanning.sol\":450:3289  contract EstatePlanning { //the contracts block... */\n          mstore(0x40, 0x80)\n            /* \"EstatePlanning.sol\":900:1015  constructor(string memory _trustName) payable {... */\n          mload(0x40)\n          sub(codesize, bytecodeSize)\n          dup1\n          bytecodeSize\n          dup4\n          codecopy\n          dup2\n          dup2\n          add\n          0x40\n          mstore\n          dup2\n          add\n          swap1\n          tag_1\n          swap2\n          swap1\n          tag_2\n          jump\t// in\n        tag_1:\n            /* \"EstatePlanning.sol\":966:976  msg.sender */\n          caller\n            /* \"EstatePlanning.sol\":956:963  trustor */\n          0x01\n          0x00\n            /* \"EstatePlanning.sol\":956:976  trustor = msg.sender */\n          0x0100\n          exp\n          dup2\n          sload\n          dup2\n          0xffffffffffffffffffffffffffffffffffffffff\n          mul\n          not\n          and\n          swap1\n          dup4\n          0xffffffffffffffffffffffffffffffffffffffff\n          and\n          mul\n          or\n          swap1\n          sstore\n          pop\n            /* \"EstatePlanning.sol\":998:1008  _trustName */\n          dup1\n            /* \"EstatePlanning.sol\":986:995  trustName */\n          0x05\n            /* \"EstatePlanning.sol\":986:1008  trustName = _trustName */\n          swap1\n          dup2\n          tag_5\n          swap2\n          swap1\n          tag_6\n          jump\t// in\n        tag_5:\n          pop\n            /* \"EstatePlanning.sol\":900:1015  constructor(string memory _trustName) payable {... */\n          pop\n            /* \"EstatePlanning.sol\":450:3289  contract EstatePlanning { //the contracts block... */\n          jump(tag_7)\n            /* \"#utility.yul\":7:82   */\n        tag_8:\n            /* \"#utility.yul\":40:46   */\n          0x00\n            /* \"#utility.yul\":73:75   */\n          0x40\n            /* \"#utility.yul\":67:76   */\n          mload\n            /* \"#utility.yul\":57:76   */\n          swap1\n          pop\n            /* \"#utility.yul\":7:82   */\n          swap1\n          jump\t// out\n            /* \"#utility.yul\":88:205   */\n        tag_9:\n            /* \"#utility.yul\":197:198   */\n          0x00\n            /* \"#utility.yul\":194:195   */\n          dup1\n            /* \"#utility.yul\":187:199   */\n          revert\n            /* \"#utility.yul\":211:328   */\n        tag_10:\n            /* \"#utility.yul\":320:321   */\n          0x00\n            /* \"#utility.yul\":317:318   */\n          dup1\n            /* \"#utility.yul\":310:322   */\n          revert\n            /* \"#utility.yul\":334:451   */\n        tag_11:\n            /* \"#utility.yul\":443:444   */\n          0x00\n            /* \"#utility.yul\":440:441   */\n          dup1\n            /* \"#utility.yul\":433:445   */\n          revert\n            /* \"#utility.yul\":457:574   */\n        tag_12:\n            /* \"#utility.yul\":566:567   */\n          0x00\n            /* \"#utility.yul\":563:564   */\n          dup1\n            /* \"#utility.yul\":556:568   */\n          revert\n            /* \"#utility.yul\":580:682   */\n        tag_13:\n            /* \"#utility.yul\":621:627   */\n          0x00\n            /* \"#utility.yul\":672:674   */\n          0x1f\n            /* \"#utility.yul\":668:675   */\n          not\n            /* \"#utility.yul\":663:665   */\n          0x1f\n            /* \"#utility.yul\":656:661   */\n          dup4\n            /* \"#utility.yul\":652:666   */\n          add\n            /* \"#utility.yul\":648:676   */\n          and\n            /* \"#utility.yul\":638:676   */\n          swap1\n          pop\n            /* \"#utility.yul\":580:682   */\n          swap2\n          swap1\n          pop\n          jump\t// out\n            /* \"#utility.yul\":688:868   */\n        tag_14:\n            /* \"#utility.yul\":736:813   */\n          0x4e487b7100000000000000000000000000000000000000000000000000000000\n            /* \"#utility.yul\":733:734   */\n          0x00\n            /* \"#utility.yul\":726:814   */\n          mstore\n            /* \"#utility.yul\":833:837   */\n          0x41\n            /* \"#utility.yul\":830:831   */\n          0x04\n            /* \"#utility.yul\":823:838   */\n          mstore\n            /* \"#utility.yul\":857:861   */\n          0x24\n            /* \"#utility.yul\":854:855   */\n          0x00\n            /* \"#utility.yul\":847:862   */\n          revert\n            /* \"#utility.yul\":874:1155   */\n        tag_15:\n            /* \"#utility.yul\":957:984   */\n          tag_49\n            /* \"#utility.yul\":979:983   */\n          dup3\n            /* \"#utility.yul\":957:984   */\n          tag_13\n          jump\t// in\n        tag_49:\n            /* \"#utility.yul\":949:955   */\n          dup2\n            /* \"#utility.yul\":945:985   */\n          add\n            /* \"#utility.yul\":1087:1093   */\n          dup2\n            /* \"#utility.yul\":1075:1085   */\n          dup2\n            /* \"#utility.yul\":1072:1094   */\n          lt\n            /* \"#utility.yul\":1051:1069   */\n          0xffffffffffffffff\n            /* \"#utility.yul\":1039:1049   */\n          dup3\n            /* \"#utility.yul\":1036:1070   */\n          gt\n            /* \"#utility.yul\":1033:1095   */\n          or\n            /* \"#utility.yul\":1030:1118   */\n          iszero\n          tag_50\n          jumpi\n            /* \"#utility.yul\":1098:1116   */\n          tag_51\n          tag_14\n          jump\t// in\n        tag_51:\n            /* \"#utility.yul\":1030:1118   */\n        tag_50:\n            /* \"#utility.yul\":1138:1148   */\n          dup1\n            /* \"#utility.yul\":1134:1136   */\n          0x40\n            /* \"#utility.yul\":1127:1149   */\n          mstore\n            /* \"#utility.yul\":917:1155   */\n          pop\n            /* \"#utility.yul\":874:1155   */\n          pop\n          pop\n          jump\t// out\n            /* \"#utility.yul\":1161:1290   */\n        tag_16:\n            /* \"#utility.yul\":1195:1201   */\n          0x00\n            /* \"#utility.yul\":1222:1242   */\n          tag_53\n          tag_8\n          jump\t// in\n        tag_53:\n            /* \"#utility.yul\":1212:1242   */\n          swap1\n          pop\n            /* \"#utility.yul\":1251:1284   */\n          tag_54\n            /* \"#utility.yul\":1279:1283   */\n          dup3\n            /* \"#utility.yul\":1271:1277   */\n          dup3\n            /* \"#utility.yul\":1251:1284   */\n          tag_15\n          jump\t// in\n        tag_54:\n            /* \"#utility.yul\":1161:1290   */\n          swap2\n          swap1\n          pop\n          jump\t// out\n            /* \"#utility.yul\":1296:1604   */\n        tag_17:\n            /* \"#utility.yul\":1358:1362   */\n          0x00\n            /* \"#utility.yul\":1448:1466   */\n          0xffffffffffffffff\n            /* \"#utility.yul\":1440:1446   */\n          dup3\n            /* \"#utility.yul\":1437:1467   */\n          gt\n            /* \"#utility.yul\":1434:1490   */\n          iszero\n          tag_56\n          jumpi\n            /* \"#utility.yul\":1470:1488   */\n          tag_57\n          tag_14\n          jump\t// in\n        tag_57:\n            /* \"#utility.yul\":1434:1490   */\n        tag_56:\n            /* \"#utility.yul\":1508:1537   */\n          tag_58\n            /* \"#utility.yul\":1530:1536   */\n          dup3\n            /* \"#utility.yul\":1508:1537   */\n          tag_13\n          jump\t// in\n        tag_58:\n            /* \"#utility.yul\":1500:1537   */\n          swap1\n          pop\n            /* \"#utility.yul\":1592:1596   */\n          0x20\n            /* \"#utility.yul\":1586:1590   */\n          dup2\n            /* \"#utility.yul\":1582:1597   */\n          add\n            /* \"#utility.yul\":1574:1597   */\n          swap1\n          pop\n            /* \"#utility.yul\":1296:1604   */\n          swap2\n          swap1\n          pop\n          jump\t// out\n            /* \"#utility.yul\":1610:1856   */\n        tag_18:\n            /* \"#utility.yul\":1691:1692   */\n          0x00\n            /* \"#utility.yul\":1701:1814   */\n        tag_60:\n            /* \"#utility.yul\":1715:1721   */\n          dup4\n            /* \"#utility.yul\":1712:1713   */\n          dup2\n            /* \"#utility.yul\":1709:1722   */\n          lt\n            /* \"#utility.yul\":1701:1814   */\n          iszero\n          tag_62\n          jumpi\n            /* \"#utility.yul\":1800:1801   */\n          dup1\n            /* \"#utility.yul\":1795:1798   */\n          dup3\n            /* \"#utility.yul\":1791:1802   */\n          add\n            /* \"#utility.yul\":1785:1803   */\n          mload\n            /* \"#utility.yul\":1781:1782   */\n          dup2\n            /* \"#utility.yul\":1776:1779   */\n          dup5\n            /* \"#utility.yul\":1772:1783   */\n          add\n            /* \"#utility.yul\":1765:1804   */\n          mstore\n            /* \"#utility.yul\":1737:1739   */\n          0x20\n            /* \"#utility.yul\":1734:1735   */\n          dup2\n            /* \"#utility.yul\":1730:1740   */\n          add\n            /* \"#utility.yul\":1725:1740   */\n          swap1\n          pop\n            /* \"#utility.yul\":1701:1814   */\n          jump(tag_60)\n        tag_62:\n            /* \"#utility.yul\":1848:1849   */\n          0x00\n            /* \"#utility.yul\":1839:1845   */\n          dup5\n            /* \"#utility.yul\":1834:1837   */\n          dup5\n            /* \"#utility.yul\":1830:1846   */\n          add\n            /* \"#utility.yul\":1823:1850   */\n          mstore\n            /* \"#utility.yul\":1672:1856   */\n          pop\n            /* \"#utility.yul\":1610:1856   */\n          pop\n          pop\n          pop\n          jump\t// out\n            /* \"#utility.yul\":1862:2296   */\n        tag_19:\n            /* \"#utility.yul\":1951:1956   */\n          0x00\n            /* \"#utility.yul\":1976:2042   */\n          tag_64\n            /* \"#utility.yul\":1992:2041   */\n          tag_65\n            /* \"#utility.yul\":2034:2040   */\n          dup5\n            /* \"#utility.yul\":1992:2041   */\n          tag_17\n          jump\t// in\n        tag_65:\n            /* \"#utility.yul\":1976:2042   */\n          tag_16\n          jump\t// in\n        tag_64:\n            /* \"#utility.yul\":1967:2042   */\n          swap1\n          pop\n            /* \"#utility.yul\":2065:2071   */\n          dup3\n            /* \"#utility.yul\":2058:2063   */\n          dup2\n            /* \"#utility.yul\":2051:2072   */\n          mstore\n            /* \"#utility.yul\":2103:2107   */\n          0x20\n            /* \"#utility.yul\":2096:2101   */\n          dup2\n            /* \"#utility.yul\":2092:2108   */\n          add\n            /* \"#utility.yul\":2141:2144   */\n          dup5\n            /* \"#utility.yul\":2132:2138   */\n          dup5\n            /* \"#utility.yul\":2127:2130   */\n          dup5\n            /* \"#utility.yul\":2123:2139   */\n          add\n            /* \"#utility.yul\":2120:2145   */\n          gt\n            /* \"#utility.yul\":2117:2229   */\n          iszero\n          tag_66\n          jumpi\n            /* \"#utility.yul\":2148:2227   */\n          tag_67\n          tag_12\n          jump\t// in\n        tag_67:\n            /* \"#utility.yul\":2117:2229   */\n        tag_66:\n            /* \"#utility.yul\":2238:2290   */\n          tag_68\n            /* \"#utility.yul\":2283:2289   */\n          dup5\n            /* \"#utility.yul\":2278:2281   */\n          dup3\n            /* \"#utility.yul\":2273:2276   */\n          dup6\n            /* \"#utility.yul\":2238:2290   */\n          tag_18\n          jump\t// in\n        tag_68:\n            /* \"#utility.yul\":1957:2296   */\n          pop\n            /* \"#utility.yul\":1862:2296   */\n          swap4\n          swap3\n          pop\n          pop\n          pop\n          jump\t// out\n            /* \"#utility.yul\":2316:2671   */\n        tag_20:\n            /* \"#utility.yul\":2383:2388   */\n          0x00\n            /* \"#utility.yul\":2432:2435   */\n          dup3\n            /* \"#utility.yul\":2425:2429   */\n          0x1f\n            /* \"#utility.yul\":2417:2423   */\n          dup4\n            /* \"#utility.yul\":2413:2430   */\n          add\n            /* \"#utility.yul\":2409:2436   */\n          slt\n            /* \"#utility.yul\":2399:2521   */\n          tag_70\n          jumpi\n            /* \"#utility.yul\":2440:2519   */\n          tag_71\n          tag_11\n          jump\t// in\n        tag_71:\n            /* \"#utility.yul\":2399:2521   */\n        tag_70:\n            /* \"#utility.yul\":2550:2556   */\n          dup2\n            /* \"#utility.yul\":2544:2557   */\n          mload\n            /* \"#utility.yul\":2575:2665   */\n          tag_72\n            /* \"#utility.yul\":2661:2664   */\n          dup5\n            /* \"#utility.yul\":2653:2659   */\n          dup3\n            /* \"#utility.yul\":2646:2650   */\n          0x20\n            /* \"#utility.yul\":2638:2644   */\n          dup7\n            /* \"#utility.yul\":2634:2651   */\n          add\n            /* \"#utility.yul\":2575:2665   */\n          tag_19\n          jump\t// in\n        tag_72:\n            /* \"#utility.yul\":2566:2665   */\n          swap2\n          pop\n            /* \"#utility.yul\":2389:2671   */\n          pop\n            /* \"#utility.yul\":2316:2671   */\n          swap3\n          swap2\n          pop\n          pop\n          jump\t// out\n            /* \"#utility.yul\":2677:3201   */\n        tag_2:\n            /* \"#utility.yul\":2757:2763   */\n          0x00\n            /* \"#utility.yul\":2806:2808   */\n          0x20\n            /* \"#utility.yul\":2794:2803   */\n          dup3\n            /* \"#utility.yul\":2785:2792   */\n          dup5\n            /* \"#utility.yul\":2781:2804   */\n          sub\n            /* \"#utility.yul\":2777:2809   */\n          slt\n            /* \"#utility.yul\":2774:2893   */\n          iszero\n          tag_74\n          jumpi\n            /* \"#utility.yul\":2812:2891   */\n          tag_75\n          tag_9\n          jump\t// in\n        tag_75:\n            /* \"#utility.yul\":2774:2893   */\n        tag_74:\n            /* \"#utility.yul\":2953:2954   */\n          0x00\n            /* \"#utility.yul\":2942:2951   */\n          dup3\n            /* \"#utility.yul\":2938:2955   */\n          add\n            /* \"#utility.yul\":2932:2956   */\n          mload\n            /* \"#utility.yul\":2983:3001   */\n          0xffffffffffffffff\n            /* \"#utility.yul\":2975:2981   */\n          dup2\n            /* \"#utility.yul\":2972:3002   */\n          gt\n            /* \"#utility.yul\":2969:3086   */\n          iszero\n          tag_76\n          jumpi\n            /* \"#utility.yul\":3005:3084   */\n          tag_77\n          tag_10\n          jump\t// in\n        tag_77:\n            /* \"#utility.yul\":2969:3086   */\n        tag_76:\n            /* \"#utility.yul\":3110:3184   */\n          tag_78\n            /* \"#utility.yul\":3176:3183   */\n          dup5\n            /* \"#utility.yul\":3167:3173   */\n          dup3\n            /* \"#utility.yul\":3156:3165   */\n          dup6\n            /* \"#utility.yul\":3152:3174   */\n          add\n            /* \"#utility.yul\":3110:3184   */\n          tag_20\n          jump\t// in\n        tag_78:\n            /* \"#utility.yul\":3100:3184   */\n          swap2\n          pop\n            /* \"#utility.yul\":2903:3194   */\n          pop\n            /* \"#utility.yul\":2677:3201   */\n          swap3\n          swap2\n          pop\n          pop\n          jump\t// out\n            /* \"#utility.yul\":3207:3306   */\n        tag_21:\n            /* \"#utility.yul\":3259:3265   */\n          0x00\n            /* \"#utility.yul\":3293:3298   */\n          dup2\n            /* \"#utility.yul\":3287:3299   */\n          mload\n            /* \"#utility.yul\":3277:3299   */\n          swap1\n          pop\n            /* \"#utility.yul\":3207:3306   */\n          swap2\n          swap1\n          pop\n          jump\t// out\n            /* \"#utility.yul\":3312:3492   */\n        tag_22:\n            /* \"#utility.yul\":3360:3437   */\n          0x4e487b7100000000000000000000000000000000000000000000000000000000\n            /* \"#utility.yul\":3357:3358   */\n          0x00\n            /* \"#utility.yul\":3350:3438   */\n          mstore\n            /* \"#utility.yul\":3457:3461   */\n          0x22\n            /* \"#utility.yul\":3454:3455   */\n          0x04\n            /* \"#utility.yul\":3447:3462   */\n          mstore\n            /* \"#utility.yul\":3481:3485   */\n          0x24\n            /* \"#utility.yul\":3478:3479   */\n          0x00\n            /* \"#utility.yul\":3471:3486   */\n          revert\n            /* \"#utility.yul\":3498:3818   */\n        tag_23:\n            /* \"#utility.yul\":3542:3548   */\n          0x00\n            /* \"#utility.yul\":3579:3580   */\n          0x02\n            /* \"#utility.yul\":3573:3577   */\n          dup3\n            /* \"#utility.yul\":3569:3581   */\n          div\n            /* \"#utility.yul\":3559:3581   */\n          swap1\n          pop\n            /* \"#utility.yul\":3626:3627   */\n          0x01\n            /* \"#utility.yul\":3620:3624   */\n          dup3\n            /* \"#utility.yul\":3616:3628   */\n          and\n            /* \"#utility.yul\":3647:3665   */\n          dup1\n            /* \"#utility.yul\":3637:3718   */\n          tag_82\n          jumpi\n            /* \"#utility.yul\":3703:3707   */\n          0x7f\n            /* \"#utility.yul\":3695:3701   */\n          dup3\n            /* \"#utility.yul\":3691:3708   */\n          and\n            /* \"#utility.yul\":3681:3708   */\n          swap2\n          pop\n            /* \"#utility.yul\":3637:3718   */\n        tag_82:\n            /* \"#utility.yul\":3765:3767   */\n          0x20\n            /* \"#utility.yul\":3757:3763   */\n          dup3\n            /* \"#utility.yul\":3754:3768   */\n          lt\n            /* \"#utility.yul\":3734:3752   */\n          dup2\n            /* \"#utility.yul\":3731:3769   */\n          sub\n            /* \"#utility.yul\":3728:3812   */\n          tag_83\n          jumpi\n            /* \"#utility.yul\":3784:3802   */\n          tag_84\n          tag_22\n          jump\t// in\n        tag_84:\n            /* \"#utility.yul\":3728:3812   */\n        tag_83:\n            /* \"#utility.yul\":3549:3818   */\n          pop\n            /* \"#utility.yul\":3498:3818   */\n          swap2\n          swap1\n          pop\n          jump\t// out\n            /* \"#utility.yul\":3824:3965   */\n        tag_24:\n            /* \"#utility.yul\":3873:3877   */\n          0x00\n            /* \"#utility.yul\":3896:3899   */\n          dup2\n            /* \"#utility.yul\":3888:3899   */\n          swap1\n          pop\n            /* \"#utility.yul\":3919:3922   */\n          dup2\n            /* \"#utility.yul\":3916:3917   */\n          0x00\n            /* \"#utility.yul\":3909:3923   */\n          mstore\n            /* \"#utility.yul\":3953:3957   */\n          0x20\n            /* \"#utility.yul\":3950:3951   */\n          0x00\n            /* \"#utility.yul\":3940:3958   */\n          keccak256\n            /* \"#utility.yul\":3932:3958   */\n          swap1\n          pop\n            /* \"#utility.yul\":3824:3965   */\n          swap2\n          swap1\n          pop\n          jump\t// out\n            /* \"#utility.yul\":3971:4064   */\n        tag_25:\n            /* \"#utility.yul\":4008:4014   */\n          0x00\n            /* \"#utility.yul\":4055:4057   */\n          0x20\n            /* \"#utility.yul\":4050:4052   */\n          0x1f\n            /* \"#utility.yul\":4043:4048   */\n          dup4\n            /* \"#utility.yul\":4039:4053   */\n          add\n            /* \"#utility.yul\":4035:4058   */\n          div\n            /* \"#utility.yul\":4025:4058   */\n          swap1\n          pop\n            /* \"#utility.yul\":3971:4064   */\n          swap2\n          swap1\n          pop\n          jump\t// out\n            /* \"#utility.yul\":4070:4177   */\n        tag_26:\n            /* \"#utility.yul\":4114:4122   */\n          0x00\n            /* \"#utility.yul\":4164:4169   */\n          dup3\n            /* \"#utility.yul\":4158:4162   */\n          dup3\n            /* \"#utility.yul\":4154:4170   */\n          shl\n            /* \"#utility.yul\":4133:4170   */\n          swap1\n          pop\n            /* \"#utility.yul\":4070:4177   */\n          swap3\n          swap2\n          pop\n          pop\n          jump\t// out\n            /* \"#utility.yul\":4183:4576   */\n        tag_27:\n            /* \"#utility.yul\":4252:4258   */\n          0x00\n            /* \"#utility.yul\":4302:4303   */\n          0x08\n            /* \"#utility.yul\":4290:4300   */\n          dup4\n            /* \"#utility.yul\":4286:4304   */\n          mul\n            /* \"#utility.yul\":4325:4422   */\n          tag_89\n            /* \"#utility.yul\":4355:4421   */\n          0xffffffffffffffffffffffffffffffffffffffffffffffffffffffffffffffff\n            /* \"#utility.yul\":4344:4353   */\n          dup3\n            /* \"#utility.yul\":4325:4422   */\n          tag_26\n          jump\t// in\n        tag_89:\n            /* \"#utility.yul\":4443:4482   */\n          tag_90\n            /* \"#utility.yul\":4473:4481   */\n          dup7\n            /* \"#utility.yul\":4462:4471   */\n          dup4\n            /* \"#utility.yul\":4443:4482   */\n          tag_26\n          jump\t// in\n        tag_90:\n            /* \"#utility.yul\":4431:4482   */\n          swap6\n          pop\n            /* \"#utility.yul\":4515:4519   */\n          dup1\n            /* \"#utility.yul\":4511:4520   */\n          not\n            /* \"#utility.yul\":4504:4509   */\n          dup5\n            /* \"#utility.yul\":4500:4521   */\n          and\n            /* \"#utility.yul\":4491:4521   */\n          swap4\n          pop\n            /* \"#utility.yul\":4564:4568   */\n          dup1\n            /* \"#utility.yul\":4554:4562   */\n          dup7\n            /* \"#utility.yul\":4550:4569   */\n          and\n            /* \"#utility.yul\":4543:4548   */\n          dup5\n            /* \"#utility.yul\":4540:4570   */\n          or\n            /* \"#utility.yul\":4530:4570   */\n          swap3\n          pop\n            /* \"#utility.yul\":4259:4576   */\n          pop\n          pop\n            /* \"#utility.yul\":4183:4576   */\n          swap4\n          swap3\n          pop\n          pop\n          pop\n          jump\t// out\n            /* \"#utility.yul\":4582:4659   */\n        tag_28:\n            /* \"#utility.yul\":4619:4626   */\n          0x00\n            /* \"#utility.yul\":4648:4653   */\n          dup2\n            /* \"#utility.yul\":4637:4653   */\n          swap1\n          pop\n            /* \"#utility.yul\":4582:4659   */\n          swap2\n          swap1\n          pop\n          jump\t// out\n            /* \"#utility.yul\":4665:4725   */\n        tag_29:\n            /* \"#utility.yul\":4693:4696   */\n          0x00\n            /* \"#utility.yul\":4714:4719   */\n          dup2\n            /* \"#utility.yul\":4707:4719   */\n          swap1\n          pop\n            /* \"#utility.yul\":4665:4725   */\n          swap2\n          swap1\n          pop\n          jump\t// out\n            /* \"#utility.yul\":4731:4873   */\n        tag_30:\n            /* \"#utility.yul\":4781:4790   */\n          0x00\n            /* \"#utility.yul\":4814:4867   */\n          tag_94\n            /* \"#utility.yul\":4832:4866   */\n          tag_95\n            /* \"#utility.yul\":4841:4865   */\n          tag_96\n            /* \"#utility.yul\":4859:4864   */\n          dup5\n            /* \"#utility.yul\":4841:4865   */\n          tag_28\n          jump\t// in\n        tag_96:\n            /* \"#utility.yul\":4832:4866   */\n          tag_29\n          jump\t// in\n        tag_95:\n            /* \"#utility.yul\":4814:4867   */\n          tag_28\n          jump\t// in\n        tag_94:\n            /* \"#utility.yul\":4801:4867   */\n          swap1\n          pop\n            /* \"#utility.yul\":4731:4873   */\n          swap2\n          swap1\n          pop\n          jump\t// out\n            /* \"#utility.yul\":4879:4954   */\n        tag_31:\n            /* \"#utility.yul\":4922:4925   */\n          0x00\n            /* \"#utility.yul\":4943:4948   */\n          dup2\n            /* \"#utility.yul\":4936:4948   */\n          swap1\n          pop\n            /* \"#utility.yul\":4879:4954   */\n          swap2\n          swap1\n          pop\n          jump\t// out\n            /* \"#utility.yul\":4960:5229   */\n        tag_32:\n            /* \"#utility.yul\":5070:5109   */\n          tag_99\n            /* \"#utility.yul\":5101:5108   */\n          dup4\n            /* \"#utility.yul\":5070:5109   */\n          tag_30\n          jump\t// in\n        tag_99:\n            /* \"#utility.yul\":5131:5222   */\n          tag_100\n            /* \"#utility.yul\":5180:5221   */\n          tag_101\n            /* \"#utility.yul\":5204:5220   */\n          dup3\n            /* \"#utility.yul\":5180:5221   */\n          tag_31\n          jump\t// in\n        tag_101:\n            /* \"#utility.yul\":5172:5178   */\n          dup5\n            /* \"#utility.yul\":5165:5169   */\n          dup5\n            /* \"#utility.yul\":5159:5170   */\n          sload\n            /* \"#utility.yul\":5131:5222   */\n          tag_27\n          jump\t// in\n        tag_100:\n            /* \"#utility.yul\":5125:5129   */\n          dup3\n            /* \"#utility.yul\":5118:5223   */\n          sstore\n            /* \"#utility.yul\":5036:5229   */\n          pop\n            /* \"#utility.yul\":4960:5229   */\n          pop\n          pop\n          pop\n          jump\t// out\n            /* \"#utility.yul\":5235:5308   */\n        tag_33:\n            /* \"#utility.yul\":5280:5283   */\n          0x00\n            /* \"#utility.yul\":5235:5308   */\n          swap1\n          jump\t// out\n            /* \"#utility.yul\":5314:5503   */\n        tag_34:\n            /* \"#utility.yul\":5391:5423   */\n          tag_104\n          tag_33\n          jump\t// in\n        tag_104:\n            /* \"#utility.yul\":5432:5497   */\n          tag_105\n            /* \"#utility.yul\":5490:5496   */\n          dup2\n            /* \"#utility.yul\":5482:5488   */\n          dup5\n            /* \"#utility.yul\":5476:5480   */\n          dup5\n            /* \"#utility.yul\":5432:5497   */\n          tag_32\n          jump\t// in\n        tag_105:\n            /* \"#utility.yul\":5367:5503   */\n          pop\n            /* \"#utility.yul\":5314:5503   */\n          pop\n          pop\n          jump\t// out\n            /* \"#utility.yul\":5509:5695   */\n        tag_35:\n            /* \"#utility.yul\":5569:5689   */\n        tag_107:\n            /* \"#utility.yul\":5586:5589   */\n          dup2\n            /* \"#utility.yul\":5579:5584   */\n          dup2\n            /* \"#utility.yul\":5576:5590   */\n          lt\n            /* \"#utility.yul\":5569:5689   */\n          iszero\n          tag_109\n          jumpi\n            /* \"#utility.yul\":5640:5679   */\n          tag_110\n            /* \"#utility.yul\":5677:5678   */\n          0x00\n            /* \"#utility.yul\":5670:5675   */\n          dup3\n            /* \"#utility.yul\":5640:5679   */\n          tag_34\n          jump\t// in\n        tag_110:\n            /* \"#utility.yul\":5613:5614   */\n          0x01\n            /* \"#utility.yul\":5606:5611   */\n          dup2\n            /* \"#utility.yul\":5602:5615   */\n          add\n            /* \"#utility.yul\":5593:5615   */\n          swap1\n          pop\n            /* \"#utility.yul\":5569:5689   */\n          jump(tag_107)\n        tag_109:\n            /* \"#utility.yul\":5509:5695   */\n          pop\n          pop\n          jump\t// out\n            /* \"#utility.yul\":5701:6244   */\n        tag_36:\n            /* \"#utility.yul\":5802:5804   */\n          0x1f\n            /* \"#utility.yul\":5797:5800   */\n          dup3\n            /* \"#utility.yul\":5794:5805   */\n          gt\n            /* \"#utility.yul\":5791:6237   */\n          iszero\n          tag_112\n          jumpi\n            /* \"#utility.yul\":5836:5874   */\n          tag_113\n            /* \"#utility.yul\":5868:5873   */\n          dup2\n            /* \"#utility.yul\":5836:5874   */\n          tag_24\n          jump\t// in\n        tag_113:\n            /* \"#utility.yul\":5920:5949   */\n          tag_114\n            /* \"#utility.yul\":5938:5948   */\n          dup5\n            /* \"#utility.yul\":5920:5949   */\n          tag_25\n          jump\t// in\n        tag_114:\n            /* \"#utility.yul\":5910:5918   */\n          dup2\n            /* \"#utility.yul\":5906:5950   */\n          add\n            /* \"#utility.yul\":6103:6105   */\n          0x20\n            /* \"#utility.yul\":6091:6101   */\n          dup6\n            /* \"#utility.yul\":6088:6106   */\n          lt\n            /* \"#utility.yul\":6085:6134   */\n          iszero\n          tag_115\n          jumpi\n            /* \"#utility.yul\":6124:6132   */\n          dup2\n            /* \"#utility.yul\":6109:6132   */\n          swap1\n          pop\n            /* \"#utility.yul\":6085:6134   */\n        tag_115:\n            /* \"#utility.yul\":6147:6227   */\n          tag_116\n            /* \"#utility.yul\":6203:6225   */\n          tag_117\n            /* \"#utility.yul\":6221:6224   */\n          dup6\n            /* \"#utility.yul\":6203:6225   */\n          tag_25\n          jump\t// in\n        tag_117:\n            /* \"#utility.yul\":6193:6201   */\n          dup4\n            /* \"#utility.yul\":6189:6226   */\n          add\n            /* \"#utility.yul\":6176:6187   */\n          dup3\n            /* \"#utility.yul\":6147:6227   */\n          tag_35\n          jump\t// in\n        tag_116:\n            /* \"#utility.yul\":5806:6237   */\n          pop\n          pop\n            /* \"#utility.yul\":5791:6237   */\n        tag_112:\n            /* \"#utility.yul\":5701:6244   */\n          pop\n          pop\n          pop\n          jump\t// out\n            /* \"#utility.yul\":6250:6367   */\n        tag_37:\n            /* \"#utility.yul\":6304:6312   */\n          0x00\n            /* \"#utility.yul\":6354:6359   */\n          dup3\n            /* \"#utility.yul\":6348:6352   */\n          dup3\n            /* \"#utility.yul\":6344:6360   */\n          shr\n            /* \"#utility.yul\":6323:6360   */\n          swap1\n          pop\n            /* \"#utility.yul\":6250:6367   */\n          swap3\n          swap2\n          pop\n          pop\n          jump\t// out\n            /* \"#utility.yul\":6373:6542   */\n        tag_38:\n            /* \"#utility.yul\":6417:6423   */\n          0x00\n            /* \"#utility.yul\":6450:6501   */\n          tag_120\n            /* \"#utility.yul\":6498:6499   */\n          0x00\n            /* \"#utility.yul\":6494:6500   */\n          not\n            /* \"#utility.yul\":6486:6491   */\n          dup5\n            /* \"#utility.yul\":6483:6484   */\n          0x08\n            /* \"#utility.yul\":6479:6492   */\n          mul\n            /* \"#utility.yul\":6450:6501   */\n          tag_37\n          jump\t// in\n        tag_120:\n            /* \"#utility.yul\":6446:6502   */\n          not\n            /* \"#utility.yul\":6531:6535   */\n          dup1\n            /* \"#utility.yul\":6525:6529   */\n          dup4\n            /* \"#utility.yul\":6521:6536   */\n          and\n            /* \"#utility.yul\":6511:6536   */\n          swap2\n          pop\n            /* \"#utility.yul\":6424:6542   */\n          pop\n            /* \"#utility.yul\":6373:6542   */\n          swap3\n          swap2\n          pop\n          pop\n          jump\t// out\n            /* \"#utility.yul\":6547:6842   */\n        tag_39:\n            /* \"#utility.yul\":6623:6627   */\n          0x00\n            /* \"#utility.yul\":6769:6798   */\n          tag_122\n            /* \"#utility.yul\":6794:6797   */\n          dup4\n            /* \"#utility.yul\":6788:6792   */\n          dup4\n            /* \"#utility.yul\":6769:6798   */\n          tag_38\n          jump\t// in\n        tag_122:\n            /* \"#utility.yul\":6761:6798   */\n          swap2\n          pop\n            /* \"#utility.yul\":6831:6834   */\n          dup3\n            /* \"#utility.yul\":6828:6829   */\n          0x02\n            /* \"#utility.yul\":6824:6835   */\n          mul\n            /* \"#utility.yul\":6818:6822   */\n          dup3\n            /* \"#utility.yul\":6815:6836   */\n          or\n            /* \"#utility.yul\":6807:6836   */\n          swap1\n          pop\n            /* \"#utility.yul\":6547:6842   */\n          swap3\n          swap2\n          pop\n          pop\n          jump\t// out\n            /* \"#utility.yul\":6847:8242   */\n        tag_6:\n            /* \"#utility.yul\":6964:7001   */\n          tag_124\n            /* \"#utility.yul\":6997:7000   */\n          dup3\n            /* \"#utility.yul\":6964:7001   */\n          tag_21\n          jump\t// in\n        tag_124:\n            /* \"#utility.yul\":7066:7084   */\n          0xffffffffffffffff\n            /* \"#utility.yul\":7058:7064   */\n          dup2\n            /* \"#utility.yul\":7055:7085   */\n          gt\n            /* \"#utility.yul\":7052:7108   */\n          iszero\n          tag_125\n          jumpi\n            /* \"#utility.yul\":7088:7106   */\n          tag_126\n          tag_14\n          jump\t// in\n        tag_126:\n            /* \"#utility.yul\":7052:7108   */\n        tag_125:\n            /* \"#utility.yul\":7132:7170   */\n          tag_127\n            /* \"#utility.yul\":7164:7168   */\n          dup3\n            /* \"#utility.yul\":7158:7169   */\n          sload\n            /* \"#utility.yul\":7132:7170   */\n          tag_23\n          jump\t// in\n        tag_127:\n            /* \"#utility.yul\":7217:7284   */\n          tag_128\n            /* \"#utility.yul\":7277:7283   */\n          dup3\n            /* \"#utility.yul\":7269:7275   */\n          dup3\n            /* \"#utility.yul\":7263:7267   */\n          dup6\n            /* \"#utility.yul\":7217:7284   */\n          tag_36\n          jump\t// in\n        tag_128:\n            /* \"#utility.yul\":7311:7312   */\n          0x00\n            /* \"#utility.yul\":7335:7339   */\n          0x20\n            /* \"#utility.yul\":7322:7339   */\n          swap1\n          pop\n            /* \"#utility.yul\":7367:7369   */\n          0x1f\n            /* \"#utility.yul\":7359:7365   */\n          dup4\n            /* \"#utility.yul\":7356:7370   */\n          gt\n            /* \"#utility.yul\":7384:7385   */\n          0x01\n            /* \"#utility.yul\":7379:7997   */\n          dup2\n          eq\n          tag_130\n          jumpi\n            /* \"#utility.yul\":8041:8042   */\n          0x00\n            /* \"#utility.yul\":8058:8064   */\n          dup5\n            /* \"#utility.yul\":8055:8132   */\n          iszero\n          tag_131\n          jumpi\n            /* \"#utility.yul\":8107:8116   */\n          dup3\n            /* \"#utility.yul\":8102:8105   */\n          dup8\n            /* \"#utility.yul\":8098:8117   */\n          add\n            /* \"#utility.yul\":8092:8118   */\n          mload\n            /* \"#utility.yul\":8083:8118   */\n          swap1\n          pop\n            /* \"#utility.yul\":8055:8132   */\n        tag_131:\n            /* \"#utility.yul\":8158:8225   */\n          tag_132\n            /* \"#utility.yul\":8218:8224   */\n          dup6\n            /* \"#utility.yul\":8211:8216   */\n          dup3\n            /* \"#utility.yul\":8158:8225   */\n          tag_39\n          jump\t// in\n        tag_132:\n            /* \"#utility.yul\":8152:8156   */\n          dup7\n            /* \"#utility.yul\":8145:8226   */\n          sstore\n            /* \"#utility.yul\":8014:8236   */\n          pop\n            /* \"#utility.yul\":7349:8236   */\n          jump(tag_129)\n            /* \"#utility.yul\":7379:7997   */\n        tag_130:\n            /* \"#utility.yul\":7431:7435   */\n          0x1f\n            /* \"#utility.yul\":7427:7436   */\n          not\n            /* \"#utility.yul\":7419:7425   */\n          dup5\n            /* \"#utility.yul\":7415:7437   */\n          and\n            /* \"#utility.yul\":7465:7502   */\n          tag_133\n            /* \"#utility.yul\":7497:7501   */\n          dup7\n            /* \"#utility.yul\":7465:7502   */\n          tag_24\n          jump\t// in\n        tag_133:\n            /* \"#utility.yul\":7524:7525   */\n          0x00\n            /* \"#utility.yul\":7538:7746   */\n        tag_134:\n            /* \"#utility.yul\":7552:7559   */\n          dup3\n            /* \"#utility.yul\":7549:7550   */\n          dup2\n            /* \"#utility.yul\":7546:7560   */\n          lt\n            /* \"#utility.yul\":7538:7746   */\n          iszero\n          tag_136\n          jumpi\n            /* \"#utility.yul\":7631:7640   */\n          dup5\n            /* \"#utility.yul\":7626:7629   */\n          dup10\n            /* \"#utility.yul\":7622:7641   */\n          add\n            /* \"#utility.yul\":7616:7642   */\n          mload\n            /* \"#utility.yul\":7608:7614   */\n          dup3\n            /* \"#utility.yul\":7601:7643   */\n          sstore\n            /* \"#utility.yul\":7682:7683   */\n          0x01\n            /* \"#utility.yul\":7674:7680   */\n          dup3\n            /* \"#utility.yul\":7670:7684   */\n          add\n            /* \"#utility.yul\":7660:7684   */\n          swap2\n          pop\n            /* \"#utility.yul\":7729:7731   */\n          0x20\n            /* \"#utility.yul\":7718:7727   */\n          dup6\n            /* \"#utility.yul\":7714:7732   */\n          add\n            /* \"#utility.yul\":7701:7732   */\n          swap5\n          pop\n            /* \"#utility.yul\":7575:7579   */\n          0x20\n            /* \"#utility.yul\":7572:7573   */\n          dup2\n            /* \"#utility.yul\":7568:7580   */\n          add\n            /* \"#utility.yul\":7563:7580   */\n          swap1\n          pop\n            /* \"#utility.yul\":7538:7746   */\n          jump(tag_134)\n        tag_136:\n            /* \"#utility.yul\":7774:7780   */\n          dup7\n            /* \"#utility.yul\":7765:7772   */\n          dup4\n            /* \"#utility.yul\":7762:7781   */\n          lt\n            /* \"#utility.yul\":7759:7938   */\n          iszero\n          tag_137\n          jumpi\n            /* \"#utility.yul\":7832:7841   */\n          dup5\n            /* \"#utility.yul\":7827:7830   */\n          dup10\n            /* \"#utility.yul\":7823:7842   */\n          add\n            /* \"#utility.yul\":7817:7843   */\n          mload\n            /* \"#utility.yul\":7875:7923   */\n          tag_138\n            /* \"#utility.yul\":7917:7921   */\n          0x1f\n            /* \"#utility.yul\":7909:7915   */\n          dup10\n            /* \"#utility.yul\":7905:7922   */\n          and\n            /* \"#utility.yul\":7894:7903   */\n          dup3\n            /* \"#utility.yul\":7875:7923   */\n          tag_38\n          jump\t// in\n        tag_138:\n            /* \"#utility.yul\":7867:7873   */\n          dup4\n            /* \"#utility.yul\":7860:7924   */\n          sstore\n            /* \"#utility.yul\":7782:7938   */\n          pop\n            /* \"#utility.yul\":7759:7938   */\n        tag_137:\n            /* \"#utility.yul\":7984:7985   */\n          0x01\n            /* \"#utility.yul\":7980:7981   */\n          0x02\n            /* \"#utility.yul\":7972:7978   */\n          dup9\n            /* \"#utility.yul\":7968:7982   */\n          mul\n            /* \"#utility.yul\":7964:7986   */\n          add\n            /* \"#utility.yul\":7958:7962   */\n          dup9\n            /* \"#utility.yul\":7951:7987   */\n          sstore\n            /* \"#utility.yul\":7386:7997   */\n          pop\n          pop\n          pop\n            /* \"#utility.yul\":7349:8236   */\n        tag_129:\n          pop\n            /* \"#utility.yul\":6939:8242   */\n          pop\n          pop\n          pop\n            /* \"#utility.yul\":6847:8242   */\n          pop\n          pop\n          jump\t// out\n            /* \"EstatePlanning.sol\":450:3289  contract EstatePlanning { //the contracts block... */\n        tag_7:\n          dataSize(sub_0)\n          dup1\n          dataOffset(sub_0)\n          0x00\n          codecopy\n          0x00\n          return\n        stop\n\n        sub_0: assembly {\n                /* \"EstatePlanning.sol\":450:3289  contract EstatePlanning { //the contracts block... */\n              mstore(0x40, 0x80)\n              callvalue\n              dup1\n              iszero\n              tag_1\n              jumpi\n              0x00\n              dup1\n              revert\n            tag_1:\n              pop\n              jumpi(tag_2, lt(calldatasize, 0x04))\n              shr(0xe0, calldataload(0x00))\n              dup1\n              0x704b6c02\n              gt\n              tag_18\n              jumpi\n              dup1\n              0xe512fcf2\n              gt\n              tag_19\n              jumpi\n              dup1\n              0xe512fcf2\n              eq\n              tag_14\n              jumpi\n              dup1\n              0xec5630ca\n              eq\n              tag_15\n              jumpi\n              dup1\n              0xf851a440\n              eq\n              tag_16\n              jumpi\n              dup1\n              0xfc8c79b5\n              eq\n              tag_17\n              jumpi\n              jump(tag_2)\n            tag_19:\n              dup1\n              0x704b6c02\n              eq\n              tag_10\n              jumpi\n              dup1\n              0xbb3accf0\n              eq\n              tag_11\n              jumpi\n              dup1\n              0xbeffaf09\n              eq\n              tag_12\n              jumpi\n              dup1\n              0xdbd695f3\n              eq\n              tag_13\n              jumpi\n              jump(tag_2)\n            tag_18:\n              dup1\n              0x57cbb4cf\n              gt\n              tag_20\n              jumpi\n              dup1\n              0x57cbb4cf\n              eq\n              tag_6\n              jumpi\n              dup1\n              0x5a58cd4c\n              eq\n              tag_7\n              jumpi\n              dup1\n              0x5c0badfc\n              eq\n              tag_8\n              jumpi\n              dup1\n              0x6e9960c3\n              eq\n              tag_9\n              jumpi\n              jump(tag_2)\n            tag_20:\n              dup1\n              0x01567739\n              eq\n              tag_3\n              jumpi\n              dup1\n              0x1cab59a4\n              eq\n              tag_4\n              jumpi\n              dup1\n              0x4b47e588\n              eq\n              tag_5\n              jumpi\n            tag_2:\n              0x00\n              dup1\n              revert\n                /* \"EstatePlanning.sol\":643:688  mapping(address => uint) public beneficiaries */\n            tag_3:\n              tag_21\n              0x04\n              dup1\n              calldatasize\n              sub\n              dup2\n              add\n              swap1\n              tag_22\n              swap2\n              swap1\n              tag_23\n              jump\t// in\n            tag_22:\n              tag_24\n              jump\t// in\n            tag_21:\n              mload(0x40)\n              tag_25\n              swap2\n              swap1\n              tag_26\n              jump\t// in\n            tag_25:\n              mload(0x40)\n              dup1\n              swap2\n              sub\n              swap1\n              return\n                /* \"EstatePlanning.sol\":2006:2132  function getBeneficiaries(address beneficiary) public view returns (uint) {... */\n            tag_4:\n              tag_27\n              0x04\n              dup1\n              calldatasize\n              sub\n              dup2\n              add\n              swap1\n              tag_28\n              swap2\n              swap1\n              tag_23\n              jump\t// in\n            tag_28:\n              tag_29\n              jump\t// in\n            tag_27:\n              mload(0x40)\n              tag_30\n              swap2\n              swap1\n              tag_26\n              jump\t// in\n            tag_30:\n              mload(0x40)\n              dup1\n              swap2\n              sub\n              swap1\n              return\n                /* \"EstatePlanning.sol\":1420:1502  function setTrustor(address trustors) public {... */\n            tag_5:\n              tag_31\n              0x04\n              dup1\n              calldatasize\n              sub\n              dup2\n              add\n              swap1\n              tag_32\n              swap2\n              swap1\n              tag_23\n              jump\t// in\n            tag_32:\n              tag_33\n              jump\t// in\n            tag_31:\n              stop\n                /* \"EstatePlanning.sol\":3038:3153  function addBeneficiaries(address beneficiary, uint num) public {... */\n            tag_6:\n              tag_34\n              0x04\n              dup1\n              calldatasize\n              sub\n              dup2\n              add\n              swap1\n              tag_35\n              swap2\n              swap1\n              tag_36\n              jump\t// in\n            tag_35:\n              tag_37\n              jump\t// in\n            tag_34:\n              stop\n                /* \"EstatePlanning.sol\":1043:1175  function deleteContract() public {... */\n            tag_7:\n              tag_38\n              tag_39\n              jump\t// in\n            tag_38:\n              stop\n                /* \"EstatePlanning.sol\":2277:2490  function getTrustDetails() public view returns (... */\n            tag_8:\n              tag_40\n              tag_41\n              jump\t// in\n            tag_40:\n              mload(0x40)\n              tag_42\n              swap4\n              swap3\n              swap2\n              swap1\n              tag_43\n              jump\t// in\n            tag_42:\n              mload(0x40)\n              dup1\n              swap2\n              sub\n              swap1\n              return\n                /* \"EstatePlanning.sol\":1294:1375  function getAdmin() public view returns (address) {... */\n            tag_9:\n              tag_44\n              tag_45\n              jump\t// in\n            tag_44:\n              mload(0x40)\n              tag_46\n              swap2\n              swap1\n              tag_47\n              jump\t// in\n            tag_46:\n              mload(0x40)\n              dup1\n              swap2\n              sub\n              swap1\n              return\n                /* \"EstatePlanning.sol\":1218:1288  function setAdmin(address admn) public {... */\n            tag_10:\n              tag_48\n              0x04\n              dup1\n              calldatasize\n              sub\n              dup2\n              add\n              swap1\n              tag_49\n              swap2\n              swap1\n              tag_23\n              jump\t// in\n            tag_49:\n              tag_50\n              jump\t// in\n            tag_48:\n              stop\n                /* \"EstatePlanning.sol\":1639:1731  function setTrustees(address [] memory trustee) public {... */\n            tag_11:\n              tag_51\n              0x04\n              dup1\n              calldatasize\n              sub\n              dup2\n              add\n              swap1\n              tag_52\n              swap2\n              swap1\n              tag_53\n              jump\t// in\n            tag_52:\n              tag_54\n              jump\t// in\n            tag_51:\n              stop\n                /* \"EstatePlanning.sol\":1737:1834  function getTrustees() public view returns (address [] memory) {... */\n            tag_12:\n              tag_55\n              tag_56\n              jump\t// in\n            tag_55:\n              mload(0x40)\n              tag_57\n              swap2\n              swap1\n              tag_58\n              jump\t// in\n            tag_57:\n              mload(0x40)\n              dup1\n              swap2\n              sub\n              swap1\n              return\n                /* \"EstatePlanning.sol\":3182:3286  function addTrustees(address [] memory trustee) public restricted2 {... */\n            tag_13:\n              tag_59\n              0x04\n              dup1\n              calldatasize\n              sub\n              dup2\n              add\n              swap1\n              tag_60\n              swap2\n              swap1\n              tag_53\n              jump\t// in\n            tag_60:\n              tag_61\n              jump\t// in\n            tag_59:\n              stop\n                /* \"EstatePlanning.sol\":1508:1593  function getTrustor() public view returns (address) {... */\n            tag_14:\n              tag_62\n              tag_63\n              jump\t// in\n            tag_62:\n              mload(0x40)\n              tag_64\n              swap2\n              swap1\n              tag_47\n              jump\t// in\n            tag_64:\n              mload(0x40)\n              dup1\n              swap2\n              sub\n              swap1\n              return\n                /* \"EstatePlanning.sol\":589:611  address public trustor */\n            tag_15:\n              tag_65\n              tag_66\n              jump\t// in\n            tag_65:\n              mload(0x40)\n              tag_67\n              swap2\n              swap1\n              tag_47\n              jump\t// in\n            tag_67:\n              mload(0x40)\n              dup1\n              swap2\n              sub\n              swap1\n              return\n                /* \"EstatePlanning.sol\":545:565  address public admin */\n            tag_16:\n              tag_68\n              tag_69\n              jump\t// in\n            tag_68:\n              mload(0x40)\n              tag_70\n              swap2\n              swap1\n              tag_47\n              jump\t// in\n            tag_70:\n              mload(0x40)\n              dup1\n              swap2\n              sub\n              swap1\n              return\n                /* \"EstatePlanning.sol\":1885:2000  function setBeneficiaries(address beneficiary, uint num) public {... */\n            tag_17:\n              tag_71\n              0x04\n              dup1\n              calldatasize\n              sub\n              dup2\n              add\n              swap1\n              tag_72\n              swap2\n              swap1\n              tag_36\n              jump\t// in\n            tag_72:\n              tag_73\n              jump\t// in\n            tag_71:\n              stop\n                /* \"EstatePlanning.sol\":643:688  mapping(address => uint) public beneficiaries */\n            tag_24:\n              mstore(0x20, 0x03)\n              dup1\n              0x00\n              mstore\n              keccak256(0x00, 0x40)\n              0x00\n              swap2\n              pop\n              swap1\n              pop\n              sload\n              dup2\n              jump\t// out\n                /* \"EstatePlanning.sol\":2006:2132  function getBeneficiaries(address beneficiary) public view returns (uint) {... */\n            tag_29:\n                /* \"EstatePlanning.sol\":2074:2078  uint */\n              0x00\n                /* \"EstatePlanning.sol\":2098:2111  beneficiaries */\n              0x03\n                /* \"EstatePlanning.sol\":2098:2124  beneficiaries[beneficiary] */\n              0x00\n                /* \"EstatePlanning.sol\":2112:2123  beneficiary */\n              dup4\n                /* \"EstatePlanning.sol\":2098:2124  beneficiaries[beneficiary] */\n              0xffffffffffffffffffffffffffffffffffffffff\n              and\n              0xffffffffffffffffffffffffffffffffffffffff\n              and\n              dup2\n              mstore\n              0x20\n              add\n              swap1\n              dup2\n              mstore\n              0x20\n              add\n              0x00\n              keccak256\n              sload\n                /* \"EstatePlanning.sol\":2091:2124  return beneficiaries[beneficiary] */\n              swap1\n              pop\n                /* \"EstatePlanning.sol\":2006:2132  function getBeneficiaries(address beneficiary) public view returns (uint) {... */\n              swap2\n              swap1\n              pop\n              jump\t// out\n                /* \"EstatePlanning.sol\":1420:1502  function setTrustor(address trustors) public {... */\n            tag_33:\n                /* \"EstatePlanning.sol\":1486:1494  trustors */\n              dup1\n                /* \"EstatePlanning.sol\":1476:1483  trustor */\n              0x01\n              0x00\n                /* \"EstatePlanning.sol\":1476:1494  trustor = trustors */\n              0x0100\n              exp\n              dup2\n              sload\n              dup2\n              0xffffffffffffffffffffffffffffffffffffffff\n              mul\n              not\n              and\n              swap1\n              dup4\n              0xffffffffffffffffffffffffffffffffffffffff\n              and\n              mul\n              or\n              swap1\n              sstore\n              pop\n                /* \"EstatePlanning.sol\":1420:1502  function setTrustor(address trustors) public {... */\n              pop\n              jump\t// out\n                /* \"EstatePlanning.sol\":3038:3153  function addBeneficiaries(address beneficiary, uint num) public {... */\n            tag_37:\n                /* \"EstatePlanning.sol\":3142:3145  num */\n              dup1\n                /* \"EstatePlanning.sol\":3113:3126  beneficiaries */\n              0x03\n                /* \"EstatePlanning.sol\":3113:3139  beneficiaries[beneficiary] */\n              0x00\n                /* \"EstatePlanning.sol\":3127:3138  beneficiary */\n              dup5\n                /* \"EstatePlanning.sol\":3113:3139  beneficiaries[beneficiary] */\n              0xffffffffffffffffffffffffffffffffffffffff\n              and\n              0xffffffffffffffffffffffffffffffffffffffff\n              and\n              dup2\n              mstore\n              0x20\n              add\n              swap1\n              dup2\n              mstore\n              0x20\n              add\n              0x00\n              keccak256\n                /* \"EstatePlanning.sol\":3113:3145  beneficiaries[beneficiary] = num */\n              dup2\n              swap1\n              sstore\n              pop\n                /* \"EstatePlanning.sol\":3038:3153  function addBeneficiaries(address beneficiary, uint num) public {... */\n              pop\n              pop\n              jump\t// out\n                /* \"EstatePlanning.sol\":1043:1175  function deleteContract() public {... */\n            tag_39:\n                /* \"EstatePlanning.sol\":1107:1114  trustor */\n              0x01\n              0x00\n              swap1\n              sload\n              swap1\n              0x0100\n              exp\n              swap1\n              div\n              0xffffffffffffffffffffffffffffffffffffffff\n              and\n                /* \"EstatePlanning.sol\":1086:1116  selfdestruct(payable(trustor)) */\n              0xffffffffffffffffffffffffffffffffffffffff\n              and\n              selfdestruct\n                /* \"EstatePlanning.sol\":2277:2490  function getTrustDetails() public view returns (... */\n            tag_41:\n                /* \"EstatePlanning.sol\":2334:2341  address */\n              0x00\n                /* \"EstatePlanning.sol\":2351:2358  uint256 */\n              dup1\n                /* \"EstatePlanning.sol\":2368:2381  string memory */\n              0x60\n                /* \"EstatePlanning.sol\":2418:2425  trustor */\n              0x01\n              0x00\n              swap1\n              sload\n              swap1\n              0x0100\n              exp\n              swap1\n              div\n              0xffffffffffffffffffffffffffffffffffffffff\n              and\n                /* \"EstatePlanning.sol\":2439:2450  totalAmount */\n              sload(0x04)\n                /* \"EstatePlanning.sol\":2464:2473  trustName */\n              0x05\n                /* \"EstatePlanning.sol\":2397:2483  return (... */\n              dup1\n              dup1\n              sload\n              tag_79\n              swap1\n              tag_80\n              jump\t// in\n            tag_79:\n              dup1\n              0x1f\n              add\n              0x20\n              dup1\n              swap2\n              div\n              mul\n              0x20\n              add\n              mload(0x40)\n              swap1\n              dup2\n              add\n              0x40\n              mstore\n              dup1\n              swap3\n              swap2\n              swap1\n              dup2\n              dup2\n              mstore\n              0x20\n              add\n              dup3\n              dup1\n              sload\n              tag_81\n              swap1\n              tag_80\n              jump\t// in\n            tag_81:\n              dup1\n              iszero\n              tag_82\n              jumpi\n              dup1\n              0x1f\n              lt\n              tag_83\n              jumpi\n              0x0100\n              dup1\n              dup4\n              sload\n              div\n              mul\n              dup4\n              mstore\n              swap2\n              0x20\n              add\n              swap2\n              jump(tag_82)\n            tag_83:\n              dup3\n              add\n              swap2\n              swap1\n              0x00\n              mstore\n              keccak256(0x00, 0x20)\n              swap1\n            tag_84:\n              dup2\n              sload\n              dup2\n              mstore\n              swap1\n              0x01\n              add\n              swap1\n              0x20\n              add\n              dup1\n              dup4\n              gt\n              tag_84\n              jumpi\n              dup3\n              swap1\n              sub\n              0x1f\n              and\n              dup3\n              add\n              swap2\n            tag_82:\n              pop\n              pop\n              pop\n              pop\n              pop\n              swap1\n              pop\n              swap3\n              pop\n              swap3\n              pop\n              swap3\n              pop\n                /* \"EstatePlanning.sol\":2277:2490  function getTrustDetails() public view returns (... */\n              swap1\n              swap2\n              swap3\n              jump\t// out\n                /* \"EstatePlanning.sol\":1294:1375  function getAdmin() public view returns (address) {... */\n            tag_45:\n                /* \"EstatePlanning.sol\":1335:1342  address */\n              0x00\n                /* \"EstatePlanning.sol\":1362:1367  admin */\n              dup1\n              0x00\n              swap1\n              sload\n              swap1\n              0x0100\n              exp\n              swap1\n              div\n              0xffffffffffffffffffffffffffffffffffffffff\n              and\n                /* \"EstatePlanning.sol\":1355:1367  return admin */\n              swap1\n              pop\n                /* \"EstatePlanning.sol\":1294:1375  function getAdmin() public view returns (address) {... */\n              swap1\n              jump\t// out\n                /* \"EstatePlanning.sol\":1218:1288  function setAdmin(address admn) public {... */\n            tag_50:\n                /* \"EstatePlanning.sol\":1276:1280  admn */\n              dup1\n                /* \"EstatePlanning.sol\":1268:1273  admin */\n              0x00\n              dup1\n                /* \"EstatePlanning.sol\":1268:1280  admin = admn */\n              0x0100\n              exp\n              dup2\n              sload\n              dup2\n              0xffffffffffffffffffffffffffffffffffffffff\n              mul\n              not\n              and\n              swap1\n              dup4\n              0xffffffffffffffffffffffffffffffffffffffff\n              and\n              mul\n              or\n              swap1\n              sstore\n              pop\n                /* \"EstatePlanning.sol\":1218:1288  function setAdmin(address admn) public {... */\n              pop\n              jump\t// out\n                /* \"EstatePlanning.sol\":1639:1731  function setTrustees(address [] memory trustee) public {... */\n            tag_54:\n                /* \"EstatePlanning.sol\":1716:1723  trustee */\n              dup1\n                /* \"EstatePlanning.sol\":1705:1713  trustees */\n              0x02\n                /* \"EstatePlanning.sol\":1705:1723  trustees = trustee */\n              swap1\n              dup1\n              mload\n              swap1\n              0x20\n              add\n              swap1\n              tag_88\n              swap3\n              swap2\n              swap1\n              tag_89\n              jump\t// in\n            tag_88:\n              pop\n                /* \"EstatePlanning.sol\":1639:1731  function setTrustees(address [] memory trustee) public {... */\n              pop\n              jump\t// out\n                /* \"EstatePlanning.sol\":1737:1834  function getTrustees() public view returns (address [] memory) {... */\n            tag_56:\n                /* \"EstatePlanning.sol\":1781:1798  address [] memory */\n              0x60\n                /* \"EstatePlanning.sol\":1818:1826  trustees */\n              0x02\n                /* \"EstatePlanning.sol\":1811:1826  return trustees */\n              dup1\n              sload\n              dup1\n              0x20\n              mul\n              0x20\n              add\n              mload(0x40)\n              swap1\n              dup2\n              add\n              0x40\n              mstore\n              dup1\n              swap3\n              swap2\n              swap1\n              dup2\n              dup2\n              mstore\n              0x20\n              add\n              dup3\n              dup1\n              sload\n              dup1\n              iszero\n              tag_91\n              jumpi\n              0x20\n              mul\n              dup3\n              add\n              swap2\n              swap1\n              0x00\n              mstore\n              keccak256(0x00, 0x20)\n              swap1\n            tag_92:\n              dup2\n              0x00\n              swap1\n              sload\n              swap1\n              0x0100\n              exp\n              swap1\n              div\n              0xffffffffffffffffffffffffffffffffffffffff\n              and\n              0xffffffffffffffffffffffffffffffffffffffff\n              and\n              dup2\n              mstore\n              0x20\n              add\n              swap1\n              0x01\n              add\n              swap1\n              dup1\n              dup4\n              gt\n              tag_92\n              jumpi\n            tag_91:\n              pop\n              pop\n              pop\n              pop\n              pop\n              swap1\n              pop\n                /* \"EstatePlanning.sol\":1737:1834  function getTrustees() public view returns (address [] memory) {... */\n              swap1\n              jump\t// out\n                /* \"EstatePlanning.sol\":3182:3286  function addTrustees(address [] memory trustee) public restricted2 {... */\n            tag_61:\n                /* \"EstatePlanning.sol\":2900:2907  trustor */\n              0x01\n              0x00\n              swap1\n              sload\n              swap1\n              0x0100\n              exp\n              swap1\n              div\n              0xffffffffffffffffffffffffffffffffffffffff\n              and\n                /* \"EstatePlanning.sol\":2886:2907  msg.sender == trustor */\n              0xffffffffffffffffffffffffffffffffffffffff\n              and\n                /* \"EstatePlanning.sol\":2886:2896  msg.sender */\n              caller\n                /* \"EstatePlanning.sol\":2886:2907  msg.sender == trustor */\n              0xffffffffffffffffffffffffffffffffffffffff\n              and\n              eq\n                /* \"EstatePlanning.sol\":2878:2908  require(msg.sender == trustor) */\n              tag_94\n              jumpi\n              0x00\n              dup1\n              revert\n            tag_94:\n                /* \"EstatePlanning.sol\":3271:3278  trustee */\n              dup1\n                /* \"EstatePlanning.sol\":3260:3268  trustees */\n              0x02\n                /* \"EstatePlanning.sol\":3260:3278  trustees = trustee */\n              swap1\n              dup1\n              mload\n              swap1\n              0x20\n              add\n              swap1\n              tag_96\n              swap3\n              swap2\n              swap1\n              tag_89\n              jump\t// in\n            tag_96:\n              pop\n                /* \"EstatePlanning.sol\":3182:3286  function addTrustees(address [] memory trustee) public restricted2 {... */\n              pop\n              jump\t// out\n                /* \"EstatePlanning.sol\":1508:1593  function getTrustor() public view returns (address) {... */\n            tag_63:\n                /* \"EstatePlanning.sol\":1551:1558  address */\n              0x00\n                /* \"EstatePlanning.sol\":1578:1585  trustor */\n              0x01\n              0x00\n              swap1\n              sload\n              swap1\n              0x0100\n              exp\n              swap1\n              div\n              0xffffffffffffffffffffffffffffffffffffffff\n              and\n                /* \"EstatePlanning.sol\":1571:1585  return trustor */\n              swap1\n              pop\n                /* \"EstatePlanning.sol\":1508:1593  function getTrustor() public view returns (address) {... */\n              swap1\n              jump\t// out\n                /* \"EstatePlanning.sol\":589:611  address public trustor */\n            tag_66:\n              0x01\n              0x00\n              swap1\n              sload\n              swap1\n              0x0100\n              exp\n              swap1\n              div\n              0xffffffffffffffffffffffffffffffffffffffff\n              and\n              dup2\n              jump\t// out\n                /* \"EstatePlanning.sol\":545:565  address public admin */\n            tag_69:\n              0x00\n              dup1\n              sload\n              swap1\n              0x0100\n              exp\n              swap1\n              div\n              0xffffffffffffffffffffffffffffffffffffffff\n              and\n              dup2\n              jump\t// out\n                /* \"EstatePlanning.sol\":1885:2000  function setBeneficiaries(address beneficiary, uint num) public {... */\n            tag_73:\n                /* \"EstatePlanning.sol\":1989:1992  num */\n              dup1\n                /* \"EstatePlanning.sol\":1960:1973  beneficiaries */\n              0x03\n                /* \"EstatePlanning.sol\":1960:1986  beneficiaries[beneficiary] */\n              0x00\n                /* \"EstatePlanning.sol\":1974:1985  beneficiary */\n              dup5\n                /* \"EstatePlanning.sol\":1960:1986  beneficiaries[beneficiary] */\n              0xffffffffffffffffffffffffffffffffffffffff\n              and\n              0xffffffffffffffffffffffffffffffffffffffff\n              and\n              dup2\n              mstore\n              0x20\n              add\n              swap1\n              dup2\n              mstore\n              0x20\n              add\n              0x00\n              keccak256\n                /* \"EstatePlanning.sol\":1960:1992  beneficiaries[beneficiary] = num */\n              dup2\n              swap1\n              sstore\n              pop\n                /* \"EstatePlanning.sol\":1885:2000  function setBeneficiaries(address beneficiary, uint num) public {... */\n              pop\n              pop\n              jump\t// out\n            tag_89:\n              dup3\n              dup1\n              sload\n              dup3\n              dup3\n              sstore\n              swap1\n              0x00\n              mstore\n              keccak256(0x00, 0x20)\n              swap1\n              dup2\n              add\n              swap3\n              dup3\n              iszero\n              tag_99\n              jumpi\n              swap2\n              0x20\n              mul\n              dup3\n              add\n            tag_100:\n              dup3\n              dup2\n              gt\n              iszero\n              tag_101\n              jumpi\n              dup3\n              mload\n              dup3\n              exp(0x0100, 0x00)\n              dup2\n              sload\n              dup2\n              0xffffffffffffffffffffffffffffffffffffffff\n              mul\n              not\n              and\n              swap1\n              dup4\n              0xffffffffffffffffffffffffffffffffffffffff\n              and\n              mul\n              or\n              swap1\n              sstore\n              pop\n              swap2\n              0x20\n              add\n              swap2\n              swap1\n              0x01\n              add\n              swap1\n              jump(tag_100)\n            tag_101:\n            tag_99:\n              pop\n              swap1\n              pop\n              tag_102\n              swap2\n              swap1\n              tag_103\n              jump\t// in\n            tag_102:\n              pop\n              swap1\n              jump\t// out\n            tag_103:\n            tag_104:\n              dup1\n              dup3\n              gt\n              iszero\n              tag_105\n              jumpi\n              0x00\n              dup2\n              0x00\n              swap1\n              sstore\n              pop\n              0x01\n              add\n              jump(tag_104)\n            tag_105:\n              pop\n              swap1\n              jump\t// out\n                /* \"#utility.yul\":7:82   */\n            tag_106:\n                /* \"#utility.yul\":40:46   */\n              0x00\n                /* \"#utility.yul\":73:75   */\n              0x40\n                /* \"#utility.yul\":67:76   */\n              mload\n                /* \"#utility.yul\":57:76   */\n              swap1\n              pop\n                /* \"#utility.yul\":7:82   */\n              swap1\n              jump\t// out\n                /* \"#utility.yul\":88:205   */\n            tag_107:\n                /* \"#utility.yul\":197:198   */\n              0x00\n                /* \"#utility.yul\":194:195   */\n              dup1\n                /* \"#utility.yul\":187:199   */\n              revert\n                /* \"#utility.yul\":211:328   */\n            tag_108:\n                /* \"#utility.yul\":320:321   */\n              0x00\n                /* \"#utility.yul\":317:318   */\n              dup1\n                /* \"#utility.yul\":310:322   */\n              revert\n                /* \"#utility.yul\":334:460   */\n            tag_109:\n                /* \"#utility.yul\":371:378   */\n              0x00\n                /* \"#utility.yul\":411:453   */\n              0xffffffffffffffffffffffffffffffffffffffff\n                /* \"#utility.yul\":404:409   */\n              dup3\n                /* \"#utility.yul\":400:454   */\n              and\n                /* \"#utility.yul\":389:454   */\n              swap1\n              pop\n                /* \"#utility.yul\":334:460   */\n              swap2\n              swap1\n              pop\n              jump\t// out\n                /* \"#utility.yul\":466:562   */\n            tag_110:\n                /* \"#utility.yul\":503:510   */\n              0x00\n                /* \"#utility.yul\":532:556   */\n              tag_145\n                /* \"#utility.yul\":550:555   */\n              dup3\n                /* \"#utility.yul\":532:556   */\n              tag_109\n              jump\t// in\n            tag_145:\n                /* \"#utility.yul\":521:556   */\n              swap1\n              pop\n                /* \"#utility.yul\":466:562   */\n              swap2\n              swap1\n              pop\n              jump\t// out\n                /* \"#utility.yul\":568:690   */\n            tag_111:\n                /* \"#utility.yul\":641:665   */\n              tag_147\n                /* \"#utility.yul\":659:664   */\n              dup2\n                /* \"#utility.yul\":641:665   */\n              tag_110\n              jump\t// in\n            tag_147:\n                /* \"#utility.yul\":634:639   */\n              dup2\n                /* \"#utility.yul\":631:666   */\n              eq\n                /* \"#utility.yul\":621:684   */\n              tag_148\n              jumpi\n                /* \"#utility.yul\":680:681   */\n              0x00\n                /* \"#utility.yul\":677:678   */\n              dup1\n                /* \"#utility.yul\":670:682   */\n              revert\n                /* \"#utility.yul\":621:684   */\n            tag_148:\n                /* \"#utility.yul\":568:690   */\n              pop\n              jump\t// out\n                /* \"#utility.yul\":696:835   */\n            tag_112:\n                /* \"#utility.yul\":742:747   */\n              0x00\n                /* \"#utility.yul\":780:786   */\n              dup2\n                /* \"#utility.yul\":767:787   */\n              calldataload\n                /* \"#utility.yul\":758:787   */\n              swap1\n              pop\n                /* \"#utility.yul\":796:829   */\n              tag_150\n                /* \"#utility.yul\":823:828   */\n              dup2\n                /* \"#utility.yul\":796:829   */\n              tag_111\n              jump\t// in\n            tag_150:\n                /* \"#utility.yul\":696:835   */\n              swap3\n              swap2\n              pop\n              pop\n              jump\t// out\n                /* \"#utility.yul\":841:1170   */\n            tag_23:\n                /* \"#utility.yul\":900:906   */\n              0x00\n                /* \"#utility.yul\":949:951   */\n              0x20\n                /* \"#utility.yul\":937:946   */\n              dup3\n                /* \"#utility.yul\":928:935   */\n              dup5\n                /* \"#utility.yul\":924:947   */\n              sub\n                /* \"#utility.yul\":920:952   */\n              slt\n                /* \"#utility.yul\":917:1036   */\n              iszero\n              tag_152\n              jumpi\n                /* \"#utility.yul\":955:1034   */\n              tag_153\n              tag_107\n              jump\t// in\n            tag_153:\n                /* \"#utility.yul\":917:1036   */\n            tag_152:\n                /* \"#utility.yul\":1075:1076   */\n              0x00\n                /* \"#utility.yul\":1100:1153   */\n              tag_154\n                /* \"#utility.yul\":1145:1152   */\n              dup5\n                /* \"#utility.yul\":1136:1142   */\n              dup3\n                /* \"#utility.yul\":1125:1134   */\n              dup6\n                /* \"#utility.yul\":1121:1143   */\n              add\n                /* \"#utility.yul\":1100:1153   */\n              tag_112\n              jump\t// in\n            tag_154:\n                /* \"#utility.yul\":1090:1153   */\n              swap2\n              pop\n                /* \"#utility.yul\":1046:1163   */\n              pop\n                /* \"#utility.yul\":841:1170   */\n              swap3\n              swap2\n              pop\n              pop\n              jump\t// out\n                /* \"#utility.yul\":1176:1253   */\n            tag_113:\n                /* \"#utility.yul\":1213:1220   */\n              0x00\n                /* \"#utility.yul\":1242:1247   */\n              dup2\n                /* \"#utility.yul\":1231:1247   */\n              swap1\n              pop\n                /* \"#utility.yul\":1176:1253   */\n              swap2\n              swap1\n              pop\n              jump\t// out\n                /* \"#utility.yul\":1259:1377   */\n            tag_114:\n                /* \"#utility.yul\":1346:1370   */\n              tag_157\n                /* \"#utility.yul\":1364:1369   */\n              dup2\n                /* \"#utility.yul\":1346:1370   */\n              tag_113\n              jump\t// in\n            tag_157:\n                /* \"#utility.yul\":1341:1344   */\n              dup3\n                /* \"#utility.yul\":1334:1371   */\n              mstore\n                /* \"#utility.yul\":1259:1377   */\n              pop\n              pop\n              jump\t// out\n                /* \"#utility.yul\":1383:1605   */\n            tag_26:\n                /* \"#utility.yul\":1476:1480   */\n              0x00\n                /* \"#utility.yul\":1514:1516   */\n              0x20\n                /* \"#utility.yul\":1503:1512   */\n              dup3\n                /* \"#utility.yul\":1499:1517   */\n              add\n                /* \"#utility.yul\":1491:1517   */\n              swap1\n              pop\n                /* \"#utility.yul\":1527:1598   */\n              tag_159\n                /* \"#utility.yul\":1595:1596   */\n              0x00\n                /* \"#utility.yul\":1584:1593   */\n              dup4\n                /* \"#utility.yul\":1580:1597   */\n              add\n                /* \"#utility.yul\":1571:1577   */\n              dup5\n                /* \"#utility.yul\":1527:1598   */\n              tag_114\n              jump\t// in\n            tag_159:\n                /* \"#utility.yul\":1383:1605   */\n              swap3\n              swap2\n              pop\n              pop\n              jump\t// out\n                /* \"#utility.yul\":1611:1733   */\n            tag_115:\n                /* \"#utility.yul\":1684:1708   */\n              tag_161\n                /* \"#utility.yul\":1702:1707   */\n              dup2\n                /* \"#utility.yul\":1684:1708   */\n              tag_113\n              jump\t// in\n            tag_161:\n                /* \"#utility.yul\":1677:1682   */\n              dup2\n                /* \"#utility.yul\":1674:1709   */\n              eq\n                /* \"#utility.yul\":1664:1727   */\n              tag_162\n              jumpi\n                /* \"#utility.yul\":1723:1724   */\n              0x00\n                /* \"#utility.yul\":1720:1721   */\n              dup1\n                /* \"#utility.yul\":1713:1725   */\n              revert\n                /* \"#utility.yul\":1664:1727   */\n            tag_162:\n                /* \"#utility.yul\":1611:1733   */\n              pop\n              jump\t// out\n                /* \"#utility.yul\":1739:1878   */\n            tag_116:\n                /* \"#utility.yul\":1785:1790   */\n              0x00\n                /* \"#utility.yul\":1823:1829   */\n              dup2\n                /* \"#utility.yul\":1810:1830   */\n              calldataload\n                /* \"#utility.yul\":1801:1830   */\n              swap1\n              pop\n                /* \"#utility.yul\":1839:1872   */\n              tag_164\n                /* \"#utility.yul\":1866:1871   */\n              dup2\n                /* \"#utility.yul\":1839:1872   */\n              tag_115\n              jump\t// in\n            tag_164:\n                /* \"#utility.yul\":1739:1878   */\n              swap3\n              swap2\n              pop\n              pop\n              jump\t// out\n                /* \"#utility.yul\":1884:2358   */\n            tag_36:\n                /* \"#utility.yul\":1952:1958   */\n              0x00\n                /* \"#utility.yul\":1960:1966   */\n              dup1\n                /* \"#utility.yul\":2009:2011   */\n              0x40\n                /* \"#utility.yul\":1997:2006   */\n              dup4\n                /* \"#utility.yul\":1988:1995   */\n              dup6\n                /* \"#utility.yul\":1984:2007   */\n              sub\n                /* \"#utility.yul\":1980:2012   */\n              slt\n                /* \"#utility.yul\":1977:2096   */\n              iszero\n              tag_166\n              jumpi\n                /* \"#utility.yul\":2015:2094   */\n              tag_167\n              tag_107\n              jump\t// in\n            tag_167:\n                /* \"#utility.yul\":1977:2096   */\n            tag_166:\n                /* \"#utility.yul\":2135:2136   */\n              0x00\n                /* \"#utility.yul\":2160:2213   */\n              tag_168\n                /* \"#utility.yul\":2205:2212   */\n              dup6\n                /* \"#utility.yul\":2196:2202   */\n              dup3\n                /* \"#utility.yul\":2185:2194   */\n              dup7\n                /* \"#utility.yul\":2181:2203   */\n              add\n                /* \"#utility.yul\":2160:2213   */\n              tag_112\n              jump\t// in\n            tag_168:\n                /* \"#utility.yul\":2150:2213   */\n              swap3\n              pop\n                /* \"#utility.yul\":2106:2223   */\n              pop\n                /* \"#utility.yul\":2262:2264   */\n              0x20\n                /* \"#utility.yul\":2288:2341   */\n              tag_169\n                /* \"#utility.yul\":2333:2340   */\n              dup6\n                /* \"#utility.yul\":2324:2330   */\n              dup3\n                /* \"#utility.yul\":2313:2322   */\n              dup7\n                /* \"#utility.yul\":2309:2331   */\n              add\n                /* \"#utility.yul\":2288:2341   */\n              tag_116\n              jump\t// in\n            tag_169:\n                /* \"#utility.yul\":2278:2341   */\n              swap2\n              pop\n                /* \"#utility.yul\":2233:2351   */\n              pop\n                /* \"#utility.yul\":1884:2358   */\n              swap3\n              pop\n              swap3\n              swap1\n              pop\n              jump\t// out\n                /* \"#utility.yul\":2364:2482   */\n            tag_117:\n                /* \"#utility.yul\":2451:2475   */\n              tag_171\n                /* \"#utility.yul\":2469:2474   */\n              dup2\n                /* \"#utility.yul\":2451:2475   */\n              tag_110\n              jump\t// in\n            tag_171:\n                /* \"#utility.yul\":2446:2449   */\n              dup3\n                /* \"#utility.yul\":2439:2476   */\n              mstore\n                /* \"#utility.yul\":2364:2482   */\n              pop\n              pop\n              jump\t// out\n                /* \"#utility.yul\":2488:2587   */\n            tag_118:\n                /* \"#utility.yul\":2540:2546   */\n              0x00\n                /* \"#utility.yul\":2574:2579   */\n              dup2\n                /* \"#utility.yul\":2568:2580   */\n              mload\n                /* \"#utility.yul\":2558:2580   */\n              swap1\n              pop\n                /* \"#utility.yul\":2488:2587   */\n              swap2\n              swap1\n              pop\n              jump\t// out\n                /* \"#utility.yul\":2593:2762   */\n            tag_119:\n                /* \"#utility.yul\":2677:2688   */\n              0x00\n                /* \"#utility.yul\":2711:2717   */\n              dup3\n                /* \"#utility.yul\":2706:2709   */\n              dup3\n                /* \"#utility.yul\":2699:2718   */\n              mstore\n                /* \"#utility.yul\":2751:2755   */\n              0x20\n                /* \"#utility.yul\":2746:2749   */\n              dup3\n                /* \"#utility.yul\":2742:2756   */\n              add\n                /* \"#utility.yul\":2727:2756   */\n              swap1\n              pop\n                /* \"#utility.yul\":2593:2762   */\n              swap3\n              swap2\n              pop\n              pop\n              jump\t// out\n                /* \"#utility.yul\":2768:3014   */\n            tag_120:\n                /* \"#utility.yul\":2849:2850   */\n              0x00\n                /* \"#utility.yul\":2859:2972   */\n            tag_175:\n                /* \"#utility.yul\":2873:2879   */\n              dup4\n                /* \"#utility.yul\":2870:2871   */\n              dup2\n                /* \"#utility.yul\":2867:2880   */\n              lt\n                /* \"#utility.yul\":2859:2972   */\n              iszero\n              tag_177\n              jumpi\n                /* \"#utility.yul\":2958:2959   */\n              dup1\n                /* \"#utility.yul\":2953:2956   */\n              dup3\n                /* \"#utility.yul\":2949:2960   */\n              add\n                /* \"#utility.yul\":2943:2961   */\n              mload\n                /* \"#utility.yul\":2939:2940   */\n              dup2\n                /* \"#utility.yul\":2934:2937   */\n              dup5\n                /* \"#utility.yul\":2930:2941   */\n              add\n                /* \"#utility.yul\":2923:2962   */\n              mstore\n                /* \"#utility.yul\":2895:2897   */\n              0x20\n                /* \"#utility.yul\":2892:2893   */\n              dup2\n                /* \"#utility.yul\":2888:2898   */\n              add\n                /* \"#utility.yul\":2883:2898   */\n              swap1\n              pop\n                /* \"#utility.yul\":2859:2972   */\n              jump(tag_175)\n            tag_177:\n                /* \"#utility.yul\":3006:3007   */\n              0x00\n                /* \"#utility.yul\":2997:3003   */\n              dup5\n                /* \"#utility.yul\":2992:2995   */\n              dup5\n                /* \"#utility.yul\":2988:3004   */\n              add\n                /* \"#utility.yul\":2981:3008   */\n              mstore\n                /* \"#utility.yul\":2830:3014   */\n              pop\n                /* \"#utility.yul\":2768:3014   */\n              pop\n              pop\n              pop\n              jump\t// out\n                /* \"#utility.yul\":3020:3122   */\n            tag_121:\n                /* \"#utility.yul\":3061:3067   */\n              0x00\n                /* \"#utility.yul\":3112:3114   */\n              0x1f\n                /* \"#utility.yul\":3108:3115   */\n              not\n                /* \"#utility.yul\":3103:3105   */\n              0x1f\n                /* \"#utility.yul\":3096:3101   */\n              dup4\n                /* \"#utility.yul\":3092:3106   */\n              add\n                /* \"#utility.yul\":3088:3116   */\n              and\n                /* \"#utility.yul\":3078:3116   */\n              swap1\n              pop\n                /* \"#utility.yul\":3020:3122   */\n              swap2\n              swap1\n              pop\n              jump\t// out\n                /* \"#utility.yul\":3128:3505   */\n            tag_122:\n                /* \"#utility.yul\":3216:3219   */\n              0x00\n                /* \"#utility.yul\":3244:3283   */\n              tag_180\n                /* \"#utility.yul\":3277:3282   */\n              dup3\n                /* \"#utility.yul\":3244:3283   */\n              tag_118\n              jump\t// in\n            tag_180:\n                /* \"#utility.yul\":3299:3370   */\n              tag_181\n                /* \"#utility.yul\":3363:3369   */\n              dup2\n                /* \"#utility.yul\":3358:3361   */\n              dup6\n                /* \"#utility.yul\":3299:3370   */\n              tag_119\n              jump\t// in\n            tag_181:\n                /* \"#utility.yul\":3292:3370   */\n              swap4\n              pop\n                /* \"#utility.yul\":3379:3444   */\n              tag_182\n                /* \"#utility.yul\":3437:3443   */\n              dup2\n                /* \"#utility.yul\":3432:3435   */\n              dup6\n                /* \"#utility.yul\":3425:3429   */\n              0x20\n                /* \"#utility.yul\":3418:3423   */\n              dup7\n                /* \"#utility.yul\":3414:3430   */\n              add\n                /* \"#utility.yul\":3379:3444   */\n              tag_120\n              jump\t// in\n            tag_182:\n                /* \"#utility.yul\":3469:3498   */\n              tag_183\n                /* \"#utility.yul\":3491:3497   */\n              dup2\n                /* \"#utility.yul\":3469:3498   */\n              tag_121\n              jump\t// in\n            tag_183:\n                /* \"#utility.yul\":3464:3467   */\n              dup5\n                /* \"#utility.yul\":3460:3499   */\n              add\n                /* \"#utility.yul\":3453:3499   */\n              swap2\n              pop\n                /* \"#utility.yul\":3220:3505   */\n              pop\n                /* \"#utility.yul\":3128:3505   */\n              swap3\n              swap2\n              pop\n              pop\n              jump\t// out\n                /* \"#utility.yul\":3511:4044   */\n            tag_43:\n                /* \"#utility.yul\":3680:3684   */\n              0x00\n                /* \"#utility.yul\":3718:3720   */\n              0x60\n                /* \"#utility.yul\":3707:3716   */\n              dup3\n                /* \"#utility.yul\":3703:3721   */\n              add\n                /* \"#utility.yul\":3695:3721   */\n              swap1\n              pop\n                /* \"#utility.yul\":3731:3802   */\n              tag_185\n                /* \"#utility.yul\":3799:3800   */\n              0x00\n                /* \"#utility.yul\":3788:3797   */\n              dup4\n                /* \"#utility.yul\":3784:3801   */\n              add\n                /* \"#utility.yul\":3775:3781   */\n              dup7\n                /* \"#utility.yul\":3731:3802   */\n              tag_117\n              jump\t// in\n            tag_185:\n                /* \"#utility.yul\":3812:3884   */\n              tag_186\n                /* \"#utility.yul\":3880:3882   */\n              0x20\n                /* \"#utility.yul\":3869:3878   */\n              dup4\n                /* \"#utility.yul\":3865:3883   */\n              add\n                /* \"#utility.yul\":3856:3862   */\n              dup6\n                /* \"#utility.yul\":3812:3884   */\n              tag_114\n              jump\t// in\n            tag_186:\n                /* \"#utility.yul\":3931:3940   */\n              dup2\n                /* \"#utility.yul\":3925:3929   */\n              dup2\n                /* \"#utility.yul\":3921:3941   */\n              sub\n                /* \"#utility.yul\":3916:3918   */\n              0x40\n                /* \"#utility.yul\":3905:3914   */\n              dup4\n                /* \"#utility.yul\":3901:3919   */\n              add\n                /* \"#utility.yul\":3894:3942   */\n              mstore\n                /* \"#utility.yul\":3959:4037   */\n              tag_187\n                /* \"#utility.yul\":4032:4036   */\n              dup2\n                /* \"#utility.yul\":4023:4029   */\n              dup5\n                /* \"#utility.yul\":3959:4037   */\n              tag_122\n              jump\t// in\n            tag_187:\n                /* \"#utility.yul\":3951:4037   */\n              swap1\n              pop\n                /* \"#utility.yul\":3511:4044   */\n              swap5\n              swap4\n              pop\n              pop\n              pop\n              pop\n              jump\t// out\n                /* \"#utility.yul\":4050:4272   */\n            tag_47:\n                /* \"#utility.yul\":4143:4147   */\n              0x00\n                /* \"#utility.yul\":4181:4183   */\n              0x20\n                /* \"#utility.yul\":4170:4179   */\n              dup3\n                /* \"#utility.yul\":4166:4184   */\n              add\n                /* \"#utility.yul\":4158:4184   */\n              swap1\n              pop\n                /* \"#utility.yul\":4194:4265   */\n              tag_189\n                /* \"#utility.yul\":4262:4263   */\n              0x00\n                /* \"#utility.yul\":4251:4260   */\n              dup4\n                /* \"#utility.yul\":4247:4264   */\n              add\n                /* \"#utility.yul\":4238:4244   */\n              dup5\n                /* \"#utility.yul\":4194:4265   */\n              tag_117\n              jump\t// in\n            tag_189:\n                /* \"#utility.yul\":4050:4272   */\n              swap3\n              swap2\n              pop\n              pop\n              jump\t// out\n                /* \"#utility.yul\":4278:4395   */\n            tag_123:\n                /* \"#utility.yul\":4387:4388   */\n              0x00\n                /* \"#utility.yul\":4384:4385   */\n              dup1\n                /* \"#utility.yul\":4377:4389   */\n              revert\n                /* \"#utility.yul\":4401:4581   */\n            tag_124:\n                /* \"#utility.yul\":4449:4526   */\n              0x4e487b7100000000000000000000000000000000000000000000000000000000\n                /* \"#utility.yul\":4446:4447   */\n              0x00\n                /* \"#utility.yul\":4439:4527   */\n              mstore\n                /* \"#utility.yul\":4546:4550   */\n              0x41\n                /* \"#utility.yul\":4543:4544   */\n              0x04\n                /* \"#utility.yul\":4536:4551   */\n              mstore\n                /* \"#utility.yul\":4570:4574   */\n              0x24\n                /* \"#utility.yul\":4567:4568   */\n              0x00\n                /* \"#utility.yul\":4560:4575   */\n              revert\n                /* \"#utility.yul\":4587:4868   */\n            tag_125:\n                /* \"#utility.yul\":4670:4697   */\n              tag_193\n                /* \"#utility.yul\":4692:4696   */\n              dup3\n                /* \"#utility.yul\":4670:4697   */\n              tag_121\n              jump\t// in\n            tag_193:\n                /* \"#utility.yul\":4662:4668   */\n              dup2\n                /* \"#utility.yul\":4658:4698   */\n              add\n                /* \"#utility.yul\":4800:4806   */\n              dup2\n                /* \"#utility.yul\":4788:4798   */\n              dup2\n                /* \"#utility.yul\":4785:4807   */\n              lt\n                /* \"#utility.yul\":4764:4782   */\n              0xffffffffffffffff\n                /* \"#utility.yul\":4752:4762   */\n              dup3\n                /* \"#utility.yul\":4749:4783   */\n              gt\n                /* \"#utility.yul\":4746:4808   */\n              or\n                /* \"#utility.yul\":4743:4831   */\n              iszero\n              tag_194\n              jumpi\n                /* \"#utility.yul\":4811:4829   */\n              tag_195\n              tag_124\n              jump\t// in\n            tag_195:\n                /* \"#utility.yul\":4743:4831   */\n            tag_194:\n                /* \"#utility.yul\":4851:4861   */\n              dup1\n                /* \"#utility.yul\":4847:4849   */\n              0x40\n                /* \"#utility.yul\":4840:4862   */\n              mstore\n                /* \"#utility.yul\":4630:4868   */\n              pop\n                /* \"#utility.yul\":4587:4868   */\n              pop\n              pop\n              jump\t// out\n                /* \"#utility.yul\":4874:5003   */\n            tag_126:\n                /* \"#utility.yul\":4908:4914   */\n              0x00\n                /* \"#utility.yul\":4935:4955   */\n              tag_197\n              tag_106\n              jump\t// in\n            tag_197:\n                /* \"#utility.yul\":4925:4955   */\n              swap1\n              pop\n                /* \"#utility.yul\":4964:4997   */\n              tag_198\n                /* \"#utility.yul\":4992:4996   */\n              dup3\n                /* \"#utility.yul\":4984:4990   */\n              dup3\n                /* \"#utility.yul\":4964:4997   */\n              tag_125\n              jump\t// in\n            tag_198:\n                /* \"#utility.yul\":4874:5003   */\n              swap2\n              swap1\n              pop\n              jump\t// out\n                /* \"#utility.yul\":5009:5320   */\n            tag_127:\n                /* \"#utility.yul\":5086:5090   */\n              0x00\n                /* \"#utility.yul\":5176:5194   */\n              0xffffffffffffffff\n                /* \"#utility.yul\":5168:5174   */\n              dup3\n                /* \"#utility.yul\":5165:5195   */\n              gt\n                /* \"#utility.yul\":5162:5218   */\n              iszero\n              tag_200\n              jumpi\n                /* \"#utility.yul\":5198:5216   */\n              tag_201\n              tag_124\n              jump\t// in\n            tag_201:\n                /* \"#utility.yul\":5162:5218   */\n            tag_200:\n                /* \"#utility.yul\":5248:5252   */\n              0x20\n                /* \"#utility.yul\":5240:5246   */\n              dup3\n                /* \"#utility.yul\":5236:5253   */\n              mul\n                /* \"#utility.yul\":5228:5253   */\n              swap1\n              pop\n                /* \"#utility.yul\":5308:5312   */\n              0x20\n                /* \"#utility.yul\":5302:5306   */\n              dup2\n                /* \"#utility.yul\":5298:5313   */\n              add\n                /* \"#utility.yul\":5290:5313   */\n              swap1\n              pop\n                /* \"#utility.yul\":5009:5320   */\n              swap2\n              swap1\n              pop\n              jump\t// out\n                /* \"#utility.yul\":5326:5443   */\n            tag_128:\n                /* \"#utility.yul\":5435:5436   */\n              0x00\n                /* \"#utility.yul\":5432:5433   */\n              dup1\n                /* \"#utility.yul\":5425:5437   */\n              revert\n                /* \"#utility.yul\":5466:6176   */\n            tag_129:\n                /* \"#utility.yul\":5562:5567   */\n              0x00\n                /* \"#utility.yul\":5587:5668   */\n              tag_204\n                /* \"#utility.yul\":5603:5667   */\n              tag_205\n                /* \"#utility.yul\":5660:5666   */\n              dup5\n                /* \"#utility.yul\":5603:5667   */\n              tag_127\n              jump\t// in\n            tag_205:\n                /* \"#utility.yul\":5587:5668   */\n              tag_126\n              jump\t// in\n            tag_204:\n                /* \"#utility.yul\":5578:5668   */\n              swap1\n              pop\n                /* \"#utility.yul\":5688:5693   */\n              dup1\n                /* \"#utility.yul\":5717:5723   */\n              dup4\n                /* \"#utility.yul\":5710:5715   */\n              dup3\n                /* \"#utility.yul\":5703:5724   */\n              mstore\n                /* \"#utility.yul\":5751:5755   */\n              0x20\n                /* \"#utility.yul\":5744:5749   */\n              dup3\n                /* \"#utility.yul\":5740:5756   */\n              add\n                /* \"#utility.yul\":5733:5756   */\n              swap1\n              pop\n                /* \"#utility.yul\":5804:5808   */\n              0x20\n                /* \"#utility.yul\":5796:5802   */\n              dup5\n                /* \"#utility.yul\":5792:5809   */\n              mul\n                /* \"#utility.yul\":5784:5790   */\n              dup4\n                /* \"#utility.yul\":5780:5810   */\n              add\n                /* \"#utility.yul\":5833:5836   */\n              dup6\n                /* \"#utility.yul\":5825:5831   */\n              dup2\n                /* \"#utility.yul\":5822:5837   */\n              gt\n                /* \"#utility.yul\":5819:5941   */\n              iszero\n              tag_206\n              jumpi\n                /* \"#utility.yul\":5852:5931   */\n              tag_207\n              tag_128\n              jump\t// in\n            tag_207:\n                /* \"#utility.yul\":5819:5941   */\n            tag_206:\n                /* \"#utility.yul\":5967:5973   */\n              dup4\n                /* \"#utility.yul\":5950:6170   */\n            tag_208:\n                /* \"#utility.yul\":5984:5990   */\n              dup2\n                /* \"#utility.yul\":5979:5982   */\n              dup2\n                /* \"#utility.yul\":5976:5991   */\n              lt\n                /* \"#utility.yul\":5950:6170   */\n              iszero\n              tag_210\n              jumpi\n                /* \"#utility.yul\":6059:6062   */\n              dup1\n                /* \"#utility.yul\":6088:6125   */\n              tag_211\n                /* \"#utility.yul\":6121:6124   */\n              dup9\n                /* \"#utility.yul\":6109:6119   */\n              dup3\n                /* \"#utility.yul\":6088:6125   */\n              tag_112\n              jump\t// in\n            tag_211:\n                /* \"#utility.yul\":6083:6086   */\n              dup5\n                /* \"#utility.yul\":6076:6126   */\n              mstore\n                /* \"#utility.yul\":6155:6159   */\n              0x20\n                /* \"#utility.yul\":6150:6153   */\n              dup5\n                /* \"#utility.yul\":6146:6160   */\n              add\n                /* \"#utility.yul\":6139:6160   */\n              swap4\n              pop\n                /* \"#utility.yul\":6026:6170   */\n              pop\n                /* \"#utility.yul\":6010:6014   */\n              0x20\n                /* \"#utility.yul\":6005:6008   */\n              dup2\n                /* \"#utility.yul\":6001:6015   */\n              add\n                /* \"#utility.yul\":5994:6015   */\n              swap1\n              pop\n                /* \"#utility.yul\":5950:6170   */\n              jump(tag_208)\n            tag_210:\n                /* \"#utility.yul\":5954:5975   */\n              pop\n                /* \"#utility.yul\":5568:6176   */\n              pop\n              pop\n                /* \"#utility.yul\":5466:6176   */\n              swap4\n              swap3\n              pop\n              pop\n              pop\n              jump\t// out\n                /* \"#utility.yul\":6199:6569   */\n            tag_130:\n                /* \"#utility.yul\":6270:6275   */\n              0x00\n                /* \"#utility.yul\":6319:6322   */\n              dup3\n                /* \"#utility.yul\":6312:6316   */\n              0x1f\n                /* \"#utility.yul\":6304:6310   */\n              dup4\n                /* \"#utility.yul\":6300:6317   */\n              add\n                /* \"#utility.yul\":6296:6323   */\n              slt\n                /* \"#utility.yul\":6286:6408   */\n              tag_213\n              jumpi\n                /* \"#utility.yul\":6327:6406   */\n              tag_214\n              tag_123\n              jump\t// in\n            tag_214:\n                /* \"#utility.yul\":6286:6408   */\n            tag_213:\n                /* \"#utility.yul\":6444:6450   */\n              dup2\n                /* \"#utility.yul\":6431:6451   */\n              calldataload\n                /* \"#utility.yul\":6469:6563   */\n              tag_215\n                /* \"#utility.yul\":6559:6562   */\n              dup5\n                /* \"#utility.yul\":6551:6557   */\n              dup3\n                /* \"#utility.yul\":6544:6548   */\n              0x20\n                /* \"#utility.yul\":6536:6542   */\n              dup7\n                /* \"#utility.yul\":6532:6549   */\n              add\n                /* \"#utility.yul\":6469:6563   */\n              tag_129\n              jump\t// in\n            tag_215:\n                /* \"#utility.yul\":6460:6563   */\n              swap2\n              pop\n                /* \"#utility.yul\":6276:6569   */\n              pop\n                /* \"#utility.yul\":6199:6569   */\n              swap3\n              swap2\n              pop\n              pop\n              jump\t// out\n                /* \"#utility.yul\":6575:7114   */\n            tag_53:\n                /* \"#utility.yul\":6659:6665   */\n              0x00\n                /* \"#utility.yul\":6708:6710   */\n              0x20\n                /* \"#utility.yul\":6696:6705   */\n              dup3\n                /* \"#utility.yul\":6687:6694   */\n              dup5\n                /* \"#utility.yul\":6683:6706   */\n              sub\n                /* \"#utility.yul\":6679:6711   */\n              slt\n                /* \"#utility.yul\":6676:6795   */\n              iszero\n              tag_217\n              jumpi\n                /* \"#utility.yul\":6714:6793   */\n              tag_218\n              tag_107\n              jump\t// in\n            tag_218:\n                /* \"#utility.yul\":6676:6795   */\n            tag_217:\n                /* \"#utility.yul\":6862:6863   */\n              0x00\n                /* \"#utility.yul\":6851:6860   */\n              dup3\n                /* \"#utility.yul\":6847:6864   */\n              add\n                /* \"#utility.yul\":6834:6865   */\n              calldataload\n                /* \"#utility.yul\":6892:6910   */\n              0xffffffffffffffff\n                /* \"#utility.yul\":6884:6890   */\n              dup2\n                /* \"#utility.yul\":6881:6911   */\n              gt\n                /* \"#utility.yul\":6878:6995   */\n              iszero\n              tag_219\n              jumpi\n                /* \"#utility.yul\":6914:6993   */\n              tag_220\n              tag_108\n              jump\t// in\n            tag_220:\n                /* \"#utility.yul\":6878:6995   */\n            tag_219:\n                /* \"#utility.yul\":7019:7097   */\n              tag_221\n                /* \"#utility.yul\":7089:7096   */\n              dup5\n                /* \"#utility.yul\":7080:7086   */\n              dup3\n                /* \"#utility.yul\":7069:7078   */\n              dup6\n                /* \"#utility.yul\":7065:7087   */\n              add\n                /* \"#utility.yul\":7019:7097   */\n              tag_130\n              jump\t// in\n            tag_221:\n                /* \"#utility.yul\":7009:7097   */\n              swap2\n              pop\n                /* \"#utility.yul\":6805:7107   */\n              pop\n                /* \"#utility.yul\":6575:7114   */\n              swap3\n              swap2\n              pop\n              pop\n              jump\t// out\n                /* \"#utility.yul\":7120:7234   */\n            tag_131:\n                /* \"#utility.yul\":7187:7193   */\n              0x00\n                /* \"#utility.yul\":7221:7226   */\n              dup2\n                /* \"#utility.yul\":7215:7227   */\n              mload\n                /* \"#utility.yul\":7205:7227   */\n              swap1\n              pop\n                /* \"#utility.yul\":7120:7234   */\n              swap2\n              swap1\n              pop\n              jump\t// out\n                /* \"#utility.yul\":7240:7424   */\n            tag_132:\n                /* \"#utility.yul\":7339:7350   */\n              0x00\n                /* \"#utility.yul\":7373:7379   */\n              dup3\n                /* \"#utility.yul\":7368:7371   */\n              dup3\n                /* \"#utility.yul\":7361:7380   */\n              mstore\n                /* \"#utility.yul\":7413:7417   */\n              0x20\n                /* \"#utility.yul\":7408:7411   */\n              dup3\n                /* \"#utility.yul\":7404:7418   */\n              add\n                /* \"#utility.yul\":7389:7418   */\n              swap1\n              pop\n                /* \"#utility.yul\":7240:7424   */\n              swap3\n              swap2\n              pop\n              pop\n              jump\t// out\n                /* \"#utility.yul\":7430:7562   */\n            tag_133:\n                /* \"#utility.yul\":7497:7501   */\n              0x00\n                /* \"#utility.yul\":7520:7523   */\n              dup2\n                /* \"#utility.yul\":7512:7523   */\n              swap1\n              pop\n                /* \"#utility.yul\":7550:7554   */\n              0x20\n                /* \"#utility.yul\":7545:7548   */\n              dup3\n                /* \"#utility.yul\":7541:7555   */\n              add\n                /* \"#utility.yul\":7533:7555   */\n              swap1\n              pop\n                /* \"#utility.yul\":7430:7562   */\n              swap2\n              swap1\n              pop\n              jump\t// out\n                /* \"#utility.yul\":7568:7676   */\n            tag_134:\n                /* \"#utility.yul\":7645:7669   */\n              tag_226\n                /* \"#utility.yul\":7663:7668   */\n              dup2\n                /* \"#utility.yul\":7645:7669   */\n              tag_110\n              jump\t// in\n            tag_226:\n                /* \"#utility.yul\":7640:7643   */\n              dup3\n                /* \"#utility.yul\":7633:7670   */\n              mstore\n                /* \"#utility.yul\":7568:7676   */\n              pop\n              pop\n              jump\t// out\n                /* \"#utility.yul\":7682:7861   */\n            tag_135:\n                /* \"#utility.yul\":7751:7761   */\n              0x00\n                /* \"#utility.yul\":7772:7818   */\n              tag_228\n                /* \"#utility.yul\":7814:7817   */\n              dup4\n                /* \"#utility.yul\":7806:7812   */\n              dup4\n                /* \"#utility.yul\":7772:7818   */\n              tag_134\n              jump\t// in\n            tag_228:\n                /* \"#utility.yul\":7850:7854   */\n              0x20\n                /* \"#utility.yul\":7845:7848   */\n              dup4\n                /* \"#utility.yul\":7841:7855   */\n              add\n                /* \"#utility.yul\":7827:7855   */\n              swap1\n              pop\n                /* \"#utility.yul\":7682:7861   */\n              swap3\n              swap2\n              pop\n              pop\n              jump\t// out\n                /* \"#utility.yul\":7867:7980   */\n            tag_136:\n                /* \"#utility.yul\":7937:7941   */\n              0x00\n                /* \"#utility.yul\":7969:7973   */\n              0x20\n                /* \"#utility.yul\":7964:7967   */\n              dup3\n                /* \"#utility.yul\":7960:7974   */\n              add\n                /* \"#utility.yul\":7952:7974   */\n              swap1\n              pop\n                /* \"#utility.yul\":7867:7980   */\n              swap2\n              swap1\n              pop\n              jump\t// out\n                /* \"#utility.yul\":8016:8748   */\n            tag_137:\n                /* \"#utility.yul\":8135:8138   */\n              0x00\n                /* \"#utility.yul\":8164:8218   */\n              tag_231\n                /* \"#utility.yul\":8212:8217   */\n              dup3\n                /* \"#utility.yul\":8164:8218   */\n              tag_131\n              jump\t// in\n            tag_231:\n                /* \"#utility.yul\":8234:8320   */\n              tag_232\n                /* \"#utility.yul\":8313:8319   */\n              dup2\n                /* \"#utility.yul\":8308:8311   */\n              dup6\n                /* \"#utility.yul\":8234:8320   */\n              tag_132\n              jump\t// in\n            tag_232:\n                /* \"#utility.yul\":8227:8320   */\n              swap4\n              pop\n                /* \"#utility.yul\":8344:8400   */\n              tag_233\n                /* \"#utility.yul\":8394:8399   */\n              dup4\n                /* \"#utility.yul\":8344:8400   */\n              tag_133\n              jump\t// in\n            tag_233:\n                /* \"#utility.yul\":8423:8430   */\n              dup1\n                /* \"#utility.yul\":8454:8455   */\n              0x00\n                /* \"#utility.yul\":8439:8723   */\n            tag_234:\n                /* \"#utility.yul\":8464:8470   */\n              dup4\n                /* \"#utility.yul\":8461:8462   */\n              dup2\n                /* \"#utility.yul\":8458:8471   */\n              lt\n                /* \"#utility.yul\":8439:8723   */\n              iszero\n              tag_236\n              jumpi\n                /* \"#utility.yul\":8540:8546   */\n              dup2\n                /* \"#utility.yul\":8534:8547   */\n              mload\n                /* \"#utility.yul\":8567:8630   */\n              tag_237\n                /* \"#utility.yul\":8626:8629   */\n              dup9\n                /* \"#utility.yul\":8611:8624   */\n              dup3\n                /* \"#utility.yul\":8567:8630   */\n              tag_135\n              jump\t// in\n            tag_237:\n                /* \"#utility.yul\":8560:8630   */\n              swap8\n              pop\n                /* \"#utility.yul\":8653:8713   */\n              tag_238\n                /* \"#utility.yul\":8706:8712   */\n              dup4\n                /* \"#utility.yul\":8653:8713   */\n              tag_136\n              jump\t// in\n            tag_238:\n                /* \"#utility.yul\":8643:8713   */\n              swap3\n              pop\n                /* \"#utility.yul\":8499:8723   */\n              pop\n                /* \"#utility.yul\":8486:8487   */\n              0x01\n                /* \"#utility.yul\":8483:8484   */\n              dup2\n                /* \"#utility.yul\":8479:8488   */\n              add\n                /* \"#utility.yul\":8474:8488   */\n              swap1\n              pop\n                /* \"#utility.yul\":8439:8723   */\n              jump(tag_234)\n            tag_236:\n                /* \"#utility.yul\":8443:8457   */\n              pop\n                /* \"#utility.yul\":8739:8742   */\n              dup6\n                /* \"#utility.yul\":8732:8742   */\n              swap4\n              pop\n                /* \"#utility.yul\":8140:8748   */\n              pop\n              pop\n              pop\n                /* \"#utility.yul\":8016:8748   */\n              swap3\n              swap2\n              pop\n              pop\n              jump\t// out\n                /* \"#utility.yul\":8754:9127   */\n            tag_58:\n                /* \"#utility.yul\":8897:8901   */\n              0x00\n                /* \"#utility.yul\":8935:8937   */\n              0x20\n                /* \"#utility.yul\":8924:8933   */\n              dup3\n                /* \"#utility.yul\":8920:8938   */\n              add\n                /* \"#utility.yul\":8912:8938   */\n              swap1\n              pop\n                /* \"#utility.yul\":8984:8993   */\n              dup2\n                /* \"#utility.yul\":8978:8982   */\n              dup2\n                /* \"#utility.yul\":8974:8994   */\n              sub\n                /* \"#utility.yul\":8970:8971   */\n              0x00\n                /* \"#utility.yul\":8959:8968   */\n              dup4\n                /* \"#utility.yul\":8955:8972   */\n              add\n                /* \"#utility.yul\":8948:8995   */\n              mstore\n                /* \"#utility.yul\":9012:9120   */\n              tag_240\n                /* \"#utility.yul\":9115:9119   */\n              dup2\n                /* \"#utility.yul\":9106:9112   */\n              dup5\n                /* \"#utility.yul\":9012:9120   */\n              tag_137\n              jump\t// in\n            tag_240:\n                /* \"#utility.yul\":9004:9120   */\n              swap1\n              pop\n                /* \"#utility.yul\":8754:9127   */\n              swap3\n              swap2\n              pop\n              pop\n              jump\t// out\n                /* \"#utility.yul\":9133:9313   */\n            tag_138:\n                /* \"#utility.yul\":9181:9258   */\n              0x4e487b7100000000000000000000000000000000000000000000000000000000\n                /* \"#utility.yul\":9178:9179   */\n              0x00\n                /* \"#utility.yul\":9171:9259   */\n              mstore\n                /* \"#utility.yul\":9278:9282   */\n              0x22\n                /* \"#utility.yul\":9275:9276   */\n              0x04\n                /* \"#utility.yul\":9268:9283   */\n              mstore\n                /* \"#utility.yul\":9302:9306   */\n              0x24\n                /* \"#utility.yul\":9299:9300   */\n              0x00\n                /* \"#utility.yul\":9292:9307   */\n              revert\n                /* \"#utility.yul\":9319:9639   */\n            tag_80:\n                /* \"#utility.yul\":9363:9369   */\n              0x00\n                /* \"#utility.yul\":9400:9401   */\n              0x02\n                /* \"#utility.yul\":9394:9398   */\n              dup3\n                /* \"#utility.yul\":9390:9402   */\n              div\n                /* \"#utility.yul\":9380:9402   */\n              swap1\n              pop\n                /* \"#utility.yul\":9447:9448   */\n              0x01\n                /* \"#utility.yul\":9441:9445   */\n              dup3\n                /* \"#utility.yul\":9437:9449   */\n              and\n                /* \"#utility.yul\":9468:9486   */\n              dup1\n                /* \"#utility.yul\":9458:9539   */\n              tag_243\n              jumpi\n                /* \"#utility.yul\":9524:9528   */\n              0x7f\n                /* \"#utility.yul\":9516:9522   */\n              dup3\n                /* \"#utility.yul\":9512:9529   */\n              and\n                /* \"#utility.yul\":9502:9529   */\n              swap2\n              pop\n                /* \"#utility.yul\":9458:9539   */\n            tag_243:\n                /* \"#utility.yul\":9586:9588   */\n              0x20\n                /* \"#utility.yul\":9578:9584   */\n              dup3\n                /* \"#utility.yul\":9575:9589   */\n              lt\n                /* \"#utility.yul\":9555:9573   */\n              dup2\n                /* \"#utility.yul\":9552:9590   */\n              sub\n                /* \"#utility.yul\":9549:9633   */\n              tag_244\n              jumpi\n                /* \"#utility.yul\":9605:9623   */\n              tag_245\n              tag_138\n              jump\t// in\n            tag_245:\n                /* \"#utility.yul\":9549:9633   */\n            tag_244:\n                /* \"#utility.yul\":9370:9639   */\n              pop\n                /* \"#utility.yul\":9319:9639   */\n              swap2\n              swap1\n              pop\n              jump\t// out\n\n            auxdata: 0xa264697066735822122018cdba06b6f074b95a17d7950f2dc5c5a7d790e0e8ba5ebc3cc7b9bf723a789964736f6c63430008170033\n        }\n    }\n\n    auxdata: 0xa2646970667358221220ad38f57fb3c2b9792f79d695cc91dd7e5aae465d7c695bf28e76156ee0eb29ee64736f6c63430008170033\n}\n","bytecode":{"linkReferences":{},"object":"608060405234801561000f575f80fd5b506118b98061001d5f395ff3fe608060405234801562000010575f80fd5b506004361062000044575f3560e01c8063339d50a514620000485780634acb9d4f146200007e578063fdbf9ff114620000a0575b5f80fd5b6200006660048036038101906200006091906200027a565b620000c0565b60405162000075919062000330565b60405180910390f35b62000088620000fb565b60405162000097919062000412565b60405180910390f35b620000be6004803603810190620000b891906200058c565b62000187565b005b5f8181548110620000cf575f80fd5b905f5260205f20015f915054906101000a900473ffffffffffffffffffffffffffffffffffffffff1681565b60605f8054806020026020016040519081016040528092919081815260200182805480156200017d57602002820191905f5260205f20905b815f9054906101000a900473ffffffffffffffffffffffffffffffffffffffff1673ffffffffffffffffffffffffffffffffffffffff168152602001906001019080831162000133575b5050505050905090565b5f81604051620001979062000223565b620001a391906200065f565b604051809103905ff080158015620001bd573d5f803e3d5ffd5b5090505f81908060018154018082558091505060019003905f5260205f20015f9091909190916101000a81548173ffffffffffffffffffffffffffffffffffffffff021916908373ffffffffffffffffffffffffffffffffffffffff1602179055505050565b611202806200068283390190565b5f604051905090565b5f80fd5b5f80fd5b5f819050919050565b620002568162000242565b811462000261575f80fd5b50565b5f8135905062000274816200024b565b92915050565b5f602082840312156200029257620002916200023a565b5b5f620002a18482850162000264565b91505092915050565b5f73ffffffffffffffffffffffffffffffffffffffff82169050919050565b5f819050919050565b5f620002f2620002ec620002e684620002aa565b620002c9565b620002aa565b9050919050565b5f6200030582620002d2565b9050919050565b5f6200031882620002f9565b9050919050565b6200032a816200030c565b82525050565b5f602082019050620003455f8301846200031f565b92915050565b5f81519050919050565b5f82825260208201905092915050565b5f819050602082019050919050565b6200037f816200030c565b82525050565b5f62000392838362000374565b60208301905092915050565b5f602082019050919050565b5f620003b6826200034b565b620003c2818562000355565b9350620003cf8362000365565b805f5b8381101562000405578151620003e9888262000385565b9750620003f6836200039e565b925050600181019050620003d2565b5085935050505092915050565b5f6020820190508181035f8301526200042c8184620003aa565b905092915050565b5f80fd5b5f80fd5b5f601f19601f8301169050919050565b7f4e487b71000000000000000000000000000000000000000000000000000000005f52604160045260245ffd5b62000484826200043c565b810181811067ffffffffffffffff82111715620004a657620004a56200044c565b5b80604052505050565b5f620004ba62000231565b9050620004c8828262000479565b919050565b5f67ffffffffffffffff821115620004ea57620004e96200044c565b5b620004f5826200043c565b9050602081019050919050565b828183375f83830152505050565b5f620005266200052084620004cd565b620004af565b90508281526020810184848401111562000545576200054462000438565b5b6200055284828562000502565b509392505050565b5f82601f83011262000571576200057062000434565b5b81356200058384826020860162000510565b91505092915050565b5f60208284031215620005a457620005a36200023a565b5b5f82013567ffffffffffffffff811115620005c457620005c36200023e565b5b620005d2848285016200055a565b91505092915050565b5f81519050919050565b5f82825260208201905092915050565b5f5b8381101562000614578082015181840152602081019050620005f7565b5f8484015250505050565b5f6200062b82620005db565b620006378185620005e5565b935062000649818560208601620005f5565b62000654816200043c565b840191505092915050565b5f6020820190508181035f8301526200067981846200061f565b90509291505056fe60806040526040516200120238038062001202833981810160405281019062000029919062000207565b3360015f6101000a81548173ffffffffffffffffffffffffffffffffffffffff021916908373ffffffffffffffffffffffffffffffffffffffff16021790555080600590816200007a91906200048d565b505062000571565b5f604051905090565b5f80fd5b5f80fd5b5f80fd5b5f80fd5b5f601f19601f8301169050919050565b7f4e487b71000000000000000000000000000000000000000000000000000000005f52604160045260245ffd5b620000e3826200009b565b810181811067ffffffffffffffff82111715620001055762000104620000ab565b5b80604052505050565b5f6200011962000082565b9050620001278282620000d8565b919050565b5f67ffffffffffffffff821115620001495762000148620000ab565b5b62000154826200009b565b9050602081019050919050565b5f5b838110156200018057808201518184015260208101905062000163565b5f8484015250505050565b5f620001a16200019b846200012c565b6200010e565b905082815260208101848484011115620001c057620001bf62000097565b5b620001cd84828562000161565b509392505050565b5f82601f830112620001ec57620001eb62000093565b5b8151620001fe8482602086016200018b565b91505092915050565b5f602082840312156200021f576200021e6200008b565b5b5f82015167ffffffffffffffff8111156200023f576200023e6200008f565b5b6200024d84828501620001d5565b91505092915050565b5f81519050919050565b7f4e487b71000000000000000000000000000000000000000000000000000000005f52602260045260245ffd5b5f6002820490506001821680620002a557607f821691505b602082108103620002bb57620002ba62000260565b5b50919050565b5f819050815f5260205f209050919050565b5f6020601f8301049050919050565b5f82821b905092915050565b5f600883026200031f7fffffffffffffffffffffffffffffffffffffffffffffffffffffffffffffffff82620002e2565b6200032b8683620002e2565b95508019841693508086168417925050509392505050565b5f819050919050565b5f819050919050565b5f620003756200036f620003698462000343565b6200034c565b62000343565b9050919050565b5f819050919050565b620003908362000355565b620003a86200039f826200037c565b848454620002ee565b825550505050565b5f90565b620003be620003b0565b620003cb81848462000385565b505050565b5b81811015620003f257620003e65f82620003b4565b600181019050620003d1565b5050565b601f82111562000441576200040b81620002c1565b6200041684620002d3565b8101602085101562000426578190505b6200043e6200043585620002d3565b830182620003d0565b50505b505050565b5f82821c905092915050565b5f620004635f198460080262000446565b1980831691505092915050565b5f6200047d838362000452565b9150826002028217905092915050565b620004988262000256565b67ffffffffffffffff811115620004b457620004b3620000ab565b5b620004c082546200028d565b620004cd828285620003f6565b5f60209050601f83116001811462000503575f8415620004ee578287015190505b620004fa858262000470565b86555062000569565b601f1984166200051386620002c1565b5f5b828110156200053c5784890151825560018201915060208501945060208101905062000515565b868310156200055c578489015162000558601f89168262000452565b8355505b6001600288020188555050505b505050505050565b610c83806200057f5f395ff3fe608060405234801561000f575f80fd5b50600436106100f3575f3560e01c8063704b6c0211610095578063e512fcf211610064578063e512fcf214610249578063ec5630ca14610267578063f851a44014610285578063fc8c79b5146102a3576100f3565b8063704b6c02146101d7578063bb3accf0146101f3578063beffaf091461020f578063dbd695f31461022d576100f3565b806357cbb4cf116100d157806357cbb4cf146101735780635a58cd4c1461018f5780635c0badfc146101995780636e9960c3146101b9576100f3565b806301567739146100f75780631cab59a4146101275780634b47e58814610157575b5f80fd5b610111600480360381019061010c91906107e0565b6102bf565b60405161011e9190610823565b60405180910390f35b610141600480360381019061013c91906107e0565b6102d4565b60405161014e9190610823565b60405180910390f35b610171600480360381019061016c91906107e0565b61031a565b005b61018d60048036038101906101889190610866565b61035d565b005b6101976103a3565b005b6101a16103dd565b6040516101b09392919061093d565b60405180910390f35b6101c161049d565b6040516101ce9190610979565b60405180910390f35b6101f160048036038101906101ec91906107e0565b6104c4565b005b61020d60048036038101906102089190610ad2565b610506565b005b610217610520565b6040516102249190610bd0565b60405180910390f35b61024760048036038101906102429190610ad2565b6105ab565b005b61025161061d565b60405161025e9190610979565b60405180910390f35b61026f610645565b60405161027c9190610979565b60405180910390f35b61028d61066a565b60405161029a9190610979565b60405180910390f35b6102bd60048036038101906102b89190610866565b61068d565b005b6003602052805f5260405f205f915090505481565b5f60035f8373ffffffffffffffffffffffffffffffffffffffff1673ffffffffffffffffffffffffffffffffffffffff1681526020019081526020015f20549050919050565b8060015f6101000a81548173ffffffffffffffffffffffffffffffffffffffff021916908373ffffffffffffffffffffffffffffffffffffffff16021790555050565b8060035f8473ffffffffffffffffffffffffffffffffffffffff1673ffffffffffffffffffffffffffffffffffffffff1681526020019081526020015f20819055505050565b60015f9054906101000a900473ffffffffffffffffffffffffffffffffffffffff1673ffffffffffffffffffffffffffffffffffffffff16ff5b5f80606060015f9054906101000a900473ffffffffffffffffffffffffffffffffffffffff16600454600580805461041490610c1d565b80601f016020809104026020016040519081016040528092919081815260200182805461044090610c1d565b801561048b5780601f106104625761010080835404028352916020019161048b565b820191905f5260205f20905b81548152906001019060200180831161046e57829003601f168201915b50505050509050925092509250909192565b5f805f9054906101000a900473ffffffffffffffffffffffffffffffffffffffff16905090565b805f806101000a81548173ffffffffffffffffffffffffffffffffffffffff021916908373ffffffffffffffffffffffffffffffffffffffff16021790555050565b806002908051906020019061051c9291906106d3565b5050565b606060028054806020026020016040519081016040528092919081815260200182805480156105a157602002820191905f5260205f20905b815f9054906101000a900473ffffffffffffffffffffffffffffffffffffffff1673ffffffffffffffffffffffffffffffffffffffff1681526020019060010190808311610558575b5050505050905090565b60015f9054906101000a900473ffffffffffffffffffffffffffffffffffffffff1673ffffffffffffffffffffffffffffffffffffffff163373ffffffffffffffffffffffffffffffffffffffff1614610603575f80fd5b80600290805190602001906106199291906106d3565b5050565b5f60015f9054906101000a900473ffffffffffffffffffffffffffffffffffffffff16905090565b60015f9054906101000a900473ffffffffffffffffffffffffffffffffffffffff1681565b5f8054906101000a900473ffffffffffffffffffffffffffffffffffffffff1681565b8060035f8473ffffffffffffffffffffffffffffffffffffffff1673ffffffffffffffffffffffffffffffffffffffff1681526020019081526020015f20819055505050565b828054828255905f5260205f20908101928215610749579160200282015b82811115610748578251825f6101000a81548173ffffffffffffffffffffffffffffffffffffffff021916908373ffffffffffffffffffffffffffffffffffffffff160217905550916020019190600101906106f1565b5b509050610756919061075a565b5090565b5b80821115610771575f815f90555060010161075b565b5090565b5f604051905090565b5f80fd5b5f80fd5b5f73ffffffffffffffffffffffffffffffffffffffff82169050919050565b5f6107af82610786565b9050919050565b6107bf816107a5565b81146107c9575f80fd5b50565b5f813590506107da816107b6565b92915050565b5f602082840312156107f5576107f461077e565b5b5f610802848285016107cc565b91505092915050565b5f819050919050565b61081d8161080b565b82525050565b5f6020820190506108365f830184610814565b92915050565b6108458161080b565b811461084f575f80fd5b50565b5f813590506108608161083c565b92915050565b5f806040838503121561087c5761087b61077e565b5b5f610889858286016107cc565b925050602061089a85828601610852565b9150509250929050565b6108ad816107a5565b82525050565b5f81519050919050565b5f82825260208201905092915050565b5f5b838110156108ea5780820151818401526020810190506108cf565b5f8484015250505050565b5f601f19601f8301169050919050565b5f61090f826108b3565b61091981856108bd565b93506109298185602086016108cd565b610932816108f5565b840191505092915050565b5f6060820190506109505f8301866108a4565b61095d6020830185610814565b818103604083015261096f8184610905565b9050949350505050565b5f60208201905061098c5f8301846108a4565b92915050565b5f80fd5b7f4e487b71000000000000000000000000000000000000000000000000000000005f52604160045260245ffd5b6109cc826108f5565b810181811067ffffffffffffffff821117156109eb576109ea610996565b5b80604052505050565b5f6109fd610775565b9050610a0982826109c3565b919050565b5f67ffffffffffffffff821115610a2857610a27610996565b5b602082029050602081019050919050565b5f80fd5b5f610a4f610a4a84610a0e565b6109f4565b90508083825260208201905060208402830185811115610a7257610a71610a39565b5b835b81811015610a9b5780610a8788826107cc565b845260208401935050602081019050610a74565b5050509392505050565b5f82601f830112610ab957610ab8610992565b5b8135610ac9848260208601610a3d565b91505092915050565b5f60208284031215610ae757610ae661077e565b5b5f82013567ffffffffffffffff811115610b0457610b03610782565b5b610b1084828501610aa5565b91505092915050565b5f81519050919050565b5f82825260208201905092915050565b5f819050602082019050919050565b610b4b816107a5565b82525050565b5f610b5c8383610b42565b60208301905092915050565b5f602082019050919050565b5f610b7e82610b19565b610b888185610b23565b9350610b9383610b33565b805f5b83811015610bc3578151610baa8882610b51565b9750610bb583610b68565b925050600181019050610b96565b5085935050505092915050565b5f6020820190508181035f830152610be88184610b74565b905092915050565b7f4e487b71000000000000000000000000000000000000000000000000000000005f52602260045260245ffd5b5f6002820490506001821680610c3457607f821691505b602082108103610c4757610c46610bf0565b5b5091905056fea264697066735822122018cdba06b6f074b95a17d7950f2dc5c5a7d790e0e8ba5ebc3cc7b9bf723a789964736f6c63430008170033a2646970667358221220ad38f57fb3c2b9792f79d695cc91dd7e5aae465d7c695bf28e76156ee0eb29ee64736f6c63430008170033","opcodes":"PUSH1 0x80 PUSH1 0x40 MSTORE CALLVALUE DUP1 ISZERO PUSH2 0xF JUMPI PUSH0 DUP1 REVERT JUMPDEST POP PUSH2 0x18B9 DUP1 PUSH2 0x1D PUSH0 CODECOPY PUSH0 RETURN INVALID PUSH1 0x80 PUSH1 0x40 MSTORE CALLVALUE DUP1 ISZERO PUSH3 0x10 JUMPI PUSH0 DUP1 REVERT JUMPDEST POP PUSH1 0x4 CALLDATASIZE LT PUSH3 0x44 JUMPI PUSH0 CALLDATALOAD PUSH1 0xE0 SHR DUP1 PUSH4 0x339D50A5 EQ PUSH3 0x48 JUMPI DUP1 PUSH4 0x4ACB9D4F EQ PUSH3 0x7E JUMPI DUP1 PUSH4 0xFDBF9FF1 EQ PUSH3 0xA0 JUMPI JUMPDEST PUSH0 DUP1 REVERT JUMPDEST PUSH3 0x66 PUSH1 0x4 DUP1 CALLDATASIZE SUB DUP2 ADD SWAP1 PUSH3 0x60 SWAP2 SWAP1 PUSH3 0x27A JUMP JUMPDEST PUSH3 0xC0 JUMP JUMPDEST PUSH1 0x40 MLOAD PUSH3 0x75 SWAP2 SWAP1 PUSH3 0x330 JUMP JUMPDEST PUSH1 0x40 MLOAD DUP1 SWAP2 SUB SWAP1 RETURN JUMPDEST PUSH3 0x88 PUSH3 0xFB JUMP JUMPDEST PUSH1 0x40 MLOAD PUSH3 0x97 SWAP2 SWAP1 PUSH3 0x412 JUMP JUMPDEST PUSH1 0x40 MLOAD DUP1 SWAP2 SUB SWAP1 RETURN JUMPDEST PUSH3 0xBE PUSH1 0x4 DUP1 CALLDATASIZE SUB DUP2 ADD SWAP1 PUSH3 0xB8 SWAP2 SWAP1 PUSH3 0x58C JUMP JUMPDEST PUSH3 0x187 JUMP JUMPDEST STOP JUMPDEST PUSH0 DUP2 DUP2 SLOAD DUP2 LT PUSH3 0xCF JUMPI PUSH0 DUP1 REVERT JUMPDEST SWAP1 PUSH0 MSTORE PUSH1 0x20 PUSH0 KECCAK256 ADD PUSH0 SWAP2 POP SLOAD SWAP1 PUSH2 0x100 EXP SWAP1 DIV PUSH20 0xFFFFFFFFFFFFFFFFFFFFFFFFFFFFFFFFFFFFFFFF AND DUP2 JUMP JUMPDEST PUSH1 0x60 PUSH0 DUP1 SLOAD DUP1 PUSH1 0x20 MUL PUSH1 0x20 ADD PUSH1 0x40 MLOAD SWAP1 DUP2 ADD PUSH1 0x40 MSTORE DUP1 SWAP3 SWAP2 SWAP1 DUP2 DUP2 MSTORE PUSH1 0x20 ADD DUP3 DUP1 SLOAD DUP1 ISZERO PUSH3 0x17D JUMPI PUSH1 0x20 MUL DUP3 ADD SWAP2 SWAP1 PUSH0 MSTORE PUSH1 0x20 PUSH0 KECCAK256 SWAP1 JUMPDEST DUP2 PUSH0 SWAP1 SLOAD SWAP1 PUSH2 0x100 EXP SWAP1 DIV PUSH20 0xFFFFFFFFFFFFFFFFFFFFFFFFFFFFFFFFFFFFFFFF AND PUSH20 0xFFFFFFFFFFFFFFFFFFFFFFFFFFFFFFFFFFFFFFFF AND DUP2 MSTORE PUSH1 0x20 ADD SWAP1 PUSH1 0x1 ADD SWAP1 DUP1 DUP4 GT PUSH3 0x133 JUMPI JUMPDEST POP POP POP POP POP SWAP1 POP SWAP1 JUMP JUMPDEST PUSH0 DUP2 PUSH1 0x40 MLOAD PUSH3 0x197 SWAP1 PUSH3 0x223 JUMP JUMPDEST PUSH3 0x1A3 SWAP2 SWAP1 PUSH3 0x65F JUMP JUMPDEST PUSH1 0x40 MLOAD DUP1 SWAP2 SUB SWAP1 PUSH0 CREATE DUP1 ISZERO DUP1 ISZERO PUSH3 0x1BD JUMPI RETURNDATASIZE PUSH0 DUP1 RETURNDATACOPY RETURNDATASIZE PUSH0 REVERT JUMPDEST POP SWAP1 POP PUSH0 DUP2 SWAP1 DUP1 PUSH1 0x1 DUP2 SLOAD ADD DUP1 DUP3 SSTORE DUP1 SWAP2 POP POP PUSH1 0x1 SWAP1 SUB SWAP1 PUSH0 MSTORE PUSH1 0x20 PUSH0 KECCAK256 ADD PUSH0 SWAP1 SWAP2 SWAP1 SWAP2 SWAP1 SWAP2 PUSH2 0x100 EXP DUP2 SLOAD DUP2 PUSH20 0xFFFFFFFFFFFFFFFFFFFFFFFFFFFFFFFFFFFFFFFF MUL NOT AND SWAP1 DUP4 PUSH20 0xFFFFFFFFFFFFFFFFFFFFFFFFFFFFFFFFFFFFFFFF AND MUL OR SWAP1 SSTORE POP POP POP JUMP JUMPDEST PUSH2 0x1202 DUP1 PUSH3 0x682 DUP4 CODECOPY ADD SWAP1 JUMP JUMPDEST PUSH0 PUSH1 0x40 MLOAD SWAP1 POP SWAP1 JUMP JUMPDEST PUSH0 DUP1 REVERT JUMPDEST PUSH0 DUP1 REVERT JUMPDEST PUSH0 DUP2 SWAP1 POP SWAP2 SWAP1 POP JUMP JUMPDEST PUSH3 0x256 DUP2 PUSH3 0x242 JUMP JUMPDEST DUP2 EQ PUSH3 0x261 JUMPI PUSH0 DUP1 REVERT JUMPDEST POP JUMP JUMPDEST PUSH0 DUP2 CALLDATALOAD SWAP1 POP PUSH3 0x274 DUP2 PUSH3 0x24B JUMP JUMPDEST SWAP3 SWAP2 POP POP JUMP JUMPDEST PUSH0 PUSH1 0x20 DUP3 DUP5 SUB SLT ISZERO PUSH3 0x292 JUMPI PUSH3 0x291 PUSH3 0x23A JUMP JUMPDEST JUMPDEST PUSH0 PUSH3 0x2A1 DUP5 DUP3 DUP6 ADD PUSH3 0x264 JUMP JUMPDEST SWAP2 POP POP SWAP3 SWAP2 POP POP JUMP JUMPDEST PUSH0 PUSH20 0xFFFFFFFFFFFFFFFFFFFFFFFFFFFFFFFFFFFFFFFF DUP3 AND SWAP1 POP SWAP2 SWAP1 POP JUMP JUMPDEST PUSH0 DUP2 SWAP1 POP SWAP2 SWAP1 POP JUMP JUMPDEST PUSH0 PUSH3 0x2F2 PUSH3 0x2EC PUSH3 0x2E6 DUP5 PUSH3 0x2AA JUMP JUMPDEST PUSH3 0x2C9 JUMP JUMPDEST PUSH3 0x2AA JUMP JUMPDEST SWAP1 POP SWAP2 SWAP1 POP JUMP JUMPDEST PUSH0 PUSH3 0x305 DUP3 PUSH3 0x2D2 JUMP JUMPDEST SWAP1 POP SWAP2 SWAP1 POP JUMP JUMPDEST PUSH0 PUSH3 0x318 DUP3 PUSH3 0x2F9 JUMP JUMPDEST SWAP1 POP SWAP2 SWAP1 POP JUMP JUMPDEST PUSH3 0x32A DUP2 PUSH3 0x30C JUMP JUMPDEST DUP3 MSTORE POP POP JUMP JUMPDEST PUSH0 PUSH1 0x20 DUP3 ADD SWAP1 POP PUSH3 0x345 PUSH0 DUP4 ADD DUP5 PUSH3 0x31F JUMP JUMPDEST SWAP3 SWAP2 POP POP JUMP JUMPDEST PUSH0 DUP2 MLOAD SWAP1 POP SWAP2 SWAP1 POP JUMP JUMPDEST PUSH0 DUP3 DUP3 MSTORE PUSH1 0x20 DUP3 ADD SWAP1 POP SWAP3 SWAP2 POP POP JUMP JUMPDEST PUSH0 DUP2 SWAP1 POP PUSH1 0x20 DUP3 ADD SWAP1 POP SWAP2 SWAP1 POP JUMP JUMPDEST PUSH3 0x37F DUP2 PUSH3 0x30C JUMP JUMPDEST DUP3 MSTORE POP POP JUMP JUMPDEST PUSH0 PUSH3 0x392 DUP4 DUP4 PUSH3 0x374 JUMP JUMPDEST PUSH1 0x20 DUP4 ADD SWAP1 POP SWAP3 SWAP2 POP POP JUMP JUMPDEST PUSH0 PUSH1 0x20 DUP3 ADD SWAP1 POP SWAP2 SWAP1 POP JUMP JUMPDEST PUSH0 PUSH3 0x3B6 DUP3 PUSH3 0x34B JUMP JUMPDEST PUSH3 0x3C2 DUP2 DUP6 PUSH3 0x355 JUMP JUMPDEST SWAP4 POP PUSH3 0x3CF DUP4 PUSH3 0x365 JUMP JUMPDEST DUP1 PUSH0 JUMPDEST DUP4 DUP2 LT ISZERO PUSH3 0x405 JUMPI DUP2 MLOAD PUSH3 0x3E9 DUP9 DUP3 PUSH3 0x385 JUMP JUMPDEST SWAP8 POP PUSH3 0x3F6 DUP4 PUSH3 0x39E JUMP JUMPDEST SWAP3 POP POP PUSH1 0x1 DUP2 ADD SWAP1 POP PUSH3 0x3D2 JUMP JUMPDEST POP DUP6 SWAP4 POP POP POP POP SWAP3 SWAP2 POP POP JUMP JUMPDEST PUSH0 PUSH1 0x20 DUP3 ADD SWAP1 POP DUP2 DUP2 SUB PUSH0 DUP4 ADD MSTORE PUSH3 0x42C DUP2 DUP5 PUSH3 0x3AA JUMP JUMPDEST SWAP1 POP SWAP3 SWAP2 POP POP JUMP JUMPDEST PUSH0 DUP1 REVERT JUMPDEST PUSH0 DUP1 REVERT JUMPDEST PUSH0 PUSH1 0x1F NOT PUSH1 0x1F DUP4 ADD AND SWAP1 POP SWAP2 SWAP1 POP JUMP JUMPDEST PUSH32 0x4E487B7100000000000000000000000000000000000000000000000000000000 PUSH0 MSTORE PUSH1 0x41 PUSH1 0x4 MSTORE PUSH1 0x24 PUSH0 REVERT JUMPDEST PUSH3 0x484 DUP3 PUSH3 0x43C JUMP JUMPDEST DUP2 ADD DUP2 DUP2 LT PUSH8 0xFFFFFFFFFFFFFFFF DUP3 GT OR ISZERO PUSH3 0x4A6 JUMPI PUSH3 0x4A5 PUSH3 0x44C JUMP JUMPDEST JUMPDEST DUP1 PUSH1 0x40 MSTORE POP POP POP JUMP JUMPDEST PUSH0 PUSH3 0x4BA PUSH3 0x231 JUMP JUMPDEST SWAP1 POP PUSH3 0x4C8 DUP3 DUP3 PUSH3 0x479 JUMP JUMPDEST SWAP2 SWAP1 POP JUMP JUMPDEST PUSH0 PUSH8 0xFFFFFFFFFFFFFFFF DUP3 GT ISZERO PUSH3 0x4EA JUMPI PUSH3 0x4E9 PUSH3 0x44C JUMP JUMPDEST JUMPDEST PUSH3 0x4F5 DUP3 PUSH3 0x43C JUMP JUMPDEST SWAP1 POP PUSH1 0x20 DUP2 ADD SWAP1 POP SWAP2 SWAP1 POP JUMP JUMPDEST DUP3 DUP2 DUP4 CALLDATACOPY PUSH0 DUP4 DUP4 ADD MSTORE POP POP POP JUMP JUMPDEST PUSH0 PUSH3 0x526 PUSH3 0x520 DUP5 PUSH3 0x4CD JUMP JUMPDEST PUSH3 0x4AF JUMP JUMPDEST SWAP1 POP DUP3 DUP2 MSTORE PUSH1 0x20 DUP2 ADD DUP5 DUP5 DUP5 ADD GT ISZERO PUSH3 0x545 JUMPI PUSH3 0x544 PUSH3 0x438 JUMP JUMPDEST JUMPDEST PUSH3 0x552 DUP5 DUP3 DUP6 PUSH3 0x502 JUMP JUMPDEST POP SWAP4 SWAP3 POP POP POP JUMP JUMPDEST PUSH0 DUP3 PUSH1 0x1F DUP4 ADD SLT PUSH3 0x571 JUMPI PUSH3 0x570 PUSH3 0x434 JUMP JUMPDEST JUMPDEST DUP2 CALLDATALOAD PUSH3 0x583 DUP5 DUP3 PUSH1 0x20 DUP7 ADD PUSH3 0x510 JUMP JUMPDEST SWAP2 POP POP SWAP3 SWAP2 POP POP JUMP JUMPDEST PUSH0 PUSH1 0x20 DUP3 DUP5 SUB SLT ISZERO PUSH3 0x5A4 JUMPI PUSH3 0x5A3 PUSH3 0x23A JUMP JUMPDEST JUMPDEST PUSH0 DUP3 ADD CALLDATALOAD PUSH8 0xFFFFFFFFFFFFFFFF DUP2 GT ISZERO PUSH3 0x5C4 JUMPI PUSH3 0x5C3 PUSH3 0x23E JUMP JUMPDEST JUMPDEST PUSH3 0x5D2 DUP5 DUP3 DUP6 ADD PUSH3 0x55A JUMP JUMPDEST SWAP2 POP POP SWAP3 SWAP2 POP POP JUMP JUMPDEST PUSH0 DUP2 MLOAD SWAP1 POP SWAP2 SWAP1 POP JUMP JUMPDEST PUSH0 DUP3 DUP3 MSTORE PUSH1 0x20 DUP3 ADD SWAP1 POP SWAP3 SWAP2 POP POP JUMP JUMPDEST PUSH0 JUMPDEST DUP4 DUP2 LT ISZERO PUSH3 0x614 JUMPI DUP1 DUP3 ADD MLOAD DUP2 DUP5 ADD MSTORE PUSH1 0x20 DUP2 ADD SWAP1 POP PUSH3 0x5F7 JUMP JUMPDEST PUSH0 DUP5 DUP5 ADD MSTORE POP POP POP POP JUMP JUMPDEST PUSH0 PUSH3 0x62B DUP3 PUSH3 0x5DB JUMP JUMPDEST PUSH3 0x637 DUP2 DUP6 PUSH3 0x5E5 JUMP JUMPDEST SWAP4 POP PUSH3 0x649 DUP2 DUP6 PUSH1 0x20 DUP7 ADD PUSH3 0x5F5 JUMP JUMPDEST PUSH3 0x654 DUP2 PUSH3 0x43C JUMP JUMPDEST DUP5 ADD SWAP2 POP POP SWAP3 SWAP2 POP POP JUMP JUMPDEST PUSH0 PUSH1 0x20 DUP3 ADD SWAP1 POP DUP2 DUP2 SUB PUSH0 DUP4 ADD MSTORE PUSH3 0x679 DUP2 DUP5 PUSH3 0x61F JUMP JUMPDEST SWAP1 POP SWAP3 SWAP2 POP POP JUMP INVALID PUSH1 0x80 PUSH1 0x40 MSTORE PUSH1 0x40 MLOAD PUSH3 0x1202 CODESIZE SUB DUP1 PUSH3 0x1202 DUP4 CODECOPY DUP2 DUP2 ADD PUSH1 0x40 MSTORE DUP2 ADD SWAP1 PUSH3 0x29 SWAP2 SWAP1 PUSH3 0x207 JUMP JUMPDEST CALLER PUSH1 0x1 PUSH0 PUSH2 0x100 EXP DUP2 SLOAD DUP2 PUSH20 0xFFFFFFFFFFFFFFFFFFFFFFFFFFFFFFFFFFFFFFFF MUL NOT AND SWAP1 DUP4 PUSH20 0xFFFFFFFFFFFFFFFFFFFFFFFFFFFFFFFFFFFFFFFF AND MUL OR SWAP1 SSTORE POP DUP1 PUSH1 0x5 SWAP1 DUP2 PUSH3 0x7A SWAP2 SWAP1 PUSH3 0x48D JUMP JUMPDEST POP POP PUSH3 0x571 JUMP JUMPDEST PUSH0 PUSH1 0x40 MLOAD SWAP1 POP SWAP1 JUMP JUMPDEST PUSH0 DUP1 REVERT JUMPDEST PUSH0 DUP1 REVERT JUMPDEST PUSH0 DUP1 REVERT JUMPDEST PUSH0 DUP1 REVERT JUMPDEST PUSH0 PUSH1 0x1F NOT PUSH1 0x1F DUP4 ADD AND SWAP1 POP SWAP2 SWAP1 POP JUMP JUMPDEST PUSH32 0x4E487B7100000000000000000000000000000000000000000000000000000000 PUSH0 MSTORE PUSH1 0x41 PUSH1 0x4 MSTORE PUSH1 0x24 PUSH0 REVERT JUMPDEST PUSH3 0xE3 DUP3 PUSH3 0x9B JUMP JUMPDEST DUP2 ADD DUP2 DUP2 LT PUSH8 0xFFFFFFFFFFFFFFFF DUP3 GT OR ISZERO PUSH3 0x105 JUMPI PUSH3 0x104 PUSH3 0xAB JUMP JUMPDEST JUMPDEST DUP1 PUSH1 0x40 MSTORE POP POP POP JUMP JUMPDEST PUSH0 PUSH3 0x119 PUSH3 0x82 JUMP JUMPDEST SWAP1 POP PUSH3 0x127 DUP3 DUP3 PUSH3 0xD8 JUMP JUMPDEST SWAP2 SWAP1 POP JUMP JUMPDEST PUSH0 PUSH8 0xFFFFFFFFFFFFFFFF DUP3 GT ISZERO PUSH3 0x149 JUMPI PUSH3 0x148 PUSH3 0xAB JUMP JUMPDEST JUMPDEST PUSH3 0x154 DUP3 PUSH3 0x9B JUMP JUMPDEST SWAP1 POP PUSH1 0x20 DUP2 ADD SWAP1 POP SWAP2 SWAP1 POP JUMP JUMPDEST PUSH0 JUMPDEST DUP4 DUP2 LT ISZERO PUSH3 0x180 JUMPI DUP1 DUP3 ADD MLOAD DUP2 DUP5 ADD MSTORE PUSH1 0x20 DUP2 ADD SWAP1 POP PUSH3 0x163 JUMP JUMPDEST PUSH0 DUP5 DUP5 ADD MSTORE POP POP POP POP JUMP JUMPDEST PUSH0 PUSH3 0x1A1 PUSH3 0x19B DUP5 PUSH3 0x12C JUMP JUMPDEST PUSH3 0x10E JUMP JUMPDEST SWAP1 POP DUP3 DUP2 MSTORE PUSH1 0x20 DUP2 ADD DUP5 DUP5 DUP5 ADD GT ISZERO PUSH3 0x1C0 JUMPI PUSH3 0x1BF PUSH3 0x97 JUMP JUMPDEST JUMPDEST PUSH3 0x1CD DUP5 DUP3 DUP6 PUSH3 0x161 JUMP JUMPDEST POP SWAP4 SWAP3 POP POP POP JUMP JUMPDEST PUSH0 DUP3 PUSH1 0x1F DUP4 ADD SLT PUSH3 0x1EC JUMPI PUSH3 0x1EB PUSH3 0x93 JUMP JUMPDEST JUMPDEST DUP2 MLOAD PUSH3 0x1FE DUP5 DUP3 PUSH1 0x20 DUP7 ADD PUSH3 0x18B JUMP JUMPDEST SWAP2 POP POP SWAP3 SWAP2 POP POP JUMP JUMPDEST PUSH0 PUSH1 0x20 DUP3 DUP5 SUB SLT ISZERO PUSH3 0x21F JUMPI PUSH3 0x21E PUSH3 0x8B JUMP JUMPDEST JUMPDEST PUSH0 DUP3 ADD MLOAD PUSH8 0xFFFFFFFFFFFFFFFF DUP2 GT ISZERO PUSH3 0x23F JUMPI PUSH3 0x23E PUSH3 0x8F JUMP JUMPDEST JUMPDEST PUSH3 0x24D DUP5 DUP3 DUP6 ADD PUSH3 0x1D5 JUMP JUMPDEST SWAP2 POP POP SWAP3 SWAP2 POP POP JUMP JUMPDEST PUSH0 DUP2 MLOAD SWAP1 POP SWAP2 SWAP1 POP JUMP JUMPDEST PUSH32 0x4E487B7100000000000000000000000000000000000000000000000000000000 PUSH0 MSTORE PUSH1 0x22 PUSH1 0x4 MSTORE PUSH1 0x24 PUSH0 REVERT JUMPDEST PUSH0 PUSH1 0x2 DUP3 DIV SWAP1 POP PUSH1 0x1 DUP3 AND DUP1 PUSH3 0x2A5 JUMPI PUSH1 0x7F DUP3 AND SWAP2 POP JUMPDEST PUSH1 0x20 DUP3 LT DUP2 SUB PUSH3 0x2BB JUMPI PUSH3 0x2BA PUSH3 0x260 JUMP JUMPDEST JUMPDEST POP SWAP2 SWAP1 POP JUMP JUMPDEST PUSH0 DUP2 SWAP1 POP DUP2 PUSH0 MSTORE PUSH1 0x20 PUSH0 KECCAK256 SWAP1 POP SWAP2 SWAP1 POP JUMP JUMPDEST PUSH0 PUSH1 0x20 PUSH1 0x1F DUP4 ADD DIV SWAP1 POP SWAP2 SWAP1 POP JUMP JUMPDEST PUSH0 DUP3 DUP3 SHL SWAP1 POP SWAP3 SWAP2 POP POP JUMP JUMPDEST PUSH0 PUSH1 0x8 DUP4 MUL PUSH3 0x31F PUSH32 0xFFFFFFFFFFFFFFFFFFFFFFFFFFFFFFFFFFFFFFFFFFFFFFFFFFFFFFFFFFFFFFFF DUP3 PUSH3 0x2E2 JUMP JUMPDEST PUSH3 0x32B DUP7 DUP4 PUSH3 0x2E2 JUMP JUMPDEST SWAP6 POP DUP1 NOT DUP5 AND SWAP4 POP DUP1 DUP7 AND DUP5 OR SWAP3 POP POP POP SWAP4 SWAP3 POP POP POP JUMP JUMPDEST PUSH0 DUP2 SWAP1 POP SWAP2 SWAP1 POP JUMP JUMPDEST PUSH0 DUP2 SWAP1 POP SWAP2 SWAP1 POP JUMP JUMPDEST PUSH0 PUSH3 0x375 PUSH3 0x36F PUSH3 0x369 DUP5 PUSH3 0x343 JUMP JUMPDEST PUSH3 0x34C JUMP JUMPDEST PUSH3 0x343 JUMP JUMPDEST SWAP1 POP SWAP2 SWAP1 POP JUMP JUMPDEST PUSH0 DUP2 SWAP1 POP SWAP2 SWAP1 POP JUMP JUMPDEST PUSH3 0x390 DUP4 PUSH3 0x355 JUMP JUMPDEST PUSH3 0x3A8 PUSH3 0x39F DUP3 PUSH3 0x37C JUMP JUMPDEST DUP5 DUP5 SLOAD PUSH3 0x2EE JUMP JUMPDEST DUP3 SSTORE POP POP POP POP JUMP JUMPDEST PUSH0 SWAP1 JUMP JUMPDEST PUSH3 0x3BE PUSH3 0x3B0 JUMP JUMPDEST PUSH3 0x3CB DUP2 DUP5 DUP5 PUSH3 0x385 JUMP JUMPDEST POP POP POP JUMP JUMPDEST JUMPDEST DUP2 DUP2 LT ISZERO PUSH3 0x3F2 JUMPI PUSH3 0x3E6 PUSH0 DUP3 PUSH3 0x3B4 JUMP JUMPDEST PUSH1 0x1 DUP2 ADD SWAP1 POP PUSH3 0x3D1 JUMP JUMPDEST POP POP JUMP JUMPDEST PUSH1 0x1F DUP3 GT ISZERO PUSH3 0x441 JUMPI PUSH3 0x40B DUP2 PUSH3 0x2C1 JUMP JUMPDEST PUSH3 0x416 DUP5 PUSH3 0x2D3 JUMP JUMPDEST DUP2 ADD PUSH1 0x20 DUP6 LT ISZERO PUSH3 0x426 JUMPI DUP2 SWAP1 POP JUMPDEST PUSH3 0x43E PUSH3 0x435 DUP6 PUSH3 0x2D3 JUMP JUMPDEST DUP4 ADD DUP3 PUSH3 0x3D0 JUMP JUMPDEST POP POP JUMPDEST POP POP POP JUMP JUMPDEST PUSH0 DUP3 DUP3 SHR SWAP1 POP SWAP3 SWAP2 POP POP JUMP JUMPDEST PUSH0 PUSH3 0x463 PUSH0 NOT DUP5 PUSH1 0x8 MUL PUSH3 0x446 JUMP JUMPDEST NOT DUP1 DUP4 AND SWAP2 POP POP SWAP3 SWAP2 POP POP JUMP JUMPDEST PUSH0 PUSH3 0x47D DUP4 DUP4 PUSH3 0x452 JUMP JUMPDEST SWAP2 POP DUP3 PUSH1 0x2 MUL DUP3 OR SWAP1 POP SWAP3 SWAP2 POP POP JUMP JUMPDEST PUSH3 0x498 DUP3 PUSH3 0x256 JUMP JUMPDEST PUSH8 0xFFFFFFFFFFFFFFFF DUP2 GT ISZERO PUSH3 0x4B4 JUMPI PUSH3 0x4B3 PUSH3 0xAB JUMP JUMPDEST JUMPDEST PUSH3 0x4C0 DUP3 SLOAD PUSH3 0x28D JUMP JUMPDEST PUSH3 0x4CD DUP3 DUP3 DUP6 PUSH3 0x3F6 JUMP JUMPDEST PUSH0 PUSH1 0x20 SWAP1 POP PUSH1 0x1F DUP4 GT PUSH1 0x1 DUP2 EQ PUSH3 0x503 JUMPI PUSH0 DUP5 ISZERO PUSH3 0x4EE JUMPI DUP3 DUP8 ADD MLOAD SWAP1 POP JUMPDEST PUSH3 0x4FA DUP6 DUP3 PUSH3 0x470 JUMP JUMPDEST DUP7 SSTORE POP PUSH3 0x569 JUMP JUMPDEST PUSH1 0x1F NOT DUP5 AND PUSH3 0x513 DUP7 PUSH3 0x2C1 JUMP JUMPDEST PUSH0 JUMPDEST DUP3 DUP2 LT ISZERO PUSH3 0x53C JUMPI DUP5 DUP10 ADD MLOAD DUP3 SSTORE PUSH1 0x1 DUP3 ADD SWAP2 POP PUSH1 0x20 DUP6 ADD SWAP5 POP PUSH1 0x20 DUP2 ADD SWAP1 POP PUSH3 0x515 JUMP JUMPDEST DUP7 DUP4 LT ISZERO PUSH3 0x55C JUMPI DUP5 DUP10 ADD MLOAD PUSH3 0x558 PUSH1 0x1F DUP10 AND DUP3 PUSH3 0x452 JUMP JUMPDEST DUP4 SSTORE POP JUMPDEST PUSH1 0x1 PUSH1 0x2 DUP9 MUL ADD DUP9 SSTORE POP POP POP JUMPDEST POP POP POP POP POP POP JUMP JUMPDEST PUSH2 0xC83 DUP1 PUSH3 0x57F PUSH0 CODECOPY PUSH0 RETURN INVALID PUSH1 0x80 PUSH1 0x40 MSTORE CALLVALUE DUP1 ISZERO PUSH2 0xF JUMPI PUSH0 DUP1 REVERT JUMPDEST POP PUSH1 0x4 CALLDATASIZE LT PUSH2 0xF3 JUMPI PUSH0 CALLDATALOAD PUSH1 0xE0 SHR DUP1 PUSH4 0x704B6C02 GT PUSH2 0x95 JUMPI DUP1 PUSH4 0xE512FCF2 GT PUSH2 0x64 JUMPI DUP1 PUSH4 0xE512FCF2 EQ PUSH2 0x249 JUMPI DUP1 PUSH4 0xEC5630CA EQ PUSH2 0x267 JUMPI DUP1 PUSH4 0xF851A440 EQ PUSH2 0x285 JUMPI DUP1 PUSH4 0xFC8C79B5 EQ PUSH2 0x2A3 JUMPI PUSH2 0xF3 JUMP JUMPDEST DUP1 PUSH4 0x704B6C02 EQ PUSH2 0x1D7 JUMPI DUP1 PUSH4 0xBB3ACCF0 EQ PUSH2 0x1F3 JUMPI DUP1 PUSH4 0xBEFFAF09 EQ PUSH2 0x20F JUMPI DUP1 PUSH4 0xDBD695F3 EQ PUSH2 0x22D JUMPI PUSH2 0xF3 JUMP JUMPDEST DUP1 PUSH4 0x57CBB4CF GT PUSH2 0xD1 JUMPI DUP1 PUSH4 0x57CBB4CF EQ PUSH2 0x173 JUMPI DUP1 PUSH4 0x5A58CD4C EQ PUSH2 0x18F JUMPI DUP1 PUSH4 0x5C0BADFC EQ PUSH2 0x199 JUMPI DUP1 PUSH4 0x6E9960C3 EQ PUSH2 0x1B9 JUMPI PUSH2 0xF3 JUMP JUMPDEST DUP1 PUSH4 0x1567739 EQ PUSH2 0xF7 JUMPI DUP1 PUSH4 0x1CAB59A4 EQ PUSH2 0x127 JUMPI DUP1 PUSH4 0x4B47E588 EQ PUSH2 0x157 JUMPI JUMPDEST PUSH0 DUP1 REVERT JUMPDEST PUSH2 0x111 PUSH1 0x4 DUP1 CALLDATASIZE SUB DUP2 ADD SWAP1 PUSH2 0x10C SWAP2 SWAP1 PUSH2 0x7E0 JUMP JUMPDEST PUSH2 0x2BF JUMP JUMPDEST PUSH1 0x40 MLOAD PUSH2 0x11E SWAP2 SWAP1 PUSH2 0x823 JUMP JUMPDEST PUSH1 0x40 MLOAD DUP1 SWAP2 SUB SWAP1 RETURN JUMPDEST PUSH2 0x141 PUSH1 0x4 DUP1 CALLDATASIZE SUB DUP2 ADD SWAP1 PUSH2 0x13C SWAP2 SWAP1 PUSH2 0x7E0 JUMP JUMPDEST PUSH2 0x2D4 JUMP JUMPDEST PUSH1 0x40 MLOAD PUSH2 0x14E SWAP2 SWAP1 PUSH2 0x823 JUMP JUMPDEST PUSH1 0x40 MLOAD DUP1 SWAP2 SUB SWAP1 RETURN JUMPDEST PUSH2 0x171 PUSH1 0x4 DUP1 CALLDATASIZE SUB DUP2 ADD SWAP1 PUSH2 0x16C SWAP2 SWAP1 PUSH2 0x7E0 JUMP JUMPDEST PUSH2 0x31A JUMP JUMPDEST STOP JUMPDEST PUSH2 0x18D PUSH1 0x4 DUP1 CALLDATASIZE SUB DUP2 ADD SWAP1 PUSH2 0x188 SWAP2 SWAP1 PUSH2 0x866 JUMP JUMPDEST PUSH2 0x35D JUMP JUMPDEST STOP JUMPDEST PUSH2 0x197 PUSH2 0x3A3 JUMP JUMPDEST STOP JUMPDEST PUSH2 0x1A1 PUSH2 0x3DD JUMP JUMPDEST PUSH1 0x40 MLOAD PUSH2 0x1B0 SWAP4 SWAP3 SWAP2 SWAP1 PUSH2 0x93D JUMP JUMPDEST PUSH1 0x40 MLOAD DUP1 SWAP2 SUB SWAP1 RETURN JUMPDEST PUSH2 0x1C1 PUSH2 0x49D JUMP JUMPDEST PUSH1 0x40 MLOAD PUSH2 0x1CE SWAP2 SWAP1 PUSH2 0x979 JUMP JUMPDEST PUSH1 0x40 MLOAD DUP1 SWAP2 SUB SWAP1 RETURN JUMPDEST PUSH2 0x1F1 PUSH1 0x4 DUP1 CALLDATASIZE SUB DUP2 ADD SWAP1 PUSH2 0x1EC SWAP2 SWAP1 PUSH2 0x7E0 JUMP JUMPDEST PUSH2 0x4C4 JUMP JUMPDEST STOP JUMPDEST PUSH2 0x20D PUSH1 0x4 DUP1 CALLDATASIZE SUB DUP2 ADD SWAP1 PUSH2 0x208 SWAP2 SWAP1 PUSH2 0xAD2 JUMP JUMPDEST PUSH2 0x506 JUMP JUMPDEST STOP JUMPDEST PUSH2 0x217 PUSH2 0x520 JUMP JUMPDEST PUSH1 0x40 MLOAD PUSH2 0x224 SWAP2 SWAP1 PUSH2 0xBD0 JUMP JUMPDEST PUSH1 0x40 MLOAD DUP1 SWAP2 SUB SWAP1 RETURN JUMPDEST PUSH2 0x247 PUSH1 0x4 DUP1 CALLDATASIZE SUB DUP2 ADD SWAP1 PUSH2 0x242 SWAP2 SWAP1 PUSH2 0xAD2 JUMP JUMPDEST PUSH2 0x5AB JUMP JUMPDEST STOP JUMPDEST PUSH2 0x251 PUSH2 0x61D JUMP JUMPDEST PUSH1 0x40 MLOAD PUSH2 0x25E SWAP2 SWAP1 PUSH2 0x979 JUMP JUMPDEST PUSH1 0x40 MLOAD DUP1 SWAP2 SUB SWAP1 RETURN JUMPDEST PUSH2 0x26F PUSH2 0x645 JUMP JUMPDEST PUSH1 0x40 MLOAD PUSH2 0x27C SWAP2 SWAP1 PUSH2 0x979 JUMP JUMPDEST PUSH1 0x40 MLOAD DUP1 SWAP2 SUB SWAP1 RETURN JUMPDEST PUSH2 0x28D PUSH2 0x66A JUMP JUMPDEST PUSH1 0x40 MLOAD PUSH2 0x29A SWAP2 SWAP1 PUSH2 0x979 JUMP JUMPDEST PUSH1 0x40 MLOAD DUP1 SWAP2 SUB SWAP1 RETURN JUMPDEST PUSH2 0x2BD PUSH1 0x4 DUP1 CALLDATASIZE SUB DUP2 ADD SWAP1 PUSH2 0x2B8 SWAP2 SWAP1 PUSH2 0x866 JUMP JUMPDEST PUSH2 0x68D JUMP JUMPDEST STOP JUMPDEST PUSH1 0x3 PUSH1 0x20 MSTORE DUP1 PUSH0 MSTORE PUSH1 0x40 PUSH0 KECCAK256 PUSH0 SWAP2 POP SWAP1 POP SLOAD DUP2 JUMP JUMPDEST PUSH0 PUSH1 0x3 PUSH0 DUP4 PUSH20 0xFFFFFFFFFFFFFFFFFFFFFFFFFFFFFFFFFFFFFFFF AND PUSH20 0xFFFFFFFFFFFFFFFFFFFFFFFFFFFFFFFFFFFFFFFF AND DUP2 MSTORE PUSH1 0x20 ADD SWAP1 DUP2 MSTORE PUSH1 0x20 ADD PUSH0 KECCAK256 SLOAD SWAP1 POP SWAP2 SWAP1 POP JUMP JUMPDEST DUP1 PUSH1 0x1 PUSH0 PUSH2 0x100 EXP DUP2 SLOAD DUP2 PUSH20 0xFFFFFFFFFFFFFFFFFFFFFFFFFFFFFFFFFFFFFFFF MUL NOT AND SWAP1 DUP4 PUSH20 0xFFFFFFFFFFFFFFFFFFFFFFFFFFFFFFFFFFFFFFFF AND MUL OR SWAP1 SSTORE POP POP JUMP JUMPDEST DUP1 PUSH1 0x3 PUSH0 DUP5 PUSH20 0xFFFFFFFFFFFFFFFFFFFFFFFFFFFFFFFFFFFFFFFF AND PUSH20 0xFFFFFFFFFFFFFFFFFFFFFFFFFFFFFFFFFFFFFFFF AND DUP2 MSTORE PUSH1 0x20 ADD SWAP1 DUP2 MSTORE PUSH1 0x20 ADD PUSH0 KECCAK256 DUP2 SWAP1 SSTORE POP POP POP JUMP JUMPDEST PUSH1 0x1 PUSH0 SWAP1 SLOAD SWAP1 PUSH2 0x100 EXP SWAP1 DIV PUSH20 0xFFFFFFFFFFFFFFFFFFFFFFFFFFFFFFFFFFFFFFFF AND PUSH20 0xFFFFFFFFFFFFFFFFFFFFFFFFFFFFFFFFFFFFFFFF AND SELFDESTRUCT JUMPDEST PUSH0 DUP1 PUSH1 0x60 PUSH1 0x1 PUSH0 SWAP1 SLOAD SWAP1 PUSH2 0x100 EXP SWAP1 DIV PUSH20 0xFFFFFFFFFFFFFFFFFFFFFFFFFFFFFFFFFFFFFFFF AND PUSH1 0x4 SLOAD PUSH1 0x5 DUP1 DUP1 SLOAD PUSH2 0x414 SWAP1 PUSH2 0xC1D JUMP JUMPDEST DUP1 PUSH1 0x1F ADD PUSH1 0x20 DUP1 SWAP2 DIV MUL PUSH1 0x20 ADD PUSH1 0x40 MLOAD SWAP1 DUP2 ADD PUSH1 0x40 MSTORE DUP1 SWAP3 SWAP2 SWAP1 DUP2 DUP2 MSTORE PUSH1 0x20 ADD DUP3 DUP1 SLOAD PUSH2 0x440 SWAP1 PUSH2 0xC1D JUMP JUMPDEST DUP1 ISZERO PUSH2 0x48B JUMPI DUP1 PUSH1 0x1F LT PUSH2 0x462 JUMPI PUSH2 0x100 DUP1 DUP4 SLOAD DIV MUL DUP4 MSTORE SWAP2 PUSH1 0x20 ADD SWAP2 PUSH2 0x48B JUMP JUMPDEST DUP3 ADD SWAP2 SWAP1 PUSH0 MSTORE PUSH1 0x20 PUSH0 KECCAK256 SWAP1 JUMPDEST DUP2 SLOAD DUP2 MSTORE SWAP1 PUSH1 0x1 ADD SWAP1 PUSH1 0x20 ADD DUP1 DUP4 GT PUSH2 0x46E JUMPI DUP3 SWAP1 SUB PUSH1 0x1F AND DUP3 ADD SWAP2 JUMPDEST POP POP POP POP POP SWAP1 POP SWAP3 POP SWAP3 POP SWAP3 POP SWAP1 SWAP2 SWAP3 JUMP JUMPDEST PUSH0 DUP1 PUSH0 SWAP1 SLOAD SWAP1 PUSH2 0x100 EXP SWAP1 DIV PUSH20 0xFFFFFFFFFFFFFFFFFFFFFFFFFFFFFFFFFFFFFFFF AND SWAP1 POP SWAP1 JUMP JUMPDEST DUP1 PUSH0 DUP1 PUSH2 0x100 EXP DUP2 SLOAD DUP2 PUSH20 0xFFFFFFFFFFFFFFFFFFFFFFFFFFFFFFFFFFFFFFFF MUL NOT AND SWAP1 DUP4 PUSH20 0xFFFFFFFFFFFFFFFFFFFFFFFFFFFFFFFFFFFFFFFF AND MUL OR SWAP1 SSTORE POP POP JUMP JUMPDEST DUP1 PUSH1 0x2 SWAP1 DUP1 MLOAD SWAP1 PUSH1 0x20 ADD SWAP1 PUSH2 0x51C SWAP3 SWAP2 SWAP1 PUSH2 0x6D3 JUMP JUMPDEST POP POP JUMP JUMPDEST PUSH1 0x60 PUSH1 0x2 DUP1 SLOAD DUP1 PUSH1 0x20 MUL PUSH1 0x20 ADD PUSH1 0x40 MLOAD SWAP1 DUP2 ADD PUSH1 0x40 MSTORE DUP1 SWAP3 SWAP2 SWAP1 DUP2 DUP2 MSTORE PUSH1 0x20 ADD DUP3 DUP1 SLOAD DUP1 ISZERO PUSH2 0x5A1 JUMPI PUSH1 0x20 MUL DUP3 ADD SWAP2 SWAP1 PUSH0 MSTORE PUSH1 0x20 PUSH0 KECCAK256 SWAP1 JUMPDEST DUP2 PUSH0 SWAP1 SLOAD SWAP1 PUSH2 0x100 EXP SWAP1 DIV PUSH20 0xFFFFFFFFFFFFFFFFFFFFFFFFFFFFFFFFFFFFFFFF AND PUSH20 0xFFFFFFFFFFFFFFFFFFFFFFFFFFFFFFFFFFFFFFFF AND DUP2 MSTORE PUSH1 0x20 ADD SWAP1 PUSH1 0x1 ADD SWAP1 DUP1 DUP4 GT PUSH2 0x558 JUMPI JUMPDEST POP POP POP POP POP SWAP1 POP SWAP1 JUMP JUMPDEST PUSH1 0x1 PUSH0 SWAP1 SLOAD SWAP1 PUSH2 0x100 EXP SWAP1 DIV PUSH20 0xFFFFFFFFFFFFFFFFFFFFFFFFFFFFFFFFFFFFFFFF AND PUSH20 0xFFFFFFFFFFFFFFFFFFFFFFFFFFFFFFFFFFFFFFFF AND CALLER PUSH20 0xFFFFFFFFFFFFFFFFFFFFFFFFFFFFFFFFFFFFFFFF AND EQ PUSH2 0x603 JUMPI PUSH0 DUP1 REVERT JUMPDEST DUP1 PUSH1 0x2 SWAP1 DUP1 MLOAD SWAP1 PUSH1 0x20 ADD SWAP1 PUSH2 0x619 SWAP3 SWAP2 SWAP1 PUSH2 0x6D3 JUMP JUMPDEST POP POP JUMP JUMPDEST PUSH0 PUSH1 0x1 PUSH0 SWAP1 SLOAD SWAP1 PUSH2 0x100 EXP SWAP1 DIV PUSH20 0xFFFFFFFFFFFFFFFFFFFFFFFFFFFFFFFFFFFFFFFF AND SWAP1 POP SWAP1 JUMP JUMPDEST PUSH1 0x1 PUSH0 SWAP1 SLOAD SWAP1 PUSH2 0x100 EXP SWAP1 DIV PUSH20 0xFFFFFFFFFFFFFFFFFFFFFFFFFFFFFFFFFFFFFFFF AND DUP2 JUMP JUMPDEST PUSH0 DUP1 SLOAD SWAP1 PUSH2 0x100 EXP SWAP1 DIV PUSH20 0xFFFFFFFFFFFFFFFFFFFFFFFFFFFFFFFFFFFFFFFF AND DUP2 JUMP JUMPDEST DUP1 PUSH1 0x3 PUSH0 DUP5 PUSH20 0xFFFFFFFFFFFFFFFFFFFFFFFFFFFFFFFFFFFFFFFF AND PUSH20 0xFFFFFFFFFFFFFFFFFFFFFFFFFFFFFFFFFFFFFFFF AND DUP2 MSTORE PUSH1 0x20 ADD SWAP1 DUP2 MSTORE PUSH1 0x20 ADD PUSH0 KECCAK256 DUP2 SWAP1 SSTORE POP POP POP JUMP JUMPDEST DUP3 DUP1 SLOAD DUP3 DUP3 SSTORE SWAP1 PUSH0 MSTORE PUSH1 0x20 PUSH0 KECCAK256 SWAP1 DUP2 ADD SWAP3 DUP3 ISZERO PUSH2 0x749 JUMPI SWAP2 PUSH1 0x20 MUL DUP3 ADD JUMPDEST DUP3 DUP2 GT ISZERO PUSH2 0x748 JUMPI DUP3 MLOAD DUP3 PUSH0 PUSH2 0x100 EXP DUP2 SLOAD DUP2 PUSH20 0xFFFFFFFFFFFFFFFFFFFFFFFFFFFFFFFFFFFFFFFF MUL NOT AND SWAP1 DUP4 PUSH20 0xFFFFFFFFFFFFFFFFFFFFFFFFFFFFFFFFFFFFFFFF AND MUL OR SWAP1 SSTORE POP SWAP2 PUSH1 0x20 ADD SWAP2 SWAP1 PUSH1 0x1 ADD SWAP1 PUSH2 0x6F1 JUMP JUMPDEST JUMPDEST POP SWAP1 POP PUSH2 0x756 SWAP2 SWAP1 PUSH2 0x75A JUMP JUMPDEST POP SWAP1 JUMP JUMPDEST JUMPDEST DUP1 DUP3 GT ISZERO PUSH2 0x771 JUMPI PUSH0 DUP2 PUSH0 SWAP1 SSTORE POP PUSH1 0x1 ADD PUSH2 0x75B JUMP JUMPDEST POP SWAP1 JUMP JUMPDEST PUSH0 PUSH1 0x40 MLOAD SWAP1 POP SWAP1 JUMP JUMPDEST PUSH0 DUP1 REVERT JUMPDEST PUSH0 DUP1 REVERT JUMPDEST PUSH0 PUSH20 0xFFFFFFFFFFFFFFFFFFFFFFFFFFFFFFFFFFFFFFFF DUP3 AND SWAP1 POP SWAP2 SWAP1 POP JUMP JUMPDEST PUSH0 PUSH2 0x7AF DUP3 PUSH2 0x786 JUMP JUMPDEST SWAP1 POP SWAP2 SWAP1 POP JUMP JUMPDEST PUSH2 0x7BF DUP2 PUSH2 0x7A5 JUMP JUMPDEST DUP2 EQ PUSH2 0x7C9 JUMPI PUSH0 DUP1 REVERT JUMPDEST POP JUMP JUMPDEST PUSH0 DUP2 CALLDATALOAD SWAP1 POP PUSH2 0x7DA DUP2 PUSH2 0x7B6 JUMP JUMPDEST SWAP3 SWAP2 POP POP JUMP JUMPDEST PUSH0 PUSH1 0x20 DUP3 DUP5 SUB SLT ISZERO PUSH2 0x7F5 JUMPI PUSH2 0x7F4 PUSH2 0x77E JUMP JUMPDEST JUMPDEST PUSH0 PUSH2 0x802 DUP5 DUP3 DUP6 ADD PUSH2 0x7CC JUMP JUMPDEST SWAP2 POP POP SWAP3 SWAP2 POP POP JUMP JUMPDEST PUSH0 DUP2 SWAP1 POP SWAP2 SWAP1 POP JUMP JUMPDEST PUSH2 0x81D DUP2 PUSH2 0x80B JUMP JUMPDEST DUP3 MSTORE POP POP JUMP JUMPDEST PUSH0 PUSH1 0x20 DUP3 ADD SWAP1 POP PUSH2 0x836 PUSH0 DUP4 ADD DUP5 PUSH2 0x814 JUMP JUMPDEST SWAP3 SWAP2 POP POP JUMP JUMPDEST PUSH2 0x845 DUP2 PUSH2 0x80B JUMP JUMPDEST DUP2 EQ PUSH2 0x84F JUMPI PUSH0 DUP1 REVERT JUMPDEST POP JUMP JUMPDEST PUSH0 DUP2 CALLDATALOAD SWAP1 POP PUSH2 0x860 DUP2 PUSH2 0x83C JUMP JUMPDEST SWAP3 SWAP2 POP POP JUMP JUMPDEST PUSH0 DUP1 PUSH1 0x40 DUP4 DUP6 SUB SLT ISZERO PUSH2 0x87C JUMPI PUSH2 0x87B PUSH2 0x77E JUMP JUMPDEST JUMPDEST PUSH0 PUSH2 0x889 DUP6 DUP3 DUP7 ADD PUSH2 0x7CC JUMP JUMPDEST SWAP3 POP POP PUSH1 0x20 PUSH2 0x89A DUP6 DUP3 DUP7 ADD PUSH2 0x852 JUMP JUMPDEST SWAP2 POP POP SWAP3 POP SWAP3 SWAP1 POP JUMP JUMPDEST PUSH2 0x8AD DUP2 PUSH2 0x7A5 JUMP JUMPDEST DUP3 MSTORE POP POP JUMP JUMPDEST PUSH0 DUP2 MLOAD SWAP1 POP SWAP2 SWAP1 POP JUMP JUMPDEST PUSH0 DUP3 DUP3 MSTORE PUSH1 0x20 DUP3 ADD SWAP1 POP SWAP3 SWAP2 POP POP JUMP JUMPDEST PUSH0 JUMPDEST DUP4 DUP2 LT ISZERO PUSH2 0x8EA JUMPI DUP1 DUP3 ADD MLOAD DUP2 DUP5 ADD MSTORE PUSH1 0x20 DUP2 ADD SWAP1 POP PUSH2 0x8CF JUMP JUMPDEST PUSH0 DUP5 DUP5 ADD MSTORE POP POP POP POP JUMP JUMPDEST PUSH0 PUSH1 0x1F NOT PUSH1 0x1F DUP4 ADD AND SWAP1 POP SWAP2 SWAP1 POP JUMP JUMPDEST PUSH0 PUSH2 0x90F DUP3 PUSH2 0x8B3 JUMP JUMPDEST PUSH2 0x919 DUP2 DUP6 PUSH2 0x8BD JUMP JUMPDEST SWAP4 POP PUSH2 0x929 DUP2 DUP6 PUSH1 0x20 DUP7 ADD PUSH2 0x8CD JUMP JUMPDEST PUSH2 0x932 DUP2 PUSH2 0x8F5 JUMP JUMPDEST DUP5 ADD SWAP2 POP POP SWAP3 SWAP2 POP POP JUMP JUMPDEST PUSH0 PUSH1 0x60 DUP3 ADD SWAP1 POP PUSH2 0x950 PUSH0 DUP4 ADD DUP7 PUSH2 0x8A4 JUMP JUMPDEST PUSH2 0x95D PUSH1 0x20 DUP4 ADD DUP6 PUSH2 0x814 JUMP JUMPDEST DUP2 DUP2 SUB PUSH1 0x40 DUP4 ADD MSTORE PUSH2 0x96F DUP2 DUP5 PUSH2 0x905 JUMP JUMPDEST SWAP1 POP SWAP5 SWAP4 POP POP POP POP JUMP JUMPDEST PUSH0 PUSH1 0x20 DUP3 ADD SWAP1 POP PUSH2 0x98C PUSH0 DUP4 ADD DUP5 PUSH2 0x8A4 JUMP JUMPDEST SWAP3 SWAP2 POP POP JUMP JUMPDEST PUSH0 DUP1 REVERT JUMPDEST PUSH32 0x4E487B7100000000000000000000000000000000000000000000000000000000 PUSH0 MSTORE PUSH1 0x41 PUSH1 0x4 MSTORE PUSH1 0x24 PUSH0 REVERT JUMPDEST PUSH2 0x9CC DUP3 PUSH2 0x8F5 JUMP JUMPDEST DUP2 ADD DUP2 DUP2 LT PUSH8 0xFFFFFFFFFFFFFFFF DUP3 GT OR ISZERO PUSH2 0x9EB JUMPI PUSH2 0x9EA PUSH2 0x996 JUMP JUMPDEST JUMPDEST DUP1 PUSH1 0x40 MSTORE POP POP POP JUMP JUMPDEST PUSH0 PUSH2 0x9FD PUSH2 0x775 JUMP JUMPDEST SWAP1 POP PUSH2 0xA09 DUP3 DUP3 PUSH2 0x9C3 JUMP JUMPDEST SWAP2 SWAP1 POP JUMP JUMPDEST PUSH0 PUSH8 0xFFFFFFFFFFFFFFFF DUP3 GT ISZERO PUSH2 0xA28 JUMPI PUSH2 0xA27 PUSH2 0x996 JUMP JUMPDEST JUMPDEST PUSH1 0x20 DUP3 MUL SWAP1 POP PUSH1 0x20 DUP2 ADD SWAP1 POP SWAP2 SWAP1 POP JUMP JUMPDEST PUSH0 DUP1 REVERT JUMPDEST PUSH0 PUSH2 0xA4F PUSH2 0xA4A DUP5 PUSH2 0xA0E JUMP JUMPDEST PUSH2 0x9F4 JUMP JUMPDEST SWAP1 POP DUP1 DUP4 DUP3 MSTORE PUSH1 0x20 DUP3 ADD SWAP1 POP PUSH1 0x20 DUP5 MUL DUP4 ADD DUP6 DUP2 GT ISZERO PUSH2 0xA72 JUMPI PUSH2 0xA71 PUSH2 0xA39 JUMP JUMPDEST JUMPDEST DUP4 JUMPDEST DUP2 DUP2 LT ISZERO PUSH2 0xA9B JUMPI DUP1 PUSH2 0xA87 DUP9 DUP3 PUSH2 0x7CC JUMP JUMPDEST DUP5 MSTORE PUSH1 0x20 DUP5 ADD SWAP4 POP POP PUSH1 0x20 DUP2 ADD SWAP1 POP PUSH2 0xA74 JUMP JUMPDEST POP POP POP SWAP4 SWAP3 POP POP POP JUMP JUMPDEST PUSH0 DUP3 PUSH1 0x1F DUP4 ADD SLT PUSH2 0xAB9 JUMPI PUSH2 0xAB8 PUSH2 0x992 JUMP JUMPDEST JUMPDEST DUP2 CALLDATALOAD PUSH2 0xAC9 DUP5 DUP3 PUSH1 0x20 DUP7 ADD PUSH2 0xA3D JUMP JUMPDEST SWAP2 POP POP SWAP3 SWAP2 POP POP JUMP JUMPDEST PUSH0 PUSH1 0x20 DUP3 DUP5 SUB SLT ISZERO PUSH2 0xAE7 JUMPI PUSH2 0xAE6 PUSH2 0x77E JUMP JUMPDEST JUMPDEST PUSH0 DUP3 ADD CALLDATALOAD PUSH8 0xFFFFFFFFFFFFFFFF DUP2 GT ISZERO PUSH2 0xB04 JUMPI PUSH2 0xB03 PUSH2 0x782 JUMP JUMPDEST JUMPDEST PUSH2 0xB10 DUP5 DUP3 DUP6 ADD PUSH2 0xAA5 JUMP JUMPDEST SWAP2 POP POP SWAP3 SWAP2 POP POP JUMP JUMPDEST PUSH0 DUP2 MLOAD SWAP1 POP SWAP2 SWAP1 POP JUMP JUMPDEST PUSH0 DUP3 DUP3 MSTORE PUSH1 0x20 DUP3 ADD SWAP1 POP SWAP3 SWAP2 POP POP JUMP JUMPDEST PUSH0 DUP2 SWAP1 POP PUSH1 0x20 DUP3 ADD SWAP1 POP SWAP2 SWAP1 POP JUMP JUMPDEST PUSH2 0xB4B DUP2 PUSH2 0x7A5 JUMP JUMPDEST DUP3 MSTORE POP POP JUMP JUMPDEST PUSH0 PUSH2 0xB5C DUP4 DUP4 PUSH2 0xB42 JUMP JUMPDEST PUSH1 0x20 DUP4 ADD SWAP1 POP SWAP3 SWAP2 POP POP JUMP JUMPDEST PUSH0 PUSH1 0x20 DUP3 ADD SWAP1 POP SWAP2 SWAP1 POP JUMP JUMPDEST PUSH0 PUSH2 0xB7E DUP3 PUSH2 0xB19 JUMP JUMPDEST PUSH2 0xB88 DUP2 DUP6 PUSH2 0xB23 JUMP JUMPDEST SWAP4 POP PUSH2 0xB93 DUP4 PUSH2 0xB33 JUMP JUMPDEST DUP1 PUSH0 JUMPDEST DUP4 DUP2 LT ISZERO PUSH2 0xBC3 JUMPI DUP2 MLOAD PUSH2 0xBAA DUP9 DUP3 PUSH2 0xB51 JUMP JUMPDEST SWAP8 POP PUSH2 0xBB5 DUP4 PUSH2 0xB68 JUMP JUMPDEST SWAP3 POP POP PUSH1 0x1 DUP2 ADD SWAP1 POP PUSH2 0xB96 JUMP JUMPDEST POP DUP6 SWAP4 POP POP POP POP SWAP3 SWAP2 POP POP JUMP JUMPDEST PUSH0 PUSH1 0x20 DUP3 ADD SWAP1 POP DUP2 DUP2 SUB PUSH0 DUP4 ADD MSTORE PUSH2 0xBE8 DUP2 DUP5 PUSH2 0xB74 JUMP JUMPDEST SWAP1 POP SWAP3 SWAP2 POP POP JUMP JUMPDEST PUSH32 0x4E487B7100000000000000000000000000000000000000000000000000000000 PUSH0 MSTORE PUSH1 0x22 PUSH1 0x4 MSTORE PUSH1 0x24 PUSH0 REVERT JUMPDEST PUSH0 PUSH1 0x2 DUP3 DIV SWAP1 POP PUSH1 0x1 DUP3 AND DUP1 PUSH2 0xC34 JUMPI PUSH1 0x7F DUP3 AND SWAP2 POP JUMPDEST PUSH1 0x20 DUP3 LT DUP2 SUB PUSH2 0xC47 JUMPI PUSH2 0xC46 PUSH2 0xBF0 JUMP JUMPDEST JUMPDEST POP SWAP2 SWAP1 POP JUMP INVALID LOG2 PUSH5 0x6970667358 0x22 SLT KECCAK256 XOR 0xCD 0xBA MOD 0xB6 CREATE PUSH21 0xB95A17D7950F2DC5C5A7D790E0E8BA5EBC3CC7B9BF PUSH19 0x3A789964736F6C63430008170033A264697066 PUSH20 0x58221220AD38F57FB3C2B9792F79D695CC91DD7E GAS 0xAE CHAINID 0x5D PUSH29 0x695BF28E76156EE0EB29EE64736F6C6343000817003300000000000000 "},"gasEstimates":{"creation":{"codeDepositCost":"1265800","executionCost":"1313","totalCost":"1267113"},"external":{"createCampaign(string)":"infinite","deployedCampaigns(uint256)":"infinite","getDeployedCampaigns()":"infinite"}},"methodIdentifiers":{"createCampaign(string)":"fdbf9ff1","deployedCampaigns(uint256)":"339d50a5","getDeployedCampaigns()":"4acb9d4f"}},"storageLayout":{"storage":[{"astId":5,"contract":"EstatePlanning.sol:EstatePlanningFactory","label":"deployedCampaigns","offset":0,"slot":"0","type":"t_array(t_contract(EstatePlanning)235)dyn_storage"}],"types":{"t_array(t_contract(EstatePlanning)235)dyn_storage":{"base":"t_contract(EstatePlanning)235","encoding":"dynamic_array","label":"contract EstatePlanning[]","numberOfBytes":"32"},"t_contract(EstatePlanning)235":{"encoding":"inplace","label":"contract EstatePlanning","numberOfBytes":"20"}}},"userdoc":{"kind":"user","methods":{},"version":1}}